:020000040000FA
:0600000002011A02239F19
:03002B00022B7F26
:03003300022B5449
:03003B00022BE9AC
:03004300022AD3BB
:0300530002241272
:03006B00022BA7BE
:03007B00022B292C
:1000830002220BE5C754F84401F5C77901220000A9
:100093000080FB120086B90003020104E479217891
:1000A30008B800028004F709D8FCE479297802B87B
:1000B30000028004F709D8FCE49002817876790A7B
:1000C3008002F0A3D8FCD9FA781A90014A7A01BACF
:1000D30000028007E493A3F608DAF97AF67B0B9023
:1000E300014B78CB79048015E493A3AD82AE838A68
:1000F300828B83F0A3AA82AB838D828E83D8E9D9C6
:10010300E77582267583DA740312012C7582917563
:100113008300740012012C75D00075813F7518811E
:10012300751902759F00020096C09FF59FE473D076
:100133009F22D083D082C09FE493C0E0740193C018
:10014300E0740293F59F2201FF0000B40000280031
:100153002800283075A000A000A000A0000008001F
:1001630008E001F000100010001000100010001053
:100173000050005000500010001000D00700000095
:100183000000000F0001000500307507001000019A
:100193000081FF00000000FF2B0749073107FF0222
:1001A300020208025000A0000000E80302D081010F
:1001B3000000B88102D6810100004D0C02BE81010E
:1001C3000000B50202D6810100004E0C02C081017D
:1001D3000000CB0202D6810100004F0C02C2810154
:1001E3000000CD0202D681010000500C02C4810838
:1001F3000000CE0202D681010000510C02C681012B
:100203000000520CFF0100FF2002D081010000B268
:100213008102D681010000B60C02C88100000000F3
:100223000002CA810300001B03010D010D010D0132
:100233000D010D010D010D010D010D010D010D014B
:100243000D010D950FAD0F8F0FFFFF424D140020D1
:10025300006400126402D081010000AF8102D681E4
:10026300010000010D02CE81010000020D02CA81CE
:100273000300005908020202020202020202010DF7
:10028300000000100102D081010000B58102D68177
:10029300010000230D02D4810100005F0802D68112
:1002A300010000240D02EC81010000E58002D681EB
:1002B300010000250D02E881010000F28002D681D1
:1002C300010000260D02E681010000FD8002D681B7
:1002D300010000270D02E481010000088102D6819C
:1002E300010000280D02DE81010000138102D68186
:1002F300010000290D02DC810100001E8102D6816C
:100303000100002A0D02DA81010000D78002D681A4
:100313000100002B0D02D8810100002C0D01E80320
:10032300053F100AFF0001307503020106000000BB
:1003330000000000000000000000000000000000BA
:10034300000000000000000000FFFF0600800CE832
:10035300030160EA00000C09504D322E3554455319
:10036300544552051250002003020A0002010603FD
:1003730002F0FF0F18504D322E355F54455354454C
:100383005200DB140000F9140A436861726163745C
:100393006572697374696320310002436861726135
:1003A3006374657269737469632032000A43686118
:1003B30072616374657269737469632033001043F7
:1003C3006861726163746572697374696320340070
:1003D3000A43686172616374657269737469632047
:1003E30035000A4368617261637465726973746985
:1003F30063203600024368617261637465726973D6
:100403007469632037000A436861726163746572BB
:1004130069737469632038000243686172616374AD
:100423006572697374696320390002D08101000029
:10043300BB8102D681010000360E02F08103000069
:10044300BF0B02EA81010000370E02D681010000D2
:10045300480E02F281010000C00B02EA8101000094
:10046300490E02D6810100005A0E02F481030000F6
:10047300D20B02EA810100005B0E02D6810100006B
:100483006C0E02F681000000D30B02CA8103000048
:10049300E70B02EA810100006D0E02D68101000024
:1004A3007E0E02F881030000ED0B02EA81010000D9
:1004B3007F0E02D681010000900E02FA8103000034
:1004C300EE0B02EA81010000910E02D681010000C9
:1004D300A20E02FC81030000EF0B02EA810100007F
:1004E300A30E02D681010000B40E02FE81030000B8
:1004F300F00B02EA81010000B50E02D68101000073
:10050300C60E020082010000F50B02EA8101000021
:10051300C70E12013513D90312013525D903120170
:10052300355ED90312013593D9031201359CC803F3
:10053300120135B3C803120135E4C8031201351F94
:10054300C90312013549C90312013573C9031201E5
:10055300358AC903120135A1C903120135B8C9038C
:10056300120135E1C903120135F4C9031201350A39
:10057300CA031201351DCA0312013544CA0312010D
:100583003519C1021201351DC20212013555C202CD
:1005930012013578C20212013583C202120135A657
:1005A300C202120135B5C3021201358AC402120117
:1005B3003505C5021201358DC502120135C8C502C4
:1005C300120135FFC5021201358DC60212013566CF
:1005D300C702120135C6C702120135D1C702120183
:1005E3003550C80212013553C80212013556C802EC
:1005F300120135E5C802120135E8C80212013518A7
:10060300C90212013542C90212013530CA02120170
:1006130035E2CA021201353498031201355C98039E
:100623001201358A9803120135C198031201351F4F
:1006330099031201356A9903120135B59903120121
:1006430035F599031201353B9A03120135699A0373
:10065300120135269B03120135309B031201353DF0
:100663009B03120135709B031201353C9C0312015D
:1006730035489C03120135609C031201356A9C03C3
:100683001201352CD6031201353AD6031201355225
:10069300D6031201356AD603120135F6DC011201C5
:1006A30035A2DD011201351DDE011201353EDF01E8
:1006B3001201357ADF0112013523E0011201350AF7
:1006C300E1011201356EE201120135C5E2011201A9
:1006D3003546E30112013536E40112013583E401A5
:1006E30012013509E5011201353BE5011201354FD0
:1006F300E70112013591E701120135AFE70112015C
:100703003532E80112013506E901120135CEE9015E
:1007130012013592EE0212013565EF021201350E18
:10072300F00212013561F00212013511F1021201DA
:10073300359DF10212013589F202120135B8F20238
:10074300120135CBF30212013513F402120135E81D
:10075300F40212013524F50212013540F5021201AB
:10076300357AFF011201354DB20312013563B2032D
:1007730012013589B203120135A5B303120135AF56
:10078300B303120135E4B403120135DCB5031201DE
:100793003553FA0112013583FB01120135B6FB0112
:1007A30012013500FC01120135C7FD01120135A507
:1007B300BD011201350FBE011201356EBF011201D9
:1007C300357EBF01120135ABBF0112013502C001F5
:1007D300120135ABC001120135B2C1011201357CE2
:1007E300C201120135DCC3011201351FC40112011C
:1007F30035C4C40112013511C50112013537C501D4
:1008030012013545C7011201354AC7011201354F9F
:10081300C9011201359CC9011201350FCA01120128
:100823003542CA01120135E4CA011201358DCB01EB
:10083300120135C5CB01120135C8CB0112013510A8
:10084300CC0112013550CC01120135A7CC011201A4
:100853003540BC0312013558BC03120135A0BC035B
:10086300120135B6BC03120135FDBC03120135116B
:10087300BE031201359EBE03120135E9BE03120108
:1008830035A44800120135B04800120135EB480089
:10089300120135304900120135F049001201357655
:1008A3004A00120135DB4A00120135074B001201E1
:1008B30035404B001201357E4D00120135624F0069
:1008C3001201354851001201358B5200120135D9FE
:1008D3005400120135EB5500120135365700120151
:1008E300354658001201356358001201359E5800F1
:1008F300120135C05800120135235900120135E4A5
:100903005D00120135795E00120135CA5E001201E5
:1009130035F15E00120135435F00120135615F005E
:10092300120135BB5F00120135A460001201351AB4
:1009330062001201359E6200120135F19C0312011F
:1009430035FB9C031201353E9D03120135599D036E
:10095300120135E99D03120135119E031201354E33
:100963009E03120135859E03120135AE9E031201CB
:1009730035239F03120135389F031201354D9F0321
:100983001201357E9F03120135929F03120135B781
:100993009F03120135F19F031201351DA0031201BC
:1009A3003555A003120135D4A0031201351DA1034F
:1009B30012013547A10312013572A103120135312A
:1009C300D40312013518A90212013546A9021201F6
:1009D3003594AA0212013574AB0212013593AB02AE
:1009E30012013510AC0212013553AC02120135A9C4
:1009F300AD021201356AAE02120135F1B0021201E5
:100A03003592B10212013588B20212013585B30263
:100A1300120135DFB4021201356AB5021201353E07
:100A2300CF03120135A7CF03120135FBCF03120108
:100A33003522D00312013553D0031201359AA10395
:100A430012013507A2031201354EA20312013566C6
:100A5300A30312013562A40312013545A503120154
:100A630035AFDE02120135F1DE02120135C3DF02BA
:100A73001201359CE00212013596E102120135782C
:100A8300E202120135E1E20212013597E30212019B
:100A9300350BE40212013577E402120135A0E402BA
:100AA3001201351AE502120135B3E50212013518B8
:100AB300E6021201352DE60212013573E602120138
:100AC300358CE602120135F1E602120135F4E60235
:100AD30012013547B9031201356FB903120135AD60
:100AE300B9031201356BBA03120135D2BA031201ED
:100AF30035EEBA0312013516BB0312013546BB03AB
:100B030012013555BB03120135D2BB03120135F86F
:100B1300BB0312013594CD0112013572CF011201CD
:100B230035A4D101120135E0D1011201350DD201F5
:100B3300120135F7D20112013542D3011201358D6D
:100B4300D3011201359FD301120135DFD301120105
:100B53003514D40112013562D40112013591D40147
:100B6300120135B4D40112013501D50112013586C4
:100B7300D501120135A0D701120135DFD9011201C8
:100B83003520DA01120135C2DB0112013503DC0124
:100B930012013576DC01120135CCDC01120135037B
:100BA3009C02120135019D021201359AA302120122
:100BB30035BBA50212013586A702120135EEA80244
:100BC300120135056300120135B46300120135E1EA
:100BD30063001201352764001201356765001201B5
:100BE30035FD660012013577670012013592670003
:100BF3001201350D6800120135676900120135C70E
:100C03006A00120135CD6B001201352E6D00120101
:100C130035476D00120135A56D00120135936E0045
:100C2300120135C66E00120135366F00120135B060
:100C33006F00120135FA6F00120135C47000120102
:100C43003599710012013578720012013503730072
:100C5300120135717300120135E57300120135106D
:100C63007400120135CF740012013534760012017D
:100C73003551760012013570760012013561770027
:100C8300120135867700120135B077001201352B3A
:100C93007800120135857800120135EE79001201D2
:100CA300359C7A00120135DD7A001201352F8E0250
:100CB3001201357D8E02120135898E0212013567CC
:100CC3008F02120135988F02120135C98F0212016A
:100CD30035499002120135819002120135D39002F9
:100CE3001201351091021201352D93021201355371
:100CF30095021201353E970212013528990212011D
:100D030035E17F0012013514970112013544970133
:100D13001201351D9E01120135A29F011201359F5B
:100D2300A50112013587A601120135C4A6011201DE
:100D330035E7A60112013518A70112013521A701D4
:100D43001201352BA70112013519A8011201350F24
:100D5300A901120135058201120135048601120130
:100D6300350A8601120135458D011201355E920166
:100D73001201357FAE0312013515AF031201352B76
:100D8300AF03120135A1AF0312013515B0031201F0
:100D93003553B003120135C7B00312013540B10317
:100DA30012013549B10312013555B1031201356AF8
:100DB300B103120135A8B103120135BEB10312010B
:100DC300351DB20312013507A60312013514A6031C
:100DD3001201352EA6031201356DA603120135ABA0
:100DE300A60312013510A70312013525A70312012B
:100DF3003530A7031201353DA70312013554A7036C
:100E030012013562A7031201356DA703120135796B
:100E1300A70312013588A70312013593A703120113
:100E230035B6A7031201355DA8031201356DA8037A
:100E330012013587A803120135A4A803120135C096
:100E4300A803120135E5A803120135F0A803120126
:100E53003505A90312013519A9031201357AA9032E
:100E630012013580A90312013586A9031201358CBD
:100E7300A903120135A4A903120135D7A90312014D
:100E8300350580021201358980021201353881024D
:100E9300120135978202120135B88402120135A47A
:100EA3008502120135D98502120135FB8502120133
:100EB30035AA8602120135A28802120135CB8802B7
:100EC3001201355D89021201358F89021201359CA9
:100ED3008902120135F38902120135198A021201BE
:100EE30035868C02120135898D02120135E18D029E
:100EF300120135E7EB01120135F1EC01120135D88E
:100F0300ED01120135E2ED0112013504EE0112018A
:100F13003510EE01120135A9EF01120135D8EF01A9
:100F2300120135F4F0011201354DF101120135B30F
:100F3300F20112013592F301120135EEF3011201B0
:100F4300355BF40112013596F401120135D5F40134
:100F53001201358EF701120135A8F701120135345C
:100F6300F80112013542F8011201359BF801120113
:100F730035A9F8011201351CF90112013580F90177
:100F8300120135CAF901120135EBB5021201350D13
:100F9300B60212013533B80212013548BB02120101
:100FA3003560BC0212013513BD02120135F5BD02D5
:100FB3001201350CCC0312013531CC03120135A3D8
:100FC300CC0312013518E70212013521E7021201A1
:100FD300352AE70212013501E802120135B2E902AE
:100FE300120135E8E90212013522EA0212013558ED
:100FF300EA0212013592EA02120135C6EA0212012F
:1010030035F2EA021201353BEB0212013575EB02B0
:10101300120135BEEB0212013516EC021201354BFB
:10102300EC02120135A6EC02120135E0EC021201CA
:101033003531ED0212013567ED02120135A1ED02E2
:10104300120135CFED02120135F2ED02120135C561
:10105300D703120135F1D7031201354CD80312011E
:101063003556D80312013566D803120135008003C3
:101073001201350E8003120135548003120135A786
:101083008003120135EF80031201354981031201F8
:10109300356F81031201357D8103120135D9810337
:1010A3001201350C82031201351F8203120135AA86
:1010B3008203120135438303120135C083031201F6
:1010C30035F98303120135818403120135D8840372
:1010D3001201353585031201354785031201356D3C
:1010E3008503120135768503120135BD860312018E
:1010F300350DD303120135D9D3031201352BC403A4
:1011030012013570C403120135B0C4031201354D09
:10111300C60312013503D7031201351ED70312018B
:10112300352ED70312013585D70312013570D80345
:10113300120135F4860312013514870312013504B5
:1011430088031201354D88031201356D880312019E
:1011530035AB88031201350689031201354489032F
:101163001201358E89031201355A8C03120135C3DE
:101173008C03120135D3D10312013504D2031201BA
:10118300352ED2031201354ED203120135A6D203F6
:1011930012013554AA03120135CCAA03120135DD1D
:1011A300AA031201356EAB03120135E6B503120132
:1011B300351CB6031201352FB6031201356DB60384
:1011C3001201358EB60312013513B703120135D65A
:1011D300B70312013555B80312013535B9031201AE
:1011E300350D7B00120135327B00120135627B0025
:1011F300120135AED9031201356C2C00120135658D
:101203002F00120135E830001201358C3100120134
:1012130035213200120135A93200120135D33200D3
:101223001201357937001201351038001201353FAC
:101233003900120135A33900120135573A00120162
:10124300350A3D00120135443D00120135AE3D0023
:101253001201350C3E001201356A3E00120135C7FA
:101263003E00120135B63F00120135FC3F0012016A
:1012730035414000120135624000120135A9410099
:10128300120135BD4100120135C44200120135F18E
:1012930042001201351A4300120135604300120166
:1012A300357E4300120135BC43001201350346006D
:1012B3001201353C4600120135CC46001201353788
:1012C30047001201357048001201354AD503120157
:1012D300355BD503120135E47F00120135ACDA0327
:1012E30012013599D003120135A9D003120135C675
:1012F300D003120135C2D10312013513BF0312010A
:1013030035AEBF03120135A4C103120135B1CD03BC
:1013130012013500CE0312013532CE03120135C45A
:10132300CE0312013592C603120135D1C603120151
:101333003545C70312013574C703120135D7C703F7
:1013430012013542C8031201358BC8031201358ED1
:10135300C803120135869203120135A892031201C4
:10136300353A93031201353894031201354D97032F
:10137300120135AD9703120135169803120135F8A2
:101383007F00120135BFC10312013571C30312017E
:1013930035DDC30312013528C403120135D48C0390
:1013A300120135DC8E03120135508F031201354CC7
:1013B3009003120135339103120135FE910312019B
:1013C300352D92031201353092031201353E9203FB
:1013D3001201355292031201356A920312013578D4
:1013E300920312013556CA03120135B5CA0312011D
:1013F3003552CB03120135B8CB03120135D3FC02AE
:1014030012013506FD0212013500FE0212013536C6
:10141300FF0212013553CB021201352FCC02120108
:101423003576CC02120135B3CC021201351FCD0241
:1014330012013577CD02120135E7CD02120135BF16
:10144300CE02120135ACCF0212013530D0021201A7
:1014530035CCD10212013555D202120135C2D20266
:1014630012013538D3021201354FD30212013583ED
:10147300D402120135D5D40212013527AB01120172
:1014830035AEAF0112013593B201120135B9B20184
:10149300120135E2B20112013594B3011201357024
:1014A300B5011201357CB6011201356DBB01120184
:1014B30035A6BB01120135EABB01120135F2BC01AD
:1014C3001201354ED5021201354DD80212013534C1
:1014D300D90212013560D90212013591D9021201E4
:1014E30035EFDA0212013566DB02120135AFDB029A
:1014F30012013500DC0212013545DC02120135818F
:10150300DD0212013537DE0212013568DE021201F7
:1015130035B5F50212013502F6021201351FF60246
:1015230012013591F70212013596F8021201351CAA
:10153300FA0212013528FC0212013565FC02120180
:101543003580DA03120135CBDA03E7667010080938
:10155300E766700A0809E76670040809E76622E08F
:1015630066701008A3E066700A08A3E066700408BA
:10157300A3E06622C3E7960809E7960809E79608F9
:1015830009E79622C3E09608A3E09608A3E096082D
:10159300A3E09622C008C3E096F50808A3E09642AC
:1015A3000808A3E096420808A3E09645087001D313
:1015B300D00822080808EAC0E0EBC0E086F0E7A400
:1015C300FA180986F0E7A42AFA180986F0E7A42A8C
:1015D300FA180986F0E7A42AFA1986F0E7A4FBE5CE
:1015E300F02AFA190886F0E7A42BFBE5F03AFA197A
:1015F3000886F0E7A42BFBE5F03AFA18180986F001
:10160300E7A4C5F02BFBE43AFA1908E7C5F0C6A432
:1016130026F6E5F03BFBE43AFA1886F0E7A4F6E594
:10162300F00826F6E43B08F6E43A08F6D0E0FBD0EF
:10163300E0FA22E4CFC0E0E4CEC0E0E4CDC0E0E4D1
:10164300CCC0E075F020E626F608E633F608E6336C
:10165300F608E633F6181818EC33FCED33FDEE33D9
:10166300FEEF33FFC3EC9709ED9709EE9709EF9768
:10167300191919400FFFEC97FC09ED97FD09EE9737
:10168300FE191906D5F0BFECF709EDF709EEF709D6
:10169300EFF7191919D0E0FCD0E0FDD0E0FED0E05F
:1016A300FF226016080808C6C313C618C613C61857
:1016B300C613C618C613C6D5E0EA2270090808087F
:1016C300226016181818C6C333C608C633C608C620
:1016D30033C608C633C6D5E0EA22E627F60809E68C
:1016E30037F60809E637F60809E637F622E026F664
:1016F30008A3E036F608A3E036F608A3E036F622A0
:10170300E026F008A3E036F008A3E036F008A3E0F3
:1017130036F022C3E697F60809E697F60809E69736
:10172300F60809E697F622C3E096F008A3E096F0E0
:1017330008A3E096F008A3E096F022E657F608091E
:10174300E657F60809E657F60809E657F622E05683
:10175300F608A3E056F608A3E056F608A3E056F60B
:1017630022E056F008A3E056F008A3E056F008A3E1
:10177300E056F022E0F608A3E0F608A3E0F608A39B
:10178300E0F622E6F008A3E6F008A3E6F008A3E6F5
:10179300F022E0FAA3E0FBA3E0FCA3E0FD22EAF0E1
:1017A300A3EBF0A3ECF0A3EDF022E0F8A3E0F9A3A0
:1017B300E0FAA3E0FB22E8F0A3E9F0A3EAF0A3EB4D
:1017C300F022CAC0E0E6F0A308DAFAD0E0FA22CAAF
:1017D300C0E0E0A3C582CCC582C583CDC583F0A399
:1017E300C582CCC582C583CDC583DAE6D0E0CA22E3
:1017F300C3E498F8E499F91218348026C3E49AFAFA
:10180300E49BFBE920E7E9121834E498F8E499F93A
:1018130022C3E498F8E499F9121834E498F8E499A7
:10182300F9C3E49AFAE49BFB22EB20E7CFE920E734
:10183300E0B90010BB0008E88AF084F8AAF022E4BB
:10184300FBC8FA22EB70227B10C833C8C933C933F3
:101853005007C39AC3DBF280069A50012ADBEAC819
:1018630033F4C8C933F4C9FA2275F008E4C833C89D
:10187300C933C933C99AC99B5004C92AC93BD5F096
:10188300ECFBC833F4C8E4C9FA22600D08C6A2E72A
:1018930013C618C613C6D5E0F322600C08C6C313DB
:1018A300C618C613C6D5E0F422700422600D18C60C
:1018B300C333C608C633C6D5E0F41822251810AFC3
:1018C30008F518400C15198008F51840021519D2AF
:1018D300AF2200C0D0251810AF08F518500C051919
:1018E3008008F51850020519D2AFD0D0222518F57B
:1018F3008210AF08F518400C15198008F51840023E
:101903001519D2AF851983222518F582E43519F507
:1019130083222518F8E43519F9222518FAE4351934
:10192300FB222518FCE43519FD22E4732518C58232
:10193300C0E0E51934FFC583C0E0E518C3958224F0
:10194300F810AF0885831985821880088583198567
:101953008218D2AFCEF0A3E520F0A37808E608F012
:10196300A3DEFAEFF0A3E58124FAF8E608F0A3E694
:1019730008F0A3E608F0A30808E608F0A3E608F0D9
:10198300A315811581D0E0FED0E0F81581158115EE
:1019930081E8C0E0EEC0E0222518C582C0E0E51969
:1019A30034FFC583C0E0E518C3958224F910AF085E
:1019B3008583198582188008858319858218D2AF9B
:1019C300CEF0A3E520F0A37808E608F0A3DEFAEF53
:1019D300F0A3E58124FBF8E608F0A3E608F0A308EA
:1019E30008E608F0A3E608F0A315811581D0E0FE10
:1019F300D0E0F815811581E8C0E0EEC0E02285193A
:101A030083851882E0A3FEE0A3F5207808E0A3F61F
:101A130008DFFAE0A3FFE0A3C0E0E0A3C0E0E0A397
:101A2300C0E0E0A3C0E0E0A3C0E010AF08858218E7
:101A33008583198008858218858319D2AFD083D016
:101A430082020132851983851882E0A3FEE0A3F5A3
:101A5300207808E0A3F608DFFAE0A3FFE0A3C0E0E4
:101A6300E0A3C0E0E0A3C0E0E0A3C0E010AF0885BE
:101A730082188583198008858218858319D2AFD08F
:101A830083D08222C0D02518C582C0E0E51934FF77
:101A9300C583C0E0E518C3958224F310AF0885839E
:101AA300198582188008858319858218D2AFC8F0FA
:101AB300A3E9F0A3EAF0A3EBF0A37908E709F0A305
:101AC300D8FAECF0A3EDF0A3EEF0A3EFF0A3D0E08F
:101AD300F0A3D0E0F0A3D0E0F0A3E520F0A3E5F07D
:101AE300F0A322851983851882E0C0E0A3E0F9A35F
:101AF300E0FAA3E0FBA37808E0F608A3DFFAE0FC32
:101B0300A3E0FDA3E0FEA3E0FFA3E0C0E0A3E0C0E9
:101B1300E0A3E0F5D0A3E0F520A3E0A3F5F010AF38
:101B2300088583198582188008858319858218D2D0
:101B3300AFD082D083D0E0F8D0E032740480067452
:101B43000280027401C0E0F4041218F0D0E012170E
:101B5300C5227404800474028000CCC0E0EDC0E0B0
:101B6300E518C39CCCAD1950011D10AF068C188D20
:101B73001980068C188D19D2AF1217D2D0E0FDD080
:101B8300E0FC22D083D082E9C0E0E493A3C386F0D3
:101B9300C5F095F0F908E493A386F0C5F095F070CD
:101BA3000BE493A3C3994005E9048002A3E475F011
:101BB30002A42582F582E5F03583F583D0E0F9E4CC
:101BC30093A3C0E0E493C0E022D083D082ECC0E0D2
:101BD300EDC0E0E493A3FCE493A3FDED4C600D1290
:101BE3001C18EC24FFFCED34FFFD80EFE493A3FC11
:101BF300E493A3FDED4C600D121C57EC24FFFCEDA8
:101C030034FFFD80EFD0E0FDD0E0FCE493A3C0E01F
:101C1300E493C0E022C0E0C3E49396087401939672
:101C230018400FE4936670080874019366187000F7
:101C33007019A3A3C3E49396087401939618A3A3FE
:101C4300400DD0E0D0E0D0E0021C08A3A3A3A3A3DF
:101C5300A3D0E022C0E0C0F088F0E49366700808E7
:101C630074019366187000A8F0A3A3700BD0F0D092
:0F1C7300E0D0E0D0E0021C08A3A3D0F0D0E02224
:101C840074F512199BEAFEEBFFEE2434F8EF3400EE
:101C9400F988088909EE2435F582EF3400F583E0EC
:101CA400F8EE2437F582EF3400F583E0F50AEC858D
:101CB4000AF0A4FCAAF0850AF0EDA42AFDE82CF8A9
:101CC400E43DF97A257B00121834EA8508828509F7
:101CD40083F0F8740758F97401B900028004C3331F
:101CE400D9FCFAE8131313541FF8EE28F8EF340064
:101CF400F9E8245DF582E93400F583E05A6008EEE2
:101D04002434F582EF802CEE2434F582EF3400F590
:101D140083E0C0E0EE2436F582EF3400F583E0F58D
:101D2400F0D0E084A8F0EE28F8EF3400F9E8243885
:101D3400F582E93400F583E0F97F04021A4774F56B
:101D440012199BEAFEEBFFEE2434F582EF3400F522
:101D540083E0C0E0EE2435F582EF3400F583D0E073
:101D6400F08E828F83A3A3A3A3A3A3A3C082C08363
:101D74008E828F83A3A3A3A3A3E0F8A3E0F9D08367
:101D8400D082E0C398F508A3E099F509EE247FF525
:101D940082EF3400F583E064017069EE2480F582FB
:101DA400EF3400F583E0F8A3E0F98E828F83A3A3D8
:101DB400A3A3A3A3A3E0FCA3E0FD8E828F83A3A32C
:101DC400A3A3A3E0FAA3E0FBC3EA9CEB9D5010C3DA
:101DD400EC98ED99402EC3EA98EB995027800EC3F6
:101DE400EA98EB994007C3EC98ED9940177CDE7DA7
:101DF40004EEFAEFFB120C5FEE247FF582EF340061
:101E0400F583E4F0EE2434F8EF3400F9E8FCE9FD5E
:101E1400EE2435F582EF3400F583E0F8EE2437F54F
:101E240082EF3400F583E0F50AE508850AF0A4F5AD
:101E340008AAF0850AF0E509A42AF509E82508F8B6
:101E4400E43509F97A257B00121834EA8C828D83F3
:101E5400F0F8740758F97401B900028004C333D947
:101E6400FCFAE8131313541FF8EE28F8EF3400F9C2
:101E7400E8245DF582E93400F583E05A6008EE2435
:101E840034F582EF802CEE2434F582EF3400F583B0
:101E9400E0C0E0EE2436F582EF3400F583E0F5F09F
:101EA400D0E084A8F0EE28F8EF3400F9E82438F5FF
:101EB40082E93400F583E0F9122ABF021D3DC08295
:101EC400C083851882851983E0F8A3E0F9C3EA9CEE
:101ED400EB9D5010C3EC98ED99401BC3EA98EB9925
:101EE4005014800EC3EA98EB994007C3EC98ED991F
:101EF4004004790180027900D083D08222EAC39C15
:101F0400FAEB9DFB2274EF12199B9003A4E0640882
:101F14006005E06407702A9061C8E060249003D2F1
:101F2400E0F4601DE0F875F003A4C8AAF02AF9747F
:101F3400D428FE740339FF8E828F83A3A3A3E07099
:101F440003022039906060E0C0E0EE2468F582EF7F
:101F54003400F583D0E0F0750C47750D0575080065
:101F6400750900E5D914F50AE5D95403F50E60178F
:101F74007403650E605CE50A6010EE2467F582EF79
:101F84003400F583E0700302201E900542E06401F2
:101F9400602AEE2482F582EF3400F583E060047851
:101FA4000480027800850A08E508C398FA95E0FBE6
:101FB400120B278A088B09EA45097005120E638003
:101FC40074EE2482F582EF3400F583E070048A0C09
:101FD4008B0DE50A6012850C82850D83F50BE5D91E
:101FE400F0A3150BE50B70F6EE2482F582EF3400B6
:101FF400F583E0604474FC250AF50A780C121B4250
:10200400AC0AA90EEEFAEFFB120CFB74021218D5FF
:10201400E97026AA08AB091213EB793D8E828F83EF
:10202400A3A3A3A3E0FA7B001209FBEEFAEFFB12D1
:102034000C77120D0D790080747403650E6056855B
:102044000A107511007810121B42AC0CAD0DAA08D1
:10205400AB09120CD774021218D5EE2468F582EF7E
:102064003400F583E064807004747F8001E0F50C33
:10207400780C121B46E50EF50C780C121B46A90AC7
:10208400AC08AD099003D2E0FA7B001209BF7402D8
:102094001218D580139003A4E06408600BAC0CAD57
:1020A4000DEEFAEFFB120D67120E6F79017F0A0233
:1020B4001A4774F512199B74FC1218BFEAFEEBFF61
:1020C4008908A2AFE433F509C2AF806AEE2463F84D
:1020D400EF3400F97A007B00A2AFE433F50AC2AF13
:1020E40088828983E0FCA3E0FDEC4D603A88828914
:1020F40083E0FAA3E0FB8A828B83E0FCA3E0FD8803
:10210400828983ECF0A3EDF08A828B83E4F0A3F060
:1021140088828983E0FCA3E0FDEC4D700A88828903
:1021240083A3A3E4F0A3F0E50AA2E092AF1213EBB9
:102134009004E5E004F0EE2463F582EF3400F583C7
:10214400E0F8A3E0F9E849603DEE2463F582EF345A
:1021540000F583E02402FAA3E03400FBEA2402F54C
:102164000AEB3400F50B780A121B428A828B83E057
:10217400FCA3E0F9EEFAEFFB120C9B74021218D5E3
:10218400E970030220D09004E5E060639004E6E087
:10219400F89004E5E0C398500C7402650870509000
:1021A40004E7E0604A8E828F83A3A3A3A3E085188B
:1021B40082851983F0A3E4F09004E5E0F874021238
:1021C400190BE8F0A3E4F09004E5E0F89004E4E0EF
:1021D40028F0740212190BAC82AD8385188285191C
:1021E40083AA82AB8379011209CB9004E5E4F0E57C
:1021F40009A2E092AF74041218D5021D3D0000003C
:102204008521878522C622C0E0C0D0E8C0E0E9C0AD
:10221400E0EAC0E0EBC0E0ECC0E0EDC0E0EEC0E01E
:10222400C008C009C00AC00BC082C083C0F0A2AFFE
:10223400E433FEC2AF759B00906182E0A2E05012CD
:10224400E591A2E0500C7591FE74016521700312B2
:102254001F09E0A2E55051E591A2E5504B7591DFCD
:102264009003A4E064076005E064087023740165CA
:1022740021703579019003D2E0FA75F003A4CAA85D
:10228400F028FB74D42AFA74033BFB1220B680189E
:10229400E0640D70139003C6E004F064287002E457
:1022A400F07A00E0F9120E75906182E0A2E6400334
:1022B400022352E591A2E640030223527591BF9096
:1022C40003A4E064057008120D9D120DA980031289
:1022D4000DA3752100120E03E99003A5F0790012F5
:1022E4000DF7120BD57A017B009003A3E0F91210CD
:1022F400C7907803E064427055900546E014F0708E
:102304004DC2AF12230A00782AD0E0F618D0E0F6C6
:10231400E59F540770057509FF800375097FC4C0E4
:10232400E07829E6F50808E65509F509740B7808FC
:1023340012189DD0E02508F8906270E0A2E740F8FA
:10234400E8C333906272F0906270E0D2E0F0906182
:1023540081E0A2E35009E5E9A2E3500375E9F7A39C
:10236400E0A2E75009E591A2E7500375917FEEA240
:10237400E092AFD0F0D083D082D00BD00AD009D075
:1023840008D0E0FED0E0FDD0E0FCD0E0FBD0E0FAE5
:10239400D0E0F9D0E0F8D0D0D0E032C0E0C0D0C076
:1023A40082C083906183E0A2E05009E5BFA2E050BF
:1023B4000375BFFEE0A2E15009E5BFA2E150037539
:1023C400BFFDE0A2E25009E5BFA2E2500375BFFBE6
:1023D400E0A2E35009E5BFA2E3500375BFF7E0A212
:1023E400E45009E5BFA2E4500375BFEFE0A2E55055
:1023F40009E5BFA2E5500375BFDFE0A2E65009E599
:10240400BFA2E6500375BFBFD083D0828088C0E0EE
:10241400C0D0E8C0E0E9C0E0EAC0E0EBC0E0ECC056
:10242400E0EDC0E0C0F0E5A7A2E6500FE5A1A2E60A
:10243400500953A7BF75A1BF122477E5A7A2E550A1
:102444000CE5A1A2E5500653A7DF75A1DFE5A7A21D
:10245400E15009E5A1A2E1500375A1FDE5A7A2E2BF
:10246400500CE5A1A2E2500653A7FB75A1FBD0F0E6
:1024740002238874F812199B7521019003A4E06467
:10248400067015120D2B8A828B83A3A3A3A3A3A387
:10249400E0FAA3E0FB120D8BA2AFE433FED2AF90BF
:1024A40003AAE0640170187A207B009003A3E0F98A
:1024B4001211577A207B009003A3E0F91210CD90FB
:1024C4006182E0D2E6F0900543E0602185C6228077
:1024D400169003A9E064017008E5C654F84405F5B4
:1024E400C653BEFC1222047401652160E4EEA2E02E
:1024F40092AF7F01021A47008E238F24858228859C
:102504008327851882851983E0CEA3E0CF852882AE
:10251400852783EBC9EAC8EDCBECCA75F010C3E894
:1025240033C8E933C9EA33CAEB33CBC3EA9EF52691
:10253400EB9FF525B35004AB25AA26EC33CCED3341
:10254400CDD5F0DAAE23AF242274E912199B74F8C6
:102554001218BF851882851983ECF0A3EDF08A0860
:102564008B099003A4E024F7C39405500675080171
:102574000226E4120D2B8A0A8B0BAE0AAF0BEE4F28
:1025840070030226E1AC08AD09740212190BAA8289
:10259400AB83120DBB8E828F83A3A3750CFF750DC5
:1025A400FF750EFF750F00780C1217517402121983
:1025B4000B7510FF7511FF7512FF7513007810125B
:1025C4001751780C7910121577502A780C7910125B
:1025D40017167508017509C8750A00750B00780887
:1025E400790C1215775052850C08850D09850E0A51
:1025F400850F0B80507514017515C8751600751775
:102604000085100885110985120A85130B7808794D
:102614000C12171678147908121577401C750800E7
:10262400750900750A00750B0178087910121716E0
:102634007808790C1216DD800C750801750900758F
:102644000A00750B00740978081216BE750C19F58A
:102654000DF50EF50F7808790C1216368E828F83DD
:10266400A3A3A3A3A3A3E0F8A3E0F97AD07B031266
:102674001834880C890DE4F50EF50F7808790C12DE
:1026840016DD740612190BE0F8A3E0F97AD07B0387
:10269400121834E8FA8A0CE4F50D7808790C12154E
:1026A4007750077808790C1217169003A4E0640891
:1026B400600AE064066005E06405702D750C0D7811
:1026C4000C79081215774021750CF4750DFF750E01
:1026D400FF750FFF7808790C1216DD800C75080061
:1026E400750900750A00750B00851882851983E049
:1026F400F8A3E0F583888278081217867408121804
:10270400D57F10021A4774F712199B120DCD90054C
:1027140041E064017010906245E4F0A3F053F4F3D7
:1027240043FE0C5390F3120D79E5C654804449F5E9
:10273400C6E59E547F644970F8906185740FF090EB
:10274400053FE0F47002A3E0604E900540E06008AD
:1027540014601B14602E80407508017509009005F3
:102764003FE078081218ACE508F45280802A750816
:102774000175090090053FE078081218ACE508F4EB
:102784005290801475080175090090053FE078089F
:102794001218ACE508F452A079007F02021A4774BB
:1027A400F712199BE9FEEAFF74016E700C7A807BC4
:1027B400009003A3E0F91210C7902C64E493F46032
:1027C40008E493F9120BC9800953C680E59E547F2F
:1027D40070FA120D7F900541E064017003120BE161
:1027E40090053FE0F47002A3E0604B900540E06088
:1027F4000814601A14602C803D7508017509009056
:10280400053FE078081218ACE50842808028750876
:102814000175090090053FE078081218ACE50842FC
:1028240090801375080175090090053FE07808123F
:1028340018ACE50842A0120DCD120D2B8A088B09A5
:10284400A808A909E8496015E5E170FCE82414F535
:1028540082E93400F583E0F46003E0F5E174016F8C
:10286400700A7A019003A3E0F912112102279E74E1
:10287400ED12199B8A088B098C0A8D0B741312199B
:102884000B780C1217777808790C121577751001EC
:102894007511C875120075130050127808790C125E
:1028A40017167810790812157750168010780C795D
:1028B400081217167810790C1215774004790180E4
:1028C4000279007F0C021A4774ED12199B8A088B57
:1028D400098C0A8D0B741312190B780C1217777864
:1028E4000C790812157740117808790C121716AA7A
:1028F40008AB09AC0AAD0B80227510007511007588
:1029040012007513017810790C12171678107908D3
:102914001216DDAA10AB11AC12AD1380A68A828BFD
:10292400837508FF7509FF750AFF750B0078081297
:1029340017647F04021A4774F512199B8C828D83E5
:1029440078081217778A828B83780812172AEA2468
:1029540004F8EB3400F98C828D83A3A3A3A3E0FCD9
:10296400A3E0FD88828983C3E09CF0A3E09DF08806
:10297400828983C3E09420A3E0944E40268A828B0C
:10298400837508FF7509FF750AFF750BFF78081238
:1029940017038A828B83A3A3A3A3E02420F0A3E0DC
:1029A400344EF002292174F512199BE9FE9004F9C2
:1029B400E0FAA3E0FBEEC333F8E433F974A728F597
:1029C40082748039F583E02AF508A3E03BF50978A1
:1029D40008121B427A407B427C0F7D001224FC7457
:1029E400021218D58A088B098C0A8D0B741078088A
:1029F4001216A5AA08AB097F04021A4774F112192A
:102A04009B8A0C8B0D8C0E8D0F740F12190BE0FA30
:102A1400A3E0FB741112190BE0F508A3E0F50978A3
:102A240008121B42EA2401F508EB3400F509E4F529
:102A34000AF50B780C79081215B675087175090238
:102A4400780C79081215B6AA0CAB0DAC0EAD0F12AA
:102A540024FC74021218D58B09EA450960047A0132
:102A640080027A00EC2AFCED3400FD741312190B79
:102A7400E0F8A3E0F9E8FEE9FFECF8EDF97A717B00
:102A840002121834880889098E828F8378081217F5
:102A940086ECF8EDF97A717B021218348A088B09F6
:102AA400740578081218AC8E828F83A3A3A3A3E5C0
:102AB40008F0A3E509F07F08021A47C082C083E941
:102AC400906000F0D083D08222C2AF02000022C006
:102AD400E074F2121A87A2AFE433FED2AFC2C0E5AB
:102AE400D1A2E4500653D1EF1213DF751A00EEF8A9
:102AF400EEA2E092AF7F01021AE6C0E074F2121A6D
:102B040087A2AFE433FED2AFE589A2E150031213EA
:102B140043758900C2C5751A00EEF8EEA2E092AFC3
:102B24007F01021AE6C0E074F2121A87A2AFE433FE
:102B3400FED2AFE58AA2E25003121343758A00C2A3
:102B4400EB751A00EEF8EEA2E092AF7F01021AE6EE
:102B5400C0E074F2121A87A2AFE433FED2AFE58B61
:102B6400A2E05003121343758B00C2E8751A00EEFD
:102B7400F8EEA2E092AF7F01021AE6C0E0C0D0E80E
:102B8400C0E0E9C0E0A2AFE433F8D2AFC2C7751A1F
:102B940000E8F9E8A2E092AFD0E0F9D0E0F8D0D0B4
:102BA400D0E032C0E074F2121A87A2AFE433FED24E
:102BB400AF758900C2C590097B7401F0751A007A5B
:102BC4000190094AE0F9121121E9F9900AFFE0F8AD
:102BD400900B00E0687002D285EEF8EEA2E092AFAE
:102BE4007F01021AE6C0E0C0D0E8C0E0E9C0E0C05E
:102BF40008C009C082C083A2AFE433F9D2AF900AFF
:102C0400FFE0F8900B00E068700B539AFB900B0107
:102C14007401F08031C2E9900AFFE0F508740125DF
:102C240008900AFFF0750900747F2508F582740A7C
:102C34003509F583E0F5C1900AFFE0C394804006AE
:102C4400900AFF7400F0E9F8E9A2E092AFD083D0D3
:102C540082D009D008D0E0F9D0E0F8D0D0D0E0326A
:102C6400FFFFFFFFFFFFFFFF74F212192F74FA1228
:102C740018BFE9FF8C0C8D0D7E008A088B0978083B
:102C8400121B86000410372FAE2CD12CF02C132DE0
:102C9400362D592D8A2DAD2DC42DF42DA42EC72EDD
:102CA400E92E0E2F372F372F1D2E74016F701985C3
:102CB4000C82850D83E0C39403500D850C82850D31
:102CC40083E0900DCBF080027E18022F5974026FBE
:102CD4007015850C82850D83E0F8A3E0F9900DCC86
:102CE400E8F0A3E9F080027E18022F5974016F7096
:102CF40019850C82850D83E0C39402500D850C82E6
:102D0400850D83E0900868F080027E18022F5974C4
:102D1400016F7019850C82850D83E0C39405500DF5
:102D2400850C82850D83E0900869F080027E18028C
:102D34002F5974016F7019850C82850D83E0C3943B
:102D440002500D850C82850D83E090086AF08002A4
:102D54007E18022F5974106F7027750810750900BA
:102D64007808121B42AC0CAD0D7A6B7B0812107301
:102D740074021218D58A088B098508828509838014
:102D8400027E18022F5974016F7019850C82850D0B
:102D940083E0C39402500D850C82850D83E0900876
:102DA4007BF080027E18022F5974016F700D850C20
:102DB40082850D83E0900DCFF080027E18022F599A
:102DC40074046F70269081A37808121777850C829B
:102DD400850D8378081215875011850C82850D8323
:102DE4001217AD90087D1217B980027E18022F5970
:102DF400EF7021120779E97013121271E9F508795D
:102E040050121475E9F50912125F800A90091074C2
:102E140001F080027E18022F5974076F707D7508C7
:102E2400067509007808121B42850C82850D83A360
:102E3400AC82AD83740212191D1210797402121837
:102E4400D58A088B0985080A85090B7C007D00AAB0
:102E540018AB19850C82850D83E0F9121205E9F58A
:102E640008E508C3940A502F120779E97015A908D8
:102E7400121277E9F5087950121475E9F50912125E
:102E84005F801A75090074112508F58274093509E3
:102E9400F5837401F080067E0280027E18022F59A9
:102EA40074016F7019850C82850D83E0C394025000
:102EB4000D850C82850D83E090087CF080027E18DD
:102EC400022F5974016F7019850C82850D83E0C33C
:102ED400940A500D850C82850D83E0900DCEF08010
:102EE400747E18807074016F701C850C82850D834C
:102EF400E0C39407C3940A500D850C82850D83E0CA
:102F0400900DD0F0804F7E18804B74016F7020902C
:102F1400090FE0F8850C82850D83E090090FF0E835
:102F2400703390090FE06401702B12125F80267ECB
:102F3400188022C3EA9427EB9400501774026F7030
:102F440012850C82850D83E0FCA3E0FD120617E9CF
:102F5400FE80027E02EEF974061218D57F06021A6C
:102F64000174F012192F74DA1218BF890D8C088DB0
:102F740009908136AC18AD1974061217D2AC18AD8D
:102F840019A90D121205E9FE743612190BE0F50C9D
:102F9400EEC3940A40030230C7EEF9121241E9FF6E
:102FA400900DCBE064027004740180027400F50A91
:102FB400780A121B46AD0CEFFCEEF9AA08AB091215
:102FC40012B374011218D57C147D007900741212A6
:102FD400191D12108B8A0A8B0B850A0E850B0F7430
:102FE400121219257A1075F006EEA42424F912148D
:102FF4006FE9703B7C1079FF741212191D1210EBEB
:10300400E9702C742212190BAC82AD837A0475F02A
:1030140006EEA42425F912146FE9F50A74121219A4
:1030240025EFA2E0E433F9AA08AB091206A1E9747A
:10303400061219257A0C74702EF912146FE9707146
:10304400740612191D1212357E00805FEEF87900A5
:10305400E875F003A4C8AAF075F000A42AFA75F084
:1030640003E9A42AF9740612190BE58228F8E5830A
:1030740039F9E8FAE9FB8A828B83E0F8A3E0F9E8FE
:103084004960278A828B83A3A3E0F50A750B007835
:103094000A121B428A828B83E0FCA3E0FDAA08ABE0
:1030A4000912090574021218D5E90EEEC3940440FE
:1030B4009BEFA2E1500D900867E0F9AA08AB091252
:1030C400090BE97404650C700F900DCBE064027079
:1030D40007AA08AB091212AD790074261218D57F1D
:1030E40008021A0174F212192F890B8A088B09EC51
:1030F400FEEDFF750A0AE50B600B146008146041CD
:1031040014605F807CAA08AB09121253E9F50AE542
:103114000AC3940A506BEE4F6067750C06750D0078
:10312400780C121B42AC08AD09EEFAEFFB121073D7
:1031340074021218D58A088B098508828509838050
:1031440040AA08AB0912124DE9F50AE50AC3940A2C
:10315400502FEE4F602BEEFAEFFBA90A121247E94B
:10316400801FAA08AB09121259E9F50AE50AC394AB
:103174000A500EEE4F600AEEFAEFFBA90A1212474C
:10318400E9A90A7F06021A0174F412192FE9FF7ED5
:103194001574FF6A700374FF6B702A75080080123F
:1031A400EFFC7A027B00A908121223E960027E0078
:1031B4000508E508C3940A40E7EF605A7A9B7B123E
:1031C400120B098051120AEB8A0A8B0B850A0885B7
:1031D4000B09E5084509603C7C007D00E5082405F1
:1031E400FAE43509FB850882850983A3A3A3A3E038
:1031F400F9121205E9F9E9C3940A500CEFFC7A02BA
:103204007B00121223E97E00EF600BAA08AB0912BF
:10321400129B80027E14EEF97F04021A0174F212EA
:10322400192F8C088D097E15740E12190BE0F50AFE
:10323400A3E0F50B74FF6A700374FF6B701D7F00CD
:10324400EFC3940A5058AC0AAD0BAA08AB09EFF9C6
:10325400121229E960027E000F80E5120AEB8A0C43
:103264008B0D850C82850D83E5824583602E7C0061
:103274007D00E5822405FAE43583FBA3A3A3A3E040
:10328400F9121205E9F9E9C3940A5012AC0AAD0B1C
:10329400AA08AB09121229E97E0080027E14EEF915
:1032A4007F06021A0174F712192F900881EAF0A31D
:1032B400EBF0900867E0FC7D007A267B001206178D
:1032C400E9FE900867E0F91208817F01021A01748F
:1032D400F412192F74EC1218BF8A828B83A3A3E013
:1032E40024FA70030236FF24FD700302357F147044
:1032F400030233BD14601024FD70030235291470D9
:10330400030235BA02376DEAFEEBFF900881E0F85C
:10331400A3E0F9E8496066900881E0F8A3E0F5834A
:103324008882E0F8A3E0F9E8496052EE240CF582C3
:10333400E43FF583E0F5087808121B46EE240BF50C
:1033440082E43FF583E0F98E828F83A3A3A3A3A332
:10335400A3A3A3A3E0FCA3E0FDEE2403FAE43FFB54
:10336400900881E0F8A3E0F5838882E0F8A3E0F513
:1033740083888212192D74011218D580398E828F98
:1033840083A3A3A3A3A3A3A3A3A3121B5990087D60
:103394001217951206B374021218D5E96018790150
:1033A4008E828F83A3A3A3A3A3A3A3A3A3E0FAA3BF
:1033B400E0FB1206ADE902376DEAFEEBFF8E828F69
:1033C40083A3E060030234D78E828F83A3A3A3A3D5
:1033D400A3E0A2E040030234D790091BE0F8A3E085
:1033E400F9E84960030234D77C0E7D007900AA18FD
:1033F400AB1912108B8A088B09AA08AB09EE240CAE
:10340400F582E43FF583E0F8A3E0F9E84960467506
:1034140008067509007808121B42EE240CF582E4B4
:103424003FF583E02410FCA3E03400FD740212197C
:103434001D12107374021218D58A088B098508822C
:103444008509838E828F83A3A3A3A3A3E0A2E25062
:103454004DD2F0804B8E828F83A3A3A3E0FAA3E026
:10346400FB120AEB8A088B09AA08AB09EA4B602B0A
:103474007508067509007808121B42EA2405FCE465
:103484003BFD740212191D12107374021218D58AAE
:10349400088B0985088285098380A802376DC2F0EC
:1034A400A2F0E433F87900740C12190BE048F0A38D
:1034B400E049F0EEFCEFFDAA18AB1912123BE970DB
:1034C400127A027B00900867E0F91210C7E97900CC
:1034D40002376F900881E0F8A3E0F9E8496043906F
:1034E4000881E0F8A3E0F5838882A3A3E0F8A3E0D1
:1034F400F9E849602D8E828F83A3E0FC79018E82E6
:103504008F83A3A3A3E0FAA3E0FB900881E0F8A3D0
:10351400E0F5838882A3A3E0F8A3E0F58388821210
:10352400192D02376DEAFEEBFF900881E0F8A3E065
:10353400F9E8496043900881E0F8A3E0F5838882C4
:10354400A3A3E0F8A3E0F9E849602D8A828B83A362
:10355400E0FC79028E828F83A3A3A3E0FAA3E0FBAD
:10356400900881E0F8A3E0F5838882A3A3E0F8A3A0
:10357400E0F583888212192D02376DEAFEEBFF7C99
:10358400007D00EE2404FAE43FFB8E828F83A3A324
:10359400A3E0F9121205E9F8E8C3940A5015EE24E1
:1035A4000AFCE43FFD7A0475F006E8A42425F91228
:1035B4001469E902376DEAFEEBFF90087CE06018BD
:1035C400900DCEE0F98E828F83A3A3A3E0FAA3E04B
:1035D400FB1206ADE902376D900DCBE0701579054D
:1035E4008E828F83A3A3A3E0FAA3E0FB1206ADE9C6
:1035F40002376D8E828F83A3A3A3E0FAA3E0FB12AC
:103604000AEB8A0A8B0B850A08850B098E828F8345
:10361400A3A3A3A3A3A3A3E0A2E05071E5084509D3
:103624006068850882850983A3A3A3A3E0605E8EF6
:10363400828F83A3A3A3A3A3A3A3A3A3E0F8A3E0DC
:10364400F9E8C4540FF87900E85401F8E95400F992
:10365400E8A2E04038740E121925E5082405FAE4BE
:103664003509FB850882850983A3A3A3A3E0F91286
:103674001205E9701879038E828F83A3A3A3E0FA5D
:10368400A3E0FB1206ADE902376D02376DEE2405A7
:10369400FCE43FFD850882850983A3A3A3A3E0F985
:1036A4008E828F83A3A3A3E0FAA3E0FB1212A79058
:1036B4000881E0F8A3E0F9E849603E900881E0F869
:1036C400A3E0F5838882A3A3E0F8A3E0F9E84960C6
:1036D400287C0079008E828F83A3A3A3E0FAA3E061
:1036E400FB900881E0F8A3E0F5838882A3A3E0F8C7
:1036F400A3E0F583888212192D806E120779E97090
:1037040068900910E06401701A121271E9FE9009C0
:10371400107400F07C0A7D0079007A117B09121084
:103724008B803C7E0080328E087509007411250858
:10373400F58274093509F583E06401701BEEF91212
:103744001277E9F88E0875090074112508F582745A
:10375400093509F5837400F00EEEC3940A40C87964
:1037640050121475E9FE12125F790174141218D5FF
:103774007F04021A0174F212192F74F21218BF890D
:1037840008EAFEEBFF8C09AC18AD197A0E75F00649
:10379400E508A42420F912146FE970647C0679FF0B
:1037A400AA18AB191210EBE97056740C12190BE03D
:1037B400F8A3E0F9E8F50AE5096005EE420A800499
:1037C400EEF4520A850A0C750D00740C12190BE004
:1037D400650C7004A3E0650D6022E50AF8790074B5
:1037E4000C12190BE8F0A3E9F0AC18AD197A0E75B8
:1037F400F006E508A42420F9121469E9790180028D
:103804007900740E1218D57F06021A0174F2121987
:103814002F74E61218BF89098A0C8B0DECFEEDFF9C
:10382400740C1219257A0E75F006E509A42420F902
:1038340012146FE960030239337C0679FF740C12A9
:10384400191D1210EBE96003023933AC18AD197A73
:103854000C74702509F912146FE9600302392F758D
:103864000800AA18AB19121235E50C450D702D7C11
:103874000C7900AA18AB191210EBE9600302391590
:103884007C0C7D007900AA18AB1912108B8A0A8B64
:103894000B850A82850B837508018075AC18AD19F8
:1038A400AA0CAB0D12122F8A0A8B0BA80AA90BE8DB
:1038B40049702EEE4F601BAC18AD197A007B0012D4
:1038C400122F8A0A8B0BAA0AAB0BEAF8EBF9EA4B24
:1038D40070047900805B88828983E50CF0A3E50D90
:1038E400F088828983A3A3E0FA7B00EE6A7002EF7A
:1038F4006B601EEEC0E088828983A3A3D0E0F0EE63
:103904004F700B888289837400F0A37400F07508EB
:1039140001E5086016AA18AB19121235AC18AD19D6
:103924007A0C74702509F9121469E9790180027915
:1039340000741A1218D57F06021A0174F712192F8F
:103944007F0080010FEFC39404504BEFF87900E837
:1039540075F003A4C8AEF075F000A42EFE75F00354
:10396400E9A42EF9EC28F582ED39F583E06A7003B9
:10397400A3E06B70CFEFF87900E875F003A4C8AA50
:10398400F075F000A42AFA75F003E9A42AF9EC28EA
:10399400FAED39FB80047A007B007F01021A01747E
:1039A400F712192F7F00023A49EFF87900E875F011
:1039B40003A4C8ACF075F000A42CFC75F003E9A4D2
:1039C4002CF9EA28F582EB39F583E0F4FCA3E0F462
:1039D400FDEFF87900E875F003A4C8AEF075F000C7
:1039E400A42EFE75F003E9A42EF9EA28F582EB393A
:1039F400F583ECF0A3EDF0EFF87900E875F003A49B
:103A0400C8ACF075F000A42CFC75F003E9A42CF903
:103A1400EA28F582EB39F583A3A3E0F4C0E0EFF8DC
:103A24007900E875F003A4C8ACF075F000A42CFC90
:103A340075F003E9A42CF9EA28F582EB39F583A3A0
:103A4400A3D0E0F00FEFC3940450030239AD7F011B
:103A5400021A0174F012192F74F41218BFEAFEEB63
:103A6400FF8C088D0990091BE0F8A3E0F9E8497080
:103A74002CEE4F6006E508450970057901023D000A
:103A8400EEFAEFFB121253E9900DD1F0900DD1E054
:103A9400C3940A4008121265E9900DD1F0900DD13B
:103AA400E0C3940A4003023CFE90091BE0F8A3E043
:103AB400F9E8496003023B4FEEFCEFFD7A0E75F026
:103AC40006900DD1E0A42420F9121469E9F50B7CC9
:103AD4000C7D0079FFAA18AB1912108B8A0C8B0D80
:103AE400850C0E850D0FAC18AD197A0C900DD1E034
:103AF4002470F9121469E9F50A750C0E750D007835
:103B04000C121B42EEFCEFFD900DD1E0F87900E8B9
:103B140075F00EA4C8AAF075F000A42AFA75F00E88
:103B2400E9A42AF9748328FA740839FB121073740F
:103B3400021218D58A0C8B0DA80CA90D90091BE54F
:103B440008F0A3E509F07900023D0090091BE0F8B4
:103B5400A3E0C82406F582C83400F583E0F8A3E0A6
:103B6400F9E849604290091BE0F8A3E0C82406F58F
:103B740082C83400F583E0FCA3E0FD7A1B75F006EF
:103B8400900DD1E0A42421F9121469E9F890091BDD
:103B9400E0F9A3E0C92406F582C93400F583740072
:103BA400F0A37400F0809F90091BE0F8A3E0C82400
:103BB4000AF582C83400F583E0F8A3E0F9E8496027
:103BC4004390091BE0F8A3E0C8240AF582C8340036
:103BD400F583E0FCA3E0FD7A1B75F006900DD1E0BF
:103BE400A42422F9121469E9F890091BE0F9A3E06E
:103BF400C9240AF582C93400F5837400F0A3740063
:103C0400F0023B4A90091BE0F8A3E0C8240CF582BB
:103C1400C83400F583E0F8A3E0F9E849604390096B
:103C24001BE0F8A3E0C8240CF582C83400F583E057
:103C3400FCA3E0FD7A1075F006900DD1E0A42423D6
:103C4400F9121469E9F890091BE0F9A3E0C9240CFE
:103C5400F582C93400F5837400F0A37400F0023BCC
:103C64004A90091BE0F8A3E0C82408F582C8340090
:103C7400F583E0F8A3E0F9E849606F90091BE0F8E8
:103C8400A3E0C82408F582C83400F583E0FCA3E06F
:103C9400FD7A1075F006900DD1E0A42424F91214D5
:103CA40069E9FE90091BE0F8A3E0C82408F582C87E
:103CB4003400F583E02410FCA3E03400FD7A04759D
:103CC400F006900DD1E0A42425F9121469E9F890C6
:103CD400091BE0F9A3E0C92408F582C93400F5837F
:103CE4007400F0A37400F0023B4A90090FE06003F3
:103CF4001212B91212A1790180027901740C1218FE
:103D0400D57F08021A0174F712192F74F21218BF22
:103D1400E9FEAC18AD197A0E75F006EEA42420F96C
:103D240012146FE9700E740C12190BE0F8A3E0F989
:103D3400E8F980027900740E1218D57F01021A0185
:103D440074F412192F74F21218BF8909EAFEEBFFFA
:103D5400E509C3940A5004EE4F700479028041AC23
:103D640018AD197A0E75F006E509A42420F9121489
:103D74006FE9F508E5087026750A06750B00780AE0
:103D8400121B427402121925EEFAEFFB121073741F
:103D9400021218D58A0A8B0B850A82850B83A9081F
:103DA400740E1218D57F04021A0174F412192FEA42
:103DB400FEEBFF75080080020508E508C3940A506D
:103DC40040750A06750B00780A121B42EEFCEFFDE3
:103DD400E508F87900E875F00EA4C8AAF075F000BB
:103DE400A42AFA75F00EE9A42AF9748928FA740849
:103DF40039FB12108574021218D5E960BBA908803A
:103E040002790A7F04021A0174F412192FEAFEEBF4
:103E1400FF75080080020508E508C3940A50407540
:103E24000A06750B00780A121B42EEFCEFFDE5084A
:103E3400F87900E875F00EA4C8AAF075F000A42A79
:103E4400FA75F00EE9A42AF9748328FA740839FB88
:103E540012108574021218D5E960BBA90880027992
:103E64000A7F04021A0174F712192F74F01218BF92
:103E7400EAFEEBFF75080080020508E508C3940A12
:103E84005035AC18AD197A1075F006E508A4242352
:103E9400F912146FE970E27C1079FFAA18AB1912B9
:103EA40010EBE970D4EEFCEFFDAA18AB19120683EF
:103EB400E970C6A9088002790A74101218D57F0126
:103EC400021A0174F412192F750800023F9BE508C9
:103ED400F87900E875F00EA4C8AAF075F000A42AD9
:103EE400FA75F00EE9A42AF9748328FC740839FDE4
:103EF4007A0E75F006E508A42420F912146FE9700F
:103F040003023F997C067D0079FFE508FA7B00EA0D
:103F140075F00EA4CAA8F075F000A428F875F00E88
:103F2400EBA428FB74832AFA74083BFB12108B8AD7
:103F34000A8B0BAE0AAF0B7C067D0079FFE508FA0D
:103F44007B00EA75F00EA4CAA8F075F000A428F866
:103F540075F00EEBA428FB74892AFA74083BFB1253
:103F6400108B8A0A8B0BAC0AAD0BE508F87900E8D4
:103F740075F00EA4C8AAF075F000A42AFA75F00E24
:103F8400E9A42AF9748F28F582740839F58374003A
:103F9400F0A37400F00508E508C3940A5003023E38
:103FA400D290090FE060031212B91212A17F040229
:103FB4001A0174F712192F7E0080010EEEC3940AC1
:103FC400502F7C0679FFEEFA7B00EA75F00EA4CA46
:103FD400A8F075F000A428F875F00EEBA428FB7483
:103FE400832AFA74083BFB1210EBE960CEEEF980E9
:103FF40002790A7F01021A0174F712192F7E007FD9
:1040040000802D7C0679FFEFFA7B00EA75F00EA4A0
:10401400CAA8F075F000A428F875F00EEBA428FBEC
:1040240074832AFA74083BFB1210EBE970010E0F3B
:10403400EFC3940A40CDEEF97F01021A0174F7121E
:10404400192F79007E008008EEF9121277E9F90E33
:10405400EEC3940A5003E960EF7F01021A0174F081
:1040640012192F74CB1218BF8909900DD1E065097C
:10407400701D7A017B00900867E0F91210CDE97A8F
:10408400027B00900867E0F91210CDE91212C574A2
:10409400271219257A0E75F006E509A42420F912D1
:1040A400146FE9600302419A7C0679FF74271219A0
:1040B4001D1210EBE9600302419A7C0E7D0079FF2A
:1040C400742712191D12108B8A0A8B0B850A0E8510
:1040D4000B0F7C1B7D0079FF740C12191D12108BC1
:1040E4008A0C8B0D850C0A850D0B7C0C7D0079FFE9
:1040F400AA18AB1912108B8A0C8B0DAE0CAF0D7471
:10410400271219257A0E75F006E509A42420F91260
:104114001469E9F508740C1219257A1B75F006E583
:1041240009A42421F9121469E94208740C1219250E
:104134007A1B75F006E509A42422F9121469E942F0
:1041440008740C1219257A1075F006E509A42423C5
:10415400F9121469E94208740C1219257A1075F0E1
:1041640006E509A42424F9121469E94208740C121E
:1041740019257A0475F006E509A42425F9121469B1
:10418400E94208AC18AD197A0C74702509F91214B7
:1041940069E942088003750800A90874351218D526
:1041A4007F08021A0174F712192FE9FEEE900867CE
:1041B400F012125F7F01021A0174F612192FEAFE3F
:1041C400EBFFEE5400F8EF5480F9E84960359008AD
:1041D40067E0F91210AF8A088B09A808A9098808B2
:1041E4008909E8496012AA08AB09121289E9600832
:1041F400AA08AB0912109DE9EE6400FAEF6480FB93
:104204000242BFEE5402602D7C007D007A007B00E8
:1042140012123BE960187A017B00900867E0F912FA
:1042240010C7E9EE6402FAEF6400FB0242BF7A02AF
:104234007B000242BFEEA2E0507D90091BE0F8A390
:10424400E0F5838882A3A3A3E0FAA3E0FB1212BFE4
:10425400E9605E900881E0F8A3E0F9E849604590E0
:104264000881E0F8A3E0F5838882A3A3E0F8A3E043
:10427400F9E849602F7C00790190091BE0F8A3E07C
:10428400F5838882A3A3A3E0FAA3E0FB900881E06E
:10429400F8A3E0F5838882A3A3E0F8A3E0F583887C
:1042A4008212192D1212C5EE6401FAEF6400FB802C
:1042B4000A7A017B0080047A007B007F02021A01E3
:1042C40074F712192F7E018A828B83E02450600ECA
:1042D40014601024E1700F12121DE9FE80081212FE
:1042E4008F8003121295EEF97F01021A01C082C079
:1042F400838A828B83A3A3A3A3E0641E7011790035
:104304008A828B83A3A3E0FAA3E0FB12120BE9D009
:1043140083D082020132C082C0838A828B83A3A3AA
:10432400A3A3E070308A828B83A3A3A3A3A3A3A334
:10433400121B598A828B83A3A3A3A3A3E0FCA3E04B
:10434400FD8A828B83A3A3E0FAA3E0FB121211740B
:10435400021218D5E9D083D082020132C082C08310
:10436400900867E0F98A828B83A3E0FAA3E0FB124A
:10437400090BE9D083D082020132C082C08374FF6A
:104384001218BF12126BE9C39402400B8518828580
:1043940019837402F08009851882851983740AF0E0
:1043A400AC18AD197A017905120791E97401121854
:1043B400D5D083D08202013274F212192F74E8121C
:1043C40018BF8A088B09E9FE8C0A8D0B7C187D00C6
:1043D4007900AA18AB1912108B8A0C8B0DAC0CAD9A
:1043E4000D851882851983E508F0A3E509F0900886
:1043F40069E0C0E0740212190BD0E0F090086AE0A2
:10440400C0E0740312190BD0E0F0900DD0E0C0E0CE
:10441400741712190BD0E0F0741512190BE054FE46
:10442400F8A3E054FFF9900DCFE0A2E0E433FA7B67
:1044340000E84AF8E94BF9741512190BE8F0A3E9FE
:10444400F0900DCFE0A2E15004D2F08002C2F074EB
:104454001512190BE054FDFAA3E054FFFBA2F0E49B
:1044640033F87900E828F8E933F9EA48F8EB49F930
:10447400741512190BE8F0A3E9F0900DCFE0A2E354
:104484005004D2F08002C2F0741512190BE054F7F4
:10449400FAA3E054FFFBA2F0E433F50875090074B5
:1044A4000378081218ACEA4508F8EB4509F97415C5
:1044B40012190BE8F0A3E9F0900DCFE0A2E4500448
:1044C400D2F08002C2F0741512190BE054EFFAA373
:1044D400E054FFFBA2F0E433F50875090074047896
:1044E400081218ACEA4508F8EB4509F974151219D5
:1044F4000BE8F0A3E9F0900DCFE0A2E55004D2F070
:104504008002C2F0741512190BE054DFFAA3E054D0
:10451400FFFBA2F0E433F50875090074057808126E
:1045240018ACEA4508F8EB4509F9741512190BE8BB
:10453400F0A3E9F0900DCFE0A2E25004D2F08002A3
:10454400C2F0741512190BE054FBFAA3E054FFFBFC
:10455400A2F0E433F508750900740278081218AC67
:10456400EA4508F8EB4509F9741512190BE8F0A3AC
:10457400E9F090086AE0602A750810750900780867
:10458400121B427C6B7D08740612190BAA82AB8342
:1045940012107374021218D58A088B098508828553
:1045A400098390087BE06011EE600E741512190BFC
:1045B400E04402F0A3E04400F090087BE060067859
:1045C400017900800478007900741412190BE04812
:1045D400F0900868E0600678047900800478007937
:1045E40000741412190BE048F0AC0AAD0BAA18AB16
:1045F400191206A7E974181218D57F06021A01C009
:1046040082C083790090087BE060067C017D008095
:10461400047C007D00ECC949C9900868E060067C10
:10462400047D0080047C007D00ECC949C912076147
:10463400E9D083D08202013274F012192F74E5128A
:1046440018BF8A0C8B0DE9FE8C09EDFF74086F709E
:104654000B75F006EEA42422F508800975F006EE29
:10466400A42421F5087C1B7D007900AA18AB19123B
:10467400108B8A0A8B0B850A0E850B0FAC18AD19AB
:104684007A1BA90812146FE97034741A12190BE01A
:10469400C39407C3940A5026742B12190BE0F5082F
:1046A4007808121B467401121925E509A2E0E433C7
:1046B400F9AA0CAB0D1206B974011218D5E9741BD2
:1046C4001218D57F08021A0174F712192F120983E0
:1046D400E97E0080537C0679FFEEFA7B00EA75F0F0
:1046E4000EA4CAA8F075F000A428F875F00EEBA487
:1046F40028FB74832AFA74083BFB1210EBE9702739
:10470400EEF87900E875F00EA4C8AAF075F000A4DC
:104714002AFA75F00EE9A42AF9748328FA74083980
:10472400FB7900120989E90EEEC3940A40A77F01C0
:10473400021A0174F612192F74FD1218BFEAFEEB67
:10474400FF90091DE0F8A3E0F9E849703975081FE6
:104754007509097808121B42750802750900780862
:10476400121B427508CA7509817808121B427CFF26
:104774007DFF7A017B001207D374061218D59009C5
:104784001DEAF0A3EBF090091DE0F8A3E0F9E84975
:104794007003024854E4F508F5097808121B4274C2
:1047A40004121915880889097808121B4274041226
:1047B4001915880889097808121B4290091F121BD1
:1047C40059790290091DE0FCA3E0FDEEFAEFFB121B
:1047D40008F974081218D5E9704A85188285198376
:1047E400E0FA7B00740112190BE0F87900E4C8F9CF
:1047F400EA28F508EB39F509E50845096026780843
:10480400121B4290091DE0F8A3E0F5838882A3A35C
:10481400A3A3E0FCA3E0FDEEFAEFFB121211740275
:104824001218D5E9E4F508F5097808121B42900935
:104834001F121B597CFF7DFF90091DE0FAA3E0FBCA
:104844001207DF74041218D590091DEAF0A3EBF0E7
:1048540090091DE0F8A3E0F9E849700479018002A9
:10486400790074031218D57F02021A01C082C08332
:1048740090091BE0F8A3E0F9E849601790091BE0F0
:10488400FAA3E0FB12109DE9F890091B7400F0A351
:104894007400F0900DD1740AF0D083D082020132FA
:1048A400C082C083E9900CB5F0024B3374F712193F
:1048B4002FE99002E3F07C1B7D037AFF7BFF120952
:1048C400119002E474FFF0A3F0A3E4F0A3F07905DF
:1048D4001208999002E3E0F91207BB7A2F7B0912C0
:1048E4000AD97F01021A0174F412192F8A088B095C
:1048F400EB548060309002E3E0F91210AF8A0A8B27
:104904000BAE0AAF0BEE4F60138E828F83E064B060
:1049140070031208B1EEFAEFFB12109DAA08E50924
:104924006480FB80047A007B00024B0274F212194B
:104934002F74FC1218BFEAFEEBFFEE4F60387402CE
:1049440012190BEEF0A3EF124D67ECF0A3ED124D2C
:1049540067AA82AB831207B5E9F508707374121263
:10496400190B12591BE50A450B60658E828F831261
:1049740049DEEE4F700575080280557A067B0012F9
:1049840011098A0C8B0DA80CA90DE849700575084E
:1049940013803D88828983E41249E8A3A3EEF0A33F
:1049A400EF125DB4E50AF0A3E50BF09002E9124AB8
:1049B400709002E96017E0FCA3E08003EAFCEBFDE1
:1049C4008C828D83124A7070F38C828D83125840CE
:1049D400A90874041218D5025FB6A3A3A3A3E0FE2A
:1049E400A3E0FF22F0A3F0888289832274F21219D3
:1049F4002F890AE975F017A4FEAFF09002E8E4F0FD
:104A04009002E6124A70600A12110F9002E6E4F076
:104A1400A3F0EEFAEFFB1211098A088B09EA4509A3
:104A2400602FEEFCEFFD790012108B9002E6E50892
:104A3400F0A3E509F07B008008124A5AE4F0A3F0E1
:104A44000BEBC3950A40F2E50A9002E8F079008086
:104A5400027913025FB6EB75F017A4F8A9F090027F
:104A6400E6E028FAA3E0398A82F583221255D6EAD1
:104A74004B2274F412192F750800750900740C1276
:104A8400190B125D88FEE9FF800CE5082401F50886
:104A9400E5093400F509C3E5089CE5099D50328514
:104AA400080A85090B7403780A1218ACEA250AF877
:104AB400EB350BF988828983A3A3A3A3A3A312597B
:104AC4001BEE650A7003EF650B70BFE8FAE9FB8023
:104AD400047A007B00802774F412192F7900EAA26B
:104AE400E0501B7508487509817808121B427C0444
:104AF4007D007AB77B0C12089374021218D57F04D8
:104B0400021A01C082C0839002E9124B3A601C88E9
:104B1400828983A3A3E06A7003A3E06B88828983FC
:104B240070E8A3A3A3A31255D280047A007B00D01B
:104B340083D082020132126089E8492274EE12198C
:104B44002F74FC1218BFEAFEEBFF851882851983C7
:104B5400E4F0A3F0EE2402125824EE2405124D557D
:104B6400EE2404F50EEF12513AE024FE603924FCE1
:104B7400604624FE605224FE605E24FE7003024CF4
:104B84005A24FE7003024CD224FE7003024CE1242A
:104B9400FE7003024CF024FC7003024CFF24FE70F0
:104BA40003024D0E024D4B9003027417F0A3E4125E
:104BB4004D6F120533024D4B851882851983AC82E3
:104BC400AD831208B7024D1B851882851983AC8208
:104BD400AD831208BD024D1B850C08850D097402B6
:104BE40012190BAC82AD838508828509831255D2D4
:104BF4001207D98A0C8B0DAC0CAD0DEC4D6042E460
:104C0400F50CF50D780C121B42750C02750D03782A
:104C14000C121B42750C03750D03780C121B4274A5
:104C24000812190B121B5979161255CC1208F97473
:104C3400081218D5E9F50C700B1255C812054B80F3
:104C44000F750C01850882850983124D5D12584049
:104C5400850C08024D1E740212190BAC82AD8385BB
:104C64000C82850D831255D21207D98A108B11AC90
:104C740010AD11EC4D6043850C82850D83A3A31206
:104C84001B597510027511037810121B427510031D
:104C94007511037810121B42740812190B121B5958
:104CA40079161255CC1208F974081218D5E9F509C9
:104CB400700B1255C8120551800F750901850C82BD
:104CC400850D83124D5D125840850908804C851866
:104CD40082851983AC82AD831208C3803A85188219
:104CE400851983AC82AD831208C9802B851882850F
:104CF4001983AC82AD831208CF801C851882851974
:104D040083AC82AD831208D5800D85188285198302
:104D1400AC82AD831208DBE9F508E50860298E82D0
:104D24008F83A3E06414601F850E82850F83E09057
:104D34000302124D67126085900303125840E50880
:104D4400A3124D6F12052DEEFAEFFB12085702570E
:104D54002CF50CEF3400F50D22126089851882853C
:104D6400198322F085188285198322F07C027D0341
:104D7400850A82850B831255D62274EE12192F747C
:104D8400FC1218BF8A0A8B0B8C0E8D0FEA2405F5D2
:104D940008EB3400F5097C157D0079007A027B0369
:104DA40012108BE5082402F50CE509124D588518FC
:104DB400828519838582108583117810121B4285A0
:104DC4000882850983A3A3A3A3125282121B42E57E
:104DD400082405F510E5093400F5117810121B427A
:104DE400850C82850D831255DC1207D374061218C4
:104DF400D58A108B11AE10AF11E50A2402F50AE52D
:104E04000B125827EE4F7003024F4480177402129E
:104E1400190B1255D288828983EAF0A3EBF0900330
:104E240002E004F0900302E0C394054003024F44FF
:104E3400E4F510F5117810121B427510EB75110290
:104E44007810121B427510EC7511027810121B4277
:104E5400740612190B121B597910EEFCEFFD125552
:104E6400CC1208F974081218D5E9705E8508828599
:104E74000983A3A3A3A3A3A3A3E0F89002EBE06890
:104E84007048125282121B427CEC7D02E508240811
:104E9400FAE5093400FB12108574021218D5E96092
:104EA400298E828F83A3A3A3A31255D2900302E079
:104EB400F510740278101218AC74032510F582747E
:104EC400033511F583EAF0A3EBF0740212190B8594
:104ED40082108583117810121B42740212190B126E
:104EE4001B59850C82850D8312609A1207DF7404A6
:104EF4001218D58A108B11AE10AF11900302E0F591
:104F040010751100740278101218AC74022510F890
:104F140074033511F988828983A3124A70700302DD
:104F24004E08E82403F8E93400F9EE4F6003024E1A
:104F3400118882898374FFF0A3F0900302E004F0E7
:104F4400900302E0600A1255C812053F7900800BF5
:104F5400850882850983125837790A02572C74EA26
:104F640012192F74FE1218BF8C128D13EA2405F542
:104F74000CEB1262041249E2750800750900EA2478
:104F840002F510EB3400F5118518828519838582AA
:104F94000A85830B780A121B42850C82850D83A334
:104FA400A3A3A3125144121B42E50C2405F50AE500
:104FB4000D125827780A121B42850C82850D831224
:104FC40060981207D374061218D58A0A8B0BEA4527
:104FD4000B70030250F5EA2404F50EEB12513A1259
:104FE40049E28A828B83A3A3A3E0F9851082851109
:104FF400831255D21207C1E9F50960030250F5E4A2
:10500400F514F5157814121B427514EB7515027816
:1050140014121B427514EC7515027814121B427499
:105024000612190B121B597913AC0AAD0B851082A9
:105034008511831255D21208F974081218D5E9F5AE
:105044000960030250F59002EBE0F8E5087009E00E
:105054002402900303F08017900303E0FCE8240289
:10506400FAE43400FBEA6C7001EB60030250F9854A
:105074000882AA8212527994141252715073850EC6
:1050840082850F83E0C0E074042A125131D0E0F02D
:105094000508850E82850F83A3E0C0E085080A74A5
:1050A40004250A125131D0E0F005089002EB1251A8
:1050B40044121B427CEC7D0285080A7404250AFA1A
:1050C40074033400FB12107374021218D59002EBAF
:1050D400E02508F50874FF6E700374FF6F6012EE2C
:1050E40024010EEF3400FFE508C394145003024F6B
:1050F4008CE50860131254BD851082851183125506
:10510400D212054579008014E509700375090A85F2
:105114001282851383EEF0A3EFF0A909740212182A
:10512400D57F0E021A0185080C7404250CF58274CF
:10513400033400F583223400F50F850E82F58322B3
:10514400125DC72274EE12192F74FE1218BF8C0E52
:105154008D0FEA2405F50CEB124D58750B009003E6
:1051640002E4F0F50AEA2402F508EB3400F50980BC
:1051740049900302E0FA9002EBE0F8125279941796
:10518400125271400D900302E0F87416C398900215
:10519400EBF0125282121B427CEC7D0274032AFA59
:1051A40074033400FB12107374021218D59002EBCE
:1051B400E0F8900302E028F0050AE50C2416F582D5
:1051C400E50D125135E0F8E50AC398400302525A3E
:1051D400900302E0C39416507DE50AC333F8E43328
:1051E400F9E50C28FEE50D39FF851882851983AC95
:1051F40082AD838E828F831255D21207D98A108B87
:1052040011AC10AD11EC4D7005750B018043E4F544
:1052140010F5117810121B427510EB7511027810FD
:10522400121B427510EC7511027810121B427406A1
:1052340012190B121B597916850882850983125598
:10524400D21208F974081218D5E9F50B700302514B
:105254007512583380107C027D038508828509838A
:105264001255D2120557A90B740202572EE9940065
:10527400C365D03322EA28F8E43400F9E822E0F5E3
:105284001075110078102274EA12192F74FC121888
:10529400BF8A0C8B0D8C128D13EA2405F50AEB12D0
:1052A4005827750800750900E50A2402F510E50B76
:1052B4003400F511740212190B85820E85830F7860
:1052C4000E121B42850A82850B83A3A3A3A3125D3E
:1052D40073121B42E50A2405F50EE50B3400F50FA5
:1052E400780E121B4285108285118312582D125597
:1052F400CC1207D374061218D58A0E8B0FAE0EAFDC
:105304000FE50C2402F50EE50D3400F50F804088FE
:1053140082898374FFF0050812512A74FFF005088E
:105324009002EBE0F50C750D00780C121B427CEC3E
:105334007D0285080C7404250CFA74033400FB12F6
:10534400107374021218D59002EBE02508F508EEEC
:105354004F60718E828F83A3A3A3E0F9850E8285AB
:105364000F831255D21207C1E9F509EE2404124D38
:1053740055E97044E4F514F5157814121B427514BC
:10538400EB7515027814121B427514EC751502782E
:1053940014121B42740812190B121B597911EEFCDA
:1053A400EFFD850E82850F831255D21208F9740819
:1053B4001218D5E9F5096027850C82850D831254EE
:1053C400B3125840E50870030254991254BD850E77
:1053D40082850F831255D212055D79000254AE8581
:1053E4000882AA82EA9002EB7009E0240490030385
:1053F400F08022E0F8900303E0F514E82404FCE4D0
:105404003400FDEC65147001ED70C01252799412F1
:1054140012527150B6850C82850D83E0C0E074048D
:105424002A125131D0E0F00508850C82850D83A342
:10543400E0C0E012512AD0E01254CF85820C85835B
:105444000D780C121B42740412190B121B5985108F
:105454008285118312609A1207DF74041218D58AA8
:105464000C8B0DAE0CAF0D85080C7404250CF87470
:10547400033400F9EE4F7003025313851882851923
:1054840083E0888289831254CFA3E0C0E012512ABA
:10549400D0E0025321E509700375090A850A828563
:1054A4000B831254B3125840A909740402512212F6
:1054B400608985128285138322900303E0F5F0E569
:1054C4000884900302F07C027D0322F0050885180D
:1054D400828519832274EC12192F74FE1218BF8A64
:1054E400088B098C0E8D0FEA2405FEEB3400FF8532
:1054F4001882851983AC82AD838E828F831255D234
:105504001207D98A0A8B0BEE2418124D55EA450B63
:1055140070030255A31257155032851882851983DA
:105524001255D21208ED8A108B11EA4511606B797D
:1055340012AC0AAD0B8508828509831255D28510F9
:105544008285118312192DE9F50A7058E4F50AF5DC
:105554000B780A121B428E828F83A3A3E0F50A788C
:105564000A121B42EE2403125824780A121B428E9C
:10557400828F831255DC1208FF74061218D5E9F5E0
:105584000A7021850C82850D83E0701F8508828551
:1055940009831255D21205638011750A0E800975AC
:1055A4000A018004E50A6003125833850C82850DD4
:1055B40083E0600479008002A90A74021218D57F7E
:1055C4000C021A017C027D03850A82850B83125525
:1055D400D622E0FAA3E0FB22E0FCA3E0FD850882EA
:1055E4008509831255D62274EE12192F74FE1218EF
:1055F400BF8A088B098C0C8D0DEA2405FEEB340060
:10560400FF750E00851882851983AC82AD838E8266
:105614008F831255D21207D98A0A8B0BEA450B7075
:1056240003025701125715503585188285198312C4
:1056340055D21208ED8A0E8B0FEA450F605E79127F
:10564400AC0AAD0B8508828509831255D2850E827A
:10565400850F8312192DE9F50E600302570485089E
:105664008285098312591BAA0AFB1208E18A108B4E
:1056740011A810A911E849701E7AFF7BFF1208E1F6
:105684008A108B11A810A911E849606C888289835B
:10569400E50AF0A3E50BF0750A008007750E0E808D
:1056A4005F050A9002E8E0FAE50AC39A504AE50A5F
:1056B40075F017A4FAABF088828983A3A3E02AFAD1
:1056C400A3E03BFB8A828B8312582DEC4D70D2757C
:1056D4000A17750B00780A121B42EEFCEFFD12103C
:1056E4007374021218D5EEFCEFFD850882850983D8
:1056F4001255D21205698014750E098003750E01C6
:10570400126081850C82850D83125840A90E0252C5
:105714006CE5082402F508E5093400F5098A828B52
:1057240083A3A3A3E0A2E52274041218D57F0A027E
:105734001A0174EC12192F8C108D11EA2405F50C42
:10574400EB124D58750F00EA2402F50AEB125827A4
:10575400850A82F5831255D21208E18A088B09EA78
:1057640045097003025819750E008071850C8285F5
:105774000D83E06401704F8E828F83A3A3121B59A3
:105784008E828F83A3A3A3A3E0F51275130078126E
:10579400121B42EE2405F512EF3400F513781212B1
:1057A4001B421255CC1208FF74061218D5E9F50FE6
:1057B4006014850C82850D83E4F01260818510826B
:1057C4008511831258407C177D007900EEFAEFFBB7
:1057D40012108B8E828F83E4F0A3F0050E9002E802
:1057E400E0F8E50EC398501EE50E75F017A4F8A96D
:1057F400F0850882850983A3A312620E12582DEC4A
:105804004D600302577085088285098374FFF0A3F5
:10581400F0E50F70061255CC12056FA90F0255C39F
:10582400F50AEF3400F50B22A3E0FCA3E0FD228E81
:10583400828F83126089850E82850F83E8F0A3E945
:10584400F022C082C0839002E4E06A7003A3E06B9C
:1058540070067AE47B0280047A007B00024B33C03A
:1058640082C08378008C828D83E06A7003A3E06B2E
:105874007010E875F003A4F8A9F0EC28FAED39FBF0
:105884008015088C828D83A3A3A3E06A7003A3E030
:105894006B60DF7A007B00024B3374F612192F120F
:1058A40008AB8A828B83E582458370067A007B008D
:1058B4008007A3A3A3A31255D2025F3274F2121974
:1058C4002FE9FE740E12190B12591B741012190BC6
:1058D400125D938C828D83E064027036A312608F14
:1058E400F50CA3E0F9A80C740268700374296970BC
:1058F40021750C02750D00780C121B427808121BDE
:1059040042780A121B42EEF912092374061218D5C2
:1059140080027901025FB6E0F50AA3E0F50B227478
:10592400E812192F74FB1218BFE9851882851983B0
:10593400F08A168B17ECFEEDFF751000741D12191A
:105944000B126085741D12190B1258408E828F83BE
:10595400A3A3A3E0A2E4502D741D12190B1255D277
:105964001208ED8A828B83E58245837003025D64AD
:10597400790AEEFCEFFDAA16AB1712192DE9F51002
:105984006003025D67741F12190B125D9374211278
:10599400190B12591B742312190BE0F50EA3E0F531
:1059A4000F8E828F83E064026003025D12A3126093
:1059B40085850882850983A3858212858313EE2455
:1059C40006124D5588828983E0FAA3E0F9EA24009F
:1059D400F514E439F5157814121BCC0100002801E4
:1059E40028075A07000228CC5A0328395A002903E9
:1059F4005C01292E5C0229CF5B0329035C0429ADD9
:105A04005C125DE50E450F6003025D0D850C828519
:105A14000D83125D88FAE9FB8A828B83E0850A8212
:105A2400850B83125DBE121B428A828B83A3E0FC2A
:105A3400A3E0025C97E50E450F6003025D0D850A45
:105A440082850B837401F0125D9B8508828509832E
:105A5400F07C007D008E828F83A3A3A3A3E02401A6
:105A6400FAA3E03400FB1207D9EA4B60418A828B27
:105A740083E02402F8850A82850B83E028F0EA2477
:105A840004F8EB3400F988828983E0851282851357
:105A940083125DD0125DBE121B428A828B83125820
:105AA4002CE5082403FAE5093400FB025C9C850A12
:105AB40082850B83E02404F07C047D007900AA1223
:105AC400AB1312108B025D67E50E450F6003025D98
:105AD4000D125D9BFEA3E0FF850A82850B8374048F
:105AE400F0EE850882850983F0EF851282851383A1
:105AF400F0740312190BAC82AD83EEFAEFFB1207BC
:105B0400D98A0C8B0DEA450D7003025BB08A828B37
:105B140083A3A31249DE740112190B85820E8583B7
