:020000040000FA
:0600000002011A02236751
:03002B00022AC6E0
:03003B00022B3065
:03004300022A9BF3
:030053000223DAAB
:03006B00022AEE78
:100083000221D3E5C754F84401F5C77901220000E2
:100093000080FB120086B90003020104E479217891
:1000A30008B800028004F709D8FCE479297802B87B
:1000B30000028004F709D8FCE49002817871790A80
:1000C3008002F0A3D8FCD9FA781A90014A7A01BACF
:1000D30000028007E493A3F608DAF97AF17B0B9028
:1000E300014B78CB79048015E493A3AD82AE838A68
:1000F300828B83F0A3AA82AB838D828E83D8E9D9C6
:10010300E775821B7583D6740312012C7582917572
:100113008300740012012C75D00075813F7518811E
:10012300751902759F00020096C09FF59FE473D076
:100133009F22D083D082C09FE493C0E0740193C018
:10014300E0740293F59F2201FF0000B40000280031
:100153002800283075A000A000A000A0000008001F
:1001630008E001F000100010001000100010001053
:100173000050005000500010001000D00700000095
:100183000000000F0001000500307507001000019A
:100193000081FF00000000FF2B0749073107FF0222
:1001A300020208025000A0000000E80302DC810103
:1001B3000000B78102CE81010000480C02BC81011E
:1001C3000000B50202CE81010000490C02BE81018C
:1001D3000000CB0202CE810100004A0C02C0810163
:1001E3000000CD0202CE810100004B0C02C2810847
:1001F3000000CE0202CE810100004C0C02C481013A
:1002030000004D0CFF0100FF2002DC81010000AE65
:100213008102CE81010000B10C02C6810000000002
:100223000002BA810300001B03010D010D010D0142
:100233000D010D010D010D010D010D010D010D014B
:100243000D010D950FAD0F8F0FFFFF424D140020D1
:10025300006400126402DC81010000B48102CE81DB
:10026300010000FC0C02CC81010000FD0C02BA81EC
:100273000300005908020202020202020202010DF7
:10028300000000100102DC81010000B18102CE8177
:100293000100001E0D02D2810100005F0802CE8121
:1002A3000100001F0D02FE81010000E58002CE81E6
:1002B300010000200D02E681010000F28002CE81E0
:1002C300010000210D02E481010000FD8002CE81C6
:1002D300010000220D02E281010000088102CE81AB
:1002E300010000230D02E081010000138102CE8191
:1002F300010000240D02DA810100001E8102CE817B
:10030300010000250D02D881010000D78002CE81B3
:10031300010000260D02D681010000270D01E8032C
:10032300053F100AFF0001307503020106000000BB
:1003330000000000000000000000000000000000BA
:10034300000000000000000000FFFF0600800CE832
:10035300030160EA00000C09504D322E3554455319
:10036300544552051250002003020A0002010603FD
:1003730002F0FF0F18504D322E355F54455354454C
:100383005200A5140000C3140A43686172616374C8
:100393006572697374696320310002436861726135
:1003A3006374657269737469632032000A43686118
:1003B30072616374657269737469632033001043F7
:1003C3006861726163746572697374696320340070
:1003D3000A43686172616374657269737469632047
:1003E30035000A4368617261637465726973746985
:1003F30063203600024368617261637465726973D6
:100403007469632037000A436861726163746572BB
:1004130069737469632038000243686172616374AD
:100423006572697374696320390002DC810100001D
:10043300AB8102CE81010000310E02EC810300008A
:10044300BA0B02E881010000320E02CE81010000E6
:10045300430E02EE81010000BB0B02E881010000A4
:10046300440E02CE81010000550E02F0810300000C
:10047300CD0B02E881010000560E02CE810100007F
:10048300670E02F281000000CE0B02BA8103000066
:10049300E20B02E881010000680E02CE8101000038
:1004A300790E02F481030000E80B02E881010000E9
:1004B3007A0E02CE810100008B0E02F6810300004A
:1004C300E90B02E8810100008C0E02CE81010000DD
:1004D3009D0E02F881030000EA0B02E8810100008F
:1004E3009E0E02CE81010000AF0E02FA81030000CE
:1004F300EB0B02E881010000B00E02CE8101000087
:10050300C10E02FC81010000F00B02E88101000032
:10051300C20E120135FCD4031201350ED5031201AC
:100523003547D5031201357CD503120135ACC5031C
:10053300120135C3C503120135F4C5031201352F6A
:10054300C60312013559C60312013583C6031201CE
:10055300359AC603120135B1C603120135C8C60365
:10056300120135F1C60312013504C7031201351A0E
:10057300C7031201352DC70312013554C7031201F6
:100583003519C1021201351DC20212013555C202CD
:1005930012013578C20212013583C202120135A657
:1005A300C202120135B5C3021201358AC402120117
:1005B3003505C5021201358DC502120135C8C502C4
:1005C300120135FFC5021201358DC60212013566CF
:1005D300C702120135C6C702120135D1C702120183
:1005E3003550C80212013553C80212013556C802EC
:1005F300120135E5C802120135E8C80212013518A7
:10060300C90212013542C90212013530CA02120170
:1006130035E2CA021201355A970312013582970354
:10062300120135B09703120135E7970312013545DF
:100633009803120135909803120135DB98031201D8
:10064300351B99031201356199031201358F990303
:100653001201354C9A03120135569A031201356380
:100663009A03120135969A03120135629B03120114
:10067300356E9B03120135869B03120135909B0354
:1006830012013515D20312013523D2031201353B72
:10069300D20312013553D203120135F2DC011201E8
:1006A300359EDD0112013519DE011201353ADF01F4
:1006B30012013576DF011201351FE0011201350603
:1006C300E1011201356AE201120135C1E2011201B1
:1006D3003542E30112013532E4011201357FE401B1
:1006E30012013505E50112013537E5011201354BDC
:1006F300E7011201358DE701120135ABE701120164
:10070300352EE80112013502E901120135CAE9016A
:1007130012013589EE021201355CEF021201350533
:10072300F00212013558F00212013508F1021201EC
:100733003594F10212013580F202120135AFF20253
:10074300120135C2F3021201350AF402120135DF38
:10075300F4021201351BF50212013537F5021201BD
:100763003597D50312013573B10312013589B103EE
:10077300120135AFB103120135CBB203120135D5E6
:10078300B2031201350AB40312013502B503120193
:1007930035557A00120135857B00120135B87B008F
:1007A300120135027C00120135C97D00120135A109
:1007B300BD011201350BBE011201356ABF011201E1
:1007C300357ABF01120135A7BF01120135FEBF0102
:1007D300120135A7C001120135AEC10112013578EE
:1007E300C201120135D8C3011201351BC401120124
:1007F30035C0C4011201350DC50112013533C501E0
:1008030012013541C70112013546C7011201354BAB
:10081300C90112013598C9011201350BCA01120130
:10082300353ECA01120135E0CA0112013589CB01F7
:10083300120135C1CB01120135C4CB011201350CB4
:10084300CC011201354CCC01120135A3CC011201AC
:100853003561BB0312013579BB03120135C1BB03FB
:10086300120135D7BB031201351EBC031201353209
:10087300BD03120135BFBD031201350ABE031201C8
:1008830035EC4700120135F84700120135334800B3
:10089300120135784800120135384900120135BE7E
:1008A3004900120135234A001201354F4A00120153
:1008B30035884A00120135C64C00120135AA4E0094
:1008C300120135905000120135D351001201352128
:1008D30054001201353355001201357E56001201C2
:1008E300358E5700120135AB5700120135E657001C
:1008F3001201350858001201356B58001201352CCE
:100903005D00120135C15D00120135125E00120156
:1009130035395E001201358B5E00120135A95E0088
:10092300120135035F00120135EC5F0012013562DD
:100933006100120135E66100120135179C031201B3
:1009430035219C03120135649C031201357F9C03FE
:100953001201350F9D03120135379D0312013574C2
:100963009D03120135AB9D03120135D49D03120182
:1009730035499E031201355E9E03120135739E03B2
:10098300120135A49E03120135B89E03120135DD11
:100993009E03120135179F03120135439F03120172
:1009A300357B9F03120135FA9F0312013543A003E0
:1009B3001201356DA00312013598A003120135E72A
:1009C300CF0312013518A90212013546A9021201FB
:1009D3003594AA0212013574AB0212013593AB02AE
:1009E30012013510AC0212013553AC02120135A9C4
:1009F300AD021201356AAE02120135F1B0021201E5
:100A03003592B10212013588B20212013585B30263
:100A1300120135DFB4021201356AB5021201354EF7
:100A2300CC03120135B7CC031201350BCD031201F0
:100A33003532CD0312013563CD03120135C0A00356
:100A43001201352DA10312013574A1031201358C56
:100A5300A20312013588A3031201356BA40312010B
:100A630035A6DE02120135E8DE02120135BADF02D5
:100A730012013593E0021201358DE1021201356F47
:100A8300E202120135D8E2021201358EE3021201AD
:100A93003502E4021201356EE40212013597E402D5
:100AA30012013511E502120135AAE5021201350FD3
:100AB300E60212013524E6021201356AE60212014A
:100AC3003583E602120135E8E602120135EBE60250
:100AD30012013568B80312013590B803120135CEFF
:100AE300B8031201358CB903120135F3B9031201AE
:100AF300350FBA0312013537BA0312013567BA034A
:100B030012013576BA03120135F3BA03120135190E
:100B1300BB0312013590CD011201356ECF011201D5
:100B230035A0D101120135DCD10112013509D20101
:100B3300120135F3D2011201353ED3011201358979
:100B4300D3011201359BD301120135DBD30112010D
:100B53003510D4011201355ED4011201358DD40153
:100B6300120135B0D401120135FDD40112013582D1
:100B7300D5011201359CD701120135DBD9011201D0
:100B8300351CDA01120135BEDB01120135FFDB0131
:100B930012013572DC01120135C8DC011201350383
:100BA3009C02120135019D021201359AA302120122
:100BB30035BBA50212013586A702120135EEA80244
:100BC3001201354D6200120135FC62001201352914
:100BD30063001201356F6300120135AF6400120127
:100BE30035456600120135BF6600120135DA66002D
:100BF300120135556700120135AF68001201350F38
:100C03006A00120135156B00120135766C00120172
:100C1300358F6C00120135ED6C00120135DB6D0070
:100C23001201350E6E001201357E6E00120135F889
:100C33006E00120135426F001201350C7000120173
:100C430035E17000120135C071001201354B72009D
:100C5300120135B972001201352D73001201355896
:100C630073001201351774001201357C75001201EF
:100C730035997500120135B87500120135A9760052
:100C8300120135CE7600120135F876001201357364
:100C93007700120135CD7700120135367900120144
:100CA30035E47900120135257A001201352F8E02C1
:100CB3001201357D8E02120135898E0212013567CC
:100CC3008F02120135988F02120135C98F0212016A
:100CD30035499002120135819002120135D39002F9
:100CE3001201351091021201352D93021201355371
:100CF30095021201353E970212013528990212011D
:100D030035F4FF02120135109701120135409701A6
:100D1300120135199E011201359E9F011201359B67
:100D2300A50112013583A601120135C0A6011201E6
:100D330035E3A60112013514A7011201351DA701E0
:100D430012013527A70112013515A8011201350B30
:100D5300A901120135018201120135008601120138
:100D630035068601120135418D011201355A920172
:100D7300120135A5AD031201353BAE031201355106
:100D8300AE03120135C7AE031201353BAF031201A7
:100D93003579AF03120135EDAF0312013566B003A8
:100DA3001201356FB0031201357BB0031201359088
:100DB300B003120135CEB003120135E4B0031201C2
:100DC3003543B1031201352DA5031201353AA503AD
:100DD30012013554A50312013593A503120135D130
:100DE300A50312013536A6031201354BA6031201E2
:100DF3003556A60312013563A6031201357AA603FD
:100E030012013588A60312013593A6031201359FFB
:100E1300A603120135AEA603120135B9A6031201CA
:100E230035DCA60312013583A70312013593A7030B
:100E3300120135ADA703120135CAA703120135E626
:100E4300A7031201350BA80312013516A8031201DB
:100E5300352BA8031201353FA803120135A0A803BF
:100E6300120135A6A803120135ACA803120135B24D
:100E7300A803120135CAA803120135FDA803120104
:100E8300350580021201358980021201353881024D
:100E9300120135978202120135B88402120135A47A
:100EA3008502120135D98502120135FB8502120133
:100EB30035AA8602120135A28802120135CB8802B7
:100EC3001201355D89021201358F89021201359CA9
:100ED3008902120135F38902120135198A021201BE
:100EE30035868C02120135898D02120135E18D029E
:100EF300120135E3EB01120135EDEC01120135D49A
:100F0300ED01120135DEED0112013500EE01120192
:100F1300350CEE01120135A5EF01120135D4EF01B5
:100F2300120135F0F00112013549F101120135AF1B
:100F3300F2011201358EF301120135EAF3011201B8
:100F43003557F40112013592F401120135D1F40140
:100F53001201358AF701120135A4F7011201353068
:100F6300F8011201353EF80112013597F80112011B
:100F730035A5F80112013518F9011201357CF90183
:100F8300120135C6F901120135EBB5021201350D17
:100F9300B60212013533B80212013548BB02120101
:100FA3003560BC0212013513BD02120135F5BD02D5
:100FB3001201351CC90312013541C903120135B3AE
:100FC300C9031201350FE70212013518E7021201B6
:100FD3003521E702120135F8E702120135A9E902CA
:100FE300120135DFE90212013519EA021201354F08
:100FF300EA0212013589EA02120135BDEA02120141
:1010030035E9EA0212013532EB021201356CEB02CB
:10101300120135B5EB021201350DEC021201354216
:10102300EC021201359DEC02120135D7EC021201DC
:101033003528ED021201355EED0212013598ED02FD
:10104300120135C6ED02120135E9ED02120135AE8A
:10105300D303120135DAD30312013535D403120158
:10106300353FD4031201354FD403120135008003F9
:101073001201350E8003120135548003120135A786
:101083008003120135EF80031201354981031201F8
:10109300356F81031201357D8103120135D9810337
:1010A3001201350C82031201351F8203120135AA86
:1010B3008203120135438303120135C083031201F6
:1010C30035F98303120135818403120135D8840372
:1010D3001201353585031201354785031201356D3C
:1010E3008503120135768503120135BD860312018E
:1010F30035A9CD0312013575CE03120135E0C003C6
:1011030012013525C10312013565C10312013502F0
:10111300C303120135ECD20312013507D3031201C5
:101123003517D3031201356ED30312013559D40396
:10113300120135F4860312013514870312013504B5
:1011430088031201354D88031201356D880312019E
:1011530035AB88031201350689031201354489032F
:101163001201358E89031201355A8C03120135C3DE
:101173008C03120135CDCE03120135FECE031201CD
:101183003528CF0312013580CF031201357AA90325
:10119300120135F2A90312013503AA031201359492
:1011A300AA031201350CB50312013542B50312012E
:1011B3003555B50312013593B503120135B4B503A3
:1011C30012013534B603120135F7B6031201357631
:1011D300B70312013556B803120135869203120183
:1011E30035AB9203120135DB92031201357C7F008C
:1011F300120135B42B00120135AD2E00120135302A
:101203003000120135D4300012013569310012016A
:1012130035F131001201351B3200120135C13600A0
:10122300120135583700120135873800120135EBAA
:1012330038001201359F3900120135523C0012016A
:10124300358C3C00120135F63C00120135543D004B
:10125300120135B23D001201350F3E00120135FE79
:101263003E00120135443F00120135893F0012014F
:1012730035AA3F00120135F1400012013505410046
:101283001201350C42001201353942001201356258
:101293004200120135A84200120135C64200120174
:1012A300350443001201354B4500120135844500D6
:1012B3001201351446001201357F4600120135B87C
:1012C3004700120135DED603120135F47F00120107
:1012D30035A1D60312013500D10312013510D10314
:1012E3001201352AD10312013504D2031201353418
:1012F300BE03120135CFBE03120135C5C00312016F
:1013030035C1CA0312013510CB0312013542CB0399
:10131300120135D4CB03120135FDFF011201354F04
:10132300FA0112013571FA0112013503FB011201B1
:101333003501FC0112013516FF0112013576FF015B
:10134300120135DFFF01120135F87F001201354725
:10135300C303120135F2C4031201355EC503120142
:1013630035A9C503120135D48C03120135DC8E0374
:10137300120135508F031201354C9003120135339E
:101383009103120135FE91031201352D92031201CF
:10139300353092031201353E920312013552920306
:1013A3001201356A920312013578920312013566F0
:1013B300C703120135C5C70312013562C803120101
:1013C30035C8C803120135CAFC02120135FDFC02FF
:1013D300120135F7FD021201352DFF0212013553BB
:1013E300CB021201352FCC0212013576CC02120149
:1013F30035B3CC021201351FCD0212013577CD0270
:10140300120135E7CD02120135BFCE02120135AC10
:10141300CF0212013530D002120135CCD1021201B4
:101423003555D202120135C2D20212013538D30228
:101433001201354FD30212013583D402120135D57F
:10144300D40212013523AB01120135AAAF011201F7
:10145300358FB201120135B5B201120135DEB20189
:1014630012013590B3011201356CB50112013578C3
:10147300B60112013569BB01120135A2BB0112018C
:1014830035E6BB01120135EEBC011201354ED50222
:1014930012013544D8021201352BD90212013557F6
:1014A300D90212013588D902120135E6DA02120196
:1014B300355DDB02120135A6DB02120135F7DB02D3
:1014C3001201353CDC0212013578DD021201352EA2
:1014D300DE021201355FDE02120135ACF5021201A4
:1014E30035F9F50212013516F60212013588F702B5
:1014F3001201358DF80212013513FA021201351F5C
:10150300FC021201355CFC0212013575D60312018F
:1015130035C0D603E76670100809E766700A080944
:10152300E76670040809E76622E066701008A3E026
:1015330066700A08A3E066700408A3E06622C3E7A6
:10154300960809E7960809E7960809E79622C3E093
:101553009608A3E09608A3E09608A3E09622C008A5
:10156300C3E096F50808A3E096420808A3E0964274
:101573000808A3E09645087001D3D008220808089C
:10158300EAC0E0EBC0E086F0E7A4FA180986F0E7CA
:10159300A42AFA180986F0E7A42AFA180986F0E7BC
:1015A300A42AFA1986F0E7A4FBE5F02AFA190886BB
:1015B300F0E7A42BFBE5F03AFA190886F0E7A42B31
:1015C300FBE5F03AFA18180986F0E7A4C5F02BFBFF
:1015D300E43AFA1908E7C5F0C6A426F6E5F03BFBA2
:1015E300E43AFA1886F0E7A4F6E5F00826F6E43BB9
:1015F30008F6E43A08F6D0E0FBD0E0FA22E4CFC0E4
:10160300E0E4CEC0E0E4CDC0E0E4CCC0E075F0207F
:10161300E626F608E633F608E633F608E633F61868
:101623001818EC33FCED33FDEE33FEEF33FFC3EC60
:101633009709ED9709EE9709EF97191919400FFFCD
:10164300EC97FC09ED97FD09EE97FE191906D5F005
:10165300BFECF709EDF709EEF709EFF7191919D000
:10166300E0FCD0E0FDD0E0FED0E0FF2260160808E9
:1016730008C6C313C618C613C618C613C618C6139E
:10168300C6D5E0EA2270090808082260161818185F
:10169300C6C333C608C633C608C633C608C633C670
:1016A300D5E0EA22E627F60809E637F60809E63721
:1016B300F60809E637F622E026F608A3E036F60830
:1016C300A3E036F608A3E036F622E026F008A3E00E
:1016D30036F008A3E036F008A3E036F022C3E6971D
:1016E300F60809E697F60809E697F60809E697F675
:1016F30022C3E096F008A3E096F008A3E096F00872
:10170300A3E096F022E657F60809E657F60809E63D
:1017130057F60809E657F622E056F608A3E056F610
:1017230008A3E056F608A3E056F622E056F008A315
:10173300E056F008A3E056F008A3E056F022E0F6E6
:1017430008A3E0F608A3E0F608A3E0F622E6F00813
:10175300A3E6F008A3E6F008A3E6F022E0FAA3E08C
:10176300FBA3E0FCA3E0FD22EAF0A3EBF0A3ECF083
:10177300A3EDF022E0F8A3E0F9A3E0FAA3E0FB2253
:10178300E8F0A3E9F0A3EAF0A3EBF022CAC0E0E695
:10179300F0A308DAFAD0E0FA22CAC0E0E0A3C582D7
:1017A300CCC582C583CDC583F0A3C582CCC582C514
:1017B30083CDC583DAE6D0E0CA22C3E498F8E4997E
:1017C300F91217FE8026C3E49AFAE49BFBE920E7AB
:1017D300E91217FEE498F8E499F922C3E498F8E4CF
:1017E30099F91217FEE498F8E499F9C3E49AFAE434
:1017F3009BFB22EB20E7CFE920E7E0B90010BB0019
:1018030008E88AF084F8AAF022E4FBC8FA22EB7015
:10181300227B10C833C8C933C9335007C39AC3DB0B
:10182300F280069A50012ADBEAC833F4C8C933F4BC
:10183300C9FA2275F008E4C833C8C933C933C99A51
:10184300C99B5004C92AC93BD5F0ECFBC833F4C883
:10185300E4C9FA22600D08C6A2E713C618C613C668
:10186300D5E0F322600C08C6C313C618C613C6D549
:10187300E0F422700422600D18C6C333C608C633D1
:10188300C6D5E0F41822251810AF08F518400C153A
:10189300198008F51840021519D2AF2200C0D025CF
:1018A3001810AF08F518500C05198008F5185002E8
:1018B3000519D2AFD0D0222518F58210AF08F5183C
:1018C300400C15198008F51840021519D2AF851977
:1018D30083222518F582E43519F583222518F8E4C7
:1018E3003519F9222518FAE43519FB222518FCE4E9
:1018F3003519FD22E4732518C582C0E0E51934FFCC
:10190300C583C0E0E518C3958224F810AF0885832A
:10191300198582188008858319858218D2AFCEF085
:10192300A3E520F0A37808E608F0A3DEFAEFF0A31E
:10193300E58124FAF8E608F0A3E608F0A3E608F048
:10194300A30808E608F0A3E608F0A315811581D0E3
:10195300E0FED0E0F8158115811581E8C0E0EEC006
:10196300E0222518C582C0E0E51934FFC583C0E035
:10197300E518C3958224F910AF0885831985821869
:101983008008858319858218D2AFCEF0A3E520F0B5
:10199300A37808E608F0A3DEFAEFF0A3E58124FBC1
:1019A300F8E608F0A3E608F0A30808E608F0A3E6C3
:1019B30008F0A315811581D0E0FED0E0F81581155C
:1019C30081E8C0E0EEC0E022851983851882E0A398
:1019D300FEE0A3F5207808E0A3F608DFFAE0A3FF12
:1019E300E0A3C0E0E0A3C0E0E0A3C0E0E0A3C0E068
:1019F300E0A3C0E010AF08858218858319800885AD
:101A03008218858319D2AFD083D08202013285191F
:101A130083851882E0A3FEE0A3F5207808E0A3F60F
:101A230008DFFAE0A3FFE0A3C0E0E0A3C0E0E0A387
:101A3300C0E0E0A3C0E010AF088582188583198059
:101A430008858218858319D2AFD083D08222C0D073
:101A53002518C582C0E0E51934FFC583C0E0E51849
:101A6300C3958224F310AF088583198582188008F3
:101A7300858319858218D2AFC8F0A3E9F0A3EAF0F1
:101A8300A3EBF0A37908E709F0A3D8FAECF0A3EDF0
:101A9300F0A3EEF0A3EFF0A3D0E0F0A3D0E0F0A327
:101AA300D0E0F0A3E520F0A3E5F0F0A322851983AD
:101AB300851882E0C0E0A3E0F9A3E0FAA3E0FBA36A
:101AC3007808E0F608A3DFFAE0FCA3E0FDA3E0FE5C
:101AD300A3E0FFA3E0C0E0A3E0C0E0A3E0F5D0A350
:101AE300E0F520A3E0A3F5F010AF08858319858204
:101AF300188008858319858218D2AFD082D083D00D
:101B0300E0F8D0E03274048006740280027401C0ED
:101B1300E0F4041218BAD0E012178F227404800480
:101B230074028000CCC0E0EDC0E0E518C39CCCADEE
:101B33001950011D10AF068C188D1980068C188D55
:101B430019D2AF12179CD0E0FDD0E0FC22D083D095
:101B530082E9C0E0E493A3C386F0C5F095F0F908E9
:101B6300E493A386F0C5F095F0700BE493A3C399B7
:101B73004005E9048002A3E475F002A42582F582FE
:101B8300E5F03583F583D0E0F9E493A3C0E0E49373
:101B9300C0E022D083D082ECC0E0EDC0E0E493A3A8
:101BA300FCE493A3FDED4C600D121BE2EC24FFFC5F
:101BB300ED34FFFD80EFE493A3FCE493A3FDED4C30
:101BC300600D121C21EC24FFFCED34FFFD80EFD0EF
:101BD300E0FDD0E0FCE493A3C0E0E493C0E022C0C6
:101BE300E0C3E49396087401939618400FE4936658
:101BF300700808740193661870007019A3A3C3E4F6
:101C03009396087401939618A3A3400DD0E0D0E0F7
:101C1300D0E0021BD2A3A3A3A3A3A3D0E022C0E0DE
:101C2300C0F088F0E4936670080874019366187036
:101C330000A8F0A3A3700BD0F0D0E0D0E0D0E00276
:101C43001BD2A3A3D0F0D0E02274F5121965EAFEEB
:101C5300EBFFEE2434F8EF3400F988088909EE2409
:101C630035F582EF3400F583E0F8EE2437F582EFA3
:101C73003400F583E0F50AEC850AF0A4FCAAF085AC
:101C83000AF0EDA42AFDE82CF8E43DF97A257B005F
:101C93001217FEEA850882850983F0F8740758F95C
:101CA3007401B900028004C333D9FCFAE813131397
:101CB300541FF8EE28F8EF3400F9E8245DF582E9C3
:101CC3003400F583E05A6008EE2434F582EF802C6B
:101CD300EE2434F582EF3400F583E0C0E0EE2436E1
:101CE300F582EF3400F583E0F5F0D0E084A8F0EE60
:101CF30028F8EF3400F9E82438F582E93400F58355
:101D0300E0F97F04021A1174F5121965EAFEEBFF7C
:101D1300EE2434F582EF3400F583E0C0E0EE2435A1
:101D2300F582EF3400F583D0E0F08E828F83A3A396
:101D3300A3A3A3A3A3C082C0838E828F83A3A3A3E1
:101D4300A3A3E0F8A3E0F9D083D082E0C398F50819
:101D5300A3E099F509EE247FF582EF3400F583E0E3
:101D630064017069EE2480F582EF3400F583E0F8B6
:101D7300A3E0F98E828F83A3A3A3A3A3A3A3E0FC71
:101D8300A3E0FD8E828F83A3A3A3A3A3E0FAA3E022
:101D9300FBC3EA9CEB9D5010C3EC98ED99402EC316
:101DA300EA98EB995027800EC3EA98EB994007C352
:101DB300EC98ED9940177CDE7D04EEFAEFFB120CF4
:101DC3005FEE247FF582EF3400F583E4F0EE2434F4
:101DD300F8EF3400F9E8FCE9FDEE2435F582EF3441
:101DE30000F583E0F8EE2437F582EF3400F583E065
:101DF300F50AE508850AF0A4F508AAF0850AF0E5D6
:101E030009A42AF509E82508F8E43509F97A257BB8
:101E1300001217FEEA8C828D83F0F8740758F97468
:101E230001B900028004C333D9FCFAE81313135435
:101E33001FF8EE28F8EF3400F9E8245DF582E93461
:101E430000F583E05A6008EE2434F582EF802CEE2F
:101E53002434F582EF3400F583E0C0E0EE2436F558
:101E630082EF3400F583E0F5F0D0E084A8F0EE28AB
:101E7300F8EF3400F9E82438F582E93400F583E01B
:101E8300F9122A87021D05C082C08385188285192D
:101E930083E0F8A3E0F9C3EA9CEB9D5010C3EC98F0
:101EA300ED99401BC3EA98EB995014800EC3EA984E
:101EB300EB994007C3EC98ED9940047901800279CE
:101EC30000D083D08222EAC39CFAEB9DFB2274EFFD
:101ED3001219659003A4E064086005E06407702AA2
:101EE3009061C8E060249003D2E0F4601DE0F875CF
:101EF300F003A4C8AAF02AF974D428FE740339FFA6
:101F03008E828F83A3A3A3E07003022001906060FD
:101F1300E0C0E0EE2468F582EF3400F583D0E0F012
:101F2300750C47750D05750800750900E5D914F59D
:101F33000AE5D95403F50E60177403650E605CE57A
:101F43000A6010EE2467F582EF3400F583E0700336
:101F5300021FE6900542E06401602AEE2482F582C6
:101F6300EF3400F583E06004780480027800850A8A
:101F730008E508C398FA95E0FB120B278A088B093A
:101F8300EA45097005120E638074EE2482F582EF30
:101F93003400F583E070048A0C8B0DE50A6012852A
:101FA3000C82850D83F50BE5D9F0A3150BE50B70BA
:101FB300F6EE2482F582EF3400F583E0604474FC8E
:101FC300250AF50A780C121B0CAC0AA90EEEFAEFDF
:101FD300FB120CFB740212189FE97026AA08AB09C6
:101FE3001213B5793D8E828F83A3A3A3A3E0FA7B5B
:101FF300001209FBEEFAEFFB120C77120D0D7900BC
:1020030080747403650E6056850A1075110078108C
:10201300121B0CAC0CAD0DAA08AB09120CD7740241
:1020230012189FEE2468F582EF3400F583E0648094
:102033007004747F8001E0F50C780C121B10E50E20
:10204300F50C780C121B10A90AAC08AD099003D249
:10205300E0FA7B001209BF740212189F80139003E9
:10206300A4E06408600BAC0CAD0DEEFAEFFB120DAF
:1020730067120E6F79017F0A021A1174F51219653E
:1020830074FC121889EAFEEBFF8908A2AFE433F56A
:1020930009C2AF806AEE2463F8EF3400F97A007B5B
:1020A30000A2AFE433F50AC2AF88828983E0FCA3C0
:1020B300E0FDEC4D603A88828983E0FAA3E0FB8A75
:1020C300828B83E0FCA3E0FD88828983ECF0A3ED9F
:1020D300F08A828B83E4F0A3F088828983E0FCA3F7
:1020E300E0FDEC4D700A88828983A3A3E4F0A3F09A
:1020F300E50AA2E092AF1213B59004E5E004F0EE16
:102103002463F582EF3400F583E0F8A3E0F9E849AE
:10211300603DEE2463F582EF3400F583E02402FA98
:10212300A3E03400FBEA2402F50AEB3400F50B7854
:102133000A121B0C8A828B83E0FCA3E0F9EEFAEF10
:10214300FB120C9B740212189FE9700302209890F3
:1021530004E5E060639004E6E0F89004E5E0C398EA
:10216300500C7402650870509004E7E0604A8E8258
:102173008F83A3A3A3A3E0851882851983F0A3E427
:10218300F09004E5E0F874021218D5E8F0A3E4F047
:102193009004E5E0F89004E4E028F074021218D506
:1021A300AC82AD83851882851983AA82AB837901BA
:1021B3001209CB9004E5E4F0E509A2E092AF7404C0
:1021C30012189F021D050000008521878522C62263
:1021D300C0E0C0D0E8C0E0E9C0E0EAC0E0EBC0E0A6
:1021E300ECC0E0EDC0E0EEC0E0C008C009C00AC02A
:1021F3000BC082C083C0F0A2AFE433FEC2AF759BB5
:1022030000906182E0A2E05012E591A2E0500C75CB
:1022130091FE740165217003121ED1E0A2E55051B5
:10222300E591A2E5504B7591DF9003A4E06407604C
:1022330005E064087023740165217035790190030A
:10224300D2E0FA75F003A4CAA8F028FB74D42AFAE2
:1022530074033BFB12207E8018E0640D701390031F
:10226300C6E004F064287002E4F07A00E0F9120E8C
:1022730075906182E0A2E6400302231AE591A2E68B
:10228300400302231A7591BF9003A4E0640570080C
:10229300120D9D120DA98003120DA3752100120EBC
:1022A30003E99003A5F07900120DF7120BD57A011B
:1022B3007B009003A3E0F91210C7907803E0644217
:1022C3007055900546E014F0704DC2AF1222D20053
:1022D300782AD0E0F618D0E0F6E59F54077005752C
:1022E30009FF800375097FC4C0E07829E6F5080873
:1022F300E65509F509740B7808121867D0E025082C
:10230300F8906270E0A2E740F8E8C333906272F09D
:10231300906270E0D2E0F0906181E0A2E35009E5C1
:10232300E9A2E3500375E9F7A3E0A2E75009E591B9
:10233300A2E7500375917FEEA2E092AFD0F0D08375
:10234300D082D00BD00AD009D008D0E0FED0E0FD77
:10235300D0E0FCD0E0FBD0E0FAD0E0F9D0E0F8D058
:10236300D0D0E032C0E0C0D0C082C083906183E0AF
:10237300A2E05009E5BFA2E0500375BFFEE0A2E171
:102383005009E5BFA2E1500375BFFDE0A2E2500989
:10239300E5BFA2E2500375BFFBE0A2E35009E5BF2E
:1023A300A2E3500375BFF7E0A2E45009E5BFA2E43E
:1023B300500375BFEFE0A2E55009E5BFA2E5500366
:1023C30075BFDFE0A2E65009E5BFA2E6500375BF83
:1023D300BFD083D0828088C0E0C0D0E8C0E0E9C02D
:1023E300E0EAC0E0EBC0E0ECC0E0EDC0E0C0F0E547
:1023F300A7A2E6500FE5A1A2E6500953A7BF75A116
:10240300BF12243FE5A7A2E5500CE5A1A2E55006C3
:1024130053A7DF75A1DFE5A7A2E15009E5A1A2E17A
:10242300500375A1FDE5A7A2E2500CE5A1A2E2507D
:102433000653A7FB75A1FBD0F002235074F81219C1
:10244300657521019003A4E064067015120D2B8AB3
:10245300828B83A3A3A3A3A3A3E0FAA3E0FB120DA0
:102463008BA2AFE433FED2AF9003AAE064017018ED
:102473007A207B009003A3E0F91211577A207B00A6
:102483009003A3E0F91210CD906182E0D2E6F090C0
:102493000543E0602185C62280169003A9E064010C
:1024A3007008E5C654F84405F5C653BEFC1221CCAA
:1024B3007401652160E4EEA2E092AF7F01021A117C
:1024C300008E238F2485822885832785188285198A
:1024D30083E0CEA3E0CF852882852783EBC9EAC8B2
:1024E300EDCBECCA75F010C3E833C8E933C9EA335E
:1024F300CAEB33CBC3EA9EF526EB9FF525B3500415
:10250300AB25AA26EC33CCED33CDD5F0DAAE23AF31
:10251300242274E912196574F812188985188285C2
:102523001983ECF0A3EDF08A088B099003A4E0244F
:10253300F7C3940550067508010226AC120D2B8AC9
:102543000A8B0BAE0AAF0BEE4F70030226A9AC0841
:10255300AD0974021218D5AA82AB83120DBB8E8209
:102563008F83A3A3750CFF750DFF750EFF750F0009
:10257300780C12171B74021218D57510FF7511FF12
:102583007512FF751300781012171B780C7910124F
:102593001541502A780C79101216E0750801750957
:1025A300C8750A00750B007808790C121541505252
:1025B300850C08850D09850E0A850F0B805075144F
:1025C300017515C875160075170085100885110962
:1025D30085120A85130B7808790C1216E0781479A2
:1025E30008121541401C750800750900750A00752D
:1025F3000B01780879101216E07808790C1216A7E7
:10260300800C750801750900750A00750B007409C3
:102613007808121688750C19F50DF50EF50F780864
:10262300790C1216008E828F83A3A3A3A3A3A3E026
:10263300F8A3E0F97AD07B031217FE880C890DE426
:10264300F50EF50F7808790C1216A774061218D533
:10265300E0F8A3E0F97AD07B031217FEE8FA8A0CBC
:10266300E4F50D7808790C12154150077808790CB8
:102673001216E09003A4E06408600AE064066005B3
:10268300E06405702D750C0D780C79081215414026
:1026930021750CF4750DFF750EFF750FFF78087922
:1026A3000C1216A7800C750800750900750A0075D1
:1026B3000B00851882851983E0F8A3E0F5838882EF
:1026C3007808121750740812189F7F10021A117499
:1026D300F7121965120DCD900541E0640170109059
:1026E3006245E4F0A3F053F4F343FE0C5390F3126A
:1026F3000D79E5C654804449F5C6E59E547F644987
:1027030070F8906185740FF090053FE0F47002A3B8
:10271300E0604E900540E0600814601B14602E805A
:102723004075080175090090053FE0780812187696
:10273300E508F45280802A75080175090090053F69
:10274300E07808121876E508F452908014750801B1
:1027530075090090053FE07808121876E508F452F1
:10276300A079007F02021A1174F7121965E9FEEAD3
:10277300FF74016E700C7A807B009003A3E0F91262
:1027830010C7902BACE493F46008E493F9120BC9DF
:10279300800953C680E59E547F70FA120D7F900521
:1027A30041E064017003120BE190053FE0F4700215
:1027B300A3E0604B900540E0600814601A14602C9D
:1027C300803D75080175090090053FE078081218EF
:1027D30076E5084280802875080175090090053F59
:1027E300E07808121876E5084290801375080175A1
:1027F300090090053FE07808121876E50842A01218
:102803000DCD120D2B8A088B09A808A909E8496088
:1028130015E5E170FCE82414F582E93400F583E062
:10282300F46003E0F5E174016F700A7A019003A389
:10283300E0F912112102276674ED1219658A088BDB
:10284300098C0A8D0B74131218D5780C1217417862
:1028530008790C1215417510017511C875120075B0
:10286300130050127808790C1216E07810790812C8
:10287300154150168010780C79081216E0781079FB
:102883000C12154140047901800279007F0C021A71
:102893001174ED1219658A088B098C0A8D0B741358
:1028A3001218D5780C121741780C7908121541408B
:1028B300117808790C1216E0AA08AB09AC0AAD0B23
:1028C30080227510007511007512007513017810C0
:1028D300790C1216E0781079081216A7AA10AB111A
:1028E300AC12AD1380A68A828B837508FF7509FF2E
:1028F300750AFF750B00780812172E7F04021A1150
:1029030074F51219658C828D8378081217418A82B7
:102913008B8378081216F4EA2404F8EB3400F98C5C
:10292300828D83A3A3A3A3E0FCA3E0FD8882898314
:10293300C3E09CF0A3E09DF088828983C3E09420E8
:10294300A3E0944E40268A828B837508FF7509FFA6
:10295300750AFF750BFF78081216CD8A828B83A345
:10296300A3A3A3E02420F0A3E0344EF00228E974EB
:10297300F5121965E9FE9004F9E0FAA3E0FBEEC352
:1029830033F8E433F974A728F582748039F583E0CA
:102993002AF508A3E03BF5097808121B0C7A407B63
:1029A300427C0F7D001224C4740212189F8A088B84
:1029B300098C0A8D0B7410780812166FAA08AB09DC
:1029C3007F04021A1174F11219658A0C8B0D8C0E97
:1029D3008D0F740F1218D5E0FAA3E0FB74111218CF
:1029E300D5E0F508A3E0F5097808121B0CEA2401E9
:1029F300F508EB3400F509E4F50AF50B780C7908D2
:102A0300121580750871750902780C790812158002
:102A1300AA0CAB0DAC0EAD0F1224C4740212189F96
:102A23008B09EA450960047A0180027A00EC2AFCEA
:102A3300ED3400FD74131218D5E0F8A3E0F9E8FEB5
:102A4300E9FFECF8EDF97A717B021217FE88088929
:102A5300098E828F837808121750ECF8EDF97A719A
:102A63007B021217FE8A088B097405780812187600
:102A73008E828F83A3A3A3A3E508F0A3E509F07FC8
:102A830008021A11C082C083E9906000F0D083D09D
:102A93008222C2AF02000022C0E074F2121A51A2D5
:102AA300AFE433FED2AFC2C0E5D1A2E4500653D1A6
:102AB300EF1213A9751A00EEF8EEA2E092AF7F01B0
:102AC300021AB0C0E0C0D0E8C0E0E9C0E0A2AFE4C1
:102AD30033F8D2AFC2C7751A00E8F9E8A2E092AFA3
:102AE300D0E0F9D0E0F8D0D0D0E032C0E074F212F8
:102AF3001A51A2AFE433FED2AF758900C2C5900963
:102B0300767401F0751A007A0190094AE0F91211FE
:102B130021E9F9900AFAE0F8900AFBE0687002D222
:102B230085EEF8EEA2E092AF7F01021AB0C0E0C0DA
:102B3300D0E8C0E0E9C0E0C008C009C082C083A2F9
:102B4300AFE433F9D2AF900AFAE0F8900AFBE068F9
:102B5300700B539AFB900AFC7401F08031C2E99028
:102B63000AFAE0F50874012508900AFAF0750900DD
:102B7300747A2508F582740A3509F583E0F5C19066
:102B83000AFAE0C394804006900AFA7400F0E9F868
:102B9300E9A2E092AFD083D082D009D008D0E0F987
:082BA300D0E0F8D0D0D0E03200
:102BAC00FFFFFFFFFFFFFFFF74F21218F974FA1218
:102BBC001889E9FF8C0C8D0D7E008A088B0978082A
:102BCC00121B500004107F2EF62B192C382C5B2C6A
:102BDC007E2CA12CD22CF52C0C2D3C2DEC2D0F2E5B
:102BEC00312E562E7F2E7F2E652D74016F70198518
:102BFC000C82850D83E0C39403500D850C82850DEA
:102C0C0083E0900DC6F080027E18022EA174026F34
:102C1C007015850C82850D83E0F8A3E0F9900DC743
:102C2C00E8F0A3E9F080027E18022EA174016F7007
:102C3C0019850C82850D83E0C39402500D850C829E
:102C4C00850D83E0900868F080027E18022EA17436
:102C5C00016F7019850C82850D83E0C39405500DAE
:102C6C00850C82850D83E0900869F080027E180245
:102C7C002EA174016F7019850C82850D83E0C394AD
:102C8C0002500D850C82850D83E090086AF080025D
:102C9C007E18022EA174106F70277508107509002C
:102CAC007808121B0CAC0CAD0D7A6B7B08121073F0
:102CBC00740212189F8A088B098508828509838003
:102CCC00027E18022EA174016F7019850C82850D7D
:102CDC0083E0C39402500D850C82850D83E090082F
:102CEC007BF080027E18022EA174016F700D850C92
:102CFC0082850D83E0900DCAF080027E18022EA111
:102D0C0074046F702690816B7808121741850C82C1
:102D1C00850D8378081215515011850C82850D8311
:102D2C0012177790087D12178380027E18022EA14D
:102D3C00EF7021120779E9701312126BE9F508791B
:102D4C005012143FE9F509121259800A90091074B7
:102D5C0001F080027E18022EA174076F707D750839
:102D6C00067509007808121B0C850C82850D83A34F
:102D7C00AC82AD8374021218E71210797402121827
:102D8C009F8A088B0985080A85090B7C007D00AA9F
:102D9C0018AB19850C82850D83E0F91211FFE9F54A
:102DAC0008E508C3940A502F120779E97015A90891
:102DBC00121271E9F508795012143FE9F509121253
:102DCC0059801A75090074112508F58274093509A2
:102DDC00F5837401F080067E0280027E18022EA11B
:102DEC0074016F7019850C82850D83E0C3940250B9
:102DFC000D850C82850D83E090087CF080027E1896
:102E0C00022EA174016F7019850C82850D83E0C3AD
:102E1C00940A500D850C82850D83E0900DC9F080CD
:102E2C00747E18807074016F701C850C82850D8304
:102E3C00E0C39407C3940A500D850C82850D83E082
:102E4C00900DCBF0804F7E18804B74016F702090EA
:102E5C00090FE0F8850C82850D83E090090FF0E8EE
:102E6C00703390090FE06401702B12125980267E8A
:102E7C00188022C3EA9427EB9400501774026F70E9
:102E8C0012850C82850D83E0FCA3E0FD120617E988
:102E9C00FE80027E02EEF9740612189F7F0602195C
:102EAC00CB74F01218F974DA121889890D8C088D0C
:102EBC0009908136AC18AD19740612179CAC18AD7C
:102ECC0019A90D1211FFE9FE74361218D5E0F50C94
:102EDC00EEC3940A400302300FEEF912123BE9FFE5
:102EEC00900DC6E064027004740180027400F50A4F
:102EFC00780A121B10AD0CEFFCEEF9AA08AB091204
:102F0C0012AD740112189F7C147D0079007412129A
:102F1C0018E712108B8A0A8B0B850A0E850B0F741F
:102F2C00121218EF7A1075F006EEA42424F912147C
:102F3C0039E9703B7C1079FF74121218E71210EB10
:102F4C00E9702C74221218D5AC82AD837A0475F01A
:102F5C0006EEA42425F9121439E9F50A7412121894
:102F6C00EFEFA2E0E433F9AA08AB091206A1E97469
:102F7C00061218EF7A0C74702EF9121439E970716C
:102F8C0074061218E712122F7E00805FEEF879009B
:102F9C00E875F003A4C8AAF075F000A42AFA75F03D
:102FAC0003E9A42AF974061218D5E58228F8E583FA
:102FBC0039F9E8FAE9FB8A828B83E0F8A3E0F9E8B7
:102FCC004960278A828B83A3A3E0F50A750B0078EE
:102FDC000A121B0C8A828B83E0FCA3E0FDAA08ABCF
:102FEC0009120905740212189FE90EEEC3940440ED
:102FFC009BEFA2E1500D900867E0F9AA08AB09120B
:10300C00090BE97404650C700F900DC6E064027036
:10301C0007AA08AB091212A77900742612189F7F11
:10302C00080219CB74F21218F9890B8A088B09EC77
:10303C00FEEDFF750A0AE50B600B14600814604185
:10304C0014605F807CAA08AB0912124DE9F50AE501
:10305C000AC3940A506BEE4F6067750C06750D0031
:10306C00780C121B0CAC08AD09EEFAEFFB121073C6
:10307C00740212189F8A088B09850882850983803F
:10308C0040AA08AB09121247E9F50AE50AC3940AEB
:10309C00502FEE4F602BEEFAEFFBA90A121241E90A
:1030AC00801FAA08AB09121253E9F50AE50AC3946A
:1030BC000A500EEE4F600AEEFAEFFBA90A1212410B
:1030CC00E9A90A7F060219CB74F41218F9E9FF7EFC
:1030DC001574FF6A700374FF6B702A7508008012F8
:1030EC00EFFC7A027B00A90812121DE960027E0037
:1030FC000508E508C3940A40E7EF605A7A957B12FD
:10310C00120B098051120AEB8A0A8B0B850A08856F
:10311C000B09E5084509603C7C007D00E5082405A9
:10312C00FAE43509FB850882850983A3A3A3A3E0F0
:10313C00F91211FFE9F9E9C3940A500CEFFC7A0279
:10314C007B0012121DE97E00EF600BAA08AB09127E
:10315C00129580027E14EEF97F040219CB74F212E0
:10316C0018F98C088D097E15740E1218D5E0F50A25
:10317C00A3E0F50B74FF6A700374FF6B701D7F0086
:10318C00EFC3940A5058AC0AAD0BAA08AB09EFF97F
:10319C00121223E960027E000F80E5120AEB8A0C02
:1031AC008B0D850C82850D83E5824583602E7C001A
:1031BC007D00E5822405FAE43583FBA3A3A3A3E0F9
:1031CC00F91211FFE9F9E9C3940A5012AC0AAD0BDC
:1031DC00AA08AB09121223E97E0080027E14EEF9D4
:1031EC007F060219CB74F71218F9900881EAF0A344
:1031FC00EBF0900867E0FC7D007A267B0012061746
:10320C00E9FE900867E0F91208817F010219CB747E
:10321C00F41218F974EC1218898A828B83A3A3E038
:10322C0024FA700302364724FD70030234C714706D
:10323C000302330514601024FD7003023471147002
:10324C00030235020236B5EAFEEBFF900881E0F886
:10325C00A3E0F9E8496066900881E0F8A3E0F58303
:10326C008882E0F8A3E0F9E8496052EE240CF5827C
:10327C00E43FF583E0F5087808121B10EE240BF5FB
:10328C0082E43FF583E0F98E828F83A3A3A3A3A3EB
:10329C00A3A3A3A3E0FCA3E0FDEE2403FAE43FFB0D
:1032AC00900881E0F8A3E0F5838882E0F8A3E0F5CC
:1032BC008388821218F7740112189F80398E828FBE
:1032CC0083A3A3A3A3A3A3A3A3A3121B2390087D4F
:1032DC0012175F1206B3740212189FE96018790175
:1032EC008E828F83A3A3A3A3A3A3A3A3A3E0FAA378
:1032FC00E0FB1206ADE90236B5EAFEEBFF8E828FDB
:10330C0083A3E0600302341F8E828F83A3A3A3A345
:10331C00A3E0A2E0400302341F90091BE0F8A3E0F5
:10332C00F9E849600302341F7C0E7D007900AA186D
:10333C00AB1912108B8A088B09AA08AB09EE240C66
:10334C00F582E43FF583E0F8A3E0F9E849604675BF
:10335C0008067509007808121B0CEE240CF582E4A3
:10336C003FF583E02410FCA3E03400FD7402121836
:10337C00E7121073740212189F8A088B0985088251
:10338C008509838E828F83A3A3A3A3A3E0A2E2501B
:10339C004DD2F0804B8E828F83A3A3A3E0FAA3E0DF
:1033AC00FB120AEB8A088B09AA08AB09EA4B602BC3
:1033BC007508067509007808121B0CEA2405FCE454
:1033CC003BFD74021218E7121073740212189F8AD4
:1033DC00088B0985088285098380A80236B5C2F05E
:1033EC00A2F0E433F87900740C1218D5E048F0A37D
:1033FC00E049F0EEFCEFFDAA18AB19121235E9709A
:10340C00127A027B00900867E0F91210C7E9790084
:10341C000236B7900881E0F8A3E0F9E849604390E0
:10342C000881E0F8A3E0F5838882A3A3E0F8A3E089
:10343C00F9E849602D8E828F83A3E0FC79018E829E
:10344C008F83A3A3A3E0FAA3E0FB900881E0F8A389
:10345C00E0F5838882A3A3E0F8A3E0F583888212C9
:10346C0018F70236B5EAFEEBFF900881E0F8A3E00E
:10347C00F9E8496043900881E0F8A3E0F58388827D
:10348C00A3A3E0F8A3E0F9E849602D8A828B83A31B
:10349C00E0FC79028E828F83A3A3A3E0FAA3E0FB66
:1034AC00900881E0F8A3E0F5838882A3A3E0F8A359
:1034BC00E0F58388821218F70236B5EAFEEBFF7C42
:1034CC00007D00EE2404FAE43FFB8E828F83A3A3DD
:1034DC00A3E0F91211FFE9F8E8C3940A5015EE24A1
:1034EC000AFCE43FFD7A0475F006E8A42425F912E1
:1034FC001433E90236B5EAFEEBFF90087CE0601865
:10350C00900DC9E0F98E828F83A3A3A3E0FAA3E008
:10351C00FB1206ADE90236B5900DC6E070157905C3
:10352C008E828F83A3A3A3E0FAA3E0FB1206ADE97E
:10353C000236B58E828F83A3A3A3E0FAA3E0FB121D
:10354C000AEB8A0A8B0B850A08850B098E828F83FE
:10355C00A3A3A3A3A3A3A3E0A2E05071E50845098C
:10356C006068850882850983A3A3A3A3E0605E8EAF
:10357C00828F83A3A3A3A3A3A3A3A3A3E0F8A3E095
:10358C00F9E8C4540FF87900E85401F8E95400F94B
:10359C00E8A2E04038740E1218EFE5082405FAE4AE
:1035AC003509FB850882850983A3A3A3A3E0F9123F
:1035BC0011FFE9701879038E828F83A3A3A3E0FA1D
:1035CC00A3E0FB1206ADE90236B50236B5EE2405D2
:1035DC00FCE43FFD850882850983A3A3A3A3E0F93E
:1035EC008E828F83A3A3A3E0FAA3E0FB1212A19017
:1035FC000881E0F8A3E0F9E849603E900881E0F822
:10360C00A3E0F5838882A3A3E0F8A3E0F9E849607E
:10361C00287C0079008E828F83A3A3A3E0FAA3E019
:10362C00FB900881E0F8A3E0F5838882A3A3E0F87F
:10363C00A3E0F58388821218F7806E120779E9707F
:10364C0068900910E06401701A12126BE9FE90097F
:10365C00107400F07C0A7D0079007A117B0912103D
:10366C008B803C7E0080328E087509007411250811
:10367C00F58274093509F583E06401701BEEF912CB
:10368C001271E9F88E0875090074112508F5827419
:10369C00093509F5837400F00EEEC3940A40C8791D
:1036AC005012143FE9FE1212597901741412189F2A
:1036BC007F040219CB74F21218F974F2121889896A
:1036CC0008EAFEEBFF8C09AC18AD197A0E75F00602
:1036DC00E508A42420F9121439E970647C0679FFFA
:1036EC00AA18AB191210EBE97056740C1218D5E02D
:1036FC00F8A3E0F9E8F50AE5096005EE420A800452
:10370C00EEF4520A850A0C750D00740C1218D5E0F3
:10371C00650C7004A3E0650D6022E50AF87900746D
:10372C000C1218D5E8F0A3E9F0AC18AD197A0E75A7
:10373C00F006E508A42420F9121433E9790180027B
:10374C007900740E12189F7F060219CB74F21218AE
:10375C00F974E612188989098A0C8B0DECFEEDFFC1
:10376C00740C1218EF7A0E75F006E509A42420F9F2
:10377C00121439E9600302387B7C0679FF740C1251
:10378C0018E71210EBE9600302387BAC18AD197A1C
:10379C000C74702509F9121439E960030238777535
:1037AC000800AA18AB1912122FE50C450D702D7CD0
:1037BC000C7900AA18AB191210EBE9600302385D02
:1037CC007C0C7D007900AA18AB1912108B8A0A8B1D
:1037DC000B850A82850B837508018075AC18AD19B1
:1037EC00AA0CAB0D1212298A0A8B0BA80AA90BE89A
:1037FC0049702EEE4F601BAC18AD197A007B00128D
:10380C0012298A0A8B0BAA0AAB0BEAF8EBF9EA4BE2
:10381C0070047900805B88828983E50CF0A3E50D48
:10382C00F088828983A3A3E0FA7B00EE6A7002EF32
:10383C006B601EEEC0E088828983A3A3D0E0F0EE1B
:10384C004F700B888289837400F0A37400F07508A4
:10385C0001E5086016AA18AB1912122FAC18AD1995
:10386C007A0C74702509F9121433E9790180027904
:10387C0000741A12189F7F060219CB74F71218F9EC
:10388C007F0080010FEFC39404504BEFF87900E8F0
:10389C0075F003A4C8AEF075F000A42EFE75F0030D
:1038AC00E9A42EF9EC28F582ED39F583E06A700372
:1038BC00A3E06B70CFEFF87900E875F003A4C8AA09
:1038CC00F075F000A42AFA75F003E9A42AF9EC28A3
:1038DC00FAED39FB80047A007B007F010219CB746E
:1038EC00F71218F97F00023991EFF87900E875F0BA
:1038FC0003A4C8ACF075F000A42CFC75F003E9A48B
:10390C002CF9EA28F582EB39F583E0F4FCA3E0F41A
:10391C00FDEFF87900E875F003A4C8AEF075F0007F
:10392C00A42EFE75F003E9A42EF9EA28F582EB39F2
:10393C00F583ECF0A3EDF0EFF87900E875F003A453
:10394C00C8ACF075F000A42CFC75F003E9A42CF9BC
:10395C00EA28F582EB39F583A3A3E0F4C0E0EFF895
:10396C007900E875F003A4C8ACF075F000A42CFC49
:10397C0075F003E9A42CF9EA28F582EB39F583A359
:10398C00A3D0E0F00FEFC3940450030238F57F018D
:10399C000219CB74F01218F974F4121889EAFEEBC0
:1039AC00FF8C088D0990091BE0F8A3E0F9E8497039
:1039BC002CEE4F6006E508450970057901023C487C
:1039CC00EEFAEFFB12124DE9900DCCF0900DCCE01D
:1039DC00C3940A400812125FE9900DCCF0900DCC04
:1039EC00E0C3940A4003023C4690091BE0F8A3E0B4
:1039FC00F9E8496003023A97EEFCEFFD7A0E75F098
:103A0C0006900DCCE0A42420F9121433E9F50B7CBC
:103A1C000C7D0079FFAA18AB1912108B8A0C8B0D38
:103A2C00850C0E850D0FAC18AD197A0C900DCCE0F1
:103A3C002470F9121433E9F50A750C0E750D007823
:103A4C000C121B0CEEFCEFFD900DCCE0F87900E8AD
:103A5C0075F00EA4C8AAF075F000A42AFA75F00E41
:103A6C00E9A42AF9748328FA740839FB12107374C8
:103A7C000212189F8A0C8B0DA80CA90D90091BE53E
:103A8C0008F0A3E509F07900023C4890091BE0F826
:103A9C00A3E0C82406F582C83400F583E0F8A3E05F
:103AAC00F9E849604290091BE0F8A3E0C82406F548
:103ABC0082C83400F583E0FCA3E0FD7A1B75F006A8
:103ACC00900DCCE0A42421F9121433E9F890091BD1
:103ADC00E0F9A3E0C92406F582C93400F58374002B
:103AEC00F0A37400F0809F90091BE0F8A3E0C824B9
:103AFC000AF582C83400F583E0F8A3E0F9E84960E0
:103B0C004390091BE0F8A3E0C8240AF582C83400EE
:103B1C00F583E0FCA3E0FD7A1B75F006900DCCE07C
:103B2C00A42422F9121433E9F890091BE0F9A3E05C
:103B3C00C9240AF582C93400F5837400F0A374001B
:103B4C00F0023A9290091BE0F8A3E0C8240CF5822D
:103B5C00C83400F583E0F8A3E0F9E8496043900924
:103B6C001BE0F8A3E0C8240CF582C83400F583E010
:103B7C00FCA3E0FD7A1075F006900DCCE0A4242394
:103B8C00F9121433E9F890091BE0F9A3E0C9240CED
:103B9C00F582C93400F5837400F0A37400F0023A86
:103BAC009290091BE0F8A3E0C82408F582C8340001
:103BBC00F583E0F8A3E0F9E849606F90091BE0F8A1
:103BCC00A3E0C82408F582C83400F583E0FCA3E028
:103BDC00FD7A1075F006900DCCE0A42424F9121493
:103BEC0033E9FE90091BE0F8A3E0C82408F582C86D
:103BFC003400F583E02410FCA3E03400FD7A047556
:103C0C00F006900DCCE0A42425F9121433E9F890B9
:103C1C00091BE0F9A3E0C92408F582C93400F58337
:103C2C007400F0A37400F0023A9290090FE0600364
:103C3C001212B312129B790180027901740C1218C2
:103C4C009F7F080219CB74F71218F974F2121889B5
:103C5C00E9FEAC18AD197A0E75F006EEA42420F925
:103C6C00121439E9700E740C1218D5E0F8A3E0F9AF
:103C7C00E8F980027900740E12189F7F010219CBAB
:103C8C0074F41218F974F21218898909EAFEEBFF20
:103C9C00E509C3940A5004EE4F700479028041ACDC
:103CAC0018AD197A0E75F006E509A42420F9121442
:103CBC0039E9F508E5087026750A06750B00780ACF
:103CCC00121B0C74021218EFEEFAEFFB1210737445
:103CDC000212189F8A0A8B0B850A82850B83A9080E
:103CEC00740E12189F7F040219CB74F41218F9EA9F
:103CFC00FEEBFF75080080020508E508C3940A5026
:103D0C0040750A06750B00780A121B0CEEFCEFFDD1
:103D1C00E508F87900E875F00EA4C8AAF075F00073
:103D2C00A42AFA75F00EE9A42AF9748928FA740801
:103D3C0039FB121085740212189FE960BBA9088028
:103D4C0002790A7F040219CB74F41218F9EAFEEB1B
:103D5C00FF75080080020508E508C3940A504075F9
:103D6C000A06750B00780A121B0CEEFCEFFDE50839
:103D7C00F87900E875F00EA4C8AAF075F000A42A32
:103D8C00FA75F00EE9A42AF9748328FA740839FB41
:103D9C00121085740212189FE960BBA90880027981
:103DAC000A7F040219CB74F71218F974F0121889EF
:103DBC00EAFEEBFF75080080020508E508C3940ACB
:103DCC005035AC18AD197A1075F006E508A424230B
:103DDC00F9121439E970E27C1079FFAA18AB1912A8
:103DEC0010EBE970D4EEFCEFFDAA18AB19120683A8
:103DFC00E970C6A9088002790A741012189F7F0115
:103E0C000219CB74F41218F9750800023EE3E508A8
:103E1C00F87900E875F00EA4C8AAF075F000A42A91
:103E2C00FA75F00EE9A42AF9748328FC740839FD9C
:103E3C007A0E75F006E508A42420F9121439E970FD
:103E4C0003023EE17C067D0079FFE508FA7B00EA7F
:103E5C0075F00EA4CAA8F075F000A428F875F00E41
:103E6C00EBA428FB74832AFA74083BFB12108B8A90
:103E7C000A8B0BAE0AAF0B7C067D0079FFE508FAC6
:103E8C007B00EA75F00EA4CAA8F075F000A428F81F
:103E9C0075F00EEBA428FB74892AFA74083BFB120C
:103EAC00108B8A0A8B0BAC0AAD0BE508F87900E88D
:103EBC0075F00EA4C8AAF075F000A42AFA75F00EDD
:103ECC00E9A42AF9748F28F582740839F5837400F3
:103EDC00F0A37400F00508E508C3940A5003023EF1
:103EEC001A90090FE060031212B312129B7F0402A6
:103EFC0019CB74F71218F97E0080010EEEC3940AE8
:103F0C00502F7C0679FFEEFA7B00EA75F00EA4CAFE
:103F1C00A8F075F000A428F875F00EEBA428FB743B
:103F2C00832AFA74083BFB1210EBE960CEEEF980A1
:103F3C0002790A7F010219CB74F71218F97E007FFF
:103F4C0000802D7C0679FFEFFA7B00EA75F00EA459
:103F5C00CAA8F075F000A428F875F00EEBA428FBA5
:103F6C0074832AFA74083BFB1210EBE970010E0FF4
:103F7C00EFC3940A40CDEEF97F010219CB74F7120E
:103F8C0018F979007E008008EEF9121271E9F90E29
:103F9C00EEC3940A5003E960EF7F010219CB74F071
:103FAC001218F974CB1218898909900DCCE06509A7
:103FBC00701D7A017B00900867E0F91210CDE97A48
:103FCC00027B00900867E0F91210CDE91212BF7461
:103FDC00271218EF7A0E75F006E509A42420F912C1
:103FEC001439E960030240E27C0679FF7427121849
:103FFC00E71210EBE960030240E27C0E7D0079FFD2
:10400C0074271218E712108B8A0A8B0B850A0E85FF
:10401C000B0F7C1B7D0079FF740C1218E712108BB0
:10402C008A0C8B0D850C0A850D0B7C0C7D0079FFA1
:10403C00AA18AB1912108B8A0C8B0DAE0CAF0D7429
:10404C00271218EF7A0E75F006E509A42420F91250
:10405C001433E9F508740C1218EF7A1B75F006E5A9
:10406C0009A42421F9121433E94208740C1218EF34
:10407C007A1B75F006E509A42422F9121433E942DF
:10408C0008740C1218EF7A1075F006E509A42423B5
:10409C00F9121433E94208740C1218EF7A1075F007
:1040AC0006E509A42424F9121433E94208740C120D
:1040BC0018EF7A0475F006E509A42425F9121433D7
:1040CC00E94208AC18AD197A0C74702509F9121470
:1040DC0033E942088003750800A908743512189F4B
:1040EC007F080219CB74F71218F9E9FEEE900867F5
:1040FC00F01212597F010219CB74F61218F9EAFE6C
:10410C00EBFFEE5400F8EF5480F9E8496035900865
:10411C0067E0F91210AF8A088B09A808A90988086A
:10412C008909E8496012AA08AB09121283E96008F0
:10413C00AA08AB0912109DE9EE6400FAEF6480FB4B
:10414C00024207EE5402602D7C007D007A007B0059
:10415C00121235E960187A017B00900867E0F912B9
:10416C0010C7E9EE6402FAEF6400FB0242077A0220
:10417C007B00024207EEA2E0507D90091BE0F8A301
:10418C00E0F5838882A3A3A3E0FAA3E0FB1212B9A3
:10419C00E9605E900881E0F8A3E0F9E84960459099
:1041AC000881E0F8A3E0F5838882A3A3E0F8A3E0FC
:1041BC00F9E849602F7C00790190091BE0F8A3E035
:1041CC00F5838882A3A3A3E0FAA3E0FB900881E027
:1041DC00F8A3E0F5838882A3A3E0F8A3E0F5838835
:1041EC00821218F71212BFEE6401FAEF6400FB8022
:1041FC000A7A017B0080047A007B007F020219CBD3
:10420C0074F71218F97E018A828B83E02450600EB9
:10421C0014601024E1700F121217E9FE80081212BC
:10422C0089800312128FEEF97F010219CBC082C074
:10423C00838A828B83A3A3A3A3E0641E70117900ED
:10424C008A828B83A3A3E0FAA3E0FB121205E9D0C8
:10425C0083D082020132C082C0838A828B83A3A363
:10426C00A3A3E070308A828B83A3A3A3A3A3A3A3ED
:10427C00121B238A828B83A3A3A3A3A3E0FCA3E03A
:10428C00FD8A828B83A3A3E0FAA3E0FB12120B74CA
:10429C000212189FE9D083D082020132C082C083FF
:1042AC00900867E0F98A828B83A3E0FAA3E0FB1203
:1042BC00090BE9D083D082020132C082C08374FF23
:1042CC00121889121265E9C39402400B8518828575
:1042DC0019837402F08009851882851983740AF099
:1042EC00AC18AD197A017905120791E9740112180D
:1042FC009FD083D08202013274F21218F974E81242
:10430C0018898A088B09E9FE8C0A8D0B7C187D00B4
:10431C007900AA18AB1912108B8A0C8B0DAC0CAD52
:10432C000D851882851983E508F0A3E509F090083E
:10433C0069E0C0E074021218D5D0E0F090086AE091
:10434C00C0E074031218D5D0E0F0900DCBE0C0E0C3
:10435C0074171218D5D0E0F074151218D5E054FE6D
:10436C00F8A3E054FFF9900DCAE0A2E0E433FA7B25
:10437C0000E84AF8E94BF974151218D5E8F0A3E9EE
:10438C00F0900DCAE0A2E15004D2F08002C2F074A9
:10439C00151218D5E054FDFAA3E054FFFBA2F0E48B
:1043AC0033F87900E828F8E933F9EA48F8EB49F9E9
:1043BC0074151218D5E8F0A3E9F0900DCAE0A2E349
:1043CC005004D2F08002C2F074151218D5E054F7E4
:1043DC00FAA3E054FFFBA2F0E433F508750900746E
:1043EC00037808121876EA4508F8EB4509F97415B4
:1043FC001218D5E8F0A3E9F0900DCAE0A2E450043D
:10440C00D2F08002C2F074151218D5E054EFFAA362
:10441C00E054FFFBA2F0E433F5087509007404784E
:10442C0008121876EA4508F8EB4509F974151218C4
:10443C00D5E8F0A3E9F0900DCAE0A2E55004D2F063
:10444C008002C2F074151218D5E054DFFAA3E054C0
:10445C00FFFBA2F0E433F508750900740578081227
:10446C001876EA4508F8EB4509F974151218D5E8E1
:10447C00F0A3E9F0900DCAE0A2E25004D2F0800261
:10448C00C2F074151218D5E054FBFAA3E054FFFBEC
:10449C00A2F0E433F5087509007402780812187656
:1044AC00EA4508F8EB4509F974151218D5E8F0A39C
:1044BC00E9F090086AE0602A750810750900780820
:1044CC00121B0C7C6B7D0874061218D5AA82AB8368
:1044DC00121073740212189F8A088B098508828542
:1044EC00098390087BE06011EE600E74151218D5EC
:1044FC00E04402F0A3E04400F090087BE060067812
:10450C0001790080047800790074141218D5E04801
:10451C00F0900868E06006780479008004780079EF
:10452C000074141218D5E048F0AC0AAD0BAA18AB05
:10453C00191206A7E9741812189F7F060219CBC02E
:10454C0082C083790090087BE060067C017D00804E
:10455C00047C007D00ECC949C9900868E060067CC9
:10456C00047D0080047C007D00ECC949C912076100
:10457C00E9D083D08202013274F01218F974E5127A
:10458C0018898A0C8B0DE9FE8C09EDFF74086F708D
:10459C000B75F006EEA42422F508800975F006EEE2
:1045AC00A42421F5087C1B7D007900AA18AB1912F4
:1045BC00108B8A0A8B0B850A0E850B0FAC18AD1964
:1045CC007A1BA908121439E97034741A1218D5E040
:1045DC00C39407C3940A5026742B1218D5E0F5081F
:1045EC007808121B1074011218EFE509A2E0E433ED
:1045FC00F9AA0CAB0D1206B9740112189FE9741BC1
:10460C0012189F7F080219CB74F71218F91209833C
:10461C00E97E0080537C0679FFEEFA7B00EA75F0A8
:10462C000EA4CAA8F075F000A428F875F00EEBA43F
:10463C0028FB74832AFA74083BFB1210EBE97027F1
:10464C00EEF87900E875F00EA4C8AAF075F000A495
:10465C002AFA75F00EE9A42AF9748328FA74083939
:10466C00FB7900120989E90EEEC3940A40A77F0179
:10467C000219CB74F61218F974FD121889EAFEEBC4
:10468C00FF90091DE0F8A3E0F9E849703975081F9F
:10469C007509097808121B0C750802750900780851
:1046AC00121B0C7508BA7509817808121B0C7CFF5B
:1046BC007DFF7A017B001207D3740612189F9009B4
:1046CC001DEAF0A3EBF090091DE0F8A3E0F9E8492E
:1046DC00700302479CE4F508F5097808121B0C746A
:1046EC00041218DF880889097808121B0C7404124C
:1046FC0018DF880889097808121B0C90091F121BF7
:10470C0023790290091DE0FCA3E0FDEEFAEFFB1209
:10471C0008F9740812189FE9704A85188285198364
:10472C00E0FA7B0074011218D5E0F87900E4C8F9BE
:10473C00EA28F508EB39F509E508450960267808FB
:10474C00121B0C90091DE0F8A3E0F5838882A3A34B
:10475C00A3A3E0FCA3E0FDEEFAEFFB12120B740234
:10476C0012189FE9E4F508F5097808121B0C90095A
:10477C001F121B237CFF7DFF90091DE0FAA3E0FBB9
:10478C001207DF740412189F90091DEAF0A3EBF0D6
:10479C0090091DE0F8A3E0F9E84970047901800262
:1047AC007900740312189F7F020219CBC082C08358
:1047BC0090091BE0F8A3E0F9E849601790091BE0A9
:1047CC00FAA3E0FB12109DE9F890091B7400F0A30A
:1047DC007400F0900DCC740AF0D083D082020132B8
:1047EC00C082C083E9900CB0F0024A7B74F71218B7
:1047FC00F9E99002E3F07C1B7D037AFF7BFF120941
:10480C00119002E474FFF0A3F0A3E4F0A3F0790597
:10481C001208999002E3E0F91207BB7A2F7B091278
:10482C000AD97F010219CB74F41218F98A088B0982
:10483C00EB548060309002E3E0F91210AF8A0A8BDF
:10484C000BAE0AAF0BEE4F60138E828F83E064B019
:10485C0070031208B1EEFAEFFB12109DAA08E509DD
:10486C006480FB80047A007B00024A4A74F21218BE
:10487C00F974FC121889EAFEEBFFEE4F60387402F3
:10488C001218D5EEF0A3EF124CAFECF0A3ED124CD6
:10489C00AFAA82AB831207B5E9F5087073741212D4
:1048AC0018D5125863E50A450B60658E828F83120A
:1048BC004926EE4F700575080280557A067B00126A
:1048CC0011098A0C8B0DA80CA90DE8497005750807
:1048DC0013803D88828983E4124930A3A3EEF0A3B0
:1048EC00EF125CFCE50AF0A3E50BF09002E912492B
:1048FC00B89002E96017E0FCA3E08003EAFCEBFD52
:10490C008C828D831249B870F38C828D83125788F8
:10491C00A908740412189F025EFEA3A3A3A3E0FED1
:10492C00A3E0FF22F0A3F0888289832274F212188C
:10493C00F9890AE975F017A4FEAFF09002E8E4F0EB
:10494C009002E61249B8600A12110F9002E6E4F0E8
:10495C00A3F0EEFAEFFB1211098A088B09EA45095C
:10496C00602FEEFCEFFD790012108B9002E6E5084B
:10497C00F0A3E509F07B0080081249A2E4F0A3F053
:10498C000BEBC3950A40F2E50A9002E8F07900803F
:10499C00027913025EFEEB75F017A4F8A9F09002F1
:1049AC00E6E028FAA3E0398A82F5832212551EEA42
:1049BC004B2274F41218F9750800750900740C1266
:1049CC0018D5125CD0FEE9FF800CE5082401F5082F
:1049DC00E5093400F509C3E5089CE5099D503285CD
:1049EC00080A85090B7403780A121876EA250AF866
:1049FC00EB350BF988828983A3A3A3A3A3A3125835
:104A0C0063EE650A7003EF650B70BFE8FAE9FB8093
:104A1C00047A007B00802774F41218F97900EAA25A
:104A2C00E0501B7508487509817808121B0C7C0432
:104A3C007D007AB27B0C120893740212189F7F04CB
:104A4C000219CBC082C0839002E9124A82601C8892
:104A5C00828983A3A3E06A7003A3E06B88828983B5
:104A6C0070E8A3A3A3A312551A80047A007B00D08C
:104A7C0083D082020132125FD1E8492274EE1218FF
:104A8C00F974FC121889EAFEEBFF851882851983EC
:104A9C00E4F0A3F0EE240212576CEE2405124C9DA8
:104AAC00EE2404F50EEF125082E024FE603924FC53
:104ABC00604624FE605224FE605E24FE7003024BAE
:104ACC00A224FE7003024C1A24FE7003024C29240B
:104ADC00FE7003024C3824FC7003024C4724FE7019
:104AEC0003024C56024C939003027417F0A3E41289
:104AFC004CB7120533024C93851882851983AC820E
:104B0C00AD831208B7024C63851882851983AC8279
:104B1C00AD831208BD024C63850C08850D09740227
:104B2C001218D5AC82AD8385088285098312551A7B
:104B3C001207D98A0C8B0DAC0CAD0DEC4D6042E418
:104B4C00F50CF50D780C121B0C750C02750D037819
:104B5C000C121B0C750C03750D03780C121B0C74CA
:104B6C00081218D5121B2379161255141208F97451
:104B7C000812189FE9F50C700B12551012054B809A
:104B8C000F750C01850882850983124CA512578874
:104B9C00850C08024C6674021218D5AC82AD838564
:104BAC000C82850D8312551A1207D98A108B11AC01
:104BBC0010AD11EC4D6043850C82850D83A3A312BF
:104BCC001B237510027511037810121B0C75100342
:104BDC007511037810121B0C74081218D5121B23B4
:104BEC0079161255141208F9740812189FE9F50970
:104BFC00700B125510120551800F750901850C822E
:104C0C00850D83124CA5125788850908804C851890
:104C1C0082851983AC82AD831208C3803A851882D1
:104C2C00851983AC82AD831208C9802B85188285C7
:104C3C001983AC82AD831208CF801C85188285192C
:104C4C0083AC82AD831208D5800D851882851983BB
:104C5C00AC82AD831208DBE9F508E50860298E8289
:104C6C008F83A3E06414601F850E82850F83E09010
:104C7C000302124CAF125FCD900303125788E50864
:104C8C00A3124CB712052DEEFAEFFB120857025681
:104C9C0074F50CEF3400F50D22125FD18518828566
:104CAC00198322F085188285198322F07C027D03FA
:104CBC00850A82850B8312551E2274EE1218F97424
:104CCC00FC1218898A0A8B0B8C0E8D0FEA2405F5C1
:104CDC0008EB3400F5097C157D0079007A027B0322
:104CEC0012108BE5082402F50CE509124CA085186E
:104CFC00828519838582108583117810121B0C858F
:104D0C000882850983A3A3A3A31251CA121B0CE525
:104D1C00082405F510E5093400F5117810121B0C68
:104D2C00850C82850D831255241207D37406121834
:104D3C009F8A108B11AE10AF11E50A2402F50AE51B
:104D4C000B12576FEE4F7003024E8C8017740212C9
:104D5C0018D512551A88828983EAF0A3EBF09003D8
:104D6C0002E004F0900302E0C394054003024E8C71
:104D7C00E4F510F5117810121B0C7510EB7511027F
:104D8C007810121B0C7510EC7511027810121B0C9C
:104D9C0074061218D5121B237910EEFCEFFD125578
:104DAC00141208F9740812189FE9705E8508828540
:104DBC000983A3A3A3A3A3A3A3E0F89002EBE06849
:104DCC0070481251CA121B0C7CEC7D02E5082408B9
:104DDC00FAE5093400FB121085740212189FE96081
:104DEC00298E828F83A3A3A3A312551A900302E0EA
:104DFC00F5107402781012187674032510F582746D
:104E0C00033511F583EAF0A3EBF074021218D58583
:104E1C0082108583117810121B0C74021218D51293
:104E2C001B23850C82850D83125FE21207DF74044D
:104E3C0012189F8A108B11AE10AF11900302E0F57F
:104E4C00107511007402781012187674022510F87F
:104E5C0074033511F988828983A31249B87003024F
:104E6C004D50E82403F8E93400F9EE4F6003024D8D
:104E7C00598882898374FFF0A3F0900302E004F058
:104E8C00900302E0600A12551012053F7900800B66
:104E9C0085088285098312577F790A02567474EA51
:104EAC001218F974FE1218898C128D13EA2405F568
:104EBC000CEB12614C12492A750800750900EA24A2
:104ECC0002F510EB3400F511851882851983858263
:104EDC000A85830B780A121B0C850C82850D83A323
:104EEC00A3A3A312508C121B0CE50C2405F50AE5A8
:104EFC000D12576F780A121B0C850C82850D8312CC
:104F0C005FE01207D3740612189F8A0A8B0BEA45CE
:104F1C000B700302503DEA2404F50EEB1250821282
:104F2C00492A8A828B83A3A3A3E0F9851082851179
:104F3C008312551A1207C1E9F509600302503DE4CA
:104F4C00F514F5157814121B0C7514EB7515027805
:104F5C0014121B0C7514EC7515027814121B0C74BE
:104F6C00061218D5121B237913AC0AAD0B851082CF
:104F7C0085118312551A1208F9740812189FE9F555
:104F8C0009600302503D9002EBE0F8E5087009E07F
:104F9C002402900303F08017900303E0FCE8240242
:104FAC00FAE43400FBEA6C7001EB600302504185BB
:104FBC000882AA821251C194141251B95073850EF1
:104FCC0082850F83E0C0E074042A125079D0E0F09F
:104FDC000508850E82850F83A3E0C0E085080A745E
:104FEC0004250A125079D0E0F005089002EB12501B
:104FFC008C121B0C7CEC7D0285080A7404250AFAC1
:10500C0074033400FB121073740212189F9002EB9D
:10501C00E02508F50874FF6E700374FF6F6012EEE4
:10502C0024010EEF3400FFE508C394145003024E24
:10503C00D4E508601312540585108285118312552E
:10504C001A12054579008014E509700375090A8563
:10505C001282851383EEF0A3EFF0A90974021218E3
:10506C009F7F0E0219CB85080C7404250CF58274F5
:10507C00033400F583223400F50F850E82F583226C
:10508C00125D0F2274EE1218F974FE1218898C0E30
:10509C008D0FEA2405F50CEB124CA0750B00900358
:1050AC0002E4F0F50AEA2402F508EB3400F5098075
:1050BC0049900302E0FA9002EBE0F81251C1941708
:1050CC001251B9400D900302E0F87416C398900287
:1050DC00EBF01251CA121B0C7CEC7D0274032AFA01
:1050EC0074033400FB121073740212189F9002EBBD
:1050FC00E0F8900302E028F0050AE50C2416F5828E
:10510C00E50D12507DE0F8E50AC39840030251A268
:10511C00900302E0C39416507DE50AC333F8E433E0
:10512C00F9E50C28FEE50D39FF851882851983AC4D
:10513C0082AD838E828F8312551A1207D98A108BF7
:10514C0011AC10AD11EC4D7005750B018043E4F5FD
:10515C0010F5117810121B0C7510EB7511027810EC
:10516C00121B0C7510EC7511027810121B0C7406C6
:10517C001218D5121B2379168508828509831255BE
:10518C001A1208F9740812189FE9F50B70030250F3
:10519C00BD12577B80107C027D03850882850983B4
:1051AC0012551A120557A90B7402025676E994008F
:1051BC00C365D03322EA28F8E43400F9E822E0F59C
:1051CC001075110078102274EA1218F974FC121878
:1051DC00898A0C8B0D8C128D13EA2405F50AEB12BF
:1051EC00576F750800750900E50A2402F510E50BE8
:1051FC003400F51174021218D585820E85830F7850
:10520C000E121B0C850A82850B83A3A3A3A3125C2D
:10521C00BB121B0CE50A2405F50EE50B3400F50F4B
:10522C00780E121B0C85108285118312577512553E
:10523C00141207D3740612189F8A0E8B0FAE0EAF82
:10524C000FE50C2402F50EE50D3400F50F804088B7
:10525C0082898374FFF0050812507274FFF0050800
:10526C009002EBE0F50C750D00780C121B0C7CEC2D
:10527C007D0285080C7404250CFA74033400FB12AF
:10528C001073740212189F9002EBE02508F508EEDB
:10529C004F60718E828F83A3A3A3E0F9850E828564
:1052AC000F8312551A1207C1E9F509EE2404124CAA
:1052BC009DE97044E4F514F5157814121B0C751463
:1052CC00EB7515027814121B0C7514EC751502781D
:1052DC0014121B0C74081218D5121B237911EEFC36
:1052EC00EFFD850E82850F8312551A1208F974088A
:1052FC0012189FE9F5096027850C82850D831253DE
:10530C00FB125788E50870030253E1125405850E11
:10531C0082850F8312551A12055D79000253F685AA
:10532C000882AA82EA9002EB7009E024049003033D
:10533C00F08022E0F8900303E0F514E82404FCE488
:10534C003400FDEC65147001ED70C01251C1941263
:10535C001251B950B6850C82850D83E0C0E07404FF
:10536C002A125079D0E0F00508850C82850D83A3B4
:10537C00E0C0E0125072D0E012541785820C858385
:10538C000D780C121B0C74041218D5121B238510EB
:10539C0082851183125FE21207DF740412189F8A50
:1053AC000C8B0DAE0CAF0D85080C7404250CF87429
:1053BC00033400F9EE4F700302525B851882851995
:1053CC0083E088828983125417A3E0C0E0125072E4
:1053DC00D0E0025269E509700375090A850A8285D5
:1053EC000B831253FB125788A909740402506A12DA
:1053FC005FD185128285138322900303E0F5F0E5DB
:10540C000884900302F07C027D0322F005088518C5
:10541C00828519832274EC1218F974FE1218898A89
:10542C00088B098C0E8D0FEA2405FEEB3400FF85EA
:10543C001882851983AC82AD838E828F8312551AA4
:10544C001207D98A0A8B0BEE2418124C9DEA450BD5
:10545C0070030254EB12565D503285188285198305
:10546C0012551A1208ED8A108B11EA4511606B79EE
:10547C0012AC0AAD0B85088285098312551A85106A
:10548C00828511831218F7E9F50A7058E4F50AF5CC
:10549C000B780A121B0C8E828F83A3A3E0F50A787B
:1054AC000A121B0CEE240312576C780A121B0C8E7A
:1054BC00828F831255241208FF740612189FE9F587
:1054CC000A7021850C82850D83E0701F850882850A
:1054DC00098312551A1205638011750A0E8009751D
:1054EC000A018004E50A600312577B850C82850D46
:1054FC0083E0600479008002A90A740212189F7F6D
:10550C000C0219CB7C027D03850A82850B83125514
:10551C001E22E0FAA3E0FB22E0FCA3E0FD8508825A
:10552C0085098312551E2274EE1218F974FE121896
:10553C00898A088B098C0C8D0DEA2405FEEB34004E
:10554C00FF750E00851882851983AC82AD838E821F
:10555C008F8312551A1207D98A0A8B0BEA450B70E6
:10556C000302564912565D503585188285198312EF
:10557C00551A1208ED8A0E8B0FEA450F605E7912F0
:10558C00AC0AAD0B85088285098312551A850E82EB
:10559C00850F831218F7E9F50E600302564C850847
:1055AC0082850983125863AA0AFB1208E18A108BC0
:1055BC0011A810A911E849701E7AFF7BFF1208E1AF
:1055CC008A108B11A810A911E849606C8882898314
:1055DC00E50AF0A3E50BF0750A008007750E0E8046
:1055EC005F050A9002E8E0FAE50AC39A504AE50A18
:1055FC0075F017A4FAABF088828983A3A3E02AFA8A
:10560C00A3E03BFB8A828B83125775EC4D70D275ED
:10561C000A17750B00780A121B0CEEFCEFFD12102A
:10562C0073740212189FEEFCEFFD850882850983C6
:10563C0012551A1205698014750E098003750E0136
:10564C00125FC9850C82850D83125788A90E0251F1
:10565C00B4E5082402F508E5093400F5098A828BC3
:10566C0083A3A3A3E0A2E522740412189F7F0A026D
:10567C0019CB74EC1218F98C108D11EA2405F50C69
:10568C00EB124CA0750F00EA2402F50AEB12576FCF
:10569C00850A82F58312551A1208E18A088B09EAE9
:1056AC0045097003025761750E008071850C828567
:1056BC000D83E06401704F8E828F83A3A3121B2392
:1056CC008E828F83A3A3A3A3E0F512751300781227
:1056DC00121B0CEE2405F512EF3400F513781212A0
:1056EC001B0C1255141208FF740612189FE9F50FC3
:1056FC006014850C82850D83E4F0125FC9851082DD
:10570C008511831257887C177D007900EEFAEFFB28
:10571C0012108B8E828F83E4F0A3F0050E9002E8BA
:10572C00E0F8E50EC398501EE50E75F017A4F8A925
:10573C00F0850882850983A3A3126156125775EC74
:10574C004D60030256B885088285098374FFF0A367
:10575C00F0E50F700612551412056FA90F02550BC8
:10576C00F50AEF3400F50B22A3E0FCA3E0FD228E3A
:10577C00828F83125FD1850E82850F83E8F0A3E9B7
:10578C00F022C082C0839002E4E06A7003A3E06B55
:10579C0070067AE47B0280047A007B00024A7BC0AC
:1057AC0082C08378008C828D83E06A7003A3E06BE7
:1057BC007010E875F003A4F8A9F0EC28FAED39FBA9
:1057CC008015088C828D83A3A3A3E06A7003A3E0E9
:1057DC006B60DF7A007B00024A7B74F61218F912B8
:1057EC0008AB8A828B83E582458370067A007B0046
:1057FC008007A3A3A3A312551A025E7A74F212189F
:10580C00F9E9FE740E1218D512586374101218D5DB
:10581C00125CDB8C828D83E064027036A3125FD73E
:10582C00F50CA3E0F9A80C74026870037429697074
:10583C0021750C02750D00780C121B0C7808121BCC
:10584C000C780A121B0CEEF9120923740612189F1D
:10585C0080027901025EFEE0F50AA3E0F50B2274EA
:10586C00E81218F974FB121889E9851882851983D6
:10587C00F08A168B17ECFEEDFF751000741D1218D4
:10588C00D5125FCD741D1218D51257888E828F8356
:10589C00A3A3A3E0A2E4502D741D1218D512551A1F
:1058AC001208ED8A828B83E58245837003025CAC1F
:1058BC00790AEEFCEFFDAA16AB171218F7E9F510F2
:1058CC006003025CAF741F1218D5125CDB742112DA
:1058DC0018D512586374231218D5E0F50EA3E0F511
:1058EC000F8E828F83E064026003025C5AA3125F06
:1058FC00CD850882850983A3858212858313EE24C6
:10590C0006124C9D88828983E0FAA3E0F9EA240010
:10591C00F514E439F5157814121B960100002801D2
:10592C00284F5907000228145A0328815900294B83
:10593C005B0129765B0229175B03294B5B0429F574
:10594C005B5A5CE50E450F6003025C55850C828545
:10595C000D83125CD0FAE9FB8A828B83E0850A8284
:10596C00850B83125D06121B0C8A828B83A3E0FCD1
:10597C00A3E0025BDFE50E450F6003025C55850A70
:10598C0082850B837401F0125CE3850882850983A0
:10599C00F07C007D008E828F83A3A3A3A3E024015F
:1059AC00FAA3E03400FB1207D9EA4B60418A828BE0
:1059BC0083E02402F8850A82850B83E028F0EA2430
:1059CC0004F8EB3400F988828983E0851282851310
:1059DC0083125D18125D06121B0C8A828B83125780
:1059EC0074E5082403FAE5093400FB025BE4850A3C
:1059FC0082850B83E02404F07C047D007900AA12DC
:105A0C00AB1312108B025CAFE50E450F6003025C0A
:105A1C0055125CE3FEA3E0FF850A82850B837404B8
:105A2C00F0EE850882850983F0EF85128285138359
:105A3C00F074031218D5AC82AD83EEFAEFFB1207AB
:105A4C00D98A0C8B0DEA450D7003025AF88A828BA9
:105A5C0083A3A312492674011218D585820E85835F
:105A6C000F780E121B0C74051218D5121B237CFF19
:105A7C007DFF1207DF740412189F8B0FEA450F701D
:105A8C0033850C82850D83125CBB121B0C850C823A
:105A9C00850D83A3121B237C027D007AD47B81129B
:105AAC00060B740412189FE9700A74011218D5744D
:105ABC00FFF0A3F08E828F83E064027039750C02C4
:105ACC00750D00780C121B0C8E828F83125774E5A7
:105ADC00082404FAE5093400FB121073740212183E
:105AEC009F850A82850B83E02402800974011218B9
:105AFC00D5EEF0A3EFF074011218D5125CCCF07453
:105B0C00011218D5A3125CC4025C4FE50E450F6060
:105B1C0003025C55850C82850D83125775AA16AB52
