:020000040000FA
:0600000002011A02238731
:03002B00022AE6C0
:03003B00022B5045
:03004300022ABBD3
:030053000223FA8B
:03006B00022B0E57
:100083000221F3E5C754F84401F5C77901220000C2
:100093000080FB120086B90003020104E479217891
:1000A30008B800028004F709D8FCE479297802B87B
:1000B30000028004F709D8FCE49002817873790A7E
:1000C3008002F0A3D8FCD9FA781A90014A7A01BACF
:1000D30000028007E493A3F608DAF97AF37B0B9026
:1000E300014B78E979048015E493A3AD82AE838A4A
:1000F300828B83F0A3AA82AB838D828E83D8E9D9C6
:10010300E775829C75837F740012012C758291754B
:100113008300740012012C75D00075813F7518811E
:10012300751902759F00020096C09FF59FE473D076
:100133009F22D083D082C09FE493C0E0740193C018
:10014300E0740293F59F2201FF0000B40000280031
:100153002800283075A000A000A000A0000008001F
:1001630008E001F000100010001000100010001053
:100173000050005000500010001000D00700000095
:100183000000000F0001000500307507001000019A
:100193000081FF00000000FF490767074F07FF02C8
:1001A300020208025000A0000000E80302D6810109
:1001B3000000B38102E0810100004A0C02B6810114
:1001C3000000B50202E0810100004B0C02B881017E
:1001D3000000CB0202E0810100004C0C02BA810155
:1001E3000000CD0202E0810100004D0C02BC810839
:1001F3000000CE0202E0810100004E0C02BE81012C
:1002030000004F0CFF0100FF2002D681010000AA6D
:100213008102E081010000B30C02C08100000000F4
:10022300000226810300001B031F0D1F0D1F0D1F5E
:100233000D1F0D1F0D1F0D1F0D1F0D1F0D1F0D1F5B
:100243000D1F0DB30FCB0FAD0FFFFF424D14002059
:10025300006400126402D681010000A78102E081DC
:10026300010000FE0C02C481010000FF0C02268184
:100273000300005908020202020202020202010DF7
:10028300000000100102D681010000AD8102E0816F
:10029300010000200D02E2810100005F0802E081FD
:1002A300010000210D02DE81010000E58002E081F2
:1002B300010000220D02DC81010000F28002E081D6
:1002C300010000230D02DA81010000FD8002E081BC
:1002D300010000240D02D481010000088102E081A5
:1002E300010000250D02D281010000138102E0818B
:1002F300010000260D02D0810100008F8102E08100
:10030300010000270D02CE81010000D78002E081A9
:10031300010000280D02CC81010000290D01E80332
:10032300053F100AFF0001307503020106000000BB
:1003330000000000000000000000000000000000BA
:10034300000000000000000000FFFF0600800CE832
:100353000301C02709000C09504D322E3554455373
:10036300544552051228002800020A000201060320
:1003730002F0FF0F18504D322E355F54455354454C
:100383005200C3140000E1140A436861726163748C
:100393006572697374696320310002436861726135
:1003A3006374657269737469632032000A43686118
:1003B30072616374657269737469632033001043F7
:1003C3006861726163746572697374696320340070
:1003D3000A43686172616374657269737469632047
:1003E30035000A4368617261637465726973746985
:1003F30063203600024368617261637465726973D6
:100403007469632037000A436861726163746572BB
:1004130069737469632038000243686172616374AD
:10042300657269737469632039000A4F414400009F
:1004330002D681010000B08102E081010000330E89
:1004430002E681030000BB0B02C281010000340EEF
:1004530002E081010000450E02E881010000BC0BAF
:1004630002C281010000460E02E081010000570E26
:1004730002EA81030000CE0B02C281010000580E84
:1004830002E081010000690E02EC81000000CF0B45
:10049300022681030000E30B02C2810100006A0E01
:1004A30002E0810100007B0E02EE81030000E90BF4
:1004B30002C2810100007C0E02E0810100008D0E6A
:1004C30002F081030000EA0B02C2810100008E0EDC
:1004D30002E0810100009F0E02F281030000EB0B9A
:1004E30002C281010000A00E02E081010000B10EF2
:1004F30002F481030000EC0B02C281010000B20E82
:1005030002E081010000C30E02F681010000F10B3D
:1005130002C281010000C40E02E081010000D50E79
:1005230002F881090000F20B02C281010000D60E1D
:1005330012013504D60312013516D6031201354FC5
:10054300D60312013584D603120135B4C603120152
:1005530035CBC603120135FCC60312013537C70379
:1005630012013561C7031201358BC703120135A28E
:10057300C703120135B9C703120135D0C7031201EE
:1005830035F9C7031201350CC80312013522C8031C
:1005930012013535C8031201355CC8031201351940
:1005A300C1021201351DC20212013555C2021201E8
:1005B3003578C20212013583C202120135A6C20286
:1005C300120135B5C3021201358AC4021201350581
:1005D300C5021201358DC502120135C8C5021201CB
:1005E30035FFC5021201358DC60212013566C702F9
:1005F300120135C6C702120135D1C70212013550A7
:10060300C80212013553C80212013556C80212013D
:1006130035E5C802120135E8C80212013518C902CE
:1006230012013542C90212013530CA02120135E204
:10063300CA021201355697031201357E9703120140
:1006430035AC9703120135E3970312013541980343
:100653001201358C9803120135D79803120135170F
:1006630099031201355D99031201358B9903120128
:1006730035489A03120135529A031201355F9A03E2
:10068300120135929A031201355E9B031201356AFA
:100693009B03120135829B031201358C9B031201CC
:1006A300351DD3031201352BD30312013543D30375
:1006B3001201355BD303120135EEDC011201359AC9
:1006C300DD0112013515DE0112013536DF0112019C
:1006D3003572DF011201351BE00112013502E10120
:1006E30012013566E201120135BDE2011201353E08
:1006F300E3011201352EE4011201357BE4011201FD
:100703003501E50112013533E50112013547E701F2
:1007130012013589E701120135A7E7011201352AD4
:10072300E801120135FEE801120135C6E9011201A3
:10073300353EF60212013511F702120135BAF702FE
:100743001201350DF802120135BDF80212013549C7
:10075300F90212013535FA0212013564FA02120167
:100763003577FB02120135BFFB0212013594FC02FF
:10077300120135D0FC02120135ECFC021201359F47
:10078300D60312013584B1031201359AB103120164
:1007930035C0B103120135DCB203120135E6B203F1
:1007A3001201351BB40312013513B503120135755C
:1007B3007A00120135A57B00120135D87B001201A6
:1007C30035227C00120135E97D001201359DBD0102
:1007D30012013507BE0112013566BF0112013576DC
:1007E300BF01120135A3BF01120135FABF01120186
:1007F30035A3C001120135AAC10112013574C2012A
:10080300120135D4C30112013517C401120135BCDD
:10081300C40112013509C5011201352FC5011201A9
:10082300353DC70112013542C70112013547C901E0
:1008330012013594C90112013507CA011201353A73
:10084300CA01120135DCCA0112013585CB0112013F
:1008530035BDCB01120135C0CB0112013508CC01E6
:1008630012013548CC011201359FCC01120135D05C
:10087300BE03120135E8BE0312013530BF03120176
:100883003546BF031201358DBF03120135A1C003E5
:100893001201352EC10312013579C1031201350C42
:1008A300480012013518480012013553480012015F
:1008B30035984800120135584900120135DE4900C8
:1008C300120135434A001201356F4A00120135A85F
:1008D3004A00120135E64C00120135CA4E001201DE
:1008E30035B05000120135F3510012013541540067
:1008F3001201355355001201359E5600120135AED3
:100903005700120135CB570012013506580012016A
:10091300352858001201358B58001201354C5D0003
:10092300120135E15D00120135325E0012013559C5
:100933005E00120135AB5E00120135C95E00120183
:1009430035235F001201350C60001201358261000E
:10095300120135066200120135139C031201351D85
:100963009C03120135609C031201357B9C03120129
:10097300350B9D03120135339D03120135709D0321
:10098300120135A79D03120135D09D031201354590
:100993009E031201355A9E031201356F9E03120105
:1009A30035A09E03120135B49E03120135D99E036F
:1009B300120135139F031201353F9F03120135774F
:1009C3009F03120135F69F031201353FA003120165
:1009D3003569A00312013594A003120135EFD0034A
:1009E30012013518A90212013546A90212013594E4
:1009F300AA0212013574AB0212013593AB02120144
:100A03003510AC0212013553AC02120135A9AD0207
:100A13001201356AAE02120135F1B00212013592AC
:100A2300B10212013588B20212013585B3021201F7
:100A330035DFB4021201356AB50212013556CD0312
:100A4300120135BFCD0312013513CE031201353A1E
:100A5300CE031201356BCE03120135BCA003120184
:100A63003529A10312013570A10312013588A203B0
:100A730012013584A30312013567A403120135EC77
:100A8300DE021201352EDF0212013500E0021201EF
:100A930035D9E002120135D3E102120135B5E20284
:100AA3001201351EE302120135D4E3021201354867
:100AB300E402120135B4E402120135DDE40212014D
:100AC3003557E502120135F0E50212013555E6020C
:100AD3001201356AE602120135B0E602120135C988
:100AE300E6021201352EE70212013531E702120147
:100AF30035D7BB03120135FFBB031201353DBC03E0
:100B0300120135FBBC0312013562BD031201357EB0
:100B1300BD03120135A6BD03120135D6BD03120173
:100B230035E5BD0312013562BE0312013588BE03EC
:100B33001201358CCD011201356ACF011201359CAA
:100B4300D101120135D8D10112013505D2011201AB
:100B530035EFD2011201353AD30112013585D301A4
:100B630012013597D301120135D7D3011201350C88
:100B7300D4011201355AD40112013589D40112016D
:100B830035ACD401120135F9D4011201357ED501FA
:100B930012013598D701120135D7D9011201351841
:100BA300DA01120135BADB01120135FBDB01120157
:100BB300356EDC01120135C4DC01120135039C02E0
:100BC300120135019D021201359AA302120135BBB0
:100BD300A50212013586A702120135EEA802120101
:100BE300356D62001201351C630012013549630043
:100BF3001201358F6300120135CF64001201356590
:100C03006600120135DF6600120135FA6600120133
:100C130035756700120135CF68001201352F6A0060
:100C2300120135356B00120135966C00120135AF98
:100C33006C001201350D6D00120135FB6D001201C0
:100C4300352E6E001201359E6E00120135186F00AD
:100C5300120135626F001201352C7000120135014B
:100C63007100120135E071001201356B720012013F
:100C730035D972001201354D7300120135787300B6
:100C83001201353774001201359C7500120135B914
:100C93007500120135D87500120135C976001201AD
:100CA30035EE76001201351877001201359377007F
:100CB300120135ED77001201355679001201350422
:100CC3007A00120135457A001201352F8E02120186
:100CD300357D8E02120135898E02120135678F022E
:100CE300120135988F02120135C98F02120135495D
:100CF3009002120135819002120135D39002120144
:100D0300351091021201352D9302120135539502CC
:100D13001201353E9702120135289902120135F767
:100D2300FF021201350C97011201353C97011201A4
:100D330035159E011201359A9F0112013597A501C0
:100D43001201357FA601120135BCA601120135DF60
:100D5300A60112013510A70112013519A7011201CD
:100D63003523A70112013511A80112013507A90185
:100D7300120135FD8101120135FC85011201350295
:100D830086011201353D8D01120135569201120182
:100D930035B6AD031201354CAE0312013562AE0315
:100DA300120135D8AE031201354CAF031201358A57
:100DB300AF03120135FEAF0312013577B003120101
:100DC3003580B0031201358CB003120135A1B00395
:100DD300120135DFB003120135F5B00312013554AA
:100DE300B10312013529A50312013536A5031201FA
:100DF3003550A5031201358FA503120135CDA50387
:100E030012013532A60312013547A60312013552EA
:100E1300A6031201355FA60312013576A60312015C
:100E23003584A6031201358FA6031201359BA60351
:100E3300120135AAA603120135B5A603120135D84E
:100E4300A6031201357FA7031201358FA7031201F1
:100E530035A9A703120135C6A703120135E2A7037B
:100E630012013507A80312013512A8031201352711
:100E7300A8031201353BA8031201359CA8031201F4
:100E830035A2A803120135A8A803120135AEA803A1
:100E9300120135C6A803120135F9A803120135055D
:100EA3008002120135898002120135388102120154
:100EB30035978202120135B88402120135A48502E6
:100EC300120135D98502120135FB8502120135AABB
:100ED3008602120135A28802120135CB8802120163
:100EE300355D89021201358F89021201359C890211
:100EF300120135F38902120135198A02120135866E
:100F03008C02120135898D02120135E18D02120125
:100F130035DFEB01120135E9EC01120135D0ED01AA
:100F2300120135DAED01120135FCED01120135082C
:100F3300EE01120135A1EF01120135D0EF011201CB
:100F430035ECF00112013545F101120135ABF20127
:100F53001201358AF301120135E6F301120135530B
:100F6300F4011201358EF401120135CDF4011201A1
:100F73003586F701120135A0F7011201352CF8016E
:100F83001201353AF80112013593F801120135A126
:100F9300F80112013514F90112013578F901120132
:100FA30035C2F901120135EBB5021201350DB60256
:100FB30012013533B80212013548BB021201356004
:100FC300BC0212013513BD02120135F5BD02120137
:100FD3003524CA0312013549CA03120135BBCA03BA
:100FE30012013555E7021201355EE702120135673A
:100FF300E7021201353EE802120135EFE902120160
:101003003525EA021201355FEA0212013595EA023B
:10101300120135CFEA0212013503EB021201352F1B
:10102300EB0212013578EB02120135B2EB02120129
:1010330035FBEB0212013553EC0212013588EC0249
:10104300120135E3EC021201351DED021201356E7A
:10105300ED02120135A4ED02120135DEED0212019B
:10106300350CEE021201352FEE02120135B6D40310
:10107300120135E2D4031201353DD5031201354780
:10108300D50312013557D503120135008003120130
:10109300350E8003120135548003120135A78003F6
:1010A300120135EF80031201354981031201356FB7
:1010B30081031201357D8103120135D981031201A8
:1010C300350C82031201351F8203120135AA8203F4
:1010D300120135438303120135C08303120135F92D
:1010E3008303120135818403120135D8840312016D
:1010F300353585031201354785031201356D8503A7
:10110300120135768503120135BD8603120135B10F
:10111300CE031201357DCF0312013561FD021201A9
:1011230035A6FD02120135E6FD0212013583FF02E9
:10113300120135F4D3031201350FD4031201351F05
:10114300D40312013576D40312013561D50312019C
:1011530035F486031201351487031201350488031D
:101163001201354D88031201356D8803120135AB29
:1011730088031201350689031201354489031201DC
:10118300358E89031201355A8C03120135C38C0342
:10119300120135D5CF0312013506D00312013530C4
:1011A300D00312013588D00312013576A903120149
:1011B30035EEA903120135FFA90312013590AA03E5
:1011C3001201351DB50312013553B50312013566FE
:1011D300B503120135A4B503120135C5B5031201D8
:1011E3003545B60312013508B70312013587B70336
:1011F3001201359BB803120135829203120135A700
:101203009203120135D7920312013523D70312013A
:1012130035D42B00120135CD2E001201355030008C
:10122300120135F4300012013589310012013511F4
:1012330032001201353B3200120135E13600120152
:1012430035783700120135A738001201350B390004
:10125300120135BF3900120135723C00120135AC61
:101263003C00120135163D00120135743D00120198
:1012730035D23D001201352F3E001201351E3F00CD
:10128300120135643F00120135A93F00120135CA2E
:101293003F001201351141001201352541001201B1
:1012A300352C4200120135594200120135824200A9
:1012B300120135C84200120135E6420012013524FD
:1012C30043001201356B4500120135A4450012019C
:1012D300353446001201359F4600120135D84700C8
:1012E300120135D8D703120135FDFF011201359BD9
:1012F300D70312013508D20312013518D2031201A4
:101303003532D2031201350CD303120135A3C103C5
:101313001201353EC20312013534C403120135C92B
:10132300CB0312013518CC031201354ACC03120149
:1013330035DCCC03120135F4FF02120135D48C03E2
:10134300120135F68C03120135888D03120135869F
:101353008E031201359B9103120135FB9103120198
:1013630035649203120135F87F001201354FC4032F
:10137300120135FAC50312013566C603120135B1F0
:10138300C6031201354BFA0112013553FC01120158
:1013930035C7FC01120135C3FD01120135AAFE0157
:1013A30012013575FF01120135A4FF01120135A7A2
:1013B300FF01120135B5FF01120135C9FF01120109
:1013C30035E1FF01120135EFFF011201356EC8034C
:1013D300120135CDC8031201356AC903120135D094
:1013E300C903120135ADB803120135E0B803120188
:1013F30035DAB90312013510BB0312013553CB02A1
:101403001201352FCC0212013576CC02120135B30D
:10141300CC021201351FCD0212013577CD02120124
:1014230035E7CD02120135BFCE02120135ACCF0232
:1014330012013530D002120135CCD10212013555DB
:10144300D202120135C2D20212013538D30212017F
:10145300354FD30212013583D402120135D5D4029C
:101463001201351FAB01120135A6AF011201358BF5
:10147300B201120135B1B201120135DAB201120122
:10148300358CB30112013568B50112013574B6010B
:1014930012013565BB011201359EBB01120135E214
:1014A300BB01120135EABC011201354ED50212010E
:1014B3003544D8021201352BD90212013557D9020E
:1014C30012013588D90212013510DB02120135876A
:1014D300DB02120135D0DB0212013521DC021201DD
:1014E3003566DC021201359FDD0212013574DE021E
:1014F300120135A5DE02120135CFEE021201351CB1
:10150300EF0212013539EF02120135C6F002120162
:1015130035E0F10212013568F30212013593F50249
:10152300120135D0F502120135C8FF02120135BA96
:10153300D703E76670100809E766700A0809E766CB
:1015430070040809E76622E066701008A3E066707D
:101553000A08A3E066700408A3E06622C3E79608BE
:1015630009E7960809E7960809E79622C3E0960873
:10157300A3E09608A3E09608A3E09622C008C3E080
:1015830096F50808A3E096420808A3E096420808E7
:10159300A3E09645087001D3D00822080808EAC0E2
:1015A300E0EBC0E086F0E7A4FA180986F0E7A42A86
:1015B300FA180986F0E7A42AFA180986F0E7A42A9C
:1015C300FA1986F0E7A4FBE5F02AFA190886F0E792
:1015D300A42BFBE5F03AFA190886F0E7A42BFBE508
:1015E300F03AFA18180986F0E7A4C5F02BFBE43AA1
:1015F300FA1908E7C5F0C6A426F6E5F03BFBE43A82
:10160300FA1886F0E7A4F6E5F00826F6E43B08F6B8
:10161300E43A08F6D0E0FBD0E0FA22E4CFC0E0E4FD
:10162300CEC0E0E4CDC0E0E4CCC0E075F020E62617
:10163300F608E633F608E633F608E633F618181824
:10164300EC33FCED33FDEE33FEEF33FFC3EC9709D0
:10165300ED9709EE9709EF97191919400FFFEC97CA
:10166300FC09ED97FD09EE97FE191906D5F0BFECBD
:10167300F709EDF709EEF709EFF7191919D0E0FCAF
:10168300D0E0FDD0E0FED0E0FF226016080808C6D7
:10169300C313C618C613C618C613C618C613C6D5B1
:1016A300E0EA227009080808226016181818C6C351
:1016B30033C608C633C608C633C608C633C6D5E024
:1016C300EA22E627F60809E637F60809E637F608B8
:1016D30009E637F622E026F608A3E036F608A3E08B
:1016E30036F608A3E036F622E026F008A3E036F04B
:1016F30008A3E036F008A3E036F022C3E697F60825
:1017030009E697F60809E697F60809E697F622C36D
:10171300E096F008A3E096F008A3E096F008A3E0B3
:1017230096F022E657F60809E657F60809E657F653
:101733000809E657F622E056F608A3E056F608A392
:10174300E056F608A3E056F622E056F008A3E0566A
:10175300F008A3E056F008A3E056F022E0F608A351
:10176300E0F608A3E0F608A3E0F622E6F008A3E615
:10177300F008A3E6F008A3E6F022E0FAA3E0FBA357
:10178300E0FCA3E0FD22EAF0A3EBF0A3ECF0A3ED71
:10179300F022E0F8A3E0F9A3E0FAA3E0FB22E8F0EB
:1017A300A3E9F0A3EAF0A3EBF022CAC0E0E6F0A3BA
:1017B30008DAFAD0E0FA22CAC0E0E0A3C582CCC5B9
:1017C30082C583CDC583F0A3C582CCC582C583CD35
:1017D300C583DAE6D0E0CA22C3E498F8E499F912A3
:1017E300181C8026C3E49AFAE49BFBE920E7E9127C
:1017F300181CE498F8E499F922C3E498F8E499F9F9
:1018030012181CE498F8E499F9C3E49AFAE49BFBF0
:1018130022EB20E7CFE920E7E0B90010BB0008E89E
:101823008AF084F8AAF022E4FBC8FA22EB70227B48
:1018330010C833C8C933C9335007C39AC3DBF28016
:10184300069A50012ADBEAC833F4C8C933F4C9FA4B
:101853002275F008E4C833C8C933C933C99AC99B90
:101863005004C92AC93BD5F0ECFBC833F4C8E4C91A
:10187300FA22600D08C6A2E713C618C613C6D5E040
:10188300F322600C08C6C313C618C613C6D5E0F40A
:1018930022700422600D18C6C333C608C633C6D5EA
:1018A300E0F41822251810AF08F518400C1519801C
:1018B30008F51840021519D2AF2200C0D025181020
:1018C300AF08F518500C05198008F51850020519D2
:1018D300D2AFD0D0222518F58210AF08F518400CEE
:1018E30015198008F51840021519D2AF85198322FE
:1018F3002518F582E43519F583222518F8E43519FE
:10190300F9222518FAE43519FB222518FCE43519C8
:10191300FD22E4732518C582C0E0E51934FFC583B1
:10192300C0E0E518C3958224F810AF0885831985B4
:1019330082188008858319858218D2AFCEF0A3E57B
:1019430020F0A37808E608F0A3DEFAEFF0A3E58120
:1019530024FAF8E608F0A3E608F0A3E608F0A308E3
:1019630008E608F0A3E608F0A315811581D0E0FE90
:10197300D0E0F8158115811581E8C0E0EEC0E022C2
:101983002518C582C0E0E51934FFC583C0E0E5181A
:10199300C3958224F910AF088583198582188008BE
:1019A300858319858218D2AFCEF0A3E520F0A37802
:1019B30008E608F0A3DEFAEFF0A3E58124FBF8E6DE
:1019C30008F0A3E608F0A30808E608F0A3E608F089
:1019D300A315811581D0E0FED0E0F815811581E8CB
:1019E300C0E0EEC0E022851983851882E0A3FEE003
:1019F300A3F5207808E0A3F608DFFAE0A3FFE0A34D
:101A0300C0E0E0A3C0E0E0A3C0E0E0A3C0E0E0A347
:101A1300C0E010AF08858218858319800885821875
:101A2300858319D2AFD083D0820201328519838591
:101A33001882E0A3FEE0A3F5207808E0A3F608DF10
:101A4300FAE0A3FFE0A3C0E0E0A3C0E0E0A3C0E0AE
:101A5300E0A3C0E010AF088582188583198008854C
:101A63008218858319D2AFD083D08222C0D02518A3
:101A7300C582C0E0E51934FFC583C0E0E518C3950E
:101A83008224F310AF088583198582188008858323
:101A930019858218D2AFC8F0A3E9F0A3EAF0A3EB4B
:101AA300F0A37908E709F0A3D8FAECF0A3EDF0A3CB
:101AB300EEF0A3EFF0A3D0E0F0A3D0E0F0A3D0E0EA
:101AC300F0A3E520F0A3E5F0F0A3228519838518A0
:101AD30082E0C0E0A3E0F9A3E0FAA3E0FBA3780867
:101AE300E0F608A3DFFAE0FCA3E0FDA3E0FEA3E039
:101AF300FFA3E0C0E0A3E0C0E0A3E0F5D0A3E0F5DE
:101B030020A3E0A3F5F010AF088583198582188020
:101B130008858319858218D2AFD082D083D0E0F8AC
:101B2300D0E03274048006740280027401C0E0F4D1
:101B3300041218D8D0E01217AD2274048004740282
:101B43008000CCC0E0EDC0E0E518C39CCCAD1950DB
:101B5300011D10AF068C188D1980068C188D19D2B3
:101B6300AF1217BAD0E0FDD0E0FC22D083D082E9D7
:101B7300C0E0E493A3C386F0C5F095F0F908E493BD
:101B8300A386F0C5F095F0700BE493A3C3994005C9
:101B9300E9048002A3E475F002A42582F582E5F04E
:101BA3003583F583D0E0F9E493A3C0E0E493C0E088
:101BB30022D083D082ECC0E0EDC0E0E493A3FCE448
:101BC30093A3FDED4C600D121C00EC24FFFCED34DF
:101BD300FFFD80EFE493A3FCE493A3FDED4C600DC4
:101BE300121C3FEC24FFFCED34FFFD80EFD0E0FD41
:101BF300D0E0FCE493A3C0E0E493C0E022C0E0C3E0
:101C0300E49396087401939618400FE49366700862
:101C130008740193661870007019A3A3C3E4939624
:101C2300087401939618A3A3400DD0E0D0E0D0E050
:101C3300021BF0A3A3A3A3A3A3D0E022C0E0C0F0A0
:101C430088F0E4936670080874019366187000A81E
:101C5300F0A3A3700BD0F0D0E0D0E0D0E0021BF0F3
:071C6300A3A3D0F0D0E022A2
:101C6C0074F5121983EAFEEBFFEE2434F8EF34001E
:101C7C00F988088909EE2435F582EF3400F583E004
:101C8C00F8EE2437F582EF3400F583E0F50AEC85A5
:101C9C000AF0A4FCAAF0850AF0EDA42AFDE82CF8C1
:101CAC00E43DF97A257B0012181CEA850882850927
:101CBC0083F0F8740758F97401B900028004C33337
:101CCC00D9FCFAE8131313541FF8EE28F8EF34007C
:101CDC00F9E8245DF582E93400F583E05A6008EEFA
:101CEC002434F582EF802CEE2434F582EF3400F5A9
:101CFC0083E0C0E0EE2436F582EF3400F583E0F5A6
:101D0C00F0D0E084A8F0EE28F8EF3400F9E824389D
:101D1C00F582E93400F583E0F97F04021A2F74F59B
:101D2C00121983EAFEEBFFEE2434F582EF3400F552
:101D3C0083E0C0E0EE2435F582EF3400F583D0E08B
:101D4C00F08E828F83A3A3A3A3A3A3A3C082C0837B
:101D5C008E828F83A3A3A3A3A3E0F8A3E0F9D0837F
:101D6C00D082E0C398F508A3E099F509EE247FF53D
:101D7C0082EF3400F583E064017069EE2480F58213
:101D8C00EF3400F583E0F8A3E0F98E828F83A3A3F0
:101D9C00A3A3A3A3A3E0FCA3E0FD8E828F83A3A344
:101DAC00A3A3A3E0FAA3E0FBC3EA9CEB9D5010C3F2
:101DBC00EC98ED99402EC3EA98EB995027800EC30E
:101DCC00EA98EB994007C3EC98ED9940177CDE7DBF
:101DDC0004EEFAEFFB120C7DEE247FF582EF34005B
:101DEC00F583E4F0EE2434F8EF3400F9E8FCE9FD77
:101DFC00EE2435F582EF3400F583E0F8EE2437F568
:101E0C0082EF3400F583E0F50AE508850AF0A4F5C5
:101E1C0008AAF0850AF0E509A42AF509E82508F8CE
:101E2C00E43509F97A257B0012181CEA8C828D8323
:101E3C00F0F8740758F97401B900028004C333D95F
:101E4C00FCFAE8131313541FF8EE28F8EF3400F9DA
:101E5C00E8245DF582E93400F583E05A6008EE244D
:101E6C0034F582EF802CEE2434F582EF3400F583C8
:101E7C00E0C0E0EE2436F582EF3400F583E0F5F0B7
:101E8C00D0E084A8F0EE28F8EF3400F9E82438F517
:101E9C0082E93400F583E0F9122AA7021D25C082DD
:101EAC00C083851882851983E0F8A3E0F9C3EA9C06
:101EBC00EB9D5010C3EC98ED99401BC3EA98EB993D
:101ECC005014800EC3EA98EB994007C3EC98ED9937
:101EDC004004790180027900D083D08222EAC39C2D
:101EEC00FAEB9DFB2274EF1219839003A4E06408B3
:101EFC006005E06407702A9061C8E060249003D20A
:101F0C00E0F4601DE0F875F003A4C8AAF02AF97497
:101F1C00D428FE740339FF8E828F83A3A3A3E070B1
:101F2C0003022021906060E0C0E0EE2468F582EFAF
:101F3C003400F583D0E0F0750C47750D057508007D
:101F4C00750900E5D914F50AE5D95403F50E6017A7
:101F5C007403650E605CE50A6010EE2467F582EF91
:101F6C003400F583E07003022006900542E0640122
:101F7C00602AEE2482F582EF3400F583E060047869
:101F8C000480027800850A08E508C398FA95E0FBFE
:101F9C00120B458A088B09EA45097005120E8180DF
:101FAC0074EE2482F582EF3400F583E070048A0C21
:101FBC008B0DE50A6012850C82850D83F50BE5D936
:101FCC00F0A3150BE50B70F6EE2482F582EF3400CE
:101FDC00F583E0604474FC250AF50A780C121B2A80
:101FEC00AC0AA90EEEFAEFFB120D1974021218BD11
:101FFC00E97026AA08AB091213D3793D8E828F8320
:10200C00A3A3A3A3E0FA7B00120A19EEFAEFFB12CA
:10201C000C95120D2B790080747403650E60568537
:10202C000A107511007810121B2AAC0CAD0DAA0801
:10203C00AB09120CF574021218BDEE2468F582EF90
:10204C003400F583E064807004747F8001E0F50C4B
:10205C00780C121B2EE50EF50C780C121B2EA90A0F
:10206C00AC08AD099003D2E0FA7B001209DD7402D2
:10207C001218BD80139003A4E06408600BAC0CAD87
:10208C000DEEFAEFFB120D85120E8D79017F0A020F
:10209C001A2F74F512198374FC1218A7EAFEEBFFC1
:1020AC008908A2AFE433F509C2AF806AEE2463F865
:1020BC00EF3400F97A007B00A2AFE433F50AC2AF2B
:1020CC0088828983E0FCA3E0FDEC4D603A8882892C
:1020DC0083E0FAA3E0FB8A828B83E0FCA3E0FD881B
:1020EC00828983ECF0A3EDF08A828B83E4F0A3F079
:1020FC0088828983E0FCA3E0FDEC4D700A8882891C
:10210C0083A3A3E4F0A3F0E50AA2E092AF1213D3E9
:10211C009004E5E004F0EE2463F582EF3400F583DF
:10212C00E0F8A3E0F9E849603DEE2463F582EF3472
:10213C0000F583E02402FAA3E03400FBEA2402F564
:10214C000AEB3400F50B780A121B2A8A828B83E087
:10215C00FCA3E0F9EEFAEFFB120CB974021218BDF5
:10216C00E970030220B89004E5E060639004E6E0B7
:10217C00F89004E5E0C398500C7402650870509018
:10218C0004E7E0604A8E828F83A3A3A3A3E08518A3
:10219C0082851983F0A3E4F09004E5E0F874021250
:1021AC0018F3E8F0A3E4F09004E5E0F89004E4E020
:1021BC0028F074021218F3AC82AD8385188285194D
:1021CC0083AA82AB8379011209E99004E5E4F0E576
:1021DC0009A2E092AF74041218BD021D2500000084
:1021EC008521878522C622C0E0C0D0E8C0E0E9C0C6
:1021FC00E0EAC0E0EBC0E0ECC0E0EDC0E0EEC0E037
:10220C00C008C009C00AC00BC082C083C0F0A2AF16
:10221C00E433FEC2AF759B00906182E0A2E05012E5
:10222C00E591A2E0500C7591FE74016521700312CA
:10223C001EF1E0A2E55051E591A2E5504B7591DFFE
:10224C009003A4E064076005E064087023740165E2
:10225C0021703579019003D2E0FA75F003A4CAA875
:10226C00F028FB74D42AFA74033BFB12209E8018CE
:10227C00E0640D70139003C6E004F064287002E46F
:10228C00F07A00E0F9120E93906182E0A2E640032E
:10229C0002233AE591A2E6400302233A7591BF90DE
:1022AC0003A4E064057008120DBB120DC780031265
:1022BC000DC1752100120E21E99003A5F0790012D1
:1022CC000E15120BF37A017B009003A3E0F91210A8
:1022DC00E5907803E064427055900546E014F07088
:1022EC004DC2AF1222F200782AD0E0F618D0E0F6F8
:1022FC00E59F540770057509FF800375097FC4C0FD
:10230C00E07829E6F50808E65509F509740B780814
:10231C00121885D0E02508F8906270E0A2E740F82A
:10232C00E8C333906272F0906270E0D2E0F090619A
:10233C0081E0A2E35009E5E9A2E3500375E9F7A3B4
:10234C00E0A2E75009E591A2E7500375917FEEA258
:10235C00E092AFD0F0D083D082D00BD00AD009D08D
:10236C0008D0E0FED0E0FDD0E0FCD0E0FBD0E0FAFD
:10237C00D0E0F9D0E0F8D0D0D0E032C0E0C0D0C08E
:10238C0082C083906183E0A2E05009E5BFA2E050D7
:10239C000375BFFEE0A2E15009E5BFA2E150037551
:1023AC00BFFDE0A2E25009E5BFA2E2500375BFFBFE
:1023BC00E0A2E35009E5BFA2E3500375BFF7E0A22A
:1023CC00E45009E5BFA2E4500375BFEFE0A2E5506D
:1023DC0009E5BFA2E5500375BFDFE0A2E65009E5B1
:1023EC00BFA2E6500375BFBFD083D0828088C0E007
:1023FC00C0D0E8C0E0E9C0E0EAC0E0EBC0E0ECC06F
:10240C00E0EDC0E0C0F0E5A7A2E6500FE5A1A2E622
:10241C00500953A7BF75A1BF12245FE5A7A2E550D1
:10242C000CE5A1A2E5500653A7DF75A1DFE5A7A235
:10243C00E15009E5A1A2E1500375A1FDE5A7A2E2D7
:10244C00500CE5A1A2E2500653A7FB75A1FBD0F0FE
:10245C0002237074F81219837521019003A4E064AF
:10246C00067015120D498A828B83A3A3A3A3A3A381
:10247C00E0FAA3E0FB120DA9A2AFE433FED2AF90B9
:10248C0003AAE0640170187A207B009003A3E0F9A2
:10249C001211757A207B009003A3E0F91210EB90D7
:1024AC006182E0D2E6F0900543E0602185C622808F
:1024BC00169003A9E064017008E5C654F84405F5CC
:1024CC00C653BEFC1221EC7401652160E4EEA2E05F
:1024DC0092AF7F01021A2F008E238F2485822885CC
:1024EC008327851882851983E0CEA3E0CF852882C7
:1024FC00852783EBC9EAC8EDCBECCA75F010C3E8AD
:10250C0033C8E933C9EA33CAEB33CBC3EA9EF526A9
:10251C00EB9FF525B35004AB25AA26EC33CCED3359
:10252C00CDD5F0DAAE23AF242274E912198374F8F6
:10253C001218A7851882851983ECF0A3EDF08A0890
:10254C008B099003A4E024F7C39405500675080189
:10255C000226CC120D498A0A8B0BAE0AAF0BEE4F3A
:10256C0070030226C9AC08AD0974021218F3AA82D2
:10257C00AB83120DD98E828F83A3A3750CFF750DBF
:10258C00FF750EFF750F00780C12173974021218B4
:10259C00F37510FF7511FF7512FF7513007810128B
:1025AC001739780C791012155F502A780C791012A3
:1025BC0016FE7508017509C8750A00750B007808B8
:1025CC00790C12155F5052850C08850D09850E0A81
:1025DC00850F0B80507514017515C875160075178D
:1025EC000085100885110985120A85130B78087966
:1025FC000C1216FE7814790812155F401C75080031
:10260C00750900750A00750B01780879101216FE11
:10261C007808790C1216C5800C75080175090075BF
:10262C000A00750B00740978081216A6750C19F5BA
:10263C000DF50EF50F7808790C12161E8E828F830D
:10264C00A3A3A3A3A3A3E0F8A3E0F97AD07B03127E
:10265C00181C880C890DE4F50EF50F7808790C120E
:10266C0016C574061218F3E0F8A3E0F97AD07B03D0
:10267C0012181CE8FA8A0CE4F50D7808790C12157E
:10268C005F50077808790C1216FE9003A4E06408DA
:10269C00600AE064066005E06405702D750C0D7829
:1026AC000C790812155F4021750CF4750DFF750E31
:1026BC00FF750FFF7808790C1216C5800C75080091
:1026CC00750900750A00750B00851882851983E061
:1026DC00F8A3E0F5838882780812176E7408121834
:1026EC00BD7F10021A2F74F7121983120DEB90058F
:1026FC0041E064017010906245E4F0A3F053F4F3F0
:10270C0043FE0C5390F3120D97E5C654804449F5E3
:10271C00C6E59E547F644970F8906185740FF09003
:10272C00053FE0F47002A3E0604E900540E06008C5
:10273C0014601B14602E804075080175090090050B
:10274C003FE07808121894E508F45280802A750846
:10275C000175090090053FE07808121894E508F41B
:10276C005290801475080175090090053FE07808B7
:10277C00121894E508F452A079007F02021A2F7403
:10278C00F7121983E9FEEAFF74016E700C7A807BF4
:10279C00009003A3E0F91210E5902BCCE493F460C5
:1027AC0008E493F9120BE7800953C680E59E547F29
:1027BC0070FA120D9D900541E064017003120BFF3D
:1027CC0090053FE0F47002A3E0604B900540E060A0
:1027DC000814601A14602C803D750801750900906E
:1027EC00053FE07808121894E508428080287508A7
:1027FC000175090090053FE07808121894E508422D
:10280C0090801375080175090090053FE078081257
:10281C001894E50842A0120DEB120D498A088B0999
:10282C00A808A909E8496015E5E170FCE82414F54D
:10283C0082E93400F583E0F46003E0F5E174016FA4
:10284C00700A7A019003A3E0F912113F02278674F3
:10285C00ED1219838A088B098C0A8D0B74131218CC
:10286C00F3780C12175F7808790C12155F7510014C
:10287C007511C875120075130050127808790C1276
:10288C0016FE7810790812155F50168010780C79A6
:10289C00081216FE7810790C12155F40047901802D
:1028AC000279007F0C021A2F74ED1219838A088B9F
:1028BC00098C0A8D0B74131218F3780C12175F78AD
:1028CC000C790812155F40117808790C1216FEAAC3
:1028DC0008AB09AC0AAD0B802275100075110075A0
:1028EC0012007513017810790C1216FE7810790805
:1028FC001216C5AA10AB11AC12AD1380A68A828B2E
:10290C00837508FF7509FF750AFF750B00780812AF
:10291C00174C7F04021A2F74F51219838C828D8345
:10292C00780812175F8A828B837808121712EA24B0
:10293C0004F8EB3400F98C828D83A3A3A3A3E0FCF1
:10294C00A3E0FD88828983C3E09CF0A3E09DF0881E
:10295C00828983C3E09420A3E0944E40268A828B24
:10296C00837508FF7509FF750AFF750BFF78081250
:10297C0016EB8A828B83A3A3A3A3E02420F0A3E00D
:10298C00344EF002290974F5121983E9FE9004F90A
:10299C00E0FAA3E0FBEEC333F8E433F974A728F5AF
:1029AC0082748039F583E02AF508A3E03BF50978B9
:1029BC0008121B2A7A407B427C0F7D001224E4749F
:1029CC00021218BD8A088B098C0A8D0B74107808BA
:1029DC0012168DAA08AB097F04021A2F74F1121972
:1029EC00838A0C8B0D8C0E8D0F740F1218F3E0FA7A
:1029FC00A3E0FB74111218F3E0F508A3E0F50978D5
:102A0C0008121B2AEA2401F508EB3400F509E4F559
:102A1C000AF50B780C790812159E75087175090268
:102A2C00780C790812159EAA0CAB0DAC0EAD0F12DA
:102A3C0024E474021218BD8B09EA450960047A017A
:102A4C0080027A00EC2AFCED3400FD74131218F3AA
:102A5C00E0F8A3E0F9E8FEE9FFECF8EDF97A717B18
:102A6C000212181C880889098E828F837808121725
:102A7C006EECF8EDF97A717B0212181C8A088B093E
:102A8C00740578081218948E828F83A3A3A3A3E5F0
:102A9C0008F0A3E509F07F08021A2FC082C083E971
:102AAC00906000F0D083D08222C2AF02000022C01E
:102ABC00E074F2121A6FA2AFE433FED2AFC2C0E5DB
:102ACC00D1A2E4500653D1EF1213C7751A00EEF8D9
:102ADC00EEA2E092AF7F01021ACEC0E0C0D0E8C0F7
:102AEC00E0E9C0E0A2AFE433F8D2AFC2C7751A0078
:102AFC00E8F9E8A2E092AFD0E0F9D0E0F8D0D0D07D
:102B0C00E032C0E074F2121A6FA2AFE433FED2AF1F
:102B1C00758900C2C59009767401F0751A007A01A6
:102B2C0090094AE0F912113FE9F9900AFAE0F8909D
:102B3C000AFBE0687002D285EEF8EEA2E092AF7F5D
:102B4C0001021ACEC0E0C0D0E8C0E0E9C0E0C00885
:102B5C00C009C082C083A2AFE433F9D2AF900AFAA5
:102B6C00E0F8900AFBE068700B539AFB900AFC7437
:102B7C0001F08031C2E9900AFAE0F50874012508E9
:102B8C00900AFAF0750900747A2508F582740A35F2
:102B9C0009F583E0F5C1900AFAE0C39480400690F1
:102BAC000AFA7400F0E9F8E9A2E092AFD083D0827F
:0F2BBC00D009D008D0E0F9D0E0F8D0D0D0E03286
:102BCC00FFFFFFFFFFFFFFFF74F212191774FA12D9
:102BDC0018A7E9FF8C0C8D0D7E008A088B097808EC
:102BEC00121B6E0004109F2E162C392C582C7B2C8B
:102BFC009E2CC12CF22C152D2C2D5C2D0C2E2F2E39
:102C0C00512E762E9F2E9F2E852D74016F70198557
:102C1C000C82850D83E0C39403500D850C82850DC9
:102C2C0083E0900DC8F080027E18022EC174026FF2
:102C3C007015850C82850D83E0F8A3E0F9900DC921
:102C4C00E8F0A3E9F080027E18022EC174016F70C7
:102C5C0019850C82850D83E0C39402500D850C827E
:102C6C00850D83E0900868F080027E18022EC174F6
:102C7C00016F7019850C82850D83E0C39405500D8E
:102C8C00850C82850D83E0900869F080027E180225
:102C9C002EC174016F7019850C82850D83E0C3946D
:102CAC0002500D850C82850D83E090086AF080023D
:102CBC007E18022EC174106F7027750810750900EC
:102CCC007808121B2AAC0CAD0D7A6B7B0812109194
:102CDC0074021218BD8A088B0985088285098380C5
:102CEC00027E18022EC174016F7019850C82850D3D
:102CFC0083E0C39402500D850C82850D83E090080F
:102D0C007BF080027E18022EC174016F700D850C51
:102D1C0082850D83E0900DCCF080027E18022EC1CE
:102D2C0074046F702690819F780812175F850C824F
:102D3C00850D83780812156F5011850C82850D83D3
:102D4C0012179590087D1217A180027E18022EC1D1
:102D5C00EF7021120797E97013121289E9F50879BF
:102D6C005012145DE9F509121277800A900910745B
:102D7C0001F080027E18022EC174076F707D7508F9
:102D8C00067509007808121B2A850C82850D83A311
:102D9C00AC82AD83740212190512109774021218CA
:102DAC00BD8A088B0985080A85090B7C007D00AA61
:102DBC0018AB19850C82850D83E0F912121DE9F50B
:102DCC0008E508C3940A502F120797E97015A90853
:102DDC0012128FE9F508795012145DE9F5091212F7
:102DEC0077801A75090074112508F5827409350964
:102DFC00F5837401F080067E0280027E18022EC1DB
:102E0C0074016F7019850C82850D83E0C394025098
:102E1C000D850C82850D83E090087CF080027E1875
:102E2C00022EC174016F7019850C82850D83E0C36D
:102E3C00940A500D850C82850D83E0900DCBF080AB
:102E4C00747E18807074016F701C850C82850D83E4
:102E5C00E0C39407C3940A500D850C82850D83E062
:102E6C00900DCDF0804F7E18804B74016F702090C8
:102E7C00090FE0F8850C82850D83E090090FF0E8CE
:102E8C00703390090FE06401702B12127780267E4C
:102E9C00188022C3EA9427EB9400501774026F70C9
:102EAC0012850C82850D83E0FCA3E0FD120635E94A
:102EBC00FE80027E02EEF974061218BD7F0602191E
:102ECC00E974F012191774DA1218A7890D8C088D91
:102EDC000990812EAC18AD1974061217BAAC18AD46
:102EEC0019A90D12121DE9FE74361218F3E0F50C37
:102EFC00EEC3940A400302302FEEF9121259E9FF87
:102F0C00900DC8E064027004740180027400F50A2C
:102F1C00780A121B2EAD0CEFFCEEF9AA08AB0912C5
:102F2C0012CB74011218BD7C147D0079007412123E
:102F3C0019051210A98A0A8B0B850A0E850B0F74C2
:102F4C001212190D7A1075F006EEA42424F912143D
:102F5C0057E9703B7C1079FF741212190512110994
:102F6C00E9702C74221218F3AC82AD837A0475F0DC
:102F7C0006EEA42425F9121457E9F50A7412121955
:102F8C000DEFA2E0E433F9AA08AB091206BFE9740D
:102F9C000612190D7A0C74702EF9121457E970710F
:102FAC00740612190512124D7E00805FEEF879003E
:102FBC00E875F003A4C8AAF075F000A42AFA75F01D
:102FCC0003E9A42AF974061218F3E58228F8E583BC
:102FDC0039F9E8FAE9FB8A828B83E0F8A3E0F9E897
:102FEC004960278A828B83A3A3E0F50A750B0078CE
:102FFC000A121B2A8A828B83E0FCA3E0FDAA08AB91
:10300C000912092374021218BDE90EEEC394044090
:10301C009BEFA2E1500D900867E0F9AA08AB0912EA
:10302C000929E97404650C700F900DC8E0640270F6
:10303C0007AA08AB091212C5790074261218BD7FB5
:10304C00080219E974F2121917890B8A088B09EC1A
:10305C00FEEDFF750A0AE50B600B14600814604165
:10306C0014605F807CAA08AB0912126BE9F50AE5C3
:10307C000AC3940A506BEE4F6067750C06750D0011
:10308C00780C121B2AAC08AD09EEFAEFFB1210916A
:10309C0074021218BD8A088B098508828509838001
:1030AC0040AA08AB09121265E9F50AE50AC3940AAD
:1030BC00502FEE4F602BEEFAEFFBA90A12125FE9CC
:1030CC00801FAA08AB09121271E9F50AE50AC3942C
:1030DC000A500EEE4F600AEEFAEFFBA90A12125FCD
:1030EC00E9A90A7F060219E974F4121917E9FF7E9F
:1030FC001574FF6A700374FF6B702A7508008012D8
:10310C00EFFC7A027B00A90812123BE960027E00F8
:10311C000508E508C3940A40E7EF605A7AB37B12BE
:10312C00120B278051120B098A0A8B0B850A088512
:10313C000B09E5084509603C7C007D00E508240589
:10314C00FAE43509FB850882850983A3A3A3A3E0D0
:10315C00F912121DE9F9E9C3940A500CEFFC7A023A
:10316C007B0012123BE97E00EF600BAA08AB091240
:10317C0012B380027E14EEF97F040219E974F21284
:10318C0019178C088D097E15740E1218F3E0F50AC8
:10319C00A3E0F50B74FF6A700374FF6B701D7F0066
:1031AC00EFC3940A5058AC0AAD0BAA08AB09EFF95F
:1031BC00121241E960027E000F80E5120B098A0CA5
:1031CC008B0D850C82850D83E5824583602E7C00FA
:1031DC007D00E5822405FAE43583FBA3A3A3A3E0D9
:1031EC00F912121DE9F9E9C3940A5012AC0AAD0B9D
:1031FC00AA08AB09121241E97E0080027E14EEF996
:10320C007F060219E974F7121917900881EAF0A3E6
:10321C00EBF0900867E0FC7D007A267B0012063507
:10322C00E9FE900867E0F912089F7F010219E97422
:10323C00F412191774EC1218A78A828B83A3A3E0DB
:10324C0024FA700302366724FD70030234E714700D
:10325C000302332514601024FD70030234911470A2
:10326C00030235220236D5EAFEEBFF900881E0F826
:10327C00A3E0F9E8496066900881E0F8A3E0F583E3
:10328C008882E0F8A3E0F9E8496052EE240CF5825C
:10329C00E43FF583E0F5087808121B2EEE240BF5BD
:1032AC0082E43FF583E0F98E828F83A3A3A3A3A3CB
:1032BC00A3A3A3A3E0FCA3E0FDEE2403FAE43FFBED
:1032CC00900881E0F8A3E0F5838882E0F8A3E0F5AC
:1032DC0083888212191574011218BD80398E828F61
:1032EC0083A3A3A3A3A3A3A3A3A3121B4190087D11
:1032FC0012177D1206D174021218BDE960187901FB
:10330C008E828F83A3A3A3A3A3A3A3A3A3E0FAA357
:10331C00E0FB1206CBE90236D5EAFEEBFF8E828F7C
:10332C0083A3E0600302343F8E828F83A3A3A3A305
:10333C00A3E0A2E0400302343F90091BE0F8A3E0B5
:10334C00F9E849600302343F7C0E7D007900AA182D
:10335C00AB191210A98A088B09AA08AB09EE240C28
:10336C00F582E43FF583E0F8A3E0F9E8496046759F
:10337C0008067509007808121B2AEE240CF582E465
:10338C003FF583E02410FCA3E03400FD7402121915
:10339C000512109174021218BD8A088B09850882D7
:1033AC008509838E828F83A3A3A3A3A3E0A2E250FB
:1033BC004DD2F0804B8E828F83A3A3A3E0FAA3E0BF
:1033CC00FB120B098A088B09AA08AB09EA4B602B84
:1033DC007508067509007808121B2AEA2405FCE416
:1033EC003BFD740212190512109174021218BD8A59
:1033FC00088B0985088285098380A80236D5C2F01E
:10340C00A2F0E433F87900740C1218F3E048F0A33E
:10341C00E049F0EEFCEFFDAA18AB19121253E9705B
:10342C00127A027B00900867E0F91210E5E9790046
:10343C000236D7900881E0F8A3E0F9E849604390A0
:10344C000881E0F8A3E0F5838882A3A3E0F8A3E069
:10345C00F9E849602D8E828F83A3E0FC79018E827E
:10346C008F83A3A3A3E0FAA3E0FB900881E0F8A369
:10347C00E0F5838882A3A3E0F8A3E0F583888212A9
:10348C0019150236D5EAFEEBFF900881E0F8A3E0AF
:10349C00F9E8496043900881E0F8A3E0F58388825D
:1034AC00A3A3E0F8A3E0F9E849602D8A828B83A3FB
:1034BC00E0FC79028E828F83A3A3A3E0FAA3E0FB46
:1034CC00900881E0F8A3E0F5838882A3A3E0F8A339
:1034DC00E0F58388821219150236D5EAFEEBFF7CE3
:1034EC00007D00EE2404FAE43FFB8E828F83A3A3BD
:1034FC00A3E0F912121DE9F8E8C3940A5015EE2462
:10350C000AFCE43FFD7A0475F006E8A42425F912C0
:10351C001451E90236D5EAFEEBFF90087CE0601806
:10352C00900DCBE0F98E828F83A3A3A3E0FAA3E0E6
:10353C00FB1206CBE90236D5900DC8E07015790563
:10354C008E828F83A3A3A3E0FAA3E0FB1206CBE940
:10355C000236D58E828F83A3A3A3E0FAA3E0FB12DD
:10356C000B098A0A8B0B850A08850B098E828F83BF
:10357C00A3A3A3A3A3A3A3E0A2E05071E50845096C
:10358C006068850882850983A3A3A3A3E0605E8E8F
:10359C00828F83A3A3A3A3A3A3A3A3A3E0F8A3E075
:1035AC00F9E8C4540FF87900E85401F8E95400F92B
:1035BC00E8A2E04038740E12190DE5082405FAE46F
:1035CC003509FB850882850983A3A3A3A3E0F9121F
:1035DC00121DE9701879038E828F83A3A3A3E0FADE
:1035EC00A3E0FB1206CBE90236D50236D5EE240554
:1035FC00FCE43FFD850882850983A3A3A3A3E0F91E
:10360C008E828F83A3A3A3E0FAA3E0FB1212BF90D8
:10361C000881E0F8A3E0F9E849603E900881E0F801
:10362C00A3E0F5838882A3A3E0F8A3E0F9E849605E
:10363C00287C0079008E828F83A3A3A3E0FAA3E0F9
:10364C00FB900881E0F8A3E0F5838882A3A3E0F85F
:10365C00A3E0F5838882121915806E120797E97022
:10366C0068900910E06401701A121289E9FE900941
:10367C00107400F07C0A7D0079007A117B0912101D
:10368C00A9803C7E0080328E0875090074112508D3
:10369C00F58274093509F583E06401701BEEF912AB
:1036AC00128FE9F88E0875090074112508F58274DB
:1036BC00093509F5837400F00EEEC3940A40C879FD
:1036CC005012145DE9FE121277790174141218BDB0
:1036DC007F040219E974F212191774F21218A789EF
:1036EC0008EAFEEBFF8C09AC18AD197A0E75F006E2
:1036FC00E508A42420F9121457E970647C0679FFBC
:10370C00AA18AB19121109E97056740C1218F3E0CF
:10371C00F8A3E0F9E8F50AE5096005EE420A800431
:10372C00EEF4520A850A0C750D00740C1218F3E0B5
:10373C00650C7004A3E0650D6022E50AF87900744D
:10374C000C1218F3E8F0A3E9F0AC18AD197A0E7569
:10375C00F006E508A42420F9121451E9790180023D
:10376C007900740E1218BD7F060219E974F2121951
:10377C001774E61218A789098A0C8B0DECFEEDFF65
:10378C00740C12190D7A0E75F006E509A42420F9B3
:10379C00121457E9600302389B7C0679FF740C12F3
:1037AC001905121109E9600302389BAC18AD197A9E
:1037BC000C74702509F9121457E9600302389775D7
:1037CC000800AA18AB1912124DE50C450D702D7C92
:1037DC000C7900AA18AB19121109E9600302387DA3
:1037EC007C0C7D007900AA18AB191210A98A0A8BDF
:1037FC000B850A82850B837508018075AC18AD1991
:10380C00AA0CAB0D1212478A0A8B0BA80AA90BE85B
:10381C0049702EEE4F601BAC18AD197A007B00126C
:10382C0012478A0A8B0BAA0AAB0BEAF8EBF9EA4BA4
:10383C0070047900805B88828983E50CF0A3E50D28
:10384C00F088828983A3A3E0FA7B00EE6A7002EF12
:10385C006B601EEEC0E088828983A3A3D0E0F0EEFB
:10386C004F700B888289837400F0A37400F0750884
:10387C0001E5086016AA18AB1912124DAC18AD1957
:10388C007A0C74702509F9121451E97901800279C6
:10389C0000741A1218BD7F060219E974F712191771
:1038AC007F0080010FEFC39404504BEFF87900E8D0
:1038BC0075F003A4C8AEF075F000A42EFE75F003ED
:1038CC00E9A42EF9EC28F582ED39F583E06A700352
:1038DC00A3E06B70CFEFF87900E875F003A4C8AAE9
:1038EC00F075F000A42AFA75F003E9A42AF9EC2883
:1038FC00FAED39FB80047A007B007F010219E97430
:10390C00F71219177F000239B1EFF87900E875F05A
:10391C0003A4C8ACF075F000A42CFC75F003E9A46A
:10392C002CF9EA28F582EB39F583E0F4FCA3E0F4FA
:10393C00FDEFF87900E875F003A4C8AEF075F0005F
:10394C00A42EFE75F003E9A42EF9EA28F582EB39D2
:10395C00F583ECF0A3EDF0EFF87900E875F003A433
:10396C00C8ACF075F000A42CFC75F003E9A42CF99C
:10397C00EA28F582EB39F583A3A3E0F4C0E0EFF875
:10398C007900E875F003A4C8ACF075F000A42CFC29
:10399C0075F003E9A42CF9EA28F582EB39F583A339
:1039AC00A3D0E0F00FEFC3940450030239157F014C
:1039BC000219E974F012191774F41218A7EAFEEB45
:1039CC00FF8C088D0990091BE0F8A3E0F9E8497019
:1039DC002CEE4F6006E508450970057901023C683C
:1039EC00EEFAEFFB12126BE9900DCEF0900DCEE0DB
:1039FC00C3940A400812127DE9900DCEF0900DCEC2
:103A0C00E0C3940A4003023C6690091BE0F8A3E073
:103A1C00F9E8496003023AB7EEFCEFFD7A0E75F057
:103A2C0006900DCEE0A42420F9121451E9F50B7C7C
:103A3C000C7D0079FFAA18AB191210A98A0C8B0DFA
:103A4C00850C0E850D0FAC18AD197A0C900DCEE0CF
:103A5C002470F9121451E9F50A750C0E750D0078E5
:103A6C000C121B2AEEFCEFFD900DCEE0F87900E86D
:103A7C0075F00EA4C8AAF075F000A42AFA75F00E21
:103A8C00E9A42AF9748328FA740839FB121091748A
:103A9C00021218BD8A0C8B0DA80CA90D90091BE500
:103AAC0008F0A3E509F07900023C6890091BE0F8E6
:103ABC00A3E0C82406F582C83400F583E0F8A3E03F
:103ACC00F9E849604290091BE0F8A3E0C82406F528
:103ADC0082C83400F583E0FCA3E0FD7A1B75F00688
:103AEC00900DCEE0A42421F9121451E9F890091B91
:103AFC00E0F9A3E0C92406F582C93400F58374000B
:103B0C00F0A37400F0809F90091BE0F8A3E0C82498
:103B1C000AF582C83400F583E0F8A3E0F9E84960BF
:103B2C004390091BE0F8A3E0C8240AF582C83400CE
:103B3C00F583E0FCA3E0FD7A1B75F006900DCEE05A
:103B4C00A42422F9121451E9F890091BE0F9A3E01E
:103B5C00C9240AF582C93400F5837400F0A37400FB
:103B6C00F0023AB290091BE0F8A3E0C8240CF582ED
:103B7C00C83400F583E0F8A3E0F9E8496043900904
:103B8C001BE0F8A3E0C8240CF582C83400F583E0F0
:103B9C00FCA3E0FD7A1075F006900DCEE0A4242372
:103BAC00F9121451E9F890091BE0F9A3E0C9240CAF
:103BBC00F582C93400F5837400F0A37400F0023A66
:103BCC00B290091BE0F8A3E0C82408F582C83400C1
:103BDC00F583E0F8A3E0F9E849606F90091BE0F881
:103BEC00A3E0C82408F582C83400F583E0FCA3E008
:103BFC00FD7A1075F006900DCEE0A42424F9121471
:103C0C0051E9FE90091BE0F8A3E0C82408F582C82E
:103C1C003400F583E02410FCA3E03400FD7A047535
:103C2C00F006900DCEE0A42425F9121451E9F89079
:103C3C00091BE0F9A3E0C92408F582C93400F58317
:103C4C007400F0A37400F0023AB290090FE0600324
:103C5C001212D11212B9790180027901740C121866
:103C6C00BD7F080219E974F712191774F21218A71C
:103C7C00E9FEAC18AD197A0E75F006EEA42420F905
:103C8C00121457E9700E740C1218F3E0F8A3E0F953
:103C9C00E8F980027900740E1218BD7F010219E94F
:103CAC0074F412191774F21218A78909EAFEEBFFC3
:103CBC00E509C3940A5004EE4F700479028041ACBC
:103CCC0018AD197A0E75F006E509A42420F9121422
:103CDC0057E9F508E5087026750A06750B00780A91
:103CEC00121B2A740212190DEEFAEFFB12109174CA
:103CFC00021218BD8A0A8B0B850A82850B83A908D0
:103D0C00740E1218BD7F040219E974F4121917EA23
:103D1C00FEEBFF75080080020508E508C3940A5005
:103D2C0040750A06750B00780A121B2AEEFCEFFD93
:103D3C00E508F87900E875F00EA4C8AAF075F00053
:103D4C00A42AFA75F00EE9A42AF9748928FA7408E1
:103D5C0039FB1210A374021218BDE960BBA90880CC
:103D6C0002790A7F040219E974F4121917EAFEEBBE
:103D7C00FF75080080020508E508C3940A504075D9
:103D8C000A06750B00780A121B2AEEFCEFFDE508FB
:103D9C00F87900E875F00EA4C8AAF075F000A42A12
:103DAC00FA75F00EE9A42AF9748328FA740839FB21
:103DBC001210A374021218BDE960BBA90880027925
:103DCC000A7F040219E974F712191774F01218A774
:103DDC00EAFEEBFF75080080020508E508C3940AAB
:103DEC005035AC18AD197A1075F006E508A42423EB
:103DFC00F9121457E970E27C1079FFAA18AB19126A
:103E0C001109E970D4EEFCEFFDAA18AB191206A14A
:103E1C00E970C6A9088002790A74101218BD7F01D6
:103E2C000219E974F4121917750800023F03E5082A
:103E3C00F87900E875F00EA4C8AAF075F000A42A71
:103E4C00FA75F00EE9A42AF9748328FC740839FD7C
:103E5C007A0E75F006E508A42420F9121457E970BF
:103E6C0003023F017C067D0079FFE508FA7B00EA3E
:103E7C0075F00EA4CAA8F075F000A428F875F00E21
:103E8C00EBA428FB74832AFA74083BFB1210A98A52
:103E9C000A8B0BAE0AAF0B7C067D0079FFE508FAA6
:103EAC007B00EA75F00EA4CAA8F075F000A428F8FF
:103EBC0075F00EEBA428FB74892AFA74083BFB12EC
:103ECC0010A98A0A8B0BAC0AAD0BE508F87900E84F
:103EDC0075F00EA4C8AAF075F000A42AFA75F00EBD
:103EEC00E9A42AF9748F28F582740839F5837400D3
:103EFC00F0A37400F00508E508C3940A5003023ED1
:103F0C003A90090FE060031212D11212B97F040229
:103F1C0019E974F71219177E0080010EEEC3940A8A
:103F2C00502F7C0679FFEEFA7B00EA75F00EA4CADE
:103F3C00A8F075F000A428F875F00EEBA428FB741B
:103F4C00832AFA74083BFB121109E960CEEEF98062
:103F5C0002790A7F010219E974F71219177E007FA2
:103F6C0000802D7C0679FFEFFA7B00EA75F00EA439
:103F7C00CAA8F075F000A428F875F00EEBA428FB85
:103F8C0074832AFA74083BFB121109E970010E0FB5
:103F9C00EFC3940A40CDEEF97F010219E974F712D0
:103FAC00191779007E008008EEF912128FE9F90ECC
:103FBC00EEC3940A5003E960EF7F010219E974F033
:103FCC0012191774CB1218A78909900DCEE0650948
:103FDC00701D7A017B00900867E0F91210EBE97A0A
:103FEC00027B00900867E0F91210EBE91212DD7405
:103FFC002712190D7A0E75F006E509A42420F91282
:10400C001457E960030241027C0679FF74271219E8
:10401C0005121109E960030241027C0E7D0079FF53
:10402C0074271219051210A98A0A8B0B850A0E85A2
:10403C000B0F7C1B7D0079FF740C1219051210A953
:10404C008A0C8B0D850C0A850D0B7C0C7D0079FF81
:10405C00AA18AB191210A98A0C8B0DAE0CAF0D74EB
:10406C002712190D7A0E75F006E509A42420F91211
:10407C001451E9F508740C12190D7A1B75F006E54C
:10408C0009A42421F9121451E94208740C12190DD7
:10409C007A1B75F006E509A42422F9121451E942A1
:1040AC0008740C12190D7A1075F006E509A4242376
:1040BC00F9121451E94208740C12190D7A1075F0AA
:1040CC0006E509A42424F9121451E94208740C12CF
:1040DC00190D7A0475F006E509A42425F91214517A
:1040EC00E94208AC18AD197A0C74702509F9121450
:1040FC0051E942088003750800A90874351218BDEF
:10410C007F080219E974F7121917E9FEEE90086797
:10411C00F01212777F010219E974F6121917EAFEF0
:10412C00EBFFEE5400F8EF5480F9E8496035900845
:10413C0067E0F91210CD8A088B09A808A90988082C
:10414C008909E8496012AA08AB091212A1E96008B2
:10415C00AA08AB091210BBE9EE6400FAEF6480FB0D
:10416C00024227EE5402602D7C007D007A007B0019
:10417C00121253E960187A017B00900867E0F9127B
:10418C0010E5E9EE6402FAEF6400FB0242277A02C2
:10419C007B00024227EEA2E0507D90091BE0F8A3C1
:1041AC00E0F5838882A3A3A3E0FAA3E0FB1212D765
:1041BC00E9605E900881E0F8A3E0F9E84960459079
:1041CC000881E0F8A3E0F5838882A3A3E0F8A3E0DC
:1041DC00F9E849602F7C00790190091BE0F8A3E015
:1041EC00F5838882A3A3A3E0FAA3E0FB900881E007
:1041FC00F8A3E0F5838882A3A3E0F8A3E0F5838815
:10420C00821219151212DDEE6401FAEF6400FB80C4
:10421C000A7A017B0080047A007B007F020219E994
:10422C0074F71219177E018A828B83E02450600E7A
:10423C0014601024E1700F121235E9FE800812127E
:10424C00A780031212ADEEF97F010219E9C082C0FA
:10425C00838A828B83A3A3A3A3E0641E70117900CD
:10426C008A828B83A3A3E0FAA3E0FB121223E9D08A
:10427C0083D082020132C082C0838A828B83A3A343
:10428C00A3A3E070308A828B83A3A3A3A3A3A3A3CD
:10429C00121B418A828B83A3A3A3A3A3E0FCA3E0FC
:1042AC00FD8A828B83A3A3E0FAA3E0FB121229748C
:1042BC00021218BDE9D083D082020132C082C083C1
:1042CC00900867E0F98A828B83A3E0FAA3E0FB12E3
:1042DC000929E9D083D082020132C082C08374FFE5
:1042EC001218A7121283E9C39402400B8518828519
:1042FC0019837402F08009851882851983740AF079
:10430C00AC18AD197A0179051207AFE974011218CE
:10431C00BDD083D08202013274F212191774E812E4
:10432C0018A78A088B09E9FE8C0A8D0B7C187D0076
:10433C007900AA18AB191210A98A0C8B0DAC0CAD14
:10434C000D851882851983E508F0A3E509F090081E
:10435C0069E0C0E074021218F3D0E0F090086AE053
:10436C00C0E074031218F3D0E0F0900DCDE0C0E083
:10437C0074171218F3D0E0F074151218F3E054FE11
:10438C00F8A3E054FFF9900DCCE0A2E0E433FA7B03
:10439C0000E84AF8E94BF974151218F3E8F0A3E9B0
:1043AC00F0900DCCE0A2E15004D2F08002C2F07487
:1043BC00151218F3E054FDFAA3E054FFFBA2F0E44D
:1043CC0033F87900E828F8E933F9EA48F8EB49F9C9
:1043DC0074151218F3E8F0A3E9F0900DCCE0A2E309
:1043EC005004D2F08002C2F074151218F3E054F7A6
:1043FC00FAA3E054FFFBA2F0E433F508750900744E
:10440C00037808121894EA4508F8EB4509F9741575
:10441C001218F3E8F0A3E9F0900DCCE0A2E45004FC
:10442C00D2F08002C2F074151218F3E054EFFAA324
:10443C00E054FFFBA2F0E433F5087509007404782E
:10444C0008121894EA4508F8EB4509F97415121886
:10445C00F3E8F0A3E9F0900DCCE0A2E55004D2F023
:10446C008002C2F074151218F3E054DFFAA3E05482
:10447C00FFFBA2F0E433F508750900740578081207
:10448C001894EA4508F8EB4509F974151218F3E885
:10449C00F0A3E9F0900DCCE0A2E25004D2F080023F
:1044AC00C2F074151218F3E054FBFAA3E054FFFBAE
:1044BC00A2F0E433F5087509007402780812189418
:1044CC00EA4508F8EB4509F974151218F3E8F0A35E
:1044DC00E9F090086AE0602A750810750900780800
:1044EC00121B2A7C6B7D0874061218F3AA82AB830C
:1044FC0012109174021218BD8A088B0985088285E6
:10450C00098390087BE06011EE600E74151218F3AD
:10451C00E04402F0A3E04400F090087BE0600678F1
:10452C0001790080047800790074141218F3E048C3
:10453C00F0900868E06006780479008004780079CF
:10454C000074141218F3E048F0AC0AAD0BAA18ABC7
:10455C00191206C5E974181218BD7F060219E9C0B4
:10456C0082C083790090087BE060067C017D00802E
:10457C00047C007D00ECC949C9900868E060067CA9
:10458C00047D0080047C007D00ECC949C912077FC2
:10459C00E9D083D08202013274F012191774E5123B
:1045AC0018A78A0C8B0DE9FE8C09EDFF74086F704F
:1045BC000B75F006EEA42422F508800975F006EEC2
:1045CC00A42421F5087C1B7D007900AA18AB1912D4
:1045DC0010A98A0A8B0B850A0E850B0FAC18AD1926
:1045EC007A1BA908121457E97034741A1218F3E0E4
:1045FC00C39407C3940A5026742B1218F3E0F508E1
:10460C007808121B2E740112190DE509A2E0E4338F
:10461C00F9AA0CAB0D1206D774011218BDE9741B64
:10462C001218BD7F080219E974F71219171209A1A3
:10463C00E97E0080537C0679FFEEFA7B00EA75F088
:10464C000EA4CAA8F075F000A428F875F00EEBA41F
:10465C0028FB74832AFA74083BFB121109E97027B2
:10466C00EEF87900E875F00EA4C8AAF075F000A475
:10467C002AFA75F00EE9A42AF9748328FA74083919
:10468C00FB79001209A7E90EEEC3940A40A77F013B
:10469C000219E974F612191774FD1218A7EAFEEB49
:1046AC00FF90091DE0F8A3E0F9E849703975081F7F
:1046BC007509097808121B2A750802750900780813
:1046CC00121B2A7508267509817808121B2A7CFF93
:1046DC007DFF7A017B001207F174061218BD900958
:1046EC001DEAF0A3EBF090091DE0F8A3E0F9E8490E
:1046FC0070030247BCE4F508F5097808121B2A740C
:10470C00041218FD880889097808121B2A740412EF
:10471C0018FD880889097808121B2A90091F121B9A
:10472C0041790290091DE0FCA3E0FDEEFAEFFB12CB
:10473C00091774081218BDE9704A85188285198307
:10474C00E0FA7B0074011218F3E0F87900E4C8F980
:10475C00EA28F508EB39F509E508450960267808DB
:10476C00121B2A90091DE0F8A3E0F5838882A3A30D
:10477C00A3A3E0FCA3E0FDEEFAEFFB1212297402F6
:10478C001218BDE9E4F508F5097808121B2A9009FE
:10479C001F121B417CFF7DFF90091DE0FAA3E0FB7B
:1047AC001207FD74041218BD90091DEAF0A3EBF07A
:1047BC0090091DE0F8A3E0F9E84970047901800242
:1047CC00790074031218BD7F020219E9C082C083FC
:1047DC0090091BE0F8A3E0F9E849601790091BE089
:1047EC00FAA3E0FB1210BBE9F890091B7400F0A3CC
:1047FC007400F0900DCE740AF0D083D08202013296
:10480C00C082C083E9900CB2F0024A9B74F7121973
:10481C0017E99002E3F07C1B7D037AFF7BFF120902
:10482C002F9002E474FFF0A3F0A3E4F0A3F0790559
:10483C001208B79002E3E0F91207D97A4D7B0912FE
:10484C000AF77F010219E974F41219178A088B0907
:10485C00EB548060309002E3E0F91210CD8A0A8BA1
:10486C000BAE0AAF0BEE4F60138E828F83E064B0F9
:10487C0070031208CFEEFAEFFB1210BBAA08E50981
:10488C006480FB80047A007B00024A6A74F212197D
:10489C001774FC1218A7EAFEEBFFEE4F6038740297
:1048AC001218F3EEF0A3EF124CCFECF0A3ED124C78
:1048BC00CFAA82AB831207D3E9F508707374121276
:1048CC0018F3125883E50A450B60658E828F8312AC
:1048DC004946EE4F700575080280557A067B00122A
:1048EC0011278A0C8B0DA80CA90DE84970057508C9
:1048FC0013803D88828983E4124950A3A3EEF0A370
:10490C00EF125D1CE50AF0A3E50BF09002E91249E9
:10491C00D89002E96017E0FCA3E08003EAFCEBFD11
:10492C008C828D831249D870F38C828D831257A898
:10493C00A90874041218BD025F1EA3A3A3A3E0FE72
:10494C00A3E0FF22F0A3F0888289832274F212196B
:10495C0017890AE975F017A4FEAFF09002E8E4F0AD
:10496C009002E61249D8600A12112D9002E6E4F08A
:10497C00A3F0EEFAEFFB1211278A088B09EA45091E
:10498C00602FEEFCEFFD79001210A99002E6E5080D
:10499C00F0A3E509F07B0080081249C2E4F0A3F013
:1049AC000BEBC3950A40F2E50A9002E8F07900801F
:1049BC00027913025F1EEB75F017A4F8A9F09002B0
:1049CC00E6E028FAA3E0398A82F5832212553EEA02
:1049DC004B2274F4121917750800750900740C1227
:1049EC0018F3125CF0FEE9FF800CE5082401F508D1
:1049FC00E5093400F509C3E5089CE5099D503285AD
:104A0C00080A85090B7403780A121894EA250AF827
:104A1C00EB350BF988828983A3A3A3A3A3A3125814
:104A2C0083EE650A7003EF650B70BFE8FAE9FB8053
:104A3C00047A007B00802774F41219177900EAA21B
:104A4C00E0501B75083A7509817808121B2A7C0402
:104A5C007D007AB47B0C1208B174021218BD7F046D
:104A6C000219E9C082C0839002E9124AA2601C8834
:104A7C00828983A3A3E06A7003A3E06B8882898395
:104A8C0070E8A3A3A3A312553A80047A007B00D04C
:104A9C0083D082020132125FF1E8492274EE1219BE
:104AAC001774FC1218A7EAFEEBFF85188285198390
:104ABC00E4F0A3F0EE240212578CEE2405124CBD48
:104ACC00EE2404F50EEF1250A2E024FE603924FC13
:104ADC00604624FE605224FE605E24FE7003024B8E
:104AEC00C224FE7003024C3A24FE7003024C49248B
:104AFC00FE7003024C5824FC7003024C6724FE70B9
:104B0C0003024C76024CB39003027417F0A3E41228
:104B1C004CD7120551024CB3851882851983AC828F
:104B2C00AD831208D5024C83851882851983AC821B
:104B3C00AD831208DB024C83850C08850D097402C9
:104B4C001218F3AC82AD8385088285098312553A1D
:104B5C001207F78A0C8B0DAC0CAD0DEC4D6042E4DA
:104B6C00F50CF50D780C121B2A750C02750D0378DB
:104B7C000C121B2A750C03750D03780C121B2A746E
:104B8C00081218F3121B41791612553412091774B6
:104B9C00081218BDE9F50C700B125530120569801E
:104BAC000F750C01850882850983124CC51257A814
:104BBC00850C08024C8674021218F3AC82AD838506
:104BCC000C82850D8312553A1207F78A108B11ACA3
:104BDC0010AD11EC4D6043850C82850D83A3A3129F
:104BEC001B417510027511037810121B2A751003E6
:104BFC007511037810121B2A74081218F3121B413A
:104C0C00791612553412091774081218BDE9F509F2
:104C1C00700B12553012056F800F750901850C82CF
:104C2C00850D83124CC51257A8850908804C851830
:104C3C0082851983AC82AD831208E1803A85188293
:104C4C00851983AC82AD831208E7802B8518828589
:104C5C001983AC82AD831208ED801C8518828519EE
:104C6C0083AC82AD831208F3800D8518828519837D
:104C7C00AC82AD831208F9E9F508E50860298E824B
:104C8C008F83A3E06414601F850E82850F83E090F0
:104C9C000302124CCF125FED9003031257A8E508E4
:104CAC00A3124CD712054BEEFAEFFB120875025605
:104CBC0094F50CEF3400F50D22125FF18518828506
:104CCC00198322F085188285198322F07C027D03DA
:104CDC00850A82850B8312553E2274EE12191774C5
:104CEC00FC1218A78A0A8B0B8C0E8D0FEA2405F583
:104CFC0008EB3400F5097C157D0079007A027B0302
:104D0C001210A9E5082402F50CE509124CC085180F
:104D1C00828519838582108583117810121B2A8550
:104D2C000882850983A3A3A3A31251EA121B2AE5C7
:104D3C00082405F510E5093400F5117810121B2A2A
:104D4C00850C82850D831255441207F174061218D6
:104D5C00BD8A108B11AE10AF11E50A2402F50AE5DD
:104D6C000B12578FEE4F7003024EAC801774021269
:104D7C0018F312553A88828983EAF0A3EBF090037A
:104D8C0002E004F0900302E0C394054003024EAC31
:104D9C00E4F510F5117810121B2A7510EB75110241
:104DAC007810121B2A7510EC7511027810121B2A40
:104DBC0074061218F3121B417910EEFCEFFD12551C
:104DCC003412091774081218BDE9705E85088285C3
:104DDC000983A3A3A3A3A3A3A3E0F89002EBE06829
:104DEC0070481251EA121B2A7CEC7D02E50824085B
:104DFC00FAE5093400FB1210A374021218BDE96025
:104E0C00298E828F83A3A3A3A312553A900302E0A9
:104E1C00F5107402781012189474032510F582742E
:104E2C00033511F583EAF0A3EBF074021218F38545
:104E3C0082108583117810121B2A74021218F31237
:104E4C001B41850C82850D831260021207FD7404D0
:104E5C001218BD8A108B11AE10AF11900302E0F541
:104E6C00107511007402781012189474022510F841
:104E7C0074033511F988828983A31249D87003020F
:104E8C004D70E82403F8E93400F9EE4F6003024D4D
:104E9C00798882898374FFF0A3F0900302E004F018
:104EAC00900302E0600A12553012055D7900800B08
:104EBC0085088285098312579F790A02569474EAF1
:104ECC0012191774FE1218A78C128D13EA2405F50B
:104EDC000CEB12616C12494A750800750900EA2442
:104EEC0002F510EB3400F511851882851983858243
:104EFC000A85830B780A121B2A850C82850D83A3E5
:104F0C00A3A3A31250AC121B2AE50C2405F50AE549
:104F1C000D12578F780A121B2A850C82850D83126D
:104F2C0060001207F174061218BD8A0A8B0BEA4551
:104F3C000B700302505DEA2404F50EEB1250A21222
:104F4C00494A8A828B83A3A3A3E0F9851082851139
:104F5C008312553A1207DFE9F509600302505DE44C
:104F6C00F514F5157814121B2A7514EB75150278C7
:104F7C0014121B2A7514EC7515027814121B2A7462
:104F8C00061218F3121B417913AC0AAD0B85108273
:104F9C0085118312553A12091774081218BDE9F5D8
:104FAC0009600302505D9002EBE0F8E5087009E03F
:104FBC002402900303F08017900303E0FCE8240222
:104FCC00FAE43400FBEA6C7001EB6003025061857B
:104FDC000882AA821251E194141251D95073850E91
:104FEC0082850F83E0C0E074042A125099D0E0F05F
:104FFC000508850E82850F83A3E0C0E085080A743E
:10500C0004250A125099D0E0F005089002EB1250DA
:10501C00AC121B2A7CEC7D0285080A7404250AFA62
:10502C0074033400FB12109174021218BD9002EB41
:10503C00E02508F50874FF6E700374FF6F6012EEC4
:10504C0024010EEF3400FFE508C394145003024E04
:10505C00F4E50860131254258510828511831255CE
:10506C003A12056379008014E509700375090A8505
:10507C001282851383EEF0A3EFF0A90974021218C3
:10508C00BD7F0E0219E985080C7404250CF5827499
:10509C00033400F583223400F50F850E82F583224C
:1050AC00125D2F2274EE12191774FE1218A78C0EB3
:1050BC008D0FEA2405F50CEB124CC0750B00900318
:1050CC0002E4F0F50AEA2402F508EB3400F5098055
:1050DC0049900302E0FA9002EBE0F81251E19417C8
:1050EC001251D9400D900302E0F87416C398900247
:1050FC00EBF01251EA121B2A7CEC7D0274032AFAA3
:10510C0074033400FB12109174021218BD9002EB60
:10511C00E0F8900302E028F0050AE50C2416F5826D
:10512C00E50D12509DE0F8E50AC39840030251C208
:10513C00900302E0C39416507DE50AC333F8E433C0
:10514C00F9E50C28FEE50D39FF851882851983AC2D
:10515C0082AD838E828F8312553A1207F78A108B99
:10516C0011AC10AD11EC4D7005750B018043E4F5DD
:10517C0010F5117810121B2A7510EB7511027810AE
:10518C00121B2A7510EC7511027810121B2A74066A
:10519C001218F3121B417916850882850983125562
:1051AC003A12091774081218BDE9F50B7003025076
:1051BC00DD12579B80107C027D0385088285098354
:1051CC0012553A120575A90B7402025696E9940011
:1051DC00C365D03322EA28F8E43400F9E822E0F57C
:1051EC001075110078102274EA12191774FC121839
:1051FC00A78A0C8B0D8C128D13EA2405F50AEB1281
:10520C00578F750800750900E50A2402F510E50BA7
:10521C003400F51174021218F385820E85830F7811
:10522C000E121B2A850A82850B83A3A3A3A3125CEF
:10523C00DB121B2AE50A2405F50EE50B3400F50FED
:10524C00780E121B2A8510828511831257951255E0
:10525C00341207F174061218BD8A0E8B0FAE0EAF06
:10526C000FE50C2402F50EE50D3400F50F80408897
:10527C0082898374FFF0050812509274FFF00508C0
:10528C009002EBE0F50C750D00780C121B2A7CECEF
:10529C007D0285080C7404250CFA74033400FB128F
:1052AC00109174021218BD9002EBE02508F508EE7F
:1052BC004F60718E828F83A3A3A3E0F9850E828544
:1052CC000F8312553A1207DFE9F509EE2404124C4C
:1052DC00BDE97044E4F514F5157814121B2A751405
:1052EC00EB7515027814121B2A7514EC75150278DF
:1052FC0014121B2A74081218F3121B417911EEFCBC
:10530C00EFFD850E82850F8312553A12091774082A
:10531C001218BDE9F5096027850C82850D8312549E
:10532C001B1257A8E5087003025401125425850E70
:10533C0082850F8312553A12057B7900025416852B
:10534C000882AA82EA9002EB7009E024049003031D
:10535C00F08022E0F8900303E0F514E82404FCE468
:10536C003400FDEC65147001ED70C01251E1941223
:10537C001251D950B6850C82850D83E0C0E07404BF
:10538C002A125099D0E0F00508850C82850D83A374
:10539C00E0C0E0125092D0E012543785820C858325
:1053AC000D780C121B2A74041218F3121B41851071
:1053BC00828511831260021207FD74041218BD8AD3
:1053CC000C8B0DAE0CAF0D85080C7404250CF87409
:1053DC00033400F9EE4F700302527B851882851955
:1053EC0083E088828983125437A3E0C0E012509284
:1053FC00D0E0025289E509700375090A850A828595
:10540C000B8312541B1257A8A909740402508A1258
:10541C005FF185128285138322900303E0F5F0E59A
:10542C000884900302F07C027D0322F005088518A5
:10543C00828519832274EC12191774FE1218A78A2C
:10544C00088B098C0E8D0FEA2405FEEB3400FF85CA
:10545C001882851983AC82AD838E828F8312553A64
:10546C001207F78A0A8B0BEE2418124CBDEA450B77
:10547C00700302550B12567D5032851882851983A4
:10548C0012553A12090B8A108B11EA4511606B798F
:10549C0012AC0AAD0B85088285098312553A85102A
:1054AC0082851183121915E9F50A7058E4F50AF58D
:1054BC000B780A121B2A8E828F83A3A3E0F50A783D
:1054CC000A121B2AEE240312578C780A121B2A8EFE
:1054DC00828F8312554412091D74061218BDE9F50A
:1054EC000A7021850C82850D83E0701F85088285EA
:1054FC00098312553A1205818011750A0E800975BF
:10550C000A018004E50A600312579B850C82850D05
:10551C0083E0600479008002A90A74021218BD7F2E
:10552C000C0219E97C027D03850A82850B831255D6
:10553C003E22E0FAA3E0FB22E0FCA3E0FD8508821A
:10554C0085098312553E2274EE12191774FE121837
:10555C00A78A088B098C0C8D0DEA2405FEEB340010
:10556C00FF750E00851882851983AC82AD838E82FF
:10557C008F8312553A1207F78A0A8B0BEA450B7088
:10558C000302566912567D5035851882851983128F
:10559C00553A12090B8A0E8B0FEA450F605E791291
:1055AC00AC0AAD0B85088285098312553A850E82AB
:1055BC00850F83121915E9F50E600302566C8508E8
:1055CC0082850983125883AA0AFB1208FF8A108B62
:1055DC0011A810A911E849701E7AFF7BFF1208FF71
:1055EC008A108B11A810A911E849606C88828983F4
:1055FC00E50AF0A3E50BF0750A008007750E0E8026
:10560C005F050A9002E8E0FAE50AC39A504AE50AF7
:10561C0075F017A4FAABF088828983A3A3E02AFA69
:10562C00A3E03BFB8A828B83125795EC4D70D275AD
:10563C000A17750B00780A121B2AEEFCEFFD1210EC
:10564C009174021218BDEEFCEFFD8508828509836A
:10565C0012553A1205878014750E098003750E01D8
:10566C00125FE9850C82850D831257A8A90E025191
:10567C00D4E5082402F508E5093400F5098A828B83
:10568C0083A3A3A3E0A2E52274041218BD7F0A022F
:10569C0019E974EC1219178C108D11EA2405F50C0C
:1056AC00EB124CC0750F00EA2402F50AEB12578F6F
:1056BC00850A82F58312553A1208FF8A088B09EA8B
:1056CC0045097003025781750E008071850C828527
:1056DC000D83E06401704F8E828F83A3A3121B4154
:1056EC008E828F83A3A3A3A3E0F512751300781207
:1056FC00121B2AEE2405F512EF3400F51378121262
:10570C001B2A12553412091D74061218BDE9F50F27
:10571C006014850C82850D83E4F0125FE98510829C
:10572C008511831257A87C177D007900EEFAEFFBE8
:10573C001210A98E828F83E4F0A3F0050E9002E87C
:10574C00E0F8E50EC398501EE50E75F017A4F8A905
:10575C00F0850882850983A3A3126176125795EC14
:10576C004D60030256D885088285098374FFF0A327
:10577C00F0E50F700612553412058DA90F02552B4A
:10578C00F50AEF3400F50B22A3E0FCA3E0FD228E1A
:10579C00828F83125FF1850E82850F83E8F0A3E977
:1057AC00F022C082C0839002E4E06A7003A3E06B35
:1057BC0070067AE47B0280047A007B00024A9BC06C
:1057CC0082C08378008C828D83E06A7003A3E06BC7
:1057DC007010E875F003A4F8A9F0EC28FAED39FB89
:1057EC008015088C828D83A3A3A3E06A7003A3E0C9
:1057FC006B60DF7A007B00024A9B74F61219171259
:10580C0008C98A828B83E582458370067A007B0007
:10581C008007A3A3A3A312553A025E9A74F212193D
:10582C0017E9FE740E1218F312588374101218F341
:10583C00125CFB8C828D83E064027036A3125FF7DE
:10584C00F50CA3E0F9A80C74026870037429697054
:10585C0021750C02750D00780C121B2A7808121B8E
:10586C002A780A121B2AEEF912094174061218BD85
:10587C0080027901025F1EE0F50AA3E0F50B2274A9
:10588C00E812191774FB1218A7E985188285198379
:10589C00F08A168B17ECFEEDFF751000741D1218B4
:1058AC00F3125FED741D1218F31257A88E828F83BA
:1058BC00A3A3A3E0A2E4502D741D1218F312553AC1
:1058CC0012090B8A828B83E58245837003025CCCC0
:1058DC00790AEEFCEFFDAA16AB17121915E9F510B3
:1058EC006003025CCF741F1218F3125CFB7421125C
:1058FC0018F312588374231218F3E0F50EA3E0F595
:10590C000F8E828F83E064026003025C7AA3125FC5
:10591C00ED850882850983A3858212858313EE2485
:10592C0006124CBD88828983E0FAA3E0F9EA2400D0
:10593C00F514E439F5157814121BB4010000280194
:10594C00286F5907000228345A0328A15900296BE3
:10595C005B0129965B0229375B03296B5B042915D4
:10596C005C7A5CE50E450F6003025C75850C8285E4
:10597C000D83125CF0FAE9FB8A828B83E0850A8244
:10598C00850B83125D26121B2A8A828B83A3E0FC73
:10599C00A3E0025BFFE50E450F6003025C75850A10
:1059AC0082850B837401F0125D038508828509835F
:1059BC00F07C007D008E828F83A3A3A3A3E024013F
:1059CC00FAA3E03400FB1207F7EA4B60418A828BA2
:1059DC0083E02402F8850A82850B83E028F0EA2410
:1059EC0004F8EB3400F988828983E08512828513F0
:1059FC0083125D38125D26121B2A8A828B83125702
:105A0C0094E5082403FAE5093400FB025C04850ADA
:105A1C0082850B83E02404F07C047D007900AA12BB
:105A2C00AB131210A9025CCFE50E450F6003025CAC
:105A3C0075125D03FEA3E0FF850A82850B83740457
:105A4C00F0EE850882850983F0EF85128285138339
:105A5C00F074031218F3AC82AD83EEFAEFFB12076D
:105A6C00F78A0C8B0DEA450D7003025B188A828B4A
:105A7C0083A3A312494674011218F385820E858301
:105A8C000F780E121B2A74051218F3121B417CFF9F
:105A9C007DFF1207FD74041218BD8B0FEA450F70C1
:105AAC0033850C82850D83125CDB121B2A850C82DC
:105ABC00850D83A3121B417C027D007ACA7B811267
:105ACC00062974041218BDE9700A74011218F374D3
:105ADC00FFF0A3F08E828F83E064027039750C02A4
:105AEC00750D00780C121B2A8E828F83125794E549
:105AFC00082404FAE5093400FB1210917402121800
:105B0C00BD850A82850B83E024028009740112187A
:105B1C00F3EEF0A3EFF074011218F3125CECF074D6
:105B2C00011218F3A3125CE4025C6FE50E450F60E2
