:10000000020647C2AFF50841FCFFFFC2AFF5086129
:100010000EFFFFC2AFF5086120FFFFC2AFF5086118
:1000200032FFFFC2AFF5086144FFFFC2AFF50861C0
:1000300056FFFFC2AFF5086168FFFFC2AFF5086168
:100040007AFFFFC2AFF508618CFFFFC2AFF5086110
:100050009EFFFFC2AFF50861B0FFFFC2AFF50861B8
:10006000C2FFFFC2AFF50861D4FFFFC2AFF5086160
:10007000E6FFFFC2AFF50861F8FFFFC2AFF50881E8
:100080000AFFFFC2AFF508811CFFFFC2AFF5088170
:100090002EFFFFFF758701002274F4120531890AD3
:1000A000750C00750D08780C1206367C807D017A7F
:1000B000007B0012044474021205F2850A0E9001BE
:1000C00086E0F50CA3E0F50D7409780C120656E5F0
:1000D0000CF50B9001867409780C120623E0C3F529
:1000E0000CA3E0950DF50D7402780C120623AE0CEE
:1000F000AF0DE50E250BF50B7401650E7006744D02
:10010000250BF50B53B4F375BC0075BC008040742F
:100110008028F582740139F583E0F5BD08E87001A7
:1001200009C3E99408402C050A7408650A70037530
:100130000A55750C00750D08780C1206367C807D0A
:10014000017A007B00A90A12044474021205F278B5
:10015000007900E50E650A700AE8497006780379AF
:100160000080B9E50B650A70A6EE687002EF697051
:100170009EE5BDF9E5BCFAE9FB7F0502059774FC35
:1001800012060D750A04750B00780A120636740201
:1001900012067C7A007B007908120444740212056E
:1001A000F2852182852283E0F47003A3E0F4602DC0
:1001B000852182852283E0F8A3E0F9E849601E7476
:1001C00002120672E0687003A3E0697010750901FD
:1001D000024030C2AF75C9AB75C95B80FE780A12A8
:1001E0000636740212067C7A007B00790112044400
:1001F00074021205F2852182852283E0F47003A344
:10020000E0F470030202EC852182852283E0F8A3EA
:10021000E0F9E84970030202EC7402120672E0F899
:10022000A3E0F9852182852283E0687003A3E06959
:100230007010750900020830C2AF75C9AB75C95B93
:1002400080FE74FF68700374FF6960030202EC5360
:10025000BEFBE59DA2E650FAE5C654804449F5C6CA
:10026000E59E547F644970F853C67FE59EA2E7403F
:10027000FA53C680E59E547F70FA43BE04906270C4
:100280007408F07409F5D575D48079011200998A43
:100290000A8B0BA80AA90B852182852283E068704E
:1002A00003A3E0697046852182852283E0F8A3E0FC
:1002B000F97402120672E8F0A3E9F0852182852222
:1002C0008374FFF0A3F0750A01750B00780A12061B
:1002D00036740212067C7A007B021204CB7402127E
:1002E00005F2C2AF75C9AB75C95B80FE43BE031290
:1002F0000094C2AF75C9AB75C95B80FEE5096007A4
:10030000E508D2AF024033E508D2AF020833E50971
:100310006007E508D2AF02403BE508D2AF02083BD8
:10032000E5096007E508D2AF024043E508D2AF0215
:100330000843E5096007E508D2AF02404BE508D263
:10034000AF02084BE5096007E508D2AF024053E56C
:1003500008D2AF020853E5096007E508D2AF0240B2
:100360005BE508D2AF02085BE5096007E508D2AF9C
:10037000024063E508D2AF020863E5096007E508BB
:10038000D2AF02406BE508D2AF02086BE509600707
:10039000E508D2AF024073E508D2AF020873E50961
:1003A0006007E508D2AF02407BE508D2AF02087BC8
:1003B000E5096007E508D2AF024083E508D2AF0245
:1003C0000883E5096007E508D2AF02408BE508D253
:1003D000AF02088BE5096007E508D2AF024093E55C
:1003E00008D2AF020893E5096007E508D2AF0240E2
:1003F0009BE508D2AF02089BE5096007E508D2AF8C
:100400000240A3E508D2AF0208A3E5096007E508AA
:10041000D2AF0240ABE508D2AF0208ABE5096007F6
:10042000E508D2AF0240B3E508D2AF0208B3E50950
:100430006007E508D2AF0240BBE508D2AF0208BBB7
:100440000002044074F5120531890A740F550AF54B
:100450000C750D00740B780C120623EA2400F8EBDF
:100460003480F9E82400E9350DF9E5C7F50BA2AFB2
:10047000E433F50CC2AFE50AC4540FFAE5C754F8EB
:100480004AF5C7740B120672E0FEA3E0FFEE4F6060
:100490002CEEFAEFFB88828983E08C828D83F088D2
:1004A000828983A3A882A9838C828D83A3AC82AD29
:1004B00083EA24FF1AEB34FFFBEA4B70D8850BC7A5
:1004C000E50CA2E092AF7F0402059774F7120531A4
:1004D000ED900980F0ECA3F0A37462F0A37473F0C4
:1004E000A3E0541FF07409120672E0F50AA3E0F5C8
:1004F0000BE50A333354FC900985F07406780A1230
:100500000656E50A900984F09009867412F0A374E7
:1005100042F053D1FE75D601EA906271F0EBA3F080
:10052000906270E0D2E1F0E0A2E740FB7F020205BA
:10053000972521C582C0E0E52234FFC583C0E0E5F0
:1005400021C3958224F910AF0885832285822180FA
:1005500008858322858221D2AFCEF0A3E520F0A3C7
:10056000780AE608F0A3DEFAEFF0A3E58124FBF8B1
:10057000E608F0A3E608F0A30808E608F0A3E608FA
:10058000F0A315811581D0E0FED0E0F8158115812A
:10059000E8C0E0EEC0E022852283852182E0A3FE50
:1005A000E0A3F520780AE0A3F608DFFAE0A3FFE075
:1005B000A3C0E0E0A3C0E0E0A3C0E0E0A3C0E0107F
:1005C000AF08858221858322800885822185832248
:1005D000D2AFD083D082222521F58210AF08F52139
:1005E000400C15228008F52140021522D2AF852249
:1005F000832200C0D0252110AF08F521500C052220
:100600008008F52150020522D2AFD0D0222521103A
:10061000AF08F521400C15228008F5214002152273
:10062000D2AF22700422600D18C6C333C608C63389
:10063000C6D5E0F4182274028000C0E0F40412056C
:10064000D7D0E01206652275D00075813F752180F4
:10065000752201020684600C08C6C313C618C613AF
:10066000C6D5E0F422CAC0E0E6F0A308DAFAD0E08A
:10067000FA222521F582E43522F583222521FCE4A6
:100680003522FD2212017E12068A00000080FBFF47
:10069000FFFFFFFFFFFFFFFFFFFFFFFFFFFFFFFF6A
:1006A000FFFFFFFFFFFFFFFFFFFFFFFFFFFFFFFF5A
:1006B000FFFFFFFFFFFFFFFFFFFFFFFFFFFFFFFF4A
:1006C000FFFFFFFFFFFFFFFFFFFFFFFFFFFFFFFF3A
:1006D000FFFFFFFFFFFFFFFFFFFFFFFFFFFFFFFF2A
:1006E000FFFFFFFFFFFFFFFFFFFFFFFFFFFFFFFF1A
:1006F000FFFFFFFFFFFFFFFFFFFFFFFFFFFFFFFF0A
:10070000FFFFFFFFFFFFFFFFFFFFFFFFFFFFFFFFF9
:10071000FFFFFFFFFFFFFFFFFFFFFFFFFFFFFFFFE9
:10072000FFFFFFFFFFFFFFFFFFFFFFFFFFFFFFFFD9
:10073000FFFFFFFFFFFFFFFFFFFFFFFFFFFFFFFFC9
:10074000FFFFFFFFFFFFFFFFFFFFFFFFFFFFFFFFB9
:10075000FFFFFFFFFFFFFFFFFFFFFFFFFFFFFFFFA9
:10076000FFFFFFFFFFFFFFFFFFFFFFFFFFFFFFFF99
:10077000FFFFFFFFFFFFFFFFFFFFFFFFFFFFFFFF89
:10078000FFFFFFFFFFFFFFFFFFFFFFFFFFFFFFFF79
:10079000FFFFFFFFFFFFFFFFFFFFFFFFFFFFFFFF69
:1007A000FFFFFFFFFFFFFFFFFFFFFFFFFFFFFFFF59
:1007B000FFFFFFFFFFFFFFFFFFFFFFFFFFFFFFFF49
:1007C000FFFFFFFFFFFFFFFFFFFFFFFFFFFFFFFF39
:1007D000FFFFFFFFFFFFFFFFFFFFFFFFFFFFFFFF29
:1007E000FFFFFFFFFFFFFFFFFFFFFFFFFFFFFFFF19
:1007F000FFFFFFFFFFFFFFFFFFFFFFFFFFFFFFFF09
:100800008D1F8D1F0000005E41414141FFFFFFFF32
:10081000FFFFFFFFFFFFFFFFFFFFFFFFFFFFFFFFE8
:10082000000102030405060708090A0BFFFFFFFF8A
:10083000020B04021967FFFFFFFFFFFFFFFFFFFF2F
:10084000FFFFFFFFFFFFFFFFFFFFFFFFFFFFFFFFB8
:10085000FFFFFFFFFFFFFFFFFFFFFF022106FFFF7C
:10086000FFFFFF0220E8FFFFFFFFFFFFFFFFFFFF8B
:10087000FFFFFFFFFFFFFFFFFFFFFFFFFFFFFFFF88
:10088000FFFFFF0219DAFFFFFFFFFFFFFFFFFFFF80
:10089000FFFFFFFFFFFFFFFFFFFFFF02209BFFFFA8
:1008A000FFFFFFFFFFFFFFFFFFFFFF0220BFFFFF74
:1008B000FFFFFF0217D301FF0000B400002800284B
:1008C00000283075A000A000A000A00000080008CB
:1008D000E001F000100010001000100010001000E7
:1008E00050005000500010001000D0070000000021
:1008F00000000F0001000500307507001000010026
:1009000081FF00000000FFFE221C230423FF0202DF
:100910000208025000A0000000E8030263A90100E1
:100920000056A9026BA9010000A208025BA9010000
:1009300000B202026BA9010000A3080259A901003C
:1009400000C802026BA9010000A40802FEA8010071
:1009500000CA02026BA9010000A508025FA90800F5
:1009600000CB02026BA9010000A6080267A90100E2
:1009700000A708FF0100FF200263A901000050A9A1
:10098000026BA90100000B09026DA9000000000024
:10099000025DA903000018037A287A287A287A28A9
:1009A0007A287A287A287A287A287A287A287A2837
:1009B0007A28D82AF02AD22AFFFF1C0263A9010054
:1009C0000053A9026BA90100004E091030A80200D3
:1009D000008E07025DA90300009007026FA90100C5
:1009E00000DFA8026BA90100004E091040A8020018
:1009F000008F07025DA90300009607026FA901009E
:100A000000ECA8FFFFFF00013075030201060000A3
:100A100000000000000000000000000000000000D6
:100A200000000000000000000000FFFF0600800C36
:100A3000E803140953696D706C65424C455065724A
:100A40006970686572616C051250002003020A002B
:100A50000201060302F0FF41524320424F4F54006F
:100A60000000000000000000000000002C2E00002C
:100A7000E5C754F84405F5C779012200000080FB62
:100A8000120A70B90003020AEEE479217808B8006E
:100A9000028004F709D8FCE479297802B8000280C2
:100AA00004F709D8FCE490028078CC79068002F043
:100AB000A3D8FCD9FA781C9008B67A01BA00028053
:100AC00007E493A3F608DAF97A4B7B089008B77825
:100AD000BA79028015E493A3AD82AE838A828B83B8
:100AE000F0A3AA82AB838D828E83D8E9D9E7758281
:100AF000AB7583FF7405120B1675827B75830A74C0
:100B000000120B1675D00075813F751A80751B0297
:100B1000759F00020A80C09FF59FE473D09F22D08A
:100B200083D082C09FE493C0E0740193C0E074025C
:100B300093F59F22E066701008A3E066700A08A390
:100B4000E066700408A3E06622C3E7960809E7960A
:100B50000809E7960809E79622C3E09608A3E096FD
:100B600008A3E09608A3E09622C00AC3E096F50A1F
:100B700008A3E096420A08A3E096420A08A3E0967A
:100B8000450A7001D3D00A22080808EAC0E0EBC089
:100B9000E086F0E7A4FA180986F0E7A42AFA180913
:100BA00086F0E7A42AFA180986F0E7A42AFA19863B
:100BB000F0E7A4FBE5F02AFA190886F0E7A42BFB7E
:100BC000E5F03AFA190886F0E7A42BFBE5F03AFACB
:100BD00018180986F0E7A4C5F02BFBE43AFA1908C7
:100BE000E7C5F0C6A426F6E5F03BFBE43AFA188622
:100BF000F0E7A4F6E5F00826F6E43B08F6E43A0848
:100C0000F6D0E0FBD0E0FA22E4CFC0E0E4CEC0E0D2
:100C1000E4CDC0E0E4CCC0E075F020E626F608E6BE
:100C200033F608E633F608E633F6181818EC33FC0A
:100C3000ED33FDEE33FEEF33FFC3EC9709ED97097B
:100C4000EE9709EF97191919400FFFEC97FC09ED82
:100C500097FD09EE97FE191906D5F0BFECF709EDDF
:100C6000F709EEF709EFF7191919D0E0FCD0E0FD0C
:100C7000D0E0FED0E0FF226016080808C6C313C605
:100C800018C613C618C613C618C613C6D5E0EA227E
:100C90007009080808226016181818C6C333C60859
:100CA000C633C608C633C608C633C6D5E0EA22E650
:100CB00027F60809E637F60809E637F60809E637A1
:100CC000F622E026F608A3E036F608A3E036F6089A
:100CD000A3E036F622E026F008A3E036F008A3E011
:100CE00036F008A3E036F022C3E697F60809E69747
:100CF000F60809E697F60809E697F622C3E096F0AB
:100D000008A3E096F008A3E096F008A3E096F0228E
:100D1000E657F60809E657F60809E657F60809E621
:100D200057F622E056F608A3E056F608A3E056F67A
:100D300008A3E056F622E056F008A3E056F008A318
:100D4000E056F008A3E056F022E0F608A3E0F6082B
:100D5000A3E0F608A3E0F622E6F008A3E6F008A375
:100D6000E6F008A3E6F022E0FAA3E0FBA3E0FCA390
:100D7000E0FD22EAF0A3EBF0A3ECF0A3EDF022E01B
:100D8000F8A3E0F9A3E0FAA3E0FB22E8F0A3E9F07E
:100D9000A3EAF0A3EBF022CAC0E0E6F0A308DAFA77
:100DA000D0E0FA22CAC0E0E0A3C582CCC582C583E8
:100DB000CDC583F0A3C582CCC582C583CDC583DAFA
:100DC000E6D0E0CA22C3E498F8E499F9120E06804E
:100DD00026C3E49AFAE49BFBE920E7E9120E06E455
:100DE00098F8E499F922C3E498F8E499F9120E0608
:100DF000E498F8E499F9C3E49AFAE49BFB22EB2027
:100E0000E7CFE920E7E0B90010BB0008E88AF084EA
:100E1000F8AAF022E4FBC8FA22EB70227B10C83358
:100E2000C8C933C9335007C39AC3DBF280069A504E
:100E3000012ADBEAC833F4C8C933F4C9FA2275F0D1
:100E400008E4C833C8C933C933C99AC99B5004C917
:100E50002AC93BD5F0ECFBC833F4C8E4C9FA2260D8
:100E60000D08C6A2E713C618C613C6D5E0F3226064
:100E70000C08C6C313C618C613C6D5E0F422700406
:100E800022600D18C6C333C608C633C6D5E0F418B1
:100E900022251A10AF08F51A400C151B8008F51A08
:100EA0004002151BD2AF2200C0D0251A10AF08F5A2
:100EB0001A500C051B8008F51A5002051BD2AFD042
:100EC000D022251AF58210AF08F51A400C151B80A8
:100ED00008F51A4002151BD2AF851B8322251AF58F
:100EE00082E4351BF58322251AFAE4351BFB222503
:100EF0001AFCE4351BFD22E473251AC582C0E0E527
:100F00001B34FFC583C0E0E51AC3958224F810AFF7
:100F10000885831B85821A800885831B85821AD2E7
:100F2000AFCEF0A3E520F0A3780AE608F0A3DEFA3E
:100F3000EFF0A3E58124FAF8E608F0A3E608F0A3B1
:100F4000E608F0A30808E608F0A3E608F0A3158178
:100F50001581D0E0FED0E0F8158115811581E8C03B
:100F6000E0EEC0E022251AC582C0E0E51B34FFC5D3
:100F700083C0E0E51AC3958224F910AF0885831B6E
:100F800085821A800885831B85821AD2AFCEF0A392
:100F9000E520F0A3780AE608F0A3DEFAEFF0A3E577
:100FA0008124FBF8E608F0A3E608F0A30808E608A9
:100FB000F0A3E608F0A315811581D0E0FED0E0F89B
:100FC00015811581E8C0E0EEC0E022851B83851AFB
:100FD00082E0A3FEE0A3F520780AE0A3F608DFFA9A
:100FE000E0A3FFE0A3C0E0E0A3C0E0E0A3C0E0E036
:100FF000A3C0E0E0A3C0E010AF0885821A85831B80
:10100000800885821A85831BD2AFD083D082020BE1
:101010001C851B83851A82E0A3FEE0A3F520780AD5
:10102000E0A3F608DFFAE0A3FFE0A3C0E0E0A3C07E
:10103000E0E0A3C0E0E0A3C0E010AF0885821A851D
:10104000831B800885821A85831BD2AFD083D08210
:1010500022C0D0251AC582C0E0E51B34FFC583C07D
:10106000E0E51AC3958224F310AF0885831B8582BF
:101070001A800885831B85821AD2AFC8F0A3E9F0D5
:10108000A3EAF0A3EBF0A3790AE709F0A3D8FAECFE
:10109000F0A3EDF0A3EEF0A3EFF0A3D0E0F0A3D027
:1010A000E0F0A3D0E0F0A3E520F0A3E5F0F0A32268
:1010B000851B83851A82E0C0E0A3E0F9A3E0FAA3D0
:1010C000E0FBA3780AE0F608A3DFFAE0FCA3E0FD6A
:1010D000A3E0FEA3E0FFA3E0C0E0A3E0C0E0A3E044
:1010E000F5D0A3E0F520A3E0A3F5F010AF088583C9
:1010F0001B85821A800885831B85821AD2AFD08215
:10110000D083D0E0F8D0E03274048006740280020C
:101110007401C0E0F404120EC2D0E0120D972274E4
:1011200004800474028000CCC0E0EDC0E0E51AC386
:101130009CCCAD1B50011D10AF068C1A8D1B800678
:101140008C1A8D1BD2AF120DA4D0E0FDD0E0FC2292
:10115000D083D082E9C0E0E493A3C386F0C5F095C4
:10116000F0F908E493A386F0C5F095F0700BE493D2
:10117000A3C3994005E9048002A3E475F002A42505
:1011800082F582E5F03583F583D0E0F9E493A3C0DE
:10119000E0E493C0E022D083D082ECC0E0EDC0E078
:1011A000E493A3FCE493A3FDED4C600D1211E2EC7B
:1011B00024FFFCED34FFFD80EFE493A3FCE493A354
:1011C000FDED4C600D121221EC24FFFCED34FFFD0F
:1011D00080EFD0E0FDD0E0FCE493A3C0E0E493C056
:1011E000E022C0E0C3E49396087401939618400F80
:1011F000E49366700808740193661870007019A370
:10120000A3C3E49396087401939618A3A3400DD04A
:10121000E0D0E0D0E00211D2A3A3A3A3A3A3D0E027
:1012200022C0E0C0F088F0E493667008087401936F
:1012300066187000A8F0A3A3700BD0F0D0E0D0E047
:10124000D0E00211D2A3A3D0F0D0E02274F5120FA7
:1012500065EAFEEBFFEE2434F8EF3400F9880A89E2
:101260000BEE2435F582EF3400F583E0F8EE2437F9
:10127000F582EF3400F583E0F50CEC850CF0A4FC6E
:10128000AAF0850CF0EDA42AFDE82CF8E43DF97AEB
:10129000257B00120E06EA850A82850B83F0F8741E
:1012A0000758F97401B900028004C333D9FCFAE885
:1012B000131313541FF8EE28F8EF3400F9E8245DF7
:1012C000F582E93400F583E05A6008EE2434F582B3
:1012D000EF802CEE2434F582EF3400F583E0C0E09B
:1012E000EE2436F582EF3400F583E0F5F0D0E084AB
:1012F000A8F0EE28F8EF3400F9E82438F582E93454
:1013000000F583E0F97F0402101174F5120F65EA0D
:10131000FEEBFFEE2434F582EF3400F583E0C0E00D
:10132000EE2435F582EF3400F583D0E0F08E828F25
:1013300083A3A3A3A3A3A3A3C082C0838E828F830E
:10134000A3A3A3A3A3E0F8A3E0F9D083D082E0C3D2
:1013500098F50AA3E099F50BEE247FF582EF3400AF
:10136000F583E064017069EE2480F582EF3400F5C6
:1013700083E0F8A3E0F98E828F83A3A3A3A3A3A3A2
:10138000A3E0FCA3E0FD8E828F83A3A3A3A3A3E02D
:10139000FAA3E0FBC3EA9CEB9D5010C3EC98ED99D7
:1013A000402EC3EA98EB995027800EC3EA98EB9938
:1013B0004007C3EC98ED9940177CDB7D04EEFAEF13
:1013C000FB1227D8EE247FF582EF3400F583E4F09A
:1013D000EE2434F8EF3400F9E8FCE9FDEE2435F5AD
:1013E00082EF3400F583E0F8EE2437F582EF340025
:1013F000F583E0F50CE50A850CF0A4F50AAAF08562
:101400000CF0E50BA42AF50BE8250AF8E4350BF9F6
:101410007A257B00120E06EA8C828D83F0F8740721
:1014200058F97401B900028004C333D9FCFAE813F7
:101430001313541FF8EE28F8EF3400F9E8245DF593
:1014400082E93400F583E05A6008EE2434F582EF37
:10145000802CEE2434F582EF3400F583E0C0E0EE1A
:101460002436F582EF3400F583E0F5F0D0E084A86F
:10147000F0EE28F8EF3400F9E82438F582E934007A
:10148000F583E0F9122087021305C082C083851A14
:1014900082851B83E0F8A3E0F9C3EA9CEB9D501022
:1014A000C3EC98ED99401BC3EA98EB995014800E59
:1014B000C3EA98EB994007C3EC98ED994004790191
:1014C00080027900D083D08222EAC39CFAEB9DFB94
:1014D0002274EF120F659003A1E064086005E064D8
:1014E00007702A9061C8E060249003CFE0F4601D8B
:1014F000E0F875F003A4C8AAF02AF974D128FE74A4
:101500000339FF8E828F83A3A3A3E0700302160129
:10151000906060E0C0E0EE2468F582EF3400F5836F
:10152000D0E0F0750E44750F05750A00750B00E5E7
:10153000D914F50CE5D95403F51060177403651040
:10154000605CE50C6010EE2467F582EF3400F583F3
:10155000E070030215E690053FE06401602AEE2486
:1015600082F582EF3400F583E0600478048002782D
:1015700000850C0AE50AC398FA95E0FB1226B28AA8
:101580000A8B0BEA450B70051229CA8074EE24827F
:10159000F582EF3400F583E070048A0E8B0FE50CC2
:1015A0006012850E82850F83F50DE5D9F0A3150D28
:1015B000E50D70F6EE2482F582EF3400F583E060ED
:1015C0004474FC250CF50C780E12110CAC0CA9100F
:1015D000EEFAEFFB1228747402120EA7E97026AA25
:1015E0000AAB0B122DBA793D8E828F83A3A3A3A3DE
:1015F000E0FA7B0012258CEEFAEFFB1227F012289E
:101600008679008074740365106056850C1275131A
:1016100000781212110CAC0EAD0FAA0AAB0B1228F7
:10162000507402120EA7EE2468F582EF3400F583A1
:10163000E064807004747F8001E0F50E780E121172
:1016400010E510F50E780E121110A90CAC0AAD0BB6
:101650009003CFE0FA7B001225507402120EA7808F
:10166000139003A1E06408600BAC0EAD0FEEFAEF2F
:10167000FB1228E01229D679017F0A02101174F5B5
:10168000120F6574FC120E91EAFEEBFF890AA2AFFD
:10169000E433F50BC2AF806AEE2463F8EF3400F94F
:1016A0007A007B00A2AFE433F50CC2AF8882898355
:1016B000E0FCA3E0FDEC4D603A88828983E0FAA368
:1016C000E0FB8A828B83E0FCA3E0FD88828983ECC7
:1016D000F0A3EDF08A828B83E4F0A3F08882898303
:1016E000E0FCA3E0FDEC4D700A88828983A3A3E4AB
:1016F000F0A3F0E50CA2E092AF122DBA9004E2E064
:1017000004F0EE2463F582EF3400F583E0F8A3E003
:10171000F9E849603DEE2463F582EF3400F583E09B
:101720002402FAA3E03400FBEA2402F50CEB3400B7
:10173000F50D780C12110C8A828B83E0FCA3E0F982
:10174000EEFAEFFB1228147402120EA7E9700302DE
:1017500016989004E2E060639004E3E0F89004E2FD
:10176000E0C398500C7402650A70509004E4E06085
:101770004A8E828F83A3A3A3A3E0851A82851B834D
:10178000F0A3E4F09004E2E0F87402120EDDE8F059
:10179000A3E4F09004E2E0F89004E1E028F07402A1
:1017A000120EDDAC82AD83851A82851B83AA82ABC3
:1017B00083790112255C9004E2E4F0E50BA2E0924B
:1017C000AF7404120EA7021305FFFFFF8521878562
:1017D00022C622C0E0C0D0E8C0E0E9C0E0EAC0E034
:1017E000EBC0E0ECC0E0EDC0E0EEC0E0C00AC00B32
:1017F000C00CC00DC082C083C0F0A2AFE433FEC2F3
:10180000AF759B00906182E0A2E05012E591A2E0EA
:10181000500C7591FE7401652170031214D1E0A281
:10182000E55051E591A2E5504B7591DF9003A1E0A1
:1018300064076005E06408702374016521703579E0
:10184000019003CFE0FA75F003A4CAA8F028FB7456
:10185000D12AFA74033BFB12167E8018E0640D70E7
:10186000139003C3E004F064287002E4F07A00E00F
:10187000F91229DC906182E0A2E6400302191AE520
:1018800091A2E6400302191A7591BF9003A1E0648A
:10189000057008122916122922800312291C7521AD
:1018A0000012297CE99003A2F07900122970122716
:1018B000547A017B009003A0E0F9122C0490780385
:1018C000E064427055900543E014F0704DC2AF12D1
:1018D00018D200782AD0E0F618D0E0F6E59F540739
:1018E0007005750BFF8003750B7FC4C0E07829E697
:1018F000F50A08E6550BF50B740B780A120E6FD03B
:10190000E0250AF8906270E0A2E740F8E8C333905F
:101910006272F0906270E0D2E0F0906181E0A2E348
:101920005009E5E9A2E3500375E9F7A3E0A2E75007
:1019300009E591A2E7500375917FEEA2E092AFD046
:10194000F0D083D082D00DD00CD00BD00AD0E0FEE6
:10195000D0E0FDD0E0FCD0E0FBD0E0FAD0E0F9D060
:10196000E0F8D0D0D0E032C0E0C0D0C082C08390D8
:101970006183E0A2E05009E5BFA2E0500375BFFE1D
:10198000E0A2E15009E5BFA2E1500375BFFDE0A26E
:10199000E25009E5BFA2E2500375BFFBE0A2E350AD
:1019A00009E5BFA2E3500375BFF7E0A2E45009E5E3
:1019B000BFA2E4500375BFEFE0A2E55009E5BFA266
:1019C000E5500375BFDFE0A2E65009E5BFA2E6508F
:1019D0000375BFBFD083D0828088C0E0C0D0E8C08C
:1019E000E0E9C0E0EAC0E0EBC0E0ECC0E0EDC0E060
:1019F000C0F0E5A7A2E6500FE5A1A2E6500953A763
:101A0000BF75A1BF121A3FE5A7A2E5500CE5A1A240
:101A1000E5500653A7DF75A1DFE5A7A2E15009E570
:101A2000A1A2E1500375A1FDE5A7A2E2500CE5A13A
:101A3000A2E2500653A7FB75A1FBD0F00219507427
:101A4000F8120F657521019003A1E064067015126C
:101A500028A48A828B83A3A3A3A3A3A3E0FAA3E071
:101A6000FB122904A2AFE433FED2AF9003A7E064D7
:101A70000170187A207B009003A0E0F9122C8E7A76
:101A8000207B009003A0E0F9122C0A906182E0D242
:101A9000E6F0900540E0602185C62280169003A6FE
:101AA000E064017008E5C654F84405F5C653BEFC71
:101AB0001217CC7401652160E4EEA2E092AF7F01C1
:101AC000021011FF8E238F24858228858327851A93
:101AD00082851B83E0CEA3E0CF852882852783EB18
:101AE000C9EAC8EDCBECCA75F010C3E833C8E933D6
:101AF000C9EA33CAEB33CBC3EA9EF526EB9FF52543
:101B0000B35004AB25AA26EC33CCED33CDD5F0DAB7
:101B1000AE23AF242274E9120F6574F8120E91857A
:101B20001A82851B83ECF0A3EDF08A0A8B0B9003DD
:101B3000A1E024F7C394055006750A01021CAC12FB
:101B400028A48A0C8B0DAE0CAF0DEE4F7003021C57
:101B5000A9AC0AAD0B7402120EDDAA82AB83122966
:101B6000348E828F83A3A3750EFF750FFF7510FF50
:101B7000751100780E120D237402120EDD7512FF1E
:101B80007513FF7514FF7515007812120D23780E6A
:101B90007912120B49502A780E7912120CE8750A44
:101BA00001750BC8750C00750D00780A790E120BC3
:101BB000495052850E0A850F0B85100C85110D803A
:101BC000507516017517C875180075190085120A29
:101BD00085130B85140C85150D780A790E120CE807
:101BE0007816790A120B49401C750A00750B0075AE
:101BF0000C00750D01780A7912120CE8780A790E3A
:101C0000120CAF800C750A01750B00750C00750D78
:101C1000007409780A120C90750E19F50FF510F57D
:101C200011780A790E120C088E828F83A3A3A3A3C6
:101C3000A3A3E0F8A3E0F97AD07B03120E06880E86
:101C4000890FE4F510F511780A790E120CAF7406BD
:101C5000120EDDE0F8A3E0F97AD07B03120E06E85D
:101C6000FA8A0EE4F50F780A790E120B49500778BC
:101C70000A790E120CE89003A1E06408600AE0649F
:101C8000066005E06405702D750E0D780E790A1258
:101C90000B494021750EF4750FFF7510FF7511FF8C
:101CA000780A790E120CAF800C750A00750B00755E
:101CB0000C00750D00851A82851B83E0F8A3E0F502
:101CC000838882780A120D587408120EA77F1002BA
:101CD000101174F7120F6512294690053EE0640159
:101CE0007010906245E4F0A3F053F4F343FE0C53FC
:101CF00090F31228F2E5C654804449F5C6E59E5497
:101D00007F644970F8906185740FF090053CE0F4B1
:101D10007002A3E0604E90053DE0600814601B1463
:101D2000602E8040750A01750B0090053CE0780A32
:101D3000120E7EE50AF45280802A750A01750B00A6
:101D400090053CE0780A120E7EE50AF45290801469
:101D5000750A01750B0090053CE0780A120E7EE5CD
:101D60000AF452A079007F0202101174F7120F6575
:101D7000E9FEEAFF74016E700C7A807B009003A08C
:101D8000E0F9122C04902E44E493F46008E493F9F3
:101D9000122748800953C680E59E547F70FA1228A6
:101DA000F890053EE06401700312276090053CE066
:101DB000F47002A3E0604B90053DE0600814601AE7
:101DC00014602C803D750A01750B0090053CE0788D
:101DD0000A120E7EE50A42808028750A01750B0002
:101DE00090053CE0780A120E7EE50A429080137559
:101DF0000A01750B0090053CE0780A120E7EE50A98
:101E000042A01229461228A48A0A8B0BA80AA90B01
:101E1000E8496015E5E170FCE82414F582E9340036
:101E2000F583E0F46003E0F5E174016F700A7A0174
:101E30009003A0E0F9122C58021D6674ED120F6594
:101E40008A0A8B0B8C0C8D0D7413120EDD780E121A
:101E50000D49780A790E120B497512017513C87570
:101E600014007515005012780A790E120CE87812D9
:101E7000790A120B4950168010780E790A120CE874
:101E80007812790E120B4940047901800279007FA3
:101E90000C02101174ED120F658A0A8B0B8C0C8DDD
:101EA0000D7413120EDD780E120D49780E790A1298
:101EB0000B494011780A790E120CE8AA0AAB0BAC58
:101EC0000CAD0D8022751200751300751400751588
:101ED000017812790E120CE87812790A120CAFAA66
:101EE00012AB13AC14AD1580A68A828B83750AFFE2
:101EF000750BFF750CFF750D00780A120D367F0407
:101F000002101174F5120F658C828D83780A120D00
:101F1000498A828B83780A120CFCEA2404F8EB3499
:101F200000F98C828D83A3A3A3A3E0FCA3E0FD882A
:101F3000828983C3E09CF0A3E09DF088828983C3FB
:101F4000E09420A3E0944E40268A828B83750AFF9A
:101F5000750BFF750CFF750DFF780A120CD58A8280
:101F60008B83A3A3A3A3E02420F0A3E0344EF002CC
:101F70001EE974F5120F65E9FE9004F6E0FAA3E09D
:101F8000FBEEC333F8E433F9749F28F58274A83963
:101F9000F583E02AF50AA3E03BF50B780A12110C51
:101FA0007A407B427C0F7D00121AC47402120EA785
:101FB0008A0A8B0B8C0C8D0D7410780A120C77AA80
:101FC0000AAB0B7F0402101174F1120F658A0E8B9D
:101FD0000F8C108D11740F120EDDE0FAA3E0FB746C
:101FE00011120EDDE0F50AA3E0F50B780A12110CD0
:101FF000EA2401F50AEB3400F50BE4F50CF50D7855
:102000000E790A120B88750A71750B02780E790A1F
:10201000120B88AA0EAB0FAC10AD11121AC47402C9
:10202000120EA78B0BEA450B60047A0180027A003E
:10203000EC2AFCED3400FD7413120EDDE0F8A3E091
:10204000F9E8FEE9FFECF8EDF97A717B02120E0671
:10205000880A890B8E828F83780A120D58ECF8ED6E
:10206000F97A717B02120E068A0A8B0B7405780AC4
:10207000120E7E8E828F83A3A3A3A3E50AF0A3E5AD
:102080000BF07F08021011C082C083E9906000F05D
:10209000D083D08222C2AF02000022C0E0C0D0E8CC
:1020A000C0E0E9C0E0E5A8D2AFC2C5751C00A2E758
:1020B000A2E792AFD0E0F9D0E0F8D0D0D0E032C0C3
:1020C000E074F2121051A2AFE433FED2AFE58AA25F
:1020D000E05003122D36758A00C2EB751C00EEA28B
:1020E000E092AF7F010210B0C0E074F2121051A272
:1020F000AFE433FED2AFE58BA2E05003122D36756C
:102100008B00C2E880D5C0E0C0D0E8C0E0E9C0E004
:10211000E5A8D2AFC2C7751C00A2E7A2E792AFD074
:10212000E0F9D0E0F8D0D0D0E032120B1F3BD0075E
:10213000120B1F52D007120B1F83D007120B1FBEAA
:10214000D007120B1FE8D007120B1F12D107120B7A
:102150001F29D107120B1F40D107120B1F57D107A0
:10216000120B1F80D107120B1F93D107120B1FA94F
:10217000D107120B1FBCD107120B1F008007120BD7
:102180001F048107120B1F3C8107120B1F5F810781
:10219000120B1F6A8107120B1F8D8107120B1F9CE8
:1021A0008207120B1F718307120B1FEC8307120BA0
:1021B0001F748407120B1FAF8407120B1FE68407DE
:1021C000120B1F748507120B1F4D8607120B1FADD4
:1021D0008607120B1FB88607120B1F378707120BD3
:1021E0001F3A8707120B1F3D8707120B1FCC87076B
:1021F000120B1FCF8707120B1FFF8707120B1F2918
:102200008807120B1F178907120B1FC98907120BAA
:102210001FE3AA07120B1F0BAB07120B1F39AB07EB
:10222000120B1F70AB07120B1FCEAB07120B1F193F
:10223000AC07120B1F64AC07120B1FA4AC07120BE8
:102240001FEAAC07120B1F18AD07120B1FD5AD0705
:10225000120B1FDFAD07120B1FECAD07120B1F1F78
:10226000AE07120B1FEBAE07120B1FF7AE07120BD8
:102270001F0FAF07120B1F19AF07120B1FD8DC0778
:10228000120B1FF0DC07120B1F08DD07120B1F21BA
:10229000D606120B1FFDD606120B1F61D806120BB5
:1022A0001FB8D806120B1F39D906120B1F29DA06E0
:1022B000120B1F76DA06120B1FFCDA06120B1F2E0A
:1022C000DB06120B1F42DD06120B1F84DD06120B0C
:1022D0001FA2DD06120B1F25DE06120B1FF9DE06FC
:1022E000120B1FC1DF06120B1FA39207120B1F76E2
:1022F0009307120B1F1F9407120B1F729407120BE8
:102300001F229507120B1FAE9507120B1F9A9607F7
:10231000120B1FC99607120B1FDC9707120B1F2405
:102320009807120B1FF99807120B1F359907120B0C
:102330001F519907120B1FD5C007120B1FEBC007C7
:10234000120B1F11C107120B1F2DC207120B1F37D3
:10235000C207120B1F6CC307120B1F64C407120BBA
:102360001FBCA507120B1FECA607120B1F1FA70708
:10237000120B1F69A707120B1F30A907120B1FEBC7
:10238000EE05120B1F55EF05120B1FB4F005120BD3
:102390001FC4F005120B1FF1F005120B1F4DF105C4
:1023A000120B1F54F205120B1F1EF305120B1F7E9A
:1023B000F405120B1FC7F405120B1F14F505120BC1
:1023C0001F3AF505120B1F48F705120B1F4DF705B5
:1023D000120B1F52F905120B1F9FF905120B1F124A
:1023E000FA05120B1F45FA05120B1FE7FA05120B2F
:1023F0001F90FB05120B1FC8FB05120B1FCBFB0523
:10240000120B1F13FC05120B1F53FC05120B1F5858
:102410003D00120B1F703D00120B1FB83D00120B48
:102420001FCE3D00120B1F153E00120B1F293F004F
:10243000120B1FB63F00120B1F72A905120B1FAD26
:10244000A905120B1FF2A905120B1FB2AA05120B48
:102450001F38AB05120B1F9DAB05120B1FC9AB0537
:10246000120B1F02AC05120B1F40AE05120B1F24EE
:10247000B005120B1F0AB205120B1F4DB305120B4C
:102480001F9BB505120B1FADB605120B1FF8B70544
:10249000120B1F08B905120B1F25B905120B1F607F
:1024A000B905120B1F82B905120B1FE5B905120BF6
:1024B0001FA6BE05120B1F3BBF05120B1F8DBF05CC
:1024C000120B1FABBF05120B1F05C005120B1F041B
:1024D000C105120B1F88C105120B1FA0AF07120BFD
:1024E0001FAAAF07120B1FEDAF07120B1F08B00793
:1024F000120B1F98B007120B1FC0B007120B1FFD65
:10250000B007120B1F34B107120B1F5DB107120B7E
:102510001FD2B107120B1FE7B107120B1FFCB10747
:10252000120B1F3DB207120B1F77B207120B1FA32E
:10253000B207120B1FDBB207120B1F5AB307120BA5
:102540001FA3B307120B1FCDB307120B1FF8B3075E
:10255000120B1F07D807120B1F84BC06120B1FB2E9
:10256000BC06120B1F00BE06120B1FE0BE06120BAC
:102570001FFFBE06120B1F7CBF06120B1FBFBF063C
:10258000120B1F15C106120B1FD6C106120B1F5DC1
:10259000C406120B1FFEC406120B1FF4C506120B55
:1025A0001FF1C606120B1F4BC806120B1FD6C8061A
:1025B000120B1FACD607120B1F15D707120B1F6982
:1025C000D707120B1F90D707120B1FC1D707120B8B
:1025D0001F9AB807120B1F07B907120B1F4EB90736
:1025E000120B1F66BA07120B1F62BB07120B1F45A7
:1025F000BC07120B1F3A8A07120B1F7C8A07120BAB
:102600001F4E8B07120B1F278C07120B1F218D07E4
:10261000120B1F038E07120B1F6C8E07120B1F224B
:102620008F07120B1F968F07120B1F029007120BBA
:102630001F2B9007120B1FA59007120B1F3E91072F
:10264000120B1FA39107120B1FB89107120B1FFE4D
:102650009107120B1F179207120B1F7C9207120B88
:102660001F7F9207120B1F45C707120B1F6DC7076D
:10267000120B1FABC707120B1F69C807120B1FD025
:10268000C807120B1FECC807120B1F14C907120B47
:102690001F44C907120B1F53C907120B1FD0C907CC
:1026A000120B1F482E00120B1F263000120B1F5852
:1026B0003200120B1F943200120B1FC13200120B9A
:1026C0001FAB3300120B1FF63300120B1F413400F7
:1026D000120B1F763400120B1FC43400120B1FF3B1
:1026E0003400120B1F163500120B1F633500120B3E
:1026F0001FE83500120B1F023800120B1F413A0071
:10270000120B1F823A00120B1F243C00120B1F6594
:102710003C00120B1FD83C00120B1F2E3D00120B69
:102720001F6FAF06120B1F6DB006120B1F06B70608
:10273000120B1F27B906120B1FF2BA06120B1F5AF3
:10274000BC06120B1FEFC105120B1F9EC205120B18
:102750001FCBC205120B1F11C305120B1F51C4055D
:10276000120B1FE7C505120B1F61C605120B1FDCFC
:10277000C605120B1F36C805120B1F96C905120B92
:102780001F9CCA05120B1FFDCB05120B1F16CC0593
:10279000120B1F74CC05120B1F62CD05120B1F9577
:1027A000CD05120B1F05CE05120B1F7FCE05120B98
:1027B0001FC9CE05120B1F93CF05120B1F68D00542
:1027C000120B1F47D105120B1FD2D105120B1F4050
:1027D000D205120B1FB4D205120B1FDFD205120B4C
:1027E0001F9ED305120B1F03D505120B1F20D50505
:1027F000120B1F3FD505120B1F30D605120B1F55AC
:10280000D605120B1F7FD605120B1FFAD605120B29
:102810001F54D705120B1FBDD805120B1F6BD9050E
:10282000120B1FACD905120B1F139406120B1F615C
:102830009406120B1F6D9406120B1F4B9506120B7C
:102840001F7C9506120B1FAD9506120B1F2D9606C9
:10285000120B1F659606120B1FB79606120B1FF47C
:102860009606120B1F119906120B1F379B06120BAF
:102870001F229D06120B1F0C9F06120B1FF7FF064F
:10288000120B1F008006120B1F308006120B1F094F
:102890008706120B1F8E8806120B1F8B8E06120BDB
:1028A0001F738F06120B1FB08F06120B1FD38F06DC
:1028B000120B1F049006120B1F0D9006120B1F1710
:1028C0009006120B1F059106120B1FFB9106120BAF
:1028D0001FDCD905120B1FDBDD05120B1FE1DD0527
:1028E000120B1F1CE505120B1F35EA05120B1F0703
:1028F000BD07120B1F9DBD07120B1FB3BD07120BA7
:102900001F29BE07120B1F9DBE07120B1FDBBE0740
:10291000120B1F4FBF07120B1FC8BF07120B1FD18F
:10292000BF07120B1FDDBF07120B1FF2BF07120BF1
:102930001F30C007120B1F46C007120B1FA5C00790
:10294000120B1F6EC407120B1F7BC407120B1F95BF
:10295000C407120B1FD4C407120B1F12C507120B9A
:102960001F77C507120B1F8CC507120B1F97C507D2
:10297000120B1FA4C507120B1FBBC507120B1FC9E3
:10298000C507120B1FD4C507120B1FE0C507120B9A
:102990001FEFC507120B1FFAC507120B1F17C6073B
:1029A000120B1F27C607120B1F3DC607120B1F591C
:1029B000C607120B1F64C607120B1F79C607120B3E
:1029C0001F8DC607120B1FEEC607120B1FF4C6079A
:1029D000120B1FFAC607120B1F00C707120B1F129C
:1029E000C707120B1FECA106120B1F78A206120BD1
:1029F0001FD7A306120B1FF8A506120B1FE4A6068D
:102A0000120B1F19A706120B1F3BA706120B1FEA7A
:102A1000A706120B1FE2A906120B1F0BAA06120B28
:102A20001F9DAA06120B1FCFAA06120B1FDCAA06B7
:102A3000120B1F33AB06120B1F59AB06120B1FC62E
:102A4000AD06120B1FC9AE06120B1F21AF06120BEB
:102A50001F03E206120B1F0DE206120B1F2FE206E8
:102A6000120B1F3BE206120B1FD4E306120B1F03CF
:102A7000E406120B1F1FE506120B1F78E506120B6A
:102A80001FECE606120B1F59E706120B1F94E70610
:102A9000120B1FD3E706120B1F8CEA06120B1FA6A0
:102AA000EA06120B1F32EB06120B1F40EB06120B4D
:102AB0001F99EB06120B1FA7EB06120B1F1AEC0651
:102AC000120B1F7EEC06120B1FC8EC06120B1F51D7
:102AD000ED06120B1F73ED06120B1F99EF06120B7A
:102AE0001FAEF206120B1FC6F306120B1F79F40677
:102AF000120B1F5BF506120B1FE3D107120B1F0809
:102B0000D207120B1F7AD207120B1F7FF806120B87
:102B10001F88F806120B1F91F806120B1F68F906A2
:102B2000120B1F19FB06120B1F4FFB06120B1F89FE
:102B3000FB06120B1FBFFB06120B1FF9FB06120B45
:102B40001F2DFC06120B1F59FC06120B1FA2FC06C0
:102B5000120B1FDCFC06120B1F25FD06120B1F7D3E
:102B6000FD06120B1FB2FD06120B1F0DFE06120B07
:102B70001F47FE06120B1F98FE06120B1FCEFE0605
:102B8000120B1F08FF06120B1F2BFF06120B1F57FD
:102B9000DE07120B1F83DE07120B1FDEDE07120B90
:102BA0001FE8DE07120B1FF8DE07120B1F49A007F4
:102BB000120B1F53A007120B1F91A007120B1FDA55
:102BC000A007120B1F14A107120B1F6EA107120BF7
:102BD0001F8FA107120B1F98A107120B1FE9A10756
:102BE000120B1F12A207120B1F1CA207120B1F8829
:102BF000A207120B1F16A307120B1F64A307120BC9
:102C00001F9AA307120B1F21A407120B1F61A40711
:102C1000120B1F99A407120B1FABA407120B1FCA9C
:102C2000A407120B1FD3A407120B1F92A507120BA8
:102C30001F24DA07120B1F4DCC07120B1F83CC0782
:102C4000120B1FB9CC07120B1F12CE07120B1F025B
:102C5000DF07120B1F18DF07120B1F22DF07120BF3
:102C60001F6CDF07120B1F9ADF07120B1F20B40720
:102C7000120B1F39B407120B1FDDB407120B1F1DF7
:102C8000B507120B1F36B507120B1F6AB507120BDB
:102C90001FB7B507120B1FEBB507120B1F2DB60799
:102CA000120B1F2DB807120B1FF8DB07120B1F2189
:102CB000DC07120B1F4ADC07120B1F8CDC07120B00
:102CC0001F3DE007120B1FA1DD07120B1FB2DD072E
:102CD000120B1FF4DF07120B1F33E007120B1FE06C
:102CE0003F00120B1FEB3F00120B1FB8E007120B47
:102CF0001F1EDB07120B1F2EDB07120B1F40DB070B
:102D0000120B1FF2DB07120B1F20D907120B1FA596
:102D1000D907120B1F0BDA07120B1F88D307120BF0
:102D20001FB6D307120B1F15D407120B1F2DD40784
:102D3000120B1F83D407120B1FDBD407120B1F19B2
:102D4000D507120B1F1CD507120B1FA2E007120B91
:102D50001FB2E007120B1FB5E007120B1FF83F0070
:102D6000120B1F18CA07120B1FA3CB07120B1F044D
:102D7000CC07120B1F4ACC07120B1FC69907120B68
:102D80001F039A07120B1F1F9A07120B1FE39A07C4
:102D9000120B1FCC9B07120B1F2B9D07120B1F92B0
:102DA0009D07120B1F759E07120B1FFC9E07120B2F
:102DB0001F05A007120B1F25D507120B1F7AD50779
:102DC000120B1FE8D507120B1F58D607120B1F4016
:102DD000FD05120B1F6AFD05120B1F3FFE05120BAE
:102DE0001F33FF05120B1F57C906120B1FBECC065F
:102DF000120B1F3ACE06120B1F91CE06120B1FB0FC
:102E0000CE06120B1F0DCF06120B1F88D006120B19
:102E10001F6CD106120B1FAED406120B1F7ED506F7
:102E2000120B1F4CCE07120B1F9ECF07120B1F1544
:102E3000D007120B1FCBFF06120B1F84E007FFFF0A
:102E400031B1E1FFFFFFFFFF74F4120EF9E99003C7
:102E5000A0F0122940907800E0C4540F5407640396
:102E60007004793F8002797F750A06750B00780A35
:102E700012110C7C8E7D037AEA7B07122D067402F8
:102E8000120EA790038EE0F47049A3E0F47044A3FF
:102E9000E0F4703FA3E0F4703AA3E0F47035A3E0EF
:102EA000F4703090780EE090038EF090780FE09000
:102EB000038FF0907810E0900390F0907811E090FC
:102EC0000391F0907812E0900392F0907813E090E4
:102ED0000393F090039474FFF0A3F0A3F0A3F0A386
:102EE000F0A3F090038EE090039AF090038FE090AF
:102EF000039BF0900390E090039CF0900391E0908E
:102F0000039DF0900392E090039EF0900393E09075
:102F1000039FF09003BE7406F0A3740DF0A3E4F0D9
:102F2000A37440F0A37401F09004EA74FFF0A3F0DE
:102F3000A3F0A3F0A3F0A3F09004E9E4F09004F070
:102F4000F0A374A0F0A3E4F0A37403F0A37407F05B
:102F5000A3E4F0A37428F0A3E4F0A304F0A3E4F046
:102F6000900519F090053C74FFF0A3E4F090053E45
:102F7000F090054004F09005417490F0A37401F0C6
:102F800012275A1226B81228EC79017A437B0512CF
:102F90002832900543E075F01484E5F004F0790CD4
:102FA0007A647B0512283212284A7A009003A0E046
:102FB000F9122C58907803E064427055900543E074
:102FC00014F0704DC2AF122FC900782AD0E0F61865
:102FD000D0E0F6E59F54077005750BFF8003750B75
:102FE0007FC4C0E07829E6F50A08E6550BF50B74B6
:102FF0000B780A120E6FD0E0250AF8906270E0A2FA
:10300000E740F8E8C333906272F0906270E0D2E07B
:10301000F09003CBE4F0A3F07A80FB9003A0E0F9FA
:10302000122C040234BF74F4120EF9EAFEEBFFEE28
:10303000A2E050459003A2E0C39480E0500FC33358
:10304000F8E433F9742C28F5827409800EF4C33344
:10305000F8E433F9743A28F582740939F583E0F815
:10306000A3E0F5838882120EF77A009003A0E0F9BE
:10307000122C58EE640102324C54026040750A0072
:10308000780A121110E4F50B780A12110C780A1262
:10309000110C780A12110C750AD5750B04780A12F6
:1030A000110C9004D4E0FD7C017A007B00793C1285
:1030B00025867409120EA7EE640202324CEE540407
:1030C00070030231629003CFE0F875F003A4C8AA40
:1030D000F02AF974D128FA740339FBEA242AF5821C
:1030E000EB3400F583E0F50A780A121110EA243275
:1030F000F582EB3400F583E0F50AA3E0F50B7404E8
:10310000780A120E6F780A12110CEA2420F582EB6D
:103110003400F583121123EA242EF582EB3400F5F6
:1031200083E0F50AA3E0C313F50BE50A13F50A786B
:103130000A12110C750AD5750B04780A12110C903D
:1031400004D4E0FD7C018A828B83A3A3A3A3E0FACD
:103150007B0079001225867409120EA7EE64040222
:10316000324CEE54406040750A00780A121110E4A7
:10317000F50B780A12110C780A12110C780A121148
:103180000C750AD5750B04780A12110C9004D4E062
:10319000FD7C017A007B00793B1225867409120EB2
:1031A000A7EE644002324CEE5480603B900541E053
:1031B000F8A3E0F9E849602A7900122C5290054101
:1031C000E0F50AA3E0F50BE4F50CF50D780A121111
:1031D000087A007B019003A0E0F9122C827404129B
:1031E0000EA7EE64808065EF5401600C7901122C0B
:1031F00052EEFAEF64018056EF5402600AC2AF75D6
:10320000C9AB75C95B80FEEF5404600A122095EECD
:10321000FAEF640480389003A7E064017033EE5441
:1032200020602E9003A1E024F9600314701B793F05
:103230009003CFE0FA75F003A4CAA8F028FB74D17C
:103240002AFA74033BFB1227F6EE6420FAEFFB80A8
:10325000047A007B000234BF74F6120EF9C3EA94BC
:1032600011EB940050047A1080027A20EA2408FAC4
:10327000E43400FB122DB48A0A8B0BA80AA90BE8D0
:1032800049600AE82404FAE93400FB80047A007BF0
:10329000000237FD74F6120EF9EA2405FAEB340049
:1032A000FB122DB48A0A8B0BA80AA90BE849600A05
:1032B000E82405FAE93400FB80047A007B00023739
:1032C000FDC082C083C2AF12291CE5E170FC75E12C
:1032D0000112274E75E1F112294C1227427907128B
:1032E00029AC79011229B279021229761229941295
:1032F00029A079001229A679011229A67A557B55B1
:103300007C557D0012295E9004D4E4F0A3F0A3F074
:10331000A3F0A3F0A3F0A3F09004F0F0A3F0A3F0C7
:103320009004F47407F09004F37403F09004F9E44B
:10333000F09004F8F0900519F01227E4122880129A
:1033400027FC79001229B89004DB74FFF0A3F0A3E6
:10335000F0A3F0A3741FF0906012E4F0A3F090606B
:1033600063F07521009003A1F09004E0F09004E177
:10337000740CF09004E2E4F09004E304F09004E4B0
:10338000E4F09004E504F09004E6E4F09003A3F088
:10339000A3F09003A6F09003A704F09003BD04F0FF
:1033A00090053FE4F0D2AFF9023D27C082C0839080
:1033B000038EE08A828B83F090038FE08A828B8376
:1033C000A3F0900390E08A828B83A3A3F0900391F3
:1033D000E08A828B83A3A3A3F0900392E08A828B7E
:1033E00083A3A3A3A3F0900393E08A828B83A3A378
:1033F000A3A3A3023D24C082C0838A828B83E09072
:103400000394F08A828B83A3E0900395F08A828BE9
:1034100083A3A3E0900396F08A828B83A3A3A3E007
:10342000900397F08A828B83A3A3A3A3E0900398D1
:10343000F08A828B83A3A3A3A3A3E0900399023D08
:103440002474F6120EF9EA4B6016EC4D6012740A01
:10345000120EDDE0F50AA3E0F50BE50A450B70045A
:103460007912800F780A12110C1228447402120E7D
:10347000A779000237FD74F4120EF9EAFEEBFF891A
:103480000A9003A1E064096014E0640A600FE0643C
:103490000B600AE0640C6005E0640D7004790C8038
:1034A0001E1228A48B0DEA450D700BA90AEEFAEF47
:1034B000FB12283280099003A3E04440F0790D7F8D
:1034C00004020FCB74F6120EF9EA4B6003E97004A4
:1034D0007912801CEAFEEBFF890A12282CE98E8201
:1034E0008F83F0A3AE82AF83150AE50A70EC7900F2
:1034F0000237FDC082C083E9F8740168700B900543
:103500003F7401F07900023D27E8700690053FE422
:1035100080F1791280F0C082C0839003A1E0640C36
:10352000701290618EE0F974806970258C828D83B1
:10353000747F8029C3EB940F5013EA4B700F9003F4
:10354000D4E070047902801890043980D879128010
:103550000F9003A5E0F8E9C3988C828D83F0790081
:10356000023D2774F7120EF9E9FE74056E601E74B1
:10357000136E601974146E601474156E600F741AF3
:103580006E600A74296E6005743B6E7026C3EB94FE
:103590000F5020EA4B701C9003D4E0700479028035
:1035A0004490043AE064017025A3E0640270087955
:1035B0003A80327912802EEE9004C5F09003EEE44A
:1035C000F0A3F079027AD17B031227D28015EE9016
:1035D00004C5F09003EEE4F0A3F079027AD17B0306
:1035E0001227C679000237F874EA120EF9EC4D6022
:1035F00014E9C3941C500E7416120EDDE0F8600A34
:10360000740168600579120237F3C3EB940F501907
:10361000EA4B70159003D4E070047902800D900499
:10362000E1E0700A79070237F379120237F3EC24EC
:10363000FEFCED34FFFD8C828D83E9F0E8700474AC
:103640000280027401A3F0EC24FEFCED34FFFD7A4D
:10365000347B0412281A9004E1E014F09003A1E0F6
:1036600064086008E0640760030237F19003CFE06C
:1036700060030237F179007AD17B0312167E9061E4
:10368000D0E070030237F19004E5E06401600302CA
:1036900037F19003EEE0F8A3E0F9E8497003023750
:1036A000F1A2AFE433F516C2AF1228A48A0A8B0B3D
:1036B000AE0AAF0B12292E8A128B138C148D158A29
:1036C0000A8B0B8C0C8D0D750E01750F007510009B
:1036D000751100780A790E120CAF780A1211088E53
:1036E000828F83A3A3120D67121E3B7404120EA7D0
:1036F000E9640160030237EB9003FFE02406F50A5A
:10370000A3E03400F50BE4F50CF50D7812790A12FC
:103710000CAF78121211088E828F83A3A3120D674B
:10372000121E3B7404120EA7E9640160030237EB1A
:10373000EE2408F50EEF3400F50F850E82F58312A6
:10374000111FAA12AB13AC14AD15121E94740412FF
:103750000EA79003FF121123121AC47402120EA7AF
:103760008A0A8B0B8C0C8D0D7410780A120C7790D2
:1037700003DAE0F8A3E0F99003D6E8F0A3E9F0E873
:10378000250AF8E9350BF9A3E8F0A3E9F0850E82E4
:10379000850F83C082C0839003FFE0F50EA3E0F5A0
:1037A0000F780A790E120B88D083D082780A120C17
:1037B000C2750EFF750FFF7510FF780A790E120D96
:1037C000108E828F83A3A3E50AF0A3E50BF0A3E597
:1037D0000CF0A3E4F0900406E0900405F07AD17BAD
:1037E0000312130AEEFAEFFB12288CE516A2E09200
:1037F000AF79007F0E020FCB7F01020FCB7F020259
:103800000FCB74F6120EF9EAFEEBFF890A740B1265
:103810000EDDE0F50B740C120EDDE0F8A3E0F9E527
:103820000A605F7401650A60157403650A602F748D
:1038300002650A60297404650A60030238DDE849FC
:1038400070030238DDE50B60097401650B6003024B
:1038500038DD7403650A60067402650A7046EE245A
:1038600060FAEF34FFFBC3EA9461EB943F506EECD7
:103870002460FAED34FFFBC3EA9461EB943F4024EB
:10388000805BEE24E0FAEF34FFFBC3EA94E1EB94B3
:103890003F504AEC24E0FAED34FFFBC3EA94E1EB3D
:1038A000943F5039C3EC9EED9F4032740A120EDDF6
:1038B000E0FA600574016A7024740F120EDDE0FCFA
:1038C000600F74016C600A74026C600574036C70A4
:1038D0000C740E120EDDE0FB74075B7005791202AA
:1038E0003A3E9004F0E064017005790C023A3EE53E
:1038F0000A9004F3F074075BA3F0ECA3F0EA9004E1
:10390000E9702FE4F090038EE09004EAF090038FCA
:10391000E09004EBF0900390E09004ECF0900391C1
:10392000E09004EDF0900392E09004EEF0900393A9
:10393000802E7401F0900394E09004EAF0900395D7
:10394000E09004EBF0900396E09004ECF090039785
:10395000E09004EDF0900398E09004EEF09003996D
:10396000E09004EFF07401650A7053E50B9004D405
:10397000F088828983E09004D5F088828983A3E06F
:103980009004D6F088828983A3A3E09004D7F088BE
:10399000828983A3A3A3E09004D8F088828983A3BB
:1039A000A3A3A3E09004D9F088828983A3A3A3A34F
:1039B000A3E09004DAF09004F1E4F0A3807D7404B5
:1039C000650A704DE50B9004D4F088828983E090FD
:1039D00004D5F088828983A3E09004D6F088828998
:1039E00083A3A3E09004D7F088828983A3A3A3E0F4
:1039F0009004D8F088828983A3A3A3A3E09004D97C
:103A0000F088828983A3A3A3A3A3E09004DAF080C3
:103A100023EC70047900801974016C7004790180C2
:103A20001074026C70047902800774036C7005795D
:103A30000312299A9004F1EEF0A3EFF07900023717
:103A4000FD74F6120EF9E9FEC39420500BEE9004BB
:103A5000F9F06023EA4B700479128023E0F50A75CF
:103A60000B00780A12110CEAFCEBFD7AFA7B0412C7
:103A70002BB07402120EA79004F87401F0790002C2
:103A800037FD74F0120EF9E9FE9003A1E0640970AD
:103A900003023BABE0640A7003023BABE0640B70D3
:103AA00003023BABE0640C7003023BABE0640D70BF
:103AB00003023BAB9004F3E0601664016012E06423
:103AC00003600DE064026008E064046003023C20CF
:103AD0009004E9E0600764016003023C209004F375
:103AE000E064036005E0640270109004F1C3E094A8
:103AF000A0A3E094005003023C20EE7003023BB907
:103B0000146003023C209004F0E064017003023B67
:103B1000AB9004F3E0600964016005E06404700B9D
:103B20001228B0E954FD6003023BAB7901122898DA
:103B30009004E7EAF0A3EBF09004F07401F0900336
:103B4000A1E0706E12292E8A0A8B0B8C0C8D0D75DC
:103B50000E03750F00751000751100780A790E12AA
:103B60000CAF750EFF750FFF7510FF780A790E12F6
:103B70000D109004E7E0F8A3E0F5838882A3A37812
:103B80000A120D589004E7E0F8A3E0C82406F58275
:103B9000E83400F583E4F0A3F0122766E960107AB8
:103BA000E77B0412289E9004F0E4F079218005124E
:103BB000288679007F08020FCB9004F0E060ECA229
:103BC000AFE433FFC2AF7AE77B0412289E9004F083
:103BD000E4F01228B6E9704112291C906182E0C21B
:103BE000E6F0E5E170FC75E1017591BF75E1F190DA
:103BF00003A7E0640170187A207B009003A0E0F92D
:103C0000122C8E7A207B009003A0E0F9122C0A7A05
:103C1000009003A0E0F9122C58EFA2E092AF80923E
:103C20007912809074F6120EF9E9FEC39420500BBD
:103C3000EE900519F06023EA4B700479128023E0BE
:103C4000F50A750B00780A12110CEAFCEBFD7A1AE2
:103C50007B05122BB07402120EA79004F87401F0C9
:103C600079000237FDC082C0839003A1E064076041
:103C700004790C805CEC4D605BC3EB940F5055EA0B
:103C80004B70519003D4E07004790280447A008C28
:103C9000828D83E0C0E0EAF8C3E498F895E0F97417
:103CA0009E28F582740439F583A3A3A3A3D0E0F082
:103CB0000A8C828D83A3AC82AD83EAC3941040CF7B
:103CC0009004A47401F079057AD17B031227C67998
:103CD00000023D27791280F9C082C0839003A1E0E1
:103CE00064076004790C8039C3EB940F5020EA4BD1
:103CF000701C9003D4E07004790280259004ADE03C
:103D00006401700E9004C57406F07902800A79127D
:103D1000800FA37406F0790D7AD17B031227C67940
:103D200000023D27F07900D083D082020B1CC082B4
:103D3000C083E9F8900540E07004790C800EE860DB
:103D40000D1470109003A67401F0790080D99003CF
:103D5000A6E480F5791280F4C082C0839002DCEA88
:103D6000F0A3EBF0D083D082020B1C7F01020FCBBB
:103D7000C082C0838A828B83E064B07039A3E07014
:103D8000358A828B83A3A3A3A3E0F8741268701111
:103D9000EA241DF582EB3400F583E064017017809E
:103DA00005741B6870107C017D008A828B83A3A33D
:103DB000123F231225C880AC74F7120EF9E9900265
:103DC000DBF07A047B001225B012237C809D74F412
:103DD000120EF98A0A8B0BEB548060309002DBE004
:103DE000F9122BEC8A0C8B0DAE0CAF0DEE4F60135D
:103DF0008E828F83E064A07003122424EEFAEFFB1E
:103E0000122BDAAA0AE50B6480FB80047A007B009F
:103E10007F04020FCB74F5120EF974F5120E91EABD
:103E2000FEEBFF7404120EDDAC82AD83122178E943
:103E3000F50CEE2402F50AEF3400F50BE9600302FD
:103E40003ED07406120EDDE0A2E050299002DEE0C2
:103E5000F8A3E0F9E84960187404120EDD123F1966
:103E60009002DFE0F5838882120EF7E9F50C80609E
:103E7000750C06805B9002DCE0F8A3E0F9E849608D
:103E80001A7404120EDD123F199002DDE0F58388EA
:103E900082120EF7E9F50C70058035750C06740575
:103EA000120EDDE0702A7406120EDDE0851A82859E
:103EB0001B83F07401120EDDE4F0A3F07403120E04
:103EC000DDE50CF0851A82851B83123F1912212A29
:103ED0008E828F83A3A3A3A3A3A3123F23EA4B60E5
:103EE00003122DBAE50C701D7406120EDDE0F87495
:103EF0001268700C7405120EDDE064017007800F0B
:103F0000741B68600A7C017D00123F1D1225C87475
:103F10000B120EA77F03020FCBAC82AD83850A8202
:103F2000850B83E0FAA3E0FB2274F0120EF9890AF4
:103F30008A0E8B0F8C0B8D0C7A1E7B00122BD48A71
:103F4000108B11AE10AF11EE4F60648E828F8374B0
:103F5000B0F0A3E50BF08E828F83A3A3E50EF0A350
:103F6000E50FF08E828F83A3A3A3A3E50CF0EE24CC
:103F700005FAEF3400FB7410120EDDE0FCA3E0FD47
:103F8000EC4D6015750E19750F00780E12110C129C
:103F90002BB07402120EA780097C197D00790012E3
:103FA0002BC8EEFAEFFBA90A122BE0790080027908
:103FB000137F08020FCB74F7120EF9EAFEEBFFEE47
:103FC0004F601A8E828F83E0F974FF69600F74FE70
:103FD00069600A122DDE8E828F8374FFF0023D6BC2
:103FE000E5BDF9E5BCFAE9FB020B1C53B4F3EBF5B4
:103FF000BCEAF5BC020B1CFF851C87C2AF020B1C80
:10400000125512550100009A42424242FFFFFFFF43
:10401000FFFFFFFFFFFFFFFFFFFFFFFFFFFFFFFFB0
:10402000000102030405060708090A0BFFFFFFFF52
:1040300002457E0253FFFFFFFFFFFFFFFFFFFFFF71
:10404000FFFFFFFFFFFFFFFFFFFFFFFFFFFFFFFF80
:10405000FFFFFFFFFFFFFFFFFFFFFF025B5CFFFFB4
:10406000FFFFFFFFFFFFFFFFFFFFFF025BBBFFFF45
:10407000FFFFFF025B33FFFFFFFFFFFFFFFFFFFFBD
:10408000FFFFFF025472FFFFFFFFFFFFFFFFFFFF75
:10409000FFFFFFFFFFFFFFFFFFFFFF025B80FFFF50
:1040A000FFFFFFFFFFFFFFFFFFFFFFFFFFFFFFFF20
:1040B000FFFFFF02526B01FF0000B4000028002840
:1040C00000283075A000A000A000A0000008000893
:1040D000E001F000100010001000100010001000AF
:1040E00050005000500010001000D00700000000E9
:1040F00000000F00010005003075070010000100EE
:1041000081FF00000000FF2E5E4C5E345EFF020265
:104110000208025000A0000000E80302F181010043
:1041200000E88102ED81010000580C0205820100C7
:1041300000B40202ED81010000590C02018201006D
:1041400000CA0202ED810100005A0C02FF81010049
:1041500000CC0202ED810100005B0C021982080014
:1041600000CD0202ED810100005C0C02F58101002E
:10417000005D0CFF0100FF2002F181010000DC81E5
:1041800002ED81010000C10C02EB81000000000083
:104190000211820300001A030464046404640464CA
:1041A00004640464046404640464046404640464CF
:1041B00004649866B0669266FFFF424D23002000BB
:1041C0006400126402F181010000E58102ED8101C9
:1041D00000000C0D02F9810100000D0D0211820397
:1041E00000005808020202020202020202010D004F
:1041F0000000100102F181010000D98102ED81016E
:1042000000002E0D0203820100005E0802ED810114
:1042100000002F0D020782010000958102ED81014F
:104220000000300D0209820100007E8102ED810153
:104230000000310D020D82010000788102ED810144
:104240000000320D020F82010000728102ED810137
:104250000000330D020B820100006C8102ED810130
:104260000000340D0217820100003A8102ED810145
:104270000000350D021582010000078102ED810169
:104280000000360D021382010000370D01E803051E
:104290003F100A1C02F181010000E28102ED810160
:1042A0000000DD0D105080020000FF0A02118203A1
:1042B0000000010B02FB81010000158102ED81016C
:1042C0000000DD0D106080020000000B021182036F
:1042D0000000070B02FB810100002281FFFFFF00AD
:1042E000013075030201060000000000000000001C
:1042F00000000000000000000000000000000000BE
:10430000000000FFFF0600800CE80301C027090041
:104310000C09504D322E3554455354455205122840
:10432000002800020A000201060302F0FF0F1850E5
:104330004D322E355F54455354455200786B000082
:10434000846B0A436861726163746572697374692E
:10435000632031000243686172616374657269733E
:104360007469632032000A43686172616374657224
:104370006973746963203300104368617261637408
:10438000657269737469632034000A4368617261FD
:104390006374657269737469632035000A436861E8
:1043A00072616374657269737469632036000243D5
:1043B0006861726163746572697374696320370040
:1043C0000A4368617261637465726973746963201A
:1043D000380002436861726163746572697374695D
:1043E000632039000A4F4144000002F181010000BE
:1043F000DF8102ED810100008C0E021D82030000AE
:10440000C90B02FB810100008D0E02ED810100004D
:104410009E0E021F82010000CA0B02FB81010000F8
:104420009F0E02ED81010000B00E02218203000008
:10443000DC0B02FB81010000B10E02ED81010000E6
:10444000C20E022382000000DD0B02118203000075
:10445000F10B02FB81010000C30E02ED810100009F
:10446000D40E022582030000F70B02FB810100003D
:10447000D50E02ED81010000E60E02278203000046
:10448000F80B02FB81010000E70E02ED8101000044
:10449000F80E022982030000F90B02FB81010000E3
:1044A000F90E02ED810100000A0F022B82030000C9
:1044B000FA0B02FB810100000B0F02ED81010000ED
:1044C0001C0F022D82010000FF0B02FB8101000086
:1044D0001D0F02ED810100002E0F022F8209000046
:1044E000000C02FB810100002F0FE5C754F84404C3
:1044F000F5C779012200000080FB1244EAB90003ED
:10450000024568E479217808B800028004F709D8E8
:10451000FCE479297802B800028004F709D8FCE4A9
:104520009002807882790A8002F0A3D8FCD9FA78C8
:104530001C9040B67A01BA00028007E493A3F60803
:10454000DAF97A017B0C9040B7783479058015E46C
:1045500093A3AD82AE838A828B83F0A3AA82AB83BE
:104560008D828E83D8E9D9E77582B07583FB740399
:104570001245907582F5758344740012459075D08C
:104580000075813F751A80751B02759F000244FA01
:10459000C09FF59FE473D09F22D083D082C09FE458
:1045A00093C0E0740193C0E0740293F59F22E76624
:1045B00070100809E766700A0809E76670040809C0
:1045C000E76622E066701008A3E066700A08A3E0C0
:1045D00066700408A3E06622C3E7960809E7960818
:1045E00009E7960809E79622C3E09608A3E0960833
:1045F000A3E09608A3E09622C00AC3E096F50A0855
:10460000A3E096420A08A3E096420A08A3E0964572
:104610000A7001D3D00A22080808EAC0E0EBC0E023
:1046200086F0E7A4FA180986F0E7A42AFA180986A2
:10463000F0E7A42AFA180986F0E7A42AFA1986F006
:10464000E7A4FBE5F02AFA190886F0E7A42BFBE5BE
:10465000F03AFA190886F0E7A42BFBE5F03AFA18CD
:10466000180986F0E7A4C5F02BFBE43AFA1908E72D
:10467000C5F0C6A426F6E5F03BFBE43AFA1886F04E
:10468000E7A4F6E5F00826F6E43B08F6E43A08F677
:10469000D0E0FBD0E0FA22E4CFC0E0E4CEC0E0E41A
:1046A000CDC0E0E4CCC0E075F020E626F608E633A5
:1046B000F608E633F608E633F6181818EC33FCED86
:1046C00033FDEE33FEEF33FFC3EC9709ED9709EEB0
:1046D0009709EF97191919400FFFEC97FC09ED970F
:1046E000FD09EE97FE191906D5F0BFECF709EDF7B5
:1046F00009EEF709EFF7191919D0E0FCD0E0FDD069
:10470000E0FED0E0FF226016080808C6C313C618F2
:10471000C613C618C613C618C613C6D5E0EA22705B
:1047200009080808226016181818C6C333C608C638
:1047300033C608C633C608C633C6D5E0EA22E62724
:10474000F60809E637F60809E637F60809E637F607
:1047500022E026F608A3E036F608A3E036F608A322
:10476000E036F622E026F008A3E036F008A3E036B3
:10477000F008A3E036F022C3E697F60809E697F6BC
:104780000809E697F60809E697F622C3E096F008CE
:10479000A3E096F008A3E096F008A3E096F022E6E6
:1047A00057F60809E657F60809E657F60809E657E6
:1047B000F622E056F608A3E056F608A3E056F608FF
:1047C000A3E056F622E056F008A3E056F008A3E076
:1047D00056F008A3E056F022E0F608A3E0F608A39E
:1047E000E0F608A3E0F622E6F008A3E6F008A3E668
:1047F000F008A3E6F022E0FAA3E0FBA3E0FCA3E0CC
:10480000FD22EAF0A3EBF0A3ECF0A3EDF022E0F838
:10481000A3E0F9A3E0FAA3E0FB22E8F0A3E9F0A308
:10482000EAF0A3EBF022CAC0E0E6F0A308DAFAD07F
:10483000E0FA22CAC0E0E0A3C582CCC582C583CD20
:10484000C583F0A3C582CCC582C583CDC583DAE616
:10485000D0E0CA22C3E498F8E499F912489580267A
:10486000C3E49AFAE49BFBE920E7E9124895E4984F
:10487000F8E499F922C3E498F8E499F9124895E428
:1048800098F8E499F9C3E49AFAE49BFB22EB20E759
:10489000CFE920E7E0B90010BB0008E88AF084F80F
:1048A000AAF022E4FBC8FA22EB70227B10C833C8BE
:1048B000C933C9335007C39AC3DBF280069A50014B
:1048C0002ADBEAC833F4C8C933F4C9FA2275F00800
:1048D000E4C833C8C933C933C99AC99B5004C92A2B
:1048E000C93BD5F0ECFBC833F4C8E4C9FA22600D2B
:1048F00008C6A2E713C618C613C6D5E0F322600C9B
:1049000008C6C313C618C613C6D5E0F42270042225
:10491000600D18C6C333C608C633C6D5E0F41822E6
:10492000251A10AF08F51A400C151B8008F51A401F
:1049300002151BD2AF2200C0D0251A10AF08F51AFD
:10494000500C051B8008F51A5002051BD2AFD0D0C1
:1049500022251AF58210AF08F51A400C151B8008A5
:10496000F51A4002151BD2AF851B8322251AF5824A
:10497000E4351BF58322251AF8E4351BF922251AA4
:10498000FAE4351BFB22251AFCE4351BFD22E473F7
:10499000251AC582C0E0E51B34FFC583C0E0E51AD7
:1049A000C3958224F810AF0885831B85821A80087E
:1049B00085831B85821AD2AFCEF0A3E520F0A378C1
:1049C0000AE608F0A3DEFAEFF0A3E58124FAF8E6A0
:1049D00008F0A3E608F0A3E608F0A30808E608F04C
:1049E000A3E608F0A315811581D0E0FED0E0F8150C
:1049F0008115811581E8C0E0EEC0E022251AC5824C
:104A0000C0E0E51B34FFC583C0E0E51AC3958224EE
:104A1000F910AF0885831B85821A800885831B8562
:104A2000821AD2AFCEF0A3E520F0A3780AE608F010
:104A3000A3DEFAEFF0A3E58124FBF8E608F0A3E695
:104A400008F0A30808E608F0A3E608F0A31581150E
:104A500081D0E0FED0E0F815811581E8C0E0EEC01D
:104A6000E022851B83851A82E0A3FEE0A3F520786F
:104A70000AE0A3F608DFFAE0A3FFE0A3C0E0E0A3AA
:104A8000C0E0E0A3C0E0E0A3C0E0E0A3C0E010AF5E
:104A90000885821A85831B800885821A85831BD22C
:104AA000AFD083D082024596851B83851A82E0A30E
:104AB000FEE0A3F520780AE0A3F608DFFAE0A3FF02
:104AC000E0A3C0E0E0A3C0E0E0A3C0E0E0A3C0E05A
:104AD00010AF0885821A85831B800885821A85831A
:104AE0001BD2AFD083D08222C0D0251AC582C0E0AD
:104AF000E51B34FFC583C0E0E51AC3958224F3109B
:104B0000AF0885831B85821A800885831B85821ADE
:104B1000D2AFC8F0A3E9F0A3EAF0A3EBF0A3790ABF
:104B2000E709F0A3D8FAECF0A3EDF0A3EEF0A3EFC1
:104B3000F0A3D0E0F0A3D0E0F0A3D0E0F0A3E52014
:104B4000F0A3E5F0F0A322851B83851A82E0C0E084
:104B5000A3E0F9A3E0FAA3E0FBA3780AE0F608A338
:104B6000DFFAE0FCA3E0FDA3E0FEA3E0FFA3E0C0CA
:104B7000E0A3E0C0E0A3E0F5D0A3E0F520A3E0A32C
:104B8000F5F010AF0885831B85821A800885831B8A
:104B900085821AD2AFD082D083D0E0F8D0E03274D0
:104BA000048006740280027401C0E0F404124951CA
:104BB000D0E0124826227404800474028000CCC025
:104BC000E0EDC0E0E51AC39CCCAD1B50011D10AF59
:104BD000068C1A8D1B80068C1A8D1BD2AF1248339F
:104BE000D0E0FDD0E0FC22D083D082E9C0E0E493A5
:104BF000A3C386F0C5F095F0F908E493A386F0C549
:104C0000F095F0700BE493A3C3994005E90480028A
:104C1000A3E475F002A42582F582E5F03583F583DF
:104C2000D0E0F9E493A3C0E0E493C0E022D083D0C5
:104C300082ECC0E0EDC0E0E493A3FCE493A3FDEDBF
:104C40004C600D124C79EC24FFFCED34FFFD80EF3D
:104C5000E493A3FCE493A3FDED4C600D124CB8EC7F
:104C600024FFFCED34FFFD80EFD0E0FDD0E0FCE45C
:104C700093A3C0E0E493C0E022C0E0C3E4939608AD
:104C80007401939618400FE49366700808740193BA
:104C9000661870007019A3A3C3E493960874019377
:104CA0009618A3A3400DD0E0D0E0D0E0024C69A359
:104CB000A3A3A3A3A3D0E022C0E0C0F088F0E493B4
:104CC0006670080874019366187000A8F0A3A370BA
:104CD0000BD0F0D0E0D0E0D0E0024C69A3A3D0F03C
:104CE000D0E022FF74F51249FCEAFEEBFFEE24341B
:104CF000F8EF3400F9880A890BEE2435F582EF3499
:104D000000F583E0F8EE2437F582EF3400F583E018
:104D1000F50CEC850CF0A4FCAAF0850CF0EDA42AAF
:104D2000FDE82CF8E43DF97A257B00124895EA85E8
:104D30000A82850B83F0F8740758F97401B90002F0
:104D40008004C333D9FCFAE8131313541FF8EE2878
:104D5000F8EF3400F9E8245DF582E93400F583E0EA
:104D60005A6008EE2434F582EF802CEE2434F5826C
:104D7000EF3400F583E0C0E0EE2436F582EF340036
:104D8000F583E0F5F0D0E084A8F0EE28F8EF3400E9
:104D9000F9E82438F582E93400F583E0F97F04026C
:104DA0004AA874F51249FCEAFEEBFFEE2434F582C2
:104DB000EF3400F583E0C0E0EE2435F582EF3400F7
:104DC000F583D0E0F08E828F83A3A3A3A3A3A3A334
:104DD000C082C0838E828F83A3A3A3A3A3E0F8A382
:104DE000E0F9D083D082E0C398F50AA3E099F50BEF
:104DF000EE247FF582EF3400F583E064017069EE04
:104E00002480F582EF3400F583E0F8A3E0F98E8288
:104E10008F83A3A3A3A3A3A3A3E0FCA3E0FD8E829F
:104E20008F83A3A3A3A3A3E0FAA3E0FBC3EA9CEBB5
:104E30009D5010C3EC98ED99402EC3EA98EB995021
:104E400027800EC3EA98EB994007C3EC98ED994090
:104E5000177CDD7D04EEFAEFFB126362EE247FF532
:104E600082EF3400F583E4F0EE2434F8EF3400F9F7
:104E7000E8FCE9FDEE2435F582EF3400F583E0F837
:104E8000EE2437F582EF3400F583E0F50CE50A8572
:104E90000CF0A4F50AAAF0850CF0E50BA42AF50B9A
:104EA000E8250AF8E4350BF97A257B00124895EAE3
:104EB0008C828D83F0F8740758F97401B900028070
:104EC00004C333D9FCFAE8131313541FF8EE28F87F
:104ED000EF3400F9E8245DF582E93400F583E05A07
:104EE0006008EE2434F582EF802CEE2434F582EF56
:104EF0003400F583E0C0E0EE2436F582EF3400F5AF
:104F000083E0F5F0D0E084A8F0EE28F8EF3400F963
:104F1000E82438F582E93400F583E0F9125B1F02DA
:104F20004D9DC082C083851A82851B83E0F8A3E073
:104F3000F9C3EA9CEB9D5010C3EC98ED99401BC35C
:104F4000EA98EB995014800EC3EA98EB994007C396
:104F5000EC98ED994004790180027900D083D082E9
:104F600022EAC39CFAEB9DFB2274EF1249FC9003EA
:104F7000A3E064086005E06407702A9061C8E060FF
:104F8000249003D1E0F4601DE0F875F003A4C8AAF2
:104F9000F02AF974D328FE740339FF8E828F83A31D
:104FA000A3A3E07003025099906060E0C0E0EE249B
:104FB00068F582EF3400F583D0E0F0750E46750F8A
:104FC00005750A00750B00E5D914F50CE5D95403F5
:104FD000F510601774036510605CE50C6010EE243A
:104FE00067F582EF3400F583E0700302507E900590
:104FF00041E06401602AEE2482F582EF3400F583FB
:10500000E06004780480027800850C0AE50AC39801
:10501000FA95E0FB12622A8A0A8B0BEA450B7005AF
:105020001265668074EE2482F582EF3400F583E029
:1050300070048A0E8B0FE50C6012850E82850F833B
:10504000F50DE5D9F0A3150DE50D70F6EE2482F50A
:1050500082EF3400F583E0604474FC250CF50C7895
:105060000E124BA3AC0CA910EEFAEFFB1263FE7408
:1050700002124936E97026AA0AAB0B126AAC793DD6
:105080008E828F83A3A3A3A3E0FA7B001260FEEEBF
:10509000FAEFFB12637A126410790080747403656E
:1050A000106056850C127513007812124BA3AC0ECB
:1050B000AD0FAA0AAB0B1263DA7402124936EE2462
:1050C00068F582EF3400F583E064807004747F80BB
:1050D00001E0F50E780E124BA7E510F50E780E12D2
:1050E0004BA7A90CAC0AAD0B9003D1E0FA7B0012E0
:1050F00060C2740212493680139003A3E064086012
:105100000BAC0EAD0FEEFAEFFB12646A126572790A
:10511000017F0A024AA874F51249FC74FC12492066
:10512000EAFEEBFF890AA2AFE433F50BC2AF806A57
:10513000EE2463F8EF3400F97A007B00A2AFE43389
:10514000F50CC2AF88828983E0FCA3E0FDEC4D60E2
:105150003A88828983E0FAA3E0FB8A828B83E0FCB1
:10516000A3E0FD88828983ECF0A3EDF08A828B8333
:10517000E4F0A3F088828983E0FCA3E0FDEC4D70AD
:105180000A88828983A3A3E4F0A3F0E50CA2E0924D
:10519000AF126AAC9004E4E004F0EE2463F582EF11
:1051A0003400F583E0F8A3E0F9E849603DEE2463BC
:1051B000F582EF3400F583E02402FAA3E03400FB2B
:1051C000EA2402F50CEB3400F50D780C124BA38A9F
:1051D000828B83E0FCA3E0F9EEFAEFFB12639E748E
:1051E00002124936E970030251309004E4E0606332
:1051F0009004E5E0F89004E4E0C398500C74026574
:105200000A70509004E6E0604A8E828F83A3A3A3C5
:10521000A3E0851A82851B83F0A3E4F09004E4E008
:10522000F8740212496CE8F0A3E4F09004E4E0F8AA
:105230009004E3E028F0740212496CAC82AD8385DF
:105240001A82851B83AA82AB8379011260CE9004F7
:10525000E4E4F0E50BA2E092AF7404124936024D8B
:105260009DFFFFFF8521878522C622C0E0C0D0E8D0
:10527000C0E0E9C0E0EAC0E0EBC0E0ECC0E0EDC0B7
:10528000E0EEC0E0C00AC00BC00CC00DC082C083FD
:10529000C0F0A2AFE433FEC2AF759B00906182E024
:1052A000A2E05012E591A2E0500C7591FE740165E8
:1052B000217003124F69E0A2E55051E591A2E5503B
:1052C0004B7591DF9003A3E064076005E06408700C
:1052D0002374016521703579019003D1E0FA75F0EE
:1052E00003A4CAA8F028FB74D32AFA74033BFB1268
:1052F00051168018E0640D70139003C5E004F0644B
:10530000287002E4F07A00E0F9126578906182E09A
:10531000A2E640030253B2E591A2E640030253B273
:105320007591BF9003A3E0640570081264A0126435
:10533000AC80031264A6752100126506E99003A4EF
:10534000F079001264FA1262D87A017B009003A20D
:10535000E0F91267CA907803E06442705590054501
:10536000E014F0704DC2AF12536A00782AD0E0F614
:1053700018D0E0F6E59F54077005750BFF800375A4
:105380000B7FC4C0E07829E6F50A08E6550BF50B5B
:10539000740B780A1248FED0E0250AF8906270E09B
:1053A000A2E740F8E8C333906272F0906270E0D2F6
:1053B000E0F0906181E0A2E35009E5E9A2E3500347
:1053C00075E9F7A3E0A2E75009E591A2E75003755C
:1053D000917FEEA2E092AFD0F0D083D082D00DD0FA
:1053E0000CD00BD00AD0E0FED0E0FDD0E0FCD0E045
:1053F000FBD0E0FAD0E0F9D0E0F8D0D0D0E032C075
:10540000E0C0D0C082C083906183E0A2E05009E593
:10541000BFA2E0500375BFFEE0A2E15009E5BFA2C4
:10542000E1500375BFFDE0A2E25009E5BFA2E250E2
:105430000375BFFBE0A2E35009E5BFA2E35003758B
:10544000BFF7E0A2E45009E5BFA2E4500375BFEF47
:10545000E0A2E55009E5BFA2E5500375BFDFE0A279
:10546000E65009E5BFA2E6500375BFBFD083D082E6
:105470008088C0E0C0D0E8C0E0E9C0E0EAC0E0EB6E
:10548000C0E0ECC0E0EDC0E0C0F0E5A7A2E6500F40
:10549000E5A1A2E6500953A7BF75A1BF1254D7E5F5
:1054A000A7A2E5500CE5A1A2E5500653A7DF75A120
:1054B000DFE5A7A2E15009E5A1A2E1500375A1FD36
:1054C000E5A7A2E2500CE5A1A2E2500653A7FB75A6
:1054D000A1FBD0F00253E874F81249FC7521019049
:1054E00003A3E06406701512642E8A828B83A3A343
:1054F000A3A3A3A3E0FAA3E0FB12648EA2AFE4335C
:10550000FED2AF9003A9E0640170187A207B00906E
:1055100003A2E0F91268547A207B009003A2E0F91C
:105520001267D0906182E0D2E6F0900542E06021FF
:1055300085C62280169003A8E064017008E5C65471
:10554000F84405F5C653BEFC12526474016521602F
:10555000E4EEA2E092AF7F01024AA8FF8E238F24DF
:10556000858228858327851A82851B83E0CEA3E068
:10557000CF852882852783EBC9EAC8EDCBECCA75B5
:10558000F010C3E833C8E933C9EA33CAEB33CBC3FD
:10559000EA9EF526EB9FF525B35004AB25AA26EC31
:1055A00033CCED33CDD5F0DAAE23AF242274E9123B
:1055B00049FC74F8124920851A82851B83ECF0A3FC
:1055C000EDF08A0A8B0B9003A3E024F7C3940550F7
:1055D00006750A0102574412642E8A0C8B0DAE0C1C
:1055E000AF0DEE4F7003025741AC0AAD0B740212BF
:1055F000496CAA82AB831264BE8E828F83A3A3758B
:105600000EFF750FFF7510FF751100780E1247B26F
:10561000740212496C7512FF7513FF7514FF75152E
:105620000078121247B2780E79121245D8502A78B3
:105630000E7912124777750A01750BC8750C007543
:105640000D00780A790E1245D85052850E0A850F42
:105650000B85100C85110D80507516017517C875D6
:10566000180075190085120A85130B85140C851511
:105670000D780A790E1247777816790A1245D840C4
:105680001C750A00750B00750C00750D01780A7900
:1056900012124777780A790E12473E800C750A017C
:1056A000750B00750C00750D007409780A12471F00
:1056B000750E19F50FF510F511780A790E12469747
:1056C0008E828F83A3A3A3A3A3A3E0F8A3E0F97A18
:1056D000D07B03124895880E890FE4F510F51178F8
:1056E0000A790E12473E740612496CE0F8A3E0F9FD
:1056F0007AD07B03124895E8FA8A0EE4F50F780A0F
:10570000790E1245D85007780A790E124777900320
:10571000A3E06408600AE064066005E06405702D9B
:10572000750E0D780E790A1245D84021750EF47564
:105730000FFF7510FF7511FF780A790E12473E8032
:105740000C750A00750B00750C00750D00851A822A
:10575000851B83E0F8A3E0F5838882780A1247E787
:1057600074081249367F10024AA874F71249FC12D5
:1057700064D0900540E064017010906245E4F0A3AD
:10578000F053F4F343FE0C5390F312647CE5C654DB
:10579000804449F5C6E59E547F644970F890618560
:1057A000740FF090053EE0F47002A3E0604E9005A7
:1057B0003FE0600814601B14602E8040750A01757C
:1057C0000B0090053EE0780A12490DE50AF452807C
:1057D000802A750A01750B0090053EE0780A12498F
:1057E0000DE50AF452908014750A01750B009005BE
:1057F0003EE0780A12490DE50AF452A079007F02D2
:10580000024AA874F71249FCE9FEEAFF74016E70BF
:105810000C7A807B009003A2E0F91267CA906BD8E3
:10582000E493F46008E493F91262CC800953C680D3
:10583000E59E547F70FA126482900540E064017026
:10584000031262E490053EE0F47002A3E0604B9026
:10585000053FE0600814601A14602C803D750A0151
:10586000750B0090053EE0780A12490DE50A42806A
:105870008028750A01750B0090053EE0780A1249F0
:105880000DE50A42908013750A01750B0090053EE4
:10589000E0780A12490DE50A42A01264D012642E83
:1058A0008A0A8B0BA80AA90BE8496015E5E170FC90
:1058B000E82414F582E93400F583E0F46003E0F5B0
:1058C000E174016F700A7A019003A2E0F912681E78
:1058D0000257FE74ED1249FC8A0A8B0B8C0C8D0D5D
:1058E000741312496C780E1247D8780A790E124553
:1058F000D87512017513C87514007515005012780B
:105900000A790E1247777812790A1245D850168014
:1059100010780E790A1247777812790E1245D8401E
:10592000047901800279007F0C024AA874ED1249C3
:10593000FC8A0A8B0B8C0C8D0D741312496C780E3B
:105940001247D8780E790A1245D84011780A790E94
:10595000124777AA0AAB0BAC0CAD0D802275120072
:105960007513007514007515017812790E124777BA
:105970007812790A12473EAA12AB13AC14AD158007
:10598000A68A828B83750AFF750BFF750CFF750D58
:1059900000780A1247C57F04024AA874F51249FC30
:1059A0008C828D83780A1247D88A828B83780A1278
:1059B000478BEA2404F8EB3400F98C828D83A3A38F
:1059C000A3A3E0FCA3E0FD88828983C3E09CF0A34D
:1059D000E09DF088828983C3E09420A3E0944E4048
:1059E000268A828B83750AFF750BFF750CFF750D78
:1059F000FF780A1247648A828B83A3A3A3A3E024BF
:105A000020F0A3E0344EF002598174F51249FCE90C
:105A1000FE9004F8E0FAA3E0FBEEC333F8E433F9B8
:105A200074F728F582748039F583E02AF50AA3E03B
:105A30003BF50B780A124BA37A407B427C0F7D002A
:105A400012555C74021249368A0A8B0B8C0C8D0D30
:105A50007410780A124706AA0AAB0B7F04024AA800
:105A600074F11249FC8A0E8B0F8C108D11740F1279
:105A7000496CE0FAA3E0FB741112496CE0F50AA34B
:105A8000E0F50B780A124BA3EA2401F50AEB340087
:105A9000F50BE4F50CF50D780E790A124617750A28
:105AA00071750B02780E790A124617AA0EAB0FAC6D
:105AB00010AD1112555C74021249368B0BEA450B7E
:105AC00060047A0180027A00EC2AFCED3400FD7457
:105AD0001312496CE0F8A3E0F9E8FEE9FFECF8EDF9
