:020000040000FA
:1008000083D9FFFF0000007C41414141FFFFFFFF12
:10081000FFFFFFFFFFFFFFFFFFFFFFFFFFFFFFFFE8
:10082000000102030405060708090A0BFFFFFFFF8A
:10083000020D7E021BFFFFFFFFFFFFFFFFFFFFFF19
:10084000FFFFFFFFFFFFFFFFFFFFFFFFFFFFFFFFB8
:10085000FFFFFFFFFFFFFFFFFFFFFF02235CFFFF24
:10086000FFFFFFFFFFFFFFFFFFFFFF0223BBFFFFB5
:10087000FFFFFF022333FFFFFFFFFFFFFFFFFFFF2D
:10088000FFFFFF021C72FFFFFFFFFFFFFFFFFFFFE5
:10089000FFFFFFFFFFFFFFFFFFFFFF022380FFFFC0
:1008A000FFFFFFFFFFFFFFFFFFFFFFFFFFFFFFFF58
:1008B000FFFFFF021A6B01FF0000B40000280028B0
:1008C00000283075A000A000A000A00000080008CB
:1008D000E001F000100010001000100010001000E7
:1008E00050005000500010001000D0070000000021
:1008F00000000F0001000500307507001000010026
:1009000081FF00000000FF2E264C263426FF020245
:100910000208025000A0000000E803024382010028
:1009200000FC81020782010000580C0215820100C0
:1009300000B402020782010000590C021382010078
:1009400000CA020207820100005A0C020D82010057
:1009500000CC020207820100005B0C022B8208001F
:1009600000CD020207820100005C0C025A810100E6
:10097000005D0CFF0100FF20024382010000F081B6
:10098000020782010000C10C02FF8100000000008C
:100990000219820300001A03042C042C042C042CDA
:1009A000042C042C042C042C042C042C042C042CC7
:1009B000042C982EB02E922EFFFF424D23002000D3
:1009C00064001264024382010000F981020782017F
:1009D00000000C0D020B820100000D0D02198203B4
:1009E00000005808020202020202020202010D0087
:1009F00000001001024382010000ED810207820124
:100A000000002E0D0211820100005E080207820123
:100A100000002F0D021782010000158102078201DC
:100A20000000300D021B820100006A810207820172
:100A30000000310D021F8201000045810207820182
:100A40000000320D0221820100002F810207820185
:100A50000000330D021D820100003A81020782016D
:100A60000000340D022982010000C58102078201C5
:100A70000000350D02278201000007810207820174
:100A80000000360D022582010000370D01E8030544
:100A90003F100A1C024382010000F6810207820116
:100AA0000000DD0D105080020000FF0A02198203D1
:100AB0000000010B02238201000022810207820153
:100AC0000000DD0D106080020000000B021982039F
:100AD0000000070B0223820100005081FFFFFF008E
:100AE0000130750302010600000000000000000054
:100AF00000000000000000000000000000000000F6
:100B0000000000FFFF0600800CE80301C027090079
:100B10000C09504D322E3554455354455205122878
:100B2000002800020A000201060302F0FF0F18501D
:100B30004D322E355F544553544552007E330000EC
:100B40008A330A4368617261637465726973746998
:100B50006320310002436861726163746572697376
:100B60007469632032000A4368617261637465725C
:100B70006973746963203300104368617261637440
:100B8000657269737469632034000A436861726135
:100B90006374657269737469632035000A43686120
:100BA000726163746572697374696320360002430D
:100BB0006861726163746572697374696320370078
:100BC0000A43686172616374657269737469632052
:100BD0003800024368617261637465726973746995
:100BE000632039000A4F41440000024382010000A3
:100BF000F3810207820100008C0E022F82030000A5
:100C0000C90B0223820100008D0E02078201000041
:100C10009E0E023182010000CA0B022382010000F5
:100C20009F0E020782010000B00E02338203000013
:100C3000DC0B022382010000B10E020782010000DA
:100C4000C20E023582000000DD0B02198203000093
:100C5000F10B022382010000C30E02078201000093
:100C6000D40E023782030000F70B0223820100003A
:100C7000D50E020782010000E60E02398203000051
:100C8000F80B022382010000E70E02078201000038
:100C9000F80E023B82030000F90B022382010000E0
:100CA000F90E0207820100000A0F023D82030000D4
:100CB000FA0B0223820100000B0F020782010000E1
:100CC0001C0F023F82010000FF0B02238201000083
:100CD0001D0F0207820100002E0F02418209000051
:100CE000000C0223820100002F0FE5C754F84405D1
:100CF000F5C779012200000080FB120CEAB900035D
:100D0000020D68E479217808B800028004F709D858
:100D1000FCE479297802B800028004F709D8FCE4E1
:100D20009002807882790A8002F0A3D8FCD9FA7800
:100D30001C9008B67A01BA00028007E493A3F60873
:100D4000DAF97A017B0C9008B7783479058015E4DC
:100D500093A3AD82AE838A828B83F0A3AA82AB83F6
:100D60008D828E83D8E9D9E775828D7583B5740736
:100D7000120D907582F575830C7400120D9075D06C
:100D80000075813F751A80751B02759F00020CFA71
:100D9000C09FF59FE473D09F22D083D082C09FE490
:100DA00093C0E0740193C0E0740293F59F22E7665C
:100DB00070100809E766700A0809E76670040809F8
:100DC000E76622E066701008A3E066700A08A3E0F8
:100DD00066700408A3E06622C3E7960809E7960850
:100DE00009E7960809E79622C3E09608A3E096086B
:100DF000A3E09608A3E09622C00AC3E096F50A088D
:100E0000A3E096420A08A3E096420A08A3E09645AA
:100E10000A7001D3D00A22080808EAC0E0EBC0E05B
:100E200086F0E7A4FA180986F0E7A42AFA180986DA
:100E3000F0E7A42AFA180986F0E7A42AFA1986F03E
:100E4000E7A4FBE5F02AFA190886F0E7A42BFBE5F6
:100E5000F03AFA190886F0E7A42BFBE5F03AFA1805
:100E6000180986F0E7A4C5F02BFBE43AFA1908E765
:100E7000C5F0C6A426F6E5F03BFBE43AFA1886F086
:100E8000E7A4F6E5F00826F6E43B08F6E43A08F6AF
:100E9000D0E0FBD0E0FA22E4CFC0E0E4CEC0E0E452
:100EA000CDC0E0E4CCC0E075F020E626F608E633DD
:100EB000F608E633F608E633F6181818EC33FCEDBE
:100EC00033FDEE33FEEF33FFC3EC9709ED9709EEE8
:100ED0009709EF97191919400FFFEC97FC09ED9747
:100EE000FD09EE97FE191906D5F0BFECF709EDF7ED
:100EF00009EEF709EFF7191919D0E0FCD0E0FDD0A1
:100F0000E0FED0E0FF226016080808C6C313C6182A
:100F1000C613C618C613C618C613C6D5E0EA227093
:100F200009080808226016181818C6C333C608C670
:100F300033C608C633C608C633C6D5E0EA22E6275C
:100F4000F60809E637F60809E637F60809E637F63F
:100F500022E026F608A3E036F608A3E036F608A35A
:100F6000E036F622E026F008A3E036F008A3E036EB
:100F7000F008A3E036F022C3E697F60809E697F6F4
:100F80000809E697F60809E697F622C3E096F00806
:100F9000A3E096F008A3E096F008A3E096F022E61E
:100FA00057F60809E657F60809E657F60809E6571E
:100FB000F622E056F608A3E056F608A3E056F60837
:100FC000A3E056F622E056F008A3E056F008A3E0AE
:100FD00056F008A3E056F022E0F608A3E0F608A3D6
:100FE000E0F608A3E0F622E6F008A3E6F008A3E6A0
:100FF000F008A3E6F022E0FAA3E0FBA3E0FCA3E004
:10100000FD22EAF0A3EBF0A3ECF0A3EDF022E0F870
:10101000A3E0F9A3E0FAA3E0FB22E8F0A3E9F0A340
:10102000EAF0A3EBF022CAC0E0E6F0A308DAFAD0B7
:10103000E0FA22CAC0E0E0A3C582CCC582C583CD58
:10104000C583F0A3C582CCC582C583CDC583DAE64E
:10105000D0E0CA22C3E498F8E499F91210958026EA
:10106000C3E49AFAE49BFBE920E7E9121095E498BF
:10107000F8E499F922C3E498F8E499F9121095E498
:1010800098F8E499F9C3E49AFAE49BFB22EB20E791
:10109000CFE920E7E0B90010BB0008E88AF084F847
:1010A000AAF022E4FBC8FA22EB70227B10C833C8F6
:1010B000C933C9335007C39AC3DBF280069A500183
:1010C0002ADBEAC833F4C8C933F4C9FA2275F00838
:1010D000E4C833C8C933C933C99AC99B5004C92A63
:1010E000C93BD5F0ECFBC833F4C8E4C9FA22600D63
:1010F00008C6A2E713C618C613C6D5E0F322600CD3
:1011000008C6C313C618C613C6D5E0F4227004225D
:10111000600D18C6C333C608C633C6D5E0F418221E
:10112000251A10AF08F51A400C151B8008F51A4057
:1011300002151BD2AF2200C0D0251A10AF08F51A35
:10114000500C051B8008F51A5002051BD2AFD0D0F9
:1011500022251AF58210AF08F51A400C151B8008DD
:10116000F51A4002151BD2AF851B8322251AF58282
:10117000E4351BF58322251AF8E4351BF922251ADC
:10118000FAE4351BFB22251AFCE4351BFD22E4732F
:10119000251AC582C0E0E51B34FFC583C0E0E51A0F
:1011A000C3958224F810AF0885831B85821A8008B6
:1011B00085831B85821AD2AFCEF0A3E520F0A378F9
:1011C0000AE608F0A3DEFAEFF0A3E58124FAF8E6D8
:1011D00008F0A3E608F0A3E608F0A30808E608F084
:1011E000A3E608F0A315811581D0E0FED0E0F81544
:1011F0008115811581E8C0E0EEC0E022251AC58284
:10120000C0E0E51B34FFC583C0E0E51AC395822426
:10121000F910AF0885831B85821A800885831B859A
:10122000821AD2AFCEF0A3E520F0A3780AE608F048
:10123000A3DEFAEFF0A3E58124FBF8E608F0A3E6CD
:1012400008F0A30808E608F0A3E608F0A315811546
:1012500081D0E0FED0E0F815811581E8C0E0EEC055
:10126000E022851B83851A82E0A3FEE0A3F52078A7
:101270000AE0A3F608DFFAE0A3FFE0A3C0E0E0A3E2
:10128000C0E0E0A3C0E0E0A3C0E0E0A3C0E010AF96
:101290000885821A85831B800885821A85831BD264
:1012A000AFD083D082020D96851B83851A82E0A37E
:1012B000FEE0A3F520780AE0A3F608DFFAE0A3FF3A
:1012C000E0A3C0E0E0A3C0E0E0A3C0E0E0A3C0E092
:1012D00010AF0885821A85831B800885821A858352
:1012E0001BD2AFD083D08222C0D0251AC582C0E0E5
:1012F000E51B34FFC583C0E0E51AC3958224F310D3
:10130000AF0885831B85821A800885831B85821A16
:10131000D2AFC8F0A3E9F0A3EAF0A3EBF0A3790AF7
:10132000E709F0A3D8FAECF0A3EDF0A3EEF0A3EFF9
:10133000F0A3D0E0F0A3D0E0F0A3D0E0F0A3E5204C
:10134000F0A3E5F0F0A322851B83851A82E0C0E0BC
:10135000A3E0F9A3E0FAA3E0FBA3780AE0F608A370
:10136000DFFAE0FCA3E0FDA3E0FEA3E0FFA3E0C002
:10137000E0A3E0C0E0A3E0F5D0A3E0F520A3E0A364
:10138000F5F010AF0885831B85821A800885831BC2
:1013900085821AD2AFD082D083D0E0F8D0E0327408
:1013A000048006740280027401C0E0F4041211513A
:1013B000D0E0121026227404800474028000CCC095
:1013C000E0EDC0E0E51AC39CCCAD1B50011D10AF91
:1013D000068C1A8D1B80068C1A8D1BD2AF1210330F
:1013E000D0E0FDD0E0FC22D083D082E9C0E0E493DD
:1013F000A3C386F0C5F095F0F908E493A386F0C581
:10140000F095F0700BE493A3C3994005E9048002C2
:10141000A3E475F002A42582F582E5F03583F58317
:10142000D0E0F9E493A3C0E0E493C0E022D083D0FD
:1014300082ECC0E0EDC0E0E493A3FCE493A3FDEDF7
:101440004C600D121479EC24FFFCED34FFFD80EFAD
:10145000E493A3FCE493A3FDED4C600D1214B8ECEF
:1014600024FFFCED34FFFD80EFD0E0FDD0E0FCE494
:1014700093A3C0E0E493C0E022C0E0C3E4939608E5
:101480007401939618400FE49366700808740193F2
:10149000661870007019A3A3C3E4939608740193AF
:1014A0009618A3A3400DD0E0D0E0D0E0021469A3C9
:1014B000A3A3A3A3A3D0E022C0E0C0F088F0E493EC
:1014C0006670080874019366187000A8F0A3A370F2
:1014D0000BD0F0D0E0D0E0D0E0021469A3A3D0F0AC
:1014E000D0E022FF74F51211FCEAFEEBFFEE24348B
:1014F000F8EF3400F9880A890BEE2435F582EF34D1
:1015000000F583E0F8EE2437F582EF3400F583E050
:10151000F50CEC850CF0A4FCAAF0850CF0EDA42AE7
:10152000FDE82CF8E43DF97A257B00121095EA8558
:101530000A82850B83F0F8740758F97401B9000228
:101540008004C333D9FCFAE8131313541FF8EE28B0
:10155000F8EF3400F9E8245DF582E93400F583E022
:101560005A6008EE2434F582EF802CEE2434F582A4
:10157000EF3400F583E0C0E0EE2436F582EF34006E
:10158000F583E0F5F0D0E084A8F0EE28F8EF340021
:10159000F9E82438F582E93400F583E0F97F0402A4
:1015A00012A874F51211FCEAFEEBFFEE2434F5826A
:1015B000EF3400F583E0C0E0EE2435F582EF34002F
:1015C000F583D0E0F08E828F83A3A3A3A3A3A3A36C
:1015D000C082C0838E828F83A3A3A3A3A3E0F8A3BA
:1015E000E0F9D083D082E0C398F50AA3E099F50B27
:1015F000EE247FF582EF3400F583E064017069EE3C
:101600002480F582EF3400F583E0F8A3E0F98E82C0
:101610008F83A3A3A3A3A3A3A3E0FCA3E0FD8E82D7
:101620008F83A3A3A3A3A3E0FAA3E0FBC3EA9CEBED
:101630009D5010C3EC98ED99402EC3EA98EB995059
:1016400027800EC3EA98EB994007C3EC98ED9940C8
:10165000177CDD7D04EEFAEFFB122B62EE247FF5A2
:1016600082EF3400F583E4F0EE2434F8EF3400F92F
:10167000E8FCE9FDEE2435F582EF3400F583E0F86F
:10168000EE2437F582EF3400F583E0F50CE50A85AA
:101690000CF0A4F50AAAF0850CF0E50BA42AF50BD2
:1016A000E8250AF8E4350BF97A257B00121095EA53
:1016B0008C828D83F0F8740758F97401B9000280A8
:1016C00004C333D9FCFAE8131313541FF8EE28F8B7
:1016D000EF3400F9E8245DF582E93400F583E05A3F
:1016E0006008EE2434F582EF802CEE2434F582EF8E
:1016F0003400F583E0C0E0EE2436F582EF3400F5E7
:1017000083E0F5F0D0E084A8F0EE28F8EF3400F99B
:10171000E82438F582E93400F583E0F912231F024A
:10172000159DC082C083851A82851B83E0F8A3E0E3
:10173000F9C3EA9CEB9D5010C3EC98ED99401BC394
:10174000EA98EB995014800EC3EA98EB994007C3CE
:10175000EC98ED994004790180027900D083D08221
:1017600022EAC39CFAEB9DFB2274EF1211FC90035A
:10177000A3E064086005E06407702A9061C8E06037
:10178000249003D1E0F4601DE0F875F003A4C8AA2A
:10179000F02AF974D328FE740339FF8E828F83A355
:1017A000A3A3E07003021899906060E0C0E0EE240B
:1017B00068F582EF3400F583D0E0F0750E46750FC2
:1017C00005750A00750B00E5D914F50CE5D954032D
:1017D000F510601774036510605CE50C6010EE2472
:1017E00067F582EF3400F583E0700302187E900500
:1017F00041E06401602AEE2482F582EF3400F58333
:10180000E06004780480027800850C0AE50AC39839
:10181000FA95E0FB122A2A8A0A8B0BEA450B70051F
:10182000122D668074EE2482F582EF3400F583E099
:1018300070048A0E8B0FE50C6012850E82850F8373
:10184000F50DE5D9F0A3150DE50D70F6EE2482F542
:1018500082EF3400F583E0604474FC250CF50C78CD
:101860000E1213A3AC0CA910EEFAEFFB122BFE74B0
:1018700002121136E97026AA0AAB0B1232B2793D78
:101880008E828F83A3A3A3A3E0FA7B001228FEEE2F
:10189000FAEFFB122B7A122C107900807474036516
:1018A000106056850C1275130078121213A3AC0E3B
:1018B000AD0FAA0AAB0B122BDA7402121136EE240A
:1018C00068F582EF3400F583E064807004747F80F3
:1018D00001E0F50E780E1213A7E510F50E780E1242
:1018E00013A7A90CAC0AAD0B9003D1E0FA7B001250
:1018F00028C2740212113680139003A3E0640860BA
:101900000BAC0EAD0FEEFAEFFB122C6A122D7279B2
:10191000017F0A0212A874F51211FC74FC12112046
:10192000EAFEEBFF890AA2AFE433F50BC2AF806A8F
:10193000EE2463F8EF3400F97A007B00A2AFE433C1
:10194000F50CC2AF88828983E0FCA3E0FDEC4D601A
:101950003A88828983E0FAA3E0FB8A828B83E0FCE9
:10196000A3E0FD88828983ECF0A3EDF08A828B836B
:10197000E4F0A3F088828983E0FCA3E0FDEC4D70E5
:101980000A88828983A3A3E4F0A3F0E50CA2E09285
:10199000AF1232B29004E4E004F0EE2463F582EF7B
:1019A0003400F583E0F8A3E0F9E849603DEE2463F4
:1019B000F582EF3400F583E02402FAA3E03400FB63
:1019C000EA2402F50CEB3400F50D780C1213A38A0F
:1019D000828B83E0FCA3E0F9EEFAEFFB122B9E74FE
:1019E00002121136E970030219309004E4E06063DA
:1019F0009004E5E0F89004E4E0C398500C740265AC
:101A00000A70509004E6E0604A8E828F83A3A3A3FD
:101A1000A3E0851A82851B83F0A3E4F09004E4E040
:101A2000F8740212116CE8F0A3E4F09004E4E0F81A
:101A30009004E3E028F0740212116CAC82AD83854F
:101A40001A82851B83AA82AB8379011228CE900467
:101A5000E4E4F0E50BA2E092AF7404121136021533
:101A60009DFFFFFF8521878522C622C0E0C0D0E808
:101A7000C0E0E9C0E0EAC0E0EBC0E0ECC0E0EDC0EF
:101A8000E0EEC0E0C00AC00BC00CC00DC082C08335
:101A9000C0F0A2AFE433FEC2AF759B00906182E05C
:101AA000A2E05012E591A2E0500C7591FE74016520
:101AB000217003121769E0A2E55051E591A2E550AB
:101AC0004B7591DF9003A3E064076005E064087044
:101AD0002374016521703579019003D1E0FA75F026
:101AE00003A4CAA8F028FB74D32AFA74033BFB12A0
:101AF00019168018E0640D70139003C5E004F064BB
:101B0000287002E4F07A00E0F9122D78906182E00A
:101B1000A2E64003021BB2E591A2E64003021BB21B
:101B20007591BF9003A3E064057008122CA0122CDD
:101B3000AC8003122CA6752100122D06E99003A497
:101B4000F07900122CFA122AD87A017B009003A2B5
:101B5000E0F9122FCA907803E06442705590054571
:101B6000E014F0704DC2AF121B6A00782AD0E0F684
:101B700018D0E0F6E59F54077005750BFF800375DC
:101B80000B7FC4C0E07829E6F50A08E6550BF50B93
:101B9000740B780A1210FED0E0250AF8906270E00B
:101BA000A2E740F8E8C333906272F0906270E0D22E
:101BB000E0F0906181E0A2E35009E5E9A2E350037F
:101BC00075E9F7A3E0A2E75009E591A2E750037594
:101BD000917FEEA2E092AFD0F0D083D082D00DD032
:101BE0000CD00BD00AD0E0FED0E0FDD0E0FCD0E07D
:101BF000FBD0E0FAD0E0F9D0E0F8D0D0D0E032C0AD
:101C0000E0C0D0C082C083906183E0A2E05009E5CB
:101C1000BFA2E0500375BFFEE0A2E15009E5BFA2FC
:101C2000E1500375BFFDE0A2E25009E5BFA2E2501A
:101C30000375BFFBE0A2E35009E5BFA2E3500375C3
:101C4000BFF7E0A2E45009E5BFA2E4500375BFEF7F
:101C5000E0A2E55009E5BFA2E5500375BFDFE0A2B1
:101C6000E65009E5BFA2E6500375BFBFD083D0821E
:101C70008088C0E0C0D0E8C0E0E9C0E0EAC0E0EBA6
:101C8000C0E0ECC0E0EDC0E0C0F0E5A7A2E6500F78
:101C9000E5A1A2E6500953A7BF75A1BF121CD7E565
:101CA000A7A2E5500CE5A1A2E5500653A7DF75A158
:101CB000DFE5A7A2E15009E5A1A2E1500375A1FD6E
:101CC000E5A7A2E2500CE5A1A2E2500653A7FB75DE
:101CD000A1FBD0F0021BE874F81211FC75210190F1
:101CE00003A3E064067015122C2E8A828B83A3A3B3
:101CF000A3A3A3A3E0FAA3E0FB122C8EA2AFE433CC
:101D0000FED2AF9003A9E0640170187A207B0090A6
:101D100003A2E0F91230547A207B009003A2E0F98C
:101D2000122FD0906182E0D2E6F0900542E060216F
:101D300085C62280169003A8E064017008E5C654A9
:101D4000F84405F5C653BEFC121A6474016521609F
:101D5000E4EEA2E092AF7F010212A8FF8E238F244F
:101D6000858228858327851A82851B83E0CEA3E0A0
:101D7000CF852882852783EBC9EAC8EDCBECCA75ED
:101D8000F010C3E833C8E933C9EA33CAEB33CBC335
:101D9000EA9EF526EB9FF525B35004AB25AA26EC69
:101DA00033CCED33CDD5F0DAAE23AF242274E91273
:101DB00011FC74F8121120851A82851B83ECF0A3A4
:101DC000EDF08A0A8B0B9003A3E024F7C39405502F
:101DD00006750A01021F44122C2E8A0C8B0DAE0CC4
:101DE000AF0DEE4F7003021F41AC0AAD0B7402122F
:101DF000116CAA82AB83122CBE8E828F83A3A37533
:101E00000EFF750FFF7510FF751100780E120FB2DF
:101E1000740212116C7512FF7513FF7514FF75159E
:101E2000007812120FB2780E7912120DD8502A785B
:101E30000E7912120F77750A01750BC8750C0075B3
:101E40000D00780A790E120DD85052850E0A850FB2
:101E50000B85100C85110D80507516017517C8750E
:101E6000180075190085120A85130B85140C851549
:101E70000D780A790E120F777816790A120DD8406C
:101E80001C750A00750B00750C00750D01780A7938
:101E900012120F77780A790E120F3E800C750A0124
:101EA000750B00750C00750D007409780A120F1F70
:101EB000750E19F50FF510F511780A790E120E97B7
:101EC0008E828F83A3A3A3A3A3A3E0F8A3E0F97A50
:101ED000D07B03121095880E890FE4F510F5117868
:101EE0000A790E120F3E740612116CE0F8A3E0F9A5
:101EF0007AD07B03121095E8FA8A0EE4F50F780A7F
:101F0000790E120DD85007780A790E120F779003C8
:101F1000A3E06408600AE064066005E06405702DD3
:101F2000750E0D780E790A120DD84021750EF475D4
:101F30000FFF7510FF7511FF780A790E120F3E80A2
:101F40000C750A00750B00750C00750D00851A8262
:101F5000851B83E0F8A3E0F5838882780A120FE7F7
:101F600074081211367F100212A874F71211FC12B5
:101F70002CD0900540E064017010906245E4F0A31D
:101F8000F053F4F343FE0C5390F3122C7CE5C6544B
:101F9000804449F5C6E59E547F644970F890618598
:101FA000740FF090053EE0F47002A3E0604E9005DF
:101FB0003FE0600814601B14602E8040750A0175B4
:101FC0000B0090053EE0780A12110DE50AF45280EC
:101FD000802A750A01750B0090053EE0780A1211FF
:101FE0000DE50AF452908014750A01750B009005F6
:101FF0003EE0780A12110DE50AF452A079007F0242
:102000000212A874F71211FCE9FEEAFF74016E7067
:102010000C7A807B009003A2E0F9122FCA9033DC87
:10202000E493F46008E493F9122ACC800953C68043
:10203000E59E547F70FA122C82900540E064017096
:1020400003122AE490053EE0F47002A3E0604B9096
:10205000053FE0600814601A14602C803D750A0189
:10206000750B0090053EE0780A12110DE50A4280DA
:102070008028750A01750B0090053EE0780A121160
:102080000DE50A42908013750A01750B0090053E1C
:10209000E0780A12110DE50A42A0122CD0122C2E63
:1020A0008A0A8B0BA80AA90BE8496015E5E170FCC8
:1020B000E82414F582E93400F583E0F46003E0F5E8
:1020C000E174016F700A7A019003A2E0F912301EE8
:1020D000021FFE74ED1211FC8A0A8B0B8C0C8D0D05
:1020E000741312116C780E120FD8780A790E120D33
:1020F000D87512017513C875140075150050127843
:102100000A790E120F777812790A120DD8501680BC
:1021100010780E790A120F777812790E120DD840C6
:10212000047901800279007F0C0212A874ED12116B
:10213000FC8A0A8B0B8C0C8D0D741312116C780EAB
:10214000120FD8780E790A120DD84011780A790E3C
:10215000120F77AA0AAB0BAC0CAD0D8022751200E2
:102160007513007514007515017812790E120F772A
:102170007812790A120F3EAA12AB13AC14AD158077
:10218000A68A828B83750AFF750BFF750CFF750D90
:1021900000780A120FC57F040212A874F51211FC10
:1021A0008C828D83780A120FD88A828B83780A12E8
:1021B0000F8BEA2404F8EB3400F98C828D83A3A3FF
:1021C000A3A3E0FCA3E0FD88828983C3E09CF0A385
:1021D000E09DF088828983C3E09420A3E0944E4080
:1021E000268A828B83750AFF750BFF750CFF750DB0
:1021F000FF780A120F648A828B83A3A3A3A3E0242F
:1022000020F0A3E0344EF002218174F51211FCE9B4
:10221000FE9004F8E0FAA3E0FBEEC333F8E433F9F0
:1022200074F728F582748039F583E02AF50AA3E073
:102230003BF50B780A1213A37A407B427C0F7D009A
:10224000121D5C74021211368A0A8B0B8C0C8D0DD8
:102250007410780A120F06AA0AAB0B7F040212A8A8
:1022600074F11211FC8A0E8B0F8C108D11740F12E9
:10227000116CE0FAA3E0FB741112116CE0F50AA3F3
:10228000E0F50B780A1213A3EA2401F50AEB3400F7
:10229000F50BE4F50CF50D780E790A120E17750A98
:1022A00071750B02780E790A120E17AA0EAB0FACDD
:1022B00010AD11121D5C74021211368B0BEA450B26
:1022C00060047A0180027A00EC2AFCED3400FD748F
:1022D0001312116CE0F8A3E0F9E8FEE9FFECF8ED69
:1022E000F97A717B02121095880A890B8E828F838E
:1022F000780A120FE7ECF8EDF97A717B021210956B
:102300008A0A8B0B7405780A12110D8E828F83A3B3
:10231000A3A3A3E50AF0A3E50BF07F080212A8C06F
:1023200082C083E9906000F0D083D08222C2AF02E5
:10233000000022C0E074F21212E8A2AFE433FED231
:10234000AFC2C0E5D1A2E4500653D1EF12326A7594
:102350001C00EEA2E092AF7F01021347C0E0C0D0A4
:10236000E8C0E0E9C0E0E5A8D2AFC2C7751C00A292
:10237000E7A2E792AFD0E0F9D0E0F8D0D0D0E032D9
:10238000C0E074F21212E8A2AFE433FED2AF758956
:1023900000C2C59009757401F0751C00FA900949D6
:1023A000E0F912301E900AF9E0F8A3E0687002D25A
:1023B00085EEA2E092AF7F01021347C0E0C0D0E8F3
:1023C000C0E0E9C0E0C00AC00BC082C083A2AFE495
:1023D00033F9D2AF900AF9E0F8A3E0687008539A95
:1023E000FBA374018025C2E9900AF9E0F50A7401A3
:1023F000250AF07479250AF582E4340AF583E0F5BC
:10240000C1900AF9E0C394804002E4F0E9A2E092AE
:10241000AFD083D082D00BD00AD0E0F9D0E0F8D092
:10242000D0D0E032120D991AB507120D992CB507CC
:10243000120D99C0A807120D99D7A807120D990877
:10244000A907120D9943A907120D996DA907120D3D
:102450009997A907120D99AEA907120D99C5A90759
:10246000120D99DCA907120D9905AA07120D9918EA
:10247000AA07120D992EAA07120D9941AA07120D4B
:102480009968AA07120D9959F505120D995DF6057F
:10249000120D9995F605120D99B8F605120D99C30E
:1024A000F605120D99E6F605120D99F5F705120DD0
:1024B00099CAF805120D9945F905120D99CDF9053E
:1024C000120D9908FA05120D993FFA05120D99CDD2
:1024D000FA05120D99A6FB05120D9906FC05120DC1
:1024E0009911FC05120D9990FC05120D9993FC05AC
:1024F000120D9996FC05120D9925FD05120D9928CE
:10250000FD05120D9958FD05120D9982FD05120D5C
:102510009970FE05120D9922FF05120D996BF006B8
:10252000120D9993F006120D99C1F006120D99F84B
:10253000F006120D9956F106120D99A1F106120D31
:1025400099ECF106120D992CF206120D9972F20611
:10255000120D99A0F206120D995DF306120D9967FE
:10256000F306120D9974F306120D99A7F306120DD6
:102570009973F406120D997FF406120D9997F406DB
:10258000120D99A1F406120D99B6B107120D99C456
:10259000B107120D99DCB107120D99F4B107120DB4
:1025A00099CDC905120D9979CA05120D99F4CA057C
:1025B000120D9915CC05120D9951CC05120D99FAF1
:1025C000CC05120D99E1CD05120D9945CF05120DDF
:1025D000999CCF05120D991DD005120D990DD105AD
:1025E000120D995AD105120D99E0D105120D9912CB
:1025F000D205120D9926D405120D9968D405120D35
:102600009986D405120D9909D505120D99DDD505C8
:10261000120D99A5D605120D99B4CD06120D998704
:10262000CE06120D9930CF06120D9983CF06120DEA
:102630009933D006120D99BFD006120D99ABD10671
:10264000120D99DAD106120D99EDD206120D9935B7
:10265000D306120D990AD406120D9946D406120D0E
:102660009962D406120D9996B407120D99888C07B9
:10267000120D999E8C07120D99C48C07120D99E0CA
:102680008D07120D99EA8D07120D991F8F07120DF4
:1026900099179007120D994DE606120D997DE706E0
:1026A000120D99B0E706120D99FAE706120D99C1BD
:1026B000E906120D997CAA05120D99E6AA05120DDC
:1026C0009945AC05120D9955AC05120D9982AC05D2
:1026D000120D99D9AC05120D9982AD05120D99898B
:1026E000AE05120D9953AF05120D99B3B005120D39
:1026F00099F6B005120D999BB105120D99E8B10537
:10270000120D990EB205120D991CB405120D9921E6
:10271000B405120D9926B605120D9973B605120D62
:1027200099E6B605120D9919B705120D99BBB705B3
:10273000120D9964B805120D999CB805120D999F58
:10274000B805120D99E7B805120D9927B905120DB4
:10275000997EB905120D998E9C07120D99A69C07BA
:10276000120D99EE9C07120D99049D07120D994BBD
:102770009D07120D995F9E07120D99EC9E07120D91
:1027800099379F07120D9900B004120D990CB004EF
:10279000120D9947B004120D998CB004120D994C8A
:1027A000B104120D99D2B104120D9937B204120D71
:1027B0009963B204120D999CB204120D99DAB40413
:1027C000120D99BEB604120D99A4B804120D99E722
:1027D000B904120D9935BC04120D9947BD04120DB0
:1027E0009992BE04120D99A2BF04120D99BFBF04A5
:1027F000120D99FABF04120D991CC004120D997F95
:10280000C004120D9940C504120D99D5C504120DCE
:102810009926C604120D994DC604120D999FC6043F
:10282000120D99BDC604120D9917C704120D990017
:10283000C804120D9976C904120D99FAC904120D33
:102840009928F506120D9932F506120D9975F506BF
:10285000120D9990F506120D9920F606120D994861
:10286000F606120D9985F606120D99BCF606120DA4
:1028700099E5F606120D995AF706120D996FF706AB
:10288000120D9984F706120D99B5F706120D99C924
:10289000F706120D99EEF706120D9928F806120D9B
:1028A0009954F806120D998CF806120D990BF90639
:1028B000120D9954F906120D997EF906120D99A977
:1028C000F906120D999FAE07120D99CEA806120DAA
:1028D00099FCA806120D994AAA06120D992AAB0670
:1028E000120D9949AB06120D99C6AB06120D990946
:1028F000AC06120D995FAD06120D9920AE06120DB1
:1029000099A7B006120D9948B106120D993EB2066C
:10291000120D993BB306120D9995B406120D99202C
:10292000B506120D9901AC07120D996AAC07120D8C
:1029300099BEAC07120D99E5AC07120D9916AD07BB
:10294000120D99008007120D996D8007120D99B430
:102950008007120D99CC8107120D99C88207120DBC
:1029600099AB8307120D99A1B506120D99E3B5062F
:10297000120D99B5B606120D998EB706120D9988EB
:10298000B806120D996AB906120D99D3B906120D3F
:102990009989BA06120D99FDBA06120D9969BB06FE
:1029A000120D9992BB06120D990CBC06120D99A539
:1029B000BC06120D990ABD06120D991FBD06120D17
:1029C0009965BD06120D997EBD06120D99E3BD06EF
:1029D000120D99E6BD06120D99959907120D99BD34
:1029E0009907120D99FB9907120D99B99A07120DC3
:1029F00099209B07120D993C9B07120D99649B0728
:102A0000120D99949B07120D99A39B07120D992003
:102A10009C07120D99469C07120D996BBA05120D71
:102A20009949BC05120D997BBE05120D99B7BE05DB
:102A3000120D99E4BE05120D99CEBF05120D99191C
:102A4000C005120D9964C005120D9976C005120DCE
:102A500099B6C005120D99EBC005120D9939C10543
:102A6000120D9968C105120D998BC105120D99D8E7
:102A7000C105120D995DC205120D9977C405120D9D
:102A800099B6C605120D99F7C605120D9999C80594
:102A9000120D99DAC805120D994DC905120D99A3A9
:102AA000C905120D99B99B06120D99B79C06120D16
:102AB0009950A306120D9971A506120D993CA7060F
:102AC000120D99A4A806120D9961CA04120D99104D
:102AD000CB04120D993DCB04120D9983CB04120D3A
:102AE00099C3CC04120D9959CE04120D99D3CE047A
:102AF000120D99EECE04120D9969CF04120D99C3EF
:102B0000D004120D9923D204120D9929D304120D69
:102B1000998AD404120D99A3D404120D9901D504F5
:102B2000120D99EFD504120D9922D604120D999227
:102B3000D604120D990CD704120D9956D704120D14
:102B40009920D804120D99F5D804120D99D4D904FE
:102B5000120D995FDA04120D99CDDA04120D994124
:102B6000DB04120D996CDB04120D992BDC04120DA1
:102B70009990DD04120D99ADDD04120D99CCDD04A0
:102B8000120D99BDDE04120D99E2DE04120D990CAE
:102B9000DF04120D9987DF04120D99E1DF04120D95
:102BA000994AE104120D99F8E104120D9939E204F1
:102BB000120D99E58D06120D99338E06120D993F6F
:102BC0008E06120D991D8F06120D994E8F06120D4D
:102BD000997F8F06120D99FF8F06120D9937900677
:102BE000120D99899006120D99C69006120D99E35F
:102BF0009206120D99099506120D99F49606120D7A
:102C000099DE9806120D99FDFF04120D996996053B
:102C1000120D99999605120D99729D05120D99F74D
:102C20009E05120D99F4A405120D99DCA505120D4F
:102C30009919A605120D993CA605120D996DA605C8
:102C4000120D9976A605120D9980A605120D996EA2
:102C5000A705120D9964A805120D9969E204120DD9
:102C60009968E604120D996EE604120D99A9ED0417
:102C7000120D99C2F204120D99BA8807120D9950DB
:102C80008907120D99668907120D99DC8907120DC3
:102C900099508A07120D998E8A07120D99028B0797
:102CA000120D997B8B07120D99848B07120D999049
:102CB0008B07120D99A58B07120D99E38B07120D47
:102CC00099F98B07120D99588C07120D996D84078D
:102CD000120D997A8407120D99948407120D99D3D5
:102CE0008407120D99118507120D99768507120D2B
:102CF000998B8507120D99968507120D99A3850763
:102D0000120D99BA8507120D99C88507120D99D32E
:102D10008507120D99DF8507120D99EE8507120DB3
:102D200099F98507120D991C8607120D99C386071C
:102D3000120D99D38607120D99ED8607120D990A87
:102D40008707120D99268707120D994B8707120DD9
:102D500099568707120D996B8707120D997F870780
:102D6000120D99E08707120D99E68707120D99EC6D
:102D70008707120D99F28707120D990A8807120D1D
:102D8000993D8807120D992FE705120D99B3E705B4
:102D9000120D9962E805120D99C1E905120D99E22B
:102DA000EB05120D99CEEC05120D9903ED05120DF0
:102DB0009925ED05120D99D4ED05120D99CCEF056D
:102DC000120D99F5EF05120D9987F005120D99B9BD
:102DD000F005120D99C6F005120D991DF105120DA1
:102DE0009943F105120D99B0F305120D99B3F4054D
:102DF000120D990BF505120D99BED805120D99C843
:102E0000D905120D99AFDA05120D99B9DA05120D2F
:102E100099DBDA05120D99E7DA05120D9980DC05C8
:102E2000120D99AFDC05120D99CBDD05120D992419
:102E3000DE05120D998ADF05120D9969E005120D64
:102E400099C5E005120D9932E105120D996DE10564
:102E5000120D99ACE105120D9965E405120D997FEB
:102E6000E405120D990BE505120D9919E505120DF2
:102E70009972E505120D9980E505120D99F3E505A6
:102E8000120D9957E605120D99A1E605120D99E06C
:102E90003300120D99023400120D99283600120DDC
:102EA000993D3900120D99553A00120D99083B00D1
:102EB000120D99EA3B00120D9958FE06120D997DEC
:102EC000FE06120D99EFFE06120D993AC606120D76
:102ED0009943C606120D994CC606120D9923C706D2
:102EE000120D99D4C806120D990AC906120D9944FB
:102EF000C906120D997AC906120D99B4C906120DA8
:102F000099E8C906120D9914CA06120D995DCA06F0
:102F1000120D9997CA06120D99E0CA06120D99383A
:102F2000CB06120D996DCB06120D99C8CB06120D6A
:102F30009902CC06120D9953CC06120D9989CC0634
:102F4000120D99C3CC06120D99F1CC06120D9914ED
:102F5000CD06120D9953B307120D997FB307120DC9
:102F600099DAB307120D99E4B307120D99F4B30778
:102F7000120D99DAE006120D99E4E006120D99227D
:102F8000E106120D996BE106120D99A5E106120DED
:102F900099FFE106120D9920E206120D9929E20629
:102FA000120D997AE206120D99A3E206120D99AD5F
:102FB000E206120D9919E306120D99A7E306120D08
:102FC00099F5E306120D992BE406120D99B2E40669
:102FD000120D99F2E406120D992AE506120D993C9C
:102FE000E506120D995BE506120D9964E506120DD2
:102FF0009923E606120D99BCB007120D99C1A607D8
:10300000120D99F7A607120D992DA707120D998693
:10301000A807120D99FEB307120D9914B407120DEB
:10302000991EB407120D9968B407120D9993FF0504
:10303000120D99D1F906120D99EAF906120D998E21
:10304000FA06120D99CEFA06120D99E7FA06120D3C
:10305000991BFB06120D9968FB06120D999CFB0645
:10306000120D99DEFB06120D99DEFD06120D994B2D
:10307000FE06120D990E3F00120D99373F00120DFA
:1030800099603F00120D99A23F00120D99219007FF
:10309000120D99919007120D999D9007120D992A82
:1030A0009107120D99619F07120D99919F07120DBB
:1030B00099A49F07120D99DA9F07120D99F89F079F
:1030C000120D9943A007120D99D9A007120D995618
:1030D000A107120D99929607120D99B79607120D36
:1030E00099E39607120D992EB607120D994682059F
:1030F000120D99AA8405120D995C8605120D994E40
:103100008705120D99D38705120D99518805120D67
:10311000997E8805120D99A28B05120D991C8C05BC
:10312000120D990B8D05120D99458D05120D99857E
:103130008D05120D993F8F05120D99928F05120D75
:1031400099DB8F05120D99499005120D997B900519
:10315000120D99939005120D99A89105120D99B829
:103160009105120D99E89205120D990A9305120D19
:1031700099409305120D99E59405120D9924950532
:10318000120D99449605120D99E73F00120D99E52D
:10319000B507120D9924B607120D99BFB607120D87
:1031A00099CAB607120D99D6B607120D998DB207B6
:1031B000120D999DB207120D99B2B207120D9946E0
:1031C000B307120D99B8AF07120D993DB007120D54
:1031D00099A3B007120D995CAD07120D9990AD0738
:1031E000120D99B9AD07120D9930AE07120D99FA6B
:1031F000FF04120D9974EB06120D998BEB06120D5C
:103200009904EC06120D99DDEC06120D999BEF0660
:10321000120D9900F006120D9957F006120D99F84B
:103220003F00120D9992A407120D9917A607120DCF
:103230009978A607120D99BEA607120D99879307D4
:10324000120D99229407120D99E49407120D9956C4
:103250009507120D997E9507120D99879507120D06
:1032600099F69507120D99859607120D998F960775
:10327000120D99D7D406120D9914D506120D993056
:10328000D506120D99F4D506120D99DDD606120D4C
:10329000993CD806120D99A3D806120D9986D90625
:1032A000120D990DDA06120D9916DB06120D997A98
:1032B000AA07120D99CFAA07120D993DAB07120D5F
:1032C00099ADAB07120D9927A207120D9951A207CC
:1032D000120D9926A307120D991AA407120D990A27
:1032E000BE06120D99C7BE06120D9902BF06120D39
:1032F000992ABF06120D998CBF06120D99D8BF06E8
:10330000120D9931C006120D99C2C006120D99C452
:10331000C106120D9981C306120D9903C406120D40
:103320009968C406120D997FC406120D998FC506BF
:10333000120D99CDC506120D99008006120D998ABD
:103340008306120D99128506120D99698506120DD4
:1033500099888506120D99068606120D99A487068E
:10336000120D99888806120D99728C06120D9942D9
:103370008D06120D9978F704120D9926FA04120D94
:1033800099ABFC04120D99E3FD04120D9924FE047F
:10339000120D998FFF04120D99BCFF04120D995A5A
:1033A000DB06120D999FDB06120D99BCDB06120D90
:1033B00099F6DC06120D9987DD06120D9980DE065E
:1033C000120D9940E006120D9979E006120D9975DB
:1033D000B607120D99A1B607FFFFFFFFFFFFFFFF22
:1033E000C082C083900282E0A2E250067AFC7B0C8D
:1033F00080047A007B00122E027900D083D08202F2
:103400000D9674F212119074E01211208A0A8B0B3F
:10341000ECFEEDFF7C107D007900851A82851B8310
:10342000AA82AB83122F8E742E12116CE0F50CA3BE
:10343000E0F50D900734123935700302350B12395F
:1034400021650A7004A3E0650B600302350B900749
:103450003512391A600302350B123926F8740668E2
:10346000704B741012116C85820E85830F780E12CA
:1034700013A3900734E0244BF50EA3E03400F50FBE
:10348000780E1213A312360F122DC07404121136C7
:10349000E97078122E80E9F50C750D00780C121386
:1034A000A3741212116CAC82AD8302357F90073485
:1034B000E0F9A3E0C9245BF582E9123EED604C120D
:1034C0003BB1123EA774116860030235A3E0650C9E
:1034D0007004A3E0650D702E750E08750F00780E50
:1034E0001213A31235F5122F887402121136E964F3
:1034F000017013122E80E9F50C750D00780C121373
:10350000A312360280797932122E7AAA0AAB0B12F4
:1035100029EE8A0E8B0FA80EA90FE8497003023519
:10352000E2E82421F50EE93400F50F850E82123E03
:10353000EF70030235E2123BB11238FA650C7004E9
:10354000A3E0650D60030235E2750C08750D007887
:103550000C1213A31235F5122F887402121136E9DA
:103560006401707E850E82850F83E0FCA3E0FDEC94
:10357000241AF582ED1238FAF50C780C1213A374A4
:103580000212116CAA82AB83122F767402121136CA
:10359000AA0AAB0B851A82851B83AC82AD831228E5
:1035A000988046E0650C7004A3E0650D6003023569
:1035B0000B750E08750F00780E1213A31235F51255
:1035C0002F887402121136E96401600302350B1270
:1035D0003602EC241AF582ED1238FAF50C750D005E
:1035E0008098AA0AAB0B12289E790174201211361A
:1035F0007F06021262EA2412FCEB3400FDEEFAEFC1
:10360000FB22123A4C245B123BC7FCA3E0FD229044
:103610000734E0242BFCA3E03400FD900734E024C1
:1036200007FAA3E03400FB2274F2121190890FEC28
:10363000FEEDFF750E008A828B83A385820C858345
:103640000D8E828F83A385820A85830B90073412A7
:103650003935705F7401650F7054EE2402FAEF344F
:1036600000FB122DCC8E828F83A3A3A3A3A374028D
:103670001213BE8E828F83A3A3A3A3E0F50E780E50
:103680001213A7E9F50E780E1213A7850A82850B8F
:1036900083E0FD8E828F83E0FC850C82850D83E0C4
:1036A000FAA3E0FB790012260474041211367900A3
:1036B0000238F4123921F8A3E0F9850C82850D83D4
:1036C000E0687003A3E069600579080238F41239F4
:1036D000146401700579070238F4E50F1460312491
:1036E000FE603714700302377E1470030238E91449
:1036F00070030237871470030237E814700302372F
:10370000F514700302383F14700302387C0237E26C
:10371000EEFAEFFB122E9E0237EF750A00750C10C1
:10372000750D00780C1213A3900734E0243B123A75
:10373000EC122F767402121136900734E024011235
:1037400038FEE0640470047403802C900734E02495
:103750001BF50CA3E03400F50D780C1213A3123600
:103760000F122E2C7402121136122E44E9600375CA
:103770000A08123AF37405F0850A0E0238F2EEFADE
:10378000EFFB122EA48068123926640C7054900747
:1037900035E0C8245D12392E700F7A1B7B00123081
:1037A00006123909245D123EAC123EE56034750AFA
:1037B00010750B00780A1213A3EEFCEFFD122F76A2
:1037C0007402121136122E80123A30245D123EA479
:1037D000123A33241A123EA4E9F0123AF3740D029D
:1037E0003879750E070238F2EEFAEFFB122EAAE9CD
:1037F000F50E0238F2123926640E70E6900735E0B5
:10380000C8245F12392E700F7A167B001230061210
:103810003909245F123EAC123A30245F123EEA604E
:1038200017750A10750B00780A1213A3EEFCEFFD52
:10383000122F767402121136123AF3740F803A1274
:103840003926640F709C750C06750D00780C1213E8
:10385000A3AC0AAD0B123A30245F1238F7241012D1
:103860003AEC122F767402121136123BB8542060D3
:1038700074123BD0606F123ECFF08076900735E037
:10388000C8246112392E70237A147B0012300690FE
:103890000734E024611238FEEAF0A3EBF088828955
:1038A000831239357005750E088047123A3024614D
:1038B000123EEA6030750A10750B00780A1213A3E5
:1038C000EEFCEFFD122F767402121136123A3024FC
:1038D00061123EA4123A332410123EA474FFF0A3E6
:1038E000F0A3F0A3F0790080068E828F83E0F912B6
:1038F0002E7AA90E0235F0F582E8123BCA22F8A30F
:10390000E03400F988828983228A0A900734E0FA39
:10391000A3E0CA22900734E0F8A3E0F5838882E0B0
:1039200022123EDFE022900735123B01E022F582B1
:10393000E83400F583E0F8A3E0F9E8492274F612D0
:1039400011907E00122E50E9F86003023A0A122EFE
:103950003E900734E0F8A3123ED5C824121238F77F
:10396000A2E0501D123A302418123EA4123A1DE073
:1039700054036401700B123A3024171238F7D2E066
:10398000F0123A37F8740268601D740368600574B9
:10399000046870177901123F0112260A123A401288
:1039A0003AF37404F0806F790280EB74016860056B
:1039B0007405687061123AF37402F0123A376401C8
:1039C00070147C107D007900900734E02407123ACF
:1039D000EC122F8E8024750A108E0B780A1213A316
:1039E000900734123A1DA3A3A3E024021236151245
:1039F0002F767402121136123A407910900734E093
:103A0000242B123AEC122DC6800C74186870050E27
:103A10000E0E80027E08EEF97F02021262123A2137
:103A200022123A2522E0F8A3E0F5838882A3A3229C
:103A3000900734123A4F22123A4C241A123BC722F2
:103A4000123A4C2417123BC7D2E2F022900734E01E
:103A5000F8A3E0C82274F612119074F01211207EBF
:103A600000750A108E0B780A1213A3EAFCEBFD9086
:103A70000734E0244B123AEC122F767402121136FE
:103A8000851A82851B8385820A85830B780A121327
:103A9000A3900734E0244B123615122E2C74021218
:103AA0001136750A108E0B780A1213A3900734E0B2
:103AB000243BFCA3E03400FD740212116CAA82AB1B
:103AC00083122F887402121136E964017012122ECB
:103AD0004AE960047E08800A123AF37406F0800214
:103AE0007E04EEF97410121136023A18FAA3E0348B
:103AF00000FB22123AF722900734E0F8A3123B01B0
:103B000022E0F5838882A32274F6121190EAFCEB7E
:103B1000FD123EE57003023BAC123EC4640D60032F
:103B2000023BAC8C828D83E0F8A3E0F9123BB1122A
:103B30003EA7E8F0A3E9F0750A08750B00780A12B1
:103B400013A3EC2402FCED3400FDEA2412FAEB345A
:103B500000FB122F767402121136123BB8F8900750
:103B600034E02401123AECE854106024900734E069
:103B7000FCA3E0CC2418F582EC123EA7123EBAA3B7
:103B8000A3A3A3E0541060088A828B83740E801074
:103B9000E85420600E123BD060098A828B83741037
:103BA000F080057900122E7A790080027907023AB6
:103BB00018EA2410F582EB22900734123BE3123A04
:103BC0004F2413123BC722F582E83400F583E0222C
:103BD000123A4C2418F582E83400F583123BE3E0F6
:103BE000542022123A25A3A3A32274F0121190129A
:103BF00039146003023E9F900735123ED5F9123901
:103C00000B2418F582EA1238FAFAA3E0FB90073485
:103C1000123EBAE0F50CEA2405FEEB3400FFE8247E
:103C200013F50EE93400F50F7406650C7067850E08
:103C300082850F83E0F8A2E0500E8E828F83E0A28F
:103C4000E05005750C078067E8540260178E828F7C
:103C500083E05402600E750C0912257A123EF912A7
:103C60002E628020E854047003023DD58E828F833B
:103C7000E054047003023DD5750C0B122556123E1C
:103C8000F9122E6E7407650C6003023D86123AF33A
:103C90007408023E1EE50C24F96014147003023D02
:103CA0002A1460B5147003023D581460CE80D512FA
:103CB0003EC912392E700F7A1B7B00123006123962
:103CC00009245B123EAC123EC91238F7F50AA3E094
:103CD000F50BE50A450B60AC7C107D007900AA0A63
:103CE000AB0B122F8E122E80AA0AAB0B122DC6120E
:103CF0002F94E50A2410F582E50B123EA7EAF0A303
:103D0000EBF07908E50A2412FAE50B3400FB122DDA
:103D1000C6122E80E50A241AF582E50B123EA7E9A9
:103D2000F0123EFD122E56023C84123EC9123EEAAB
:103D3000605AEA2412F50AEB3400F50B780A1213E4
:103D4000A3123BB11238FAFCA3E0FD123F01122E80
:103D50005C74021211368034750B0112256EE9F580
:103D60000A7401650A7005750B008003750A00A9C5
:103D70000B1225748A0C8B0DAC0CAD0DA90A123FE9
:103D800001122E6880347408650C701B850E8285C4
:103D90000F83E0540260238E828F83E05402601A06
:103DA000123AF3740980777409650C7007123AF3BC
:103DB000740A806A740A650C701B850E82850F83F5
:103DC000E0540460108E828F83E054046007123A3E
:103DD000F3740B8049850E82850F83E0F8540860E8
:103DE000108E828F83E054086007123AF3740C80BF
:103DF0002DE8541060108E828F83E05410600712FB
:103E00003AF3740E8018E85420600E8E828F83E09F
:103E100054206005123ECF8005123AF37412F0125E
:103E20003EC4F87407686014740868600F74096809
:103E3000600A740A686005740B687063123F0112AF
:103E400029EE8A0A8B0BA80AA90BE849602FE824FF
:103E50000BF582E91238FAF8A3E0F9880E890FE42D
:103E6000F510F511E9C313F9E813F8880A890BE492
:103E7000F50CF50D780E790A120F3E800C750EF4D4
:103E8000750F01751000751100780E12139F7A02DC
:103E90007B0090073AE0F912304874041211367F23
:103EA00008021262F582E83400F58322F582EA34D2
:103EB00000F583E50AF0A3EBF022E0FCA3E0F58334
:103EC0008C82A322123AF7E022123A4C245B22128F
:103ED0003AF7741022123EDFA3A3E0F8A3E0221207
:103EE0003B01A3A322123A4C245DF582E83400F58D
:103EF00083E0FAA3E0FBEA4B228A0A8B0BAC0AAD03
:103F00000B900734123A21A3E0FAA3E0FB2274F7E6
:103F1000121190E9700E79FF122FD67A00790F12E4
:103F200031F8800E90075D7401F07A847B30F912CD
:103F300031EC7F01021262C082C08374FE12112034
:103F40007902AA1AAB1B122A5A851A82851B83E0B2
:103F5000FAA3E0FB7402121136D083D082020D96D0
:103F600074F6121190E9FEEAFF900D03E0F4602B65
:103F70007A047B00122F9AEA4B601C8A828B83742E
:103F8000C0F0EFA3A3F0EE8A828B83A3A3A3F090EB
:103F90000D03E0F9122FA67900800279017F020259
:103FA000126274F7121190E9FE90075DE0640170EF
:103FB000047A008010EEA2E55004D2F08002C2F034
:103FC000A2F0E433FA12307EEE90075D6008E06400
:103FD000017011E48005E0700B7401F07A847B308D
:103FE000F91231EC023F32C082C083900920748004
:103FF000F0D083D082020D96851C87C2AF020D9649
:020000040002F8
:10300000C082C083E9900CC0F002B28F74F7121135
:1030100090E99002E2F07C1A7D037AFF7BFF122890
:10302000149002E374FFF0A3F0A3E4F0A3F0790599
:1030300012279C9002E2E0F91226BE7A327B281217
:1030400029DC7F0102126274F41211908A0A8B0B40
:10305000EB548060309002E2E0F9122FB28A0C8BC0
:103060000DAE0CAF0DEE4F60138E828F83E064B017
:1030700070031227B4EEFAEFFB122FA0AA0AE50B99
:103080006480FB80047A007B0002B25E74F212114D
:103090009074FC121120EAFEEBFFEE4F60387402D0
:1030A00012116CEEF0A3EF12B4C3ECF0A3ED12B466
:1030B000C3AA82AB831226B8E9F50A7073741212A0
:1030C000116C12C077E50C450D60658E828F8312FE
:1030D000B13AEE4F7005750A0280557A067B0012F0
:1030E00030068A0E8B0FA80EA90FE8497005750AE5
:1030F00013803D88828983E412B144A3A3EEF0A338
:10310000EF12C510E50CF0A3E50DF09002E812B146
:10311000CC9002E86017E0FCA3E08003EAFCEBFD42
:103120008C828D8312B1CC70F38C828D8312BF9C04
:10313000A90A740412113602C712A3A3A3A3E0FEC6
:10314000A3E0FF22F0A3F0888289832274F2121197
:1031500090890CE975F017A4FEAFF09002E7E4F057
:103160009002E512B1CC600A12300C9002E5E4F056
:10317000A3F0EEFAEFFB1230068A0A8B0BEA450B3E
:10318000602FEEFCEFFD7900122F8E9002E5E50A2C
:10319000F0A3E50BF07B00800812B1B6E4F0A3F0D9
:1031A0000BEBC3950C40F2E50C9002E7F079008040
:1031B00002791302C712EB75F017A4F8A9F0900278
:1031C000E5E028FAA3E0398A82F5832212BD32EACB
:1031D0004B2274F4121190750A00750B00740C12D6
:1031E000116C12C4E4FEE9FF800CE50A2401F50A23
:1031F000E50B3400F50BC3E50A9CE50B9D503285C9
:103200000A0C850B0D7403780C12110DEA250CF8CD
:10321000EB350DF988828983A3A3A3A3A3A312C0CE
:1032200077EE650C7003EF650D70BFE8FAE9FB807F
:10323000047A007B00802774F41211907900EAA2CE
:10324000E0501B750A8A750B81780A1213A37C045F
:103250007D007AC27B0C12279674021211367F040D
:10326000021262C082C0839002E812B296601C888B
:10327000828983A3A3E06A7003A3E06B88828983B9
:1032800070E8A3A3A3A312BD2E80047A007B00D014
:1032900083D082020D9612C7E5E8492274EE12111E
:1032A0009074FC121120EAFEEBFF851A82851B83C5
:1032B000E4F0A3F0EE240212BF80EE240512B4B1B4
:1032C000EE2404F510EF12B896E024FE603924FCD9
:1032D000604624FE605224FE605E24FE700302B34A
:1032E000B624FE700302B42E24FE700302B43D2403
:1032F000FE700302B44C24FC700302B45B24FE7025
:103300000302B46A02B4A79003017417F0A3E41295
:10331000B4CB12243602B4A7851A82851B83AC82F3
:10332000AD831227BA02B477851A82851B83AC82DB
:10333000AD831227C002B477850E0A850F0B740285
:1033400012116CAC82AD83850A82850B8312BD2E6F
:103350001226DC8A0E8B0FAC0EAD0FEC4D6042E4F2
:10336000F50EF50F780E1213A3750E01750F037885
:103370000E1213A3750E02750F03780E1213A374A9
:103380000812116C1213BA791612BD281227FC7498
:1033900008121136E9F50E700B12BD2412244E806E
:1033A0000F750E01850A82850B8312B4B912BF9C7A
:1033B000850E0A02B47A740212116CAC82AD838558
:1033C0000E82850F8312BD2E1226DC8A128B13AC5F
:1033D00012AD13EC4D6043850E82850F83A3A312BB
:1033E00013BA75120175130378121213A375120222
:1033F00075130378121213A3740812116C1213BA06
:10340000791612BD281227FC7408121136E9F50B43
:10341000700B12BD24122454800F750B01850E828F
:10342000850F8312B4B912BF9C850B0A804C851A94
:1034300082851B83AC82AD831227C6803A851A82AF
:10344000851B83AC82AD831227CC802B851A8285A5
:103450001B83AC82AD831227D2801C851A82851B08
:1034600083AC82AD831227D8800D851A82851B8399
:10347000AC82AD831227DEE9F50AE50A60298E8267
:103480008F83A3E06414601F851082851183E09010
:10349000030112B4C312C7E190030212BF9CE50AF4
:1034A000A312B4CB122430EEFAEFFB12275A02BE5D
:1034B00088F50EEF3400F50F2212C7E5851A8285D4
:1034C0001B8322F0851A82851B8322F07C017D03F9
:1034D000850C82850D8312BD322274EE1211907418
:1034E000FC1211208A0C8B0D8C108D11EA2405F52D
:1034F0000AEB3400F50B7C157D0079007A017B0323
:10350000122F8EE50A2402F50EE50B12B4B4851ACB
:1035100082851B8385821285831378121213A385FB
:103520000A82850B83A3A3A3A312B9DE1213A3E51A
:103530000A2405F512E50B3400F51378121213A3D3
:10354000850E82850F8312BD381226D6740612119D
:10355000368A128B13AE12AF13E50C2402F50CE57C
:103560000D12BF83EE4F700302B6A08017740212D3
:10357000116C12BD2E88828983EAF0A3EBF09003D0
:1035800001E004F0900301E0C39405400302B6A0FB
:10359000E4F512F51378121213A37512EA751302EB
:1035A00078121213A37512EB75130278121213A37B
:1035B000740612116C1213BA7910EEFCEFFD12BDF5
:1035C000281227FC7408121136E9705E850A82857C
:1035D0000B83A3A3A3A3A3A3A3E0F89002EAE0684C
:1035E000704812B9DE1213A37CEB7D02E50A2408B1
:1035F000FAE50B3400FB122F887402121136E960D1
:10360000298E828F83A3A3A3A312BD2E900301E072
:10361000F5127402781212110D74022512F58274DB
:10362000033513F583EAF0A3EBF0740212116C85F5
:10363000821285831378121213A3740212116C1272
:1036400013BA850E82850F8312C7F61226E2740420
:103650001211368A128B13AE12AF13900301E0F5EC
:10366000127513007402781212110D74012512F8EC
:1036700074033513F988828983A312B1CC700302D5
:10368000B564E82403F8E93400F9EE4F600302B5AD
:103690006D8882898374FFF0A3F0900301E004F049
:1036A000900301E0600A12BD241224427900800BCD
:1036B000850A82850B8312BF93790A02BE8874EA59
:1036C00012119074FE1211208C148D15EA2405F548
:1036D0000EEB12C96012B13E750A00750B00EA24A8
:1036E00002F512EB3400F513851A82851B8385825F
:1036F0000C85830D780C1213A3850E82850F83A38E
:10370000A3A3A312B8A01213A3E50E2405F50CE59C
:103710000F12BF83780C1213A3850E82850F8312BC
:10372000C7F41226D674061211368A0C8B0DEA45A0
:103730000D700302B851EA2404F510EB12B896128A
:10374000B13E8A828B83A3A3A3E0F98512828513FD
:103750008312BD2E1226C4E9F50B600302B851E4B2
:10376000F516F51778161213A37516EA7517027871
:10377000161213A37516EB75170278161213A3749D
:103780000612116C1213BA7913AC0CAD0D851282AE
:1037900085138312BD2E1227FC7408121136E9F529
:1037A0000B600302B8519002EAE0F8E50A7009E004
:1037B0002402900302F08017900302E0FCE8240248
:1037C000FAE43400FBEA6C7001EB600302B8558543
:1037D0000A82AA8212B9D5941412B9CD50738510F9
:1037E00082851183E0C0E074032A12B88DD0E0F026
:1037F000050A851082851183A3E0C0E0850A0C7458
:1038000003250C12B88DD0E0F0050A9002EA12B838
:10381000A01213A37CEB7D02850A0C7403250CFA1D
:1038200074033400FB122F7674021211369002EAF0
:10383000E0250AF50A74FF6E700374FF6F6012EEE4
:1038400024010EEF3400FFE50AC39414500302B6BE
:10385000E8E50A601312BC1985128285138312BD34
:103860002E12244879008014E50B7003750B0A852D
:103870001482851583EEF0A3EFF0A90B74021211E8
:10388000367F0E021262850A0E7403250EF58274CD
:10389000033400F583223400F511851082F583226C
:1038A00012C5232274EE12119074FE1211208C1096
:1038B0008D11EA2405F50EEB12B4B4750D009003DA
:1038C00001E4F0F50CEA2402F50AEB3400F50B8074
:1038D00049900301E0FA9002EAE0F812B9D5941792
:1038E00012B9CD400D900301E0F87416C398900210
:1038F000EAF012B9DE1213A37CEB7D0274022AFAFD
:1039000074033400FB122F7674021211369002EA0F
:10391000E0F8900301E028F0050CE50E2416F5828E
:10392000E50F12B891E0F8E50CC398400302B9B670
:10393000900301E0C39416507DE50CC333F8E433E3
:10394000F9E50E28FEE50F39FF851A82851B83AC49
:1039500082AD838E828F8312BD2E1226DC8A128B5B
:1039600013AC12AD13EC4D7005750D018043E4F5F9
:1039700012F51378121213A37512EA751302781256
:103980001213A37512EB75130278121213A37406A7
:1039900012116C1213BA7916850A82850B8312BD37
:1039A0002E1227FC7408121136E9F50D700302B8C7
:1039B000D112BF8F80107C017D03850A82850B8325
:1039C00012BD2E12245AA90D740202BE8AE9940077
:1039D000C365D03322EA28F8E43400F9E822E0F5A0
:1039E0001275130078122274EA12119074FC1211ED
:1039F000208A0E8B0F8C148D15EA2405F50CEB1222
:103A0000BF83750A00750B00E50C2402F512E50D65
:103A10003400F513740212116C85821085831178BD
:103A2000101213A3850C82850D83A3A3A3A312C434
:103A3000CF1213A3E50C2405F510E50D3400F511A4
:103A400078101213A385128285138312BF8912BDC9
:103A5000281226D674061211368A108B11AE10AFBA
:103A600011E50E2402F510E50F3400F511804088B1
:103A700082898374FFF0050A12B88674FFF0050A84
:103A80009002EAE0F50E750F00780E1213A37CEB9E
:103A90007D02850A0E7403250EFA74033400FB12AE
:103AA0002F7674021211369002EAE0250AF50AEE2A
:103AB0004F60718E828F83A3A3A3E0F98510828566
:103AC000118312BD2E1226C4E9F50BEE240412B4A4
:103AD000B1E97044E4F516F51778161213A37516BC
:103AE000EA75170278161213A37516EB751702788C
:103AF000161213A3740812116C1213BA7911EEFC8A
:103B0000EFFD85108285118312BD2E1227FC7408EB
:103B1000121136E9F50B6027850E82850F8312BCE2
:103B20000F12BF9CE50A700302BBF512BC19851089
:103B30008285118312BD2E122460790002BC0A8591
:103B40000A82AA82EA9002EA7009E0240490030241
:103B5000F08022E0F8900302E0F516E82404FCE48B
:103B60003400FDEC65167001ED70C012B9D59412E9
:103B700012B9CD50B6850E82850F83E0C0E0740384
:103B80002A12B88DD0E0F0050A850E82850F83A336
:103B9000E0C0E012B886D0E012BC2B85820E85838F
:103BA0000F780E1213A3740412116C1213BA85123B
:103BB0008285138312C7F61226E274041211368A24
:103BC0000E8B0FAE0EAF0F850A0E7403250EF87420
:103BD000033400F9EE4F700302BA6F851A82851B19
:103BE00083E08882898312BC2BA3E0C0E012B886F0
:103BF000D0E002BA7DE50B7003750B0A850C828557
:103C00000D8312BC0F12BF9CA90B740402B87E1264
:103C1000C7E585148285158322900302E0F5F0E55F
:103C20000A84900301F07C017D0322F0050A851AC5
:103C300082851B832274EC12119074FE1211208A6B
:103C40000A8B0B8C108D11EA2405FEEB3400FF85E6
:103C50001A82851B83AC82AD838E828F8312BD2E28
:103C60001226DC8A0C8B0DEE241812B4B1EA450D35
:103C7000700302BCFF12BE715032851A82851B830D
:103C800012BD2E1227F08A128B13EA4513606B794E
:103C900012AC0CAD0D850A82850B8312BD2E8512E8
:103CA0008285138312118EE9F50C7058E4F50CF53A
:103CB0000D780C1213A38E828F83A3A3E0F50C78EA
:103CC0000C1213A3EE240312BF80780C1213A38EE0
:103CD000828F8312BD381228027406121136E9F55C
:103CE0000C7021850E82850F83E0701F850A828506
:103CF0000B8312BD2E1224668011750C0E8009757F
:103D00000C018004E50C600312BF8F850E82850FC5
:103D100083E0600479008002A90C74021211367FDE
:103D20000C0212627C017D03850C82850D8312BD1D
:103D30003222E0FAA3E0FB22E0FCA3E0FD850A8248
:103D4000850B8312BD322274EE12119074FE121193
:103D5000208A0A8B0B8C0E8D0FEA2405FEEB3400B3
:103D6000FF751000851A82851B83AC82AD838E821D
:103D70008F8312BD2E1226DC8A0C8B0DEA450D7046
:103D80000302BE5D12BE715035851A82851B8312F7
:103D9000BD2E1227F08A108B11EA4511605E791250
:103DA000AC0CAD0D850A82850B8312BD2E85108269
:103DB00085118312118EE9F510600302BE60850A39
:103DC00082850B8312C077AA0CFB1227E48A128B20
:103DD00013A812A913E849701E7AFF7BFF1227E48B
:103DE0008A128B13A812A913E849606C8882898310
:103DF000E50CF0A3E50DF0750C00800775100E8042
:103E00005F050C9002E7E0FAE50CC39A504AE50C16
:103E100075F017A4FAABF088828983A3A3E02AFA8D
:103E2000A3E03BFB8A828B8312BF89EC4D70D27575
:103E30000C17750D00780C1213A3EEFCEFFD122F7A
:103E4000767402121136EEFCEFFD850A82850B8333
:103E500012BD2E12246C8014751009800375100198
:103E600012C7DD850E82850F8312BF9CA91002B98F
:103E7000C8E50A2402F50AE50B3400F50B8A828BAB
:103E800083A3A3A3E0A2E52274041211367F0A02E1
:103E9000126274EC1211908C128D13EA2405F50E47
:103EA000EB12B4B4751100EA2402F50CEB12BF83D7
:103EB000850C82F58312BD2E1227E48A0A8B0BEA49
:103EC000450B700302BF757510008071850E8285E9
:103ED0000F83E06401704F8E828F83A3A31213BA05
:103EE0008E828F83A3A3A3A3E0F514751500781425
:103EF0001213A3EE2405F514EF3400F5157814120F
:103F000013A312BD281228027406121136E9F51106
:103F10006014850E82850F83E4F012C7DD8512825E
:103F200085138312BF9C7C177D007900EEFAEFFBAE
:103F3000122F8E8E828F83E4F0A3F005109002E79B
:103F4000E0F8E510C398501EE51075F017A4F8A925
:103F5000F0850A82850B83A3A312C96A12BF89EC7C
:103F60004D600302BECC850A82850B8374FFF0A3EB
:103F7000F0E511700612BD28122472A91102BD1FAE
:103F8000F50CEF3400F50D22A3E0FCA3E0FD228E3A
:103F9000828F8312C7E5851082851183E8F0A3E93B
:103FA000F022C082C0839002E3E06A7003A3E06B5A
:103FB00070067AE37B0280047A007B0002B28FC035
:103FC00082C08378008C828D83E06A7003A3E06BEB
:103FD0007010E875F003A4F8A9F0EC28FAED39FBAD
:103FE0008015088C828D83A3A3A3E06A7003A3E0ED
:103FF0006B60DF7A007B0002B28F74F612119012B0
:1040000027AE8A828B83E582458370067A007B0027
:104010008007A3A3A3A312BD2E02C68E74F21211B1
:1040200090E9FE740E12116C12C077741012116CAC
:1040300012C4EF8C828D83E064027036A312C7EB4A
:10404000F50EA3E0F9A80E74026870037429697074
:1040500021750E02750F00780E1213A3780A121341
:10406000A3780C1213A3EEF9122826740612113647
:104070008002790102C712E0F50CA3E0F50D22746D
:10408000E812119074FB121120E9851A82851B83B6
:10409000F08A188B19ECFEEDFF751200741D1211D9
:1040A0006C12C7E1741D12116C12BF9C8E828F833B
:1040B000A3A3A3E0A2E4502D741D12116C12BD2E17
:1040C0001227F08A828B83E5824583700302C4C085
:1040D000790AEEFCEFFDAA18AB1912118EE9F51260
:1040E000600302C4C3741F12116C12C4EF74211256
:1040F000116C12C077742312116CE0F510A3E0F577
:10410000118E828F83E06402600302C46EA312C723
:10411000E1850A82850B83A3858214858315EE24AD
:104120000612B4B188828983E0FAA3E0F9EA240098
:10413000F516E439F517781612142D010000280140
:104140002863C10700022828C2032895C100295FFF
:10415000C301298AC302292BC303295FC304290988
:10416000C46EC4E5104511600302C469850E8285E2
:104170000F8312C4E4FAE9FB8A828B83E0850C8208
:10418000850D8312C51A1213A38A828B83A3E0FCC8
:10419000A3E002C3F3E5104511600302C469850C76
:1041A00082850D837401F012C4F7850A82850B8322
:1041B000F07C007D008E828F83A3A3A3A3E0240163
:1041C000FAA3E03400FB1226DCEA4B60418A828BC2
:1041D00083E02402F8850C82850D83E028F0EA2430
:1041E00004F8EB3400F988828983E0851482851510
:1041F0008312C52C12C51A1213A38A828B8312BF95
:1042000088E50A2403FAE50B3400FB02C3F8850CA9
:1042100082850D83E02404F07C047D007900AA14DB
:10422000AB15122F8E02C4C3E5104511600302C402
:104230006912C4F7FEA3E0FF850C82850D83740428
:10424000F0EE850A82850B83F0EF85148285158355
:10425000F0740312116CAC82AD83EEFAEFFB122600
:10426000DC8A0E8B0FEA450F700302C30C8A828B27
:1042700083A3A312B13A740112116C858210858355
:104280001178101213A3740512116C1213BA7CFF6B
:104290007DFF1226E274041211368B11EA4511706B
:1042A00033850E82850F8312C4CF1213A3850E822D
:1042B000850F83A31213BA7C027D007A017B8212E0
:1042C000250E7404121136E9700A740112116C740F
:1042D000FFF0A3F08E828F83E064027039750E02C6
:1042E000750F00780E1213A38E828F8312BF88E59C
:1042F0000A2404FAE50B3400FB122F767402121123
:1043000036850C82850D83E0240280097401121128
:104310006CEEF0A3EFF0740112116C12C4E0F074B3
:104320000112116CA312C4D802C463E510451160D8
:104330000302C469850E82850F8312BF89AA18AB58
:104340001912281A850C82850D837402F0EA850AF9
:1043500082850B83F0851482851583EB02C466E5A4
:10436000104511600302C46912C4F7F8A3E0F9858F
:104370000C82850D837402F0E8850A82850B83F038
:10438000E985148285158302C466850E82850F83B4
:1043900012BD2E122F70EAFC8C82A882C39510E405
:1043A0009511405FE865107002E51170047C008093
:1043B00022851A82851B83E0FAE5102AFAE511347A
:1043C00000FBC3EA98EB94005003E08005E510CCB5
:1043D000C39CFCEC850C82850D83F08C0C750D0064
:1043E000780C1213A3850E82850F83E02510FCA3A1
:1043F000E03511FDAA0AAB0B122F767402121136AA
:1044000002C4C375120702C4C3E5104511705A8572
:104410000E82850F8312C7E1850C82850D83740798
:1044200012B14612C4D812B146A3E0851482851594
:1044300083F0E82402FAE93400FB8A828B8312C4F9
:10444000D812C50712C4E0A312C51012C4E9F0E8DF
:104450002405F8E93400F98882898312C4E9A3129B
:10446000C52CA3A3A3A3F0805A75120B8055741D0D
:1044700012116C12BD2E1227AE8A828B83E5824503
:1044800083603D12C7E1880E890FE8450F603178DF
:10449000101213A3780C1213A3780A1213A3740634
:1044A00012116CE0F9EEFCEFFDAA18AB19850E8233
:1044B000850F8312118E7406121136E9F5128003EE
:1044C00075120EA91274051211367F10021262E0E5
:1044D000F510751100781022E0850A82850B832281
:1044E00012C5362212C7E5E82212C536A3A322E080
:1044F000F50AA3E0F50B22850E82850F83E0F8A371
:10450000E0F5838882E022A3A3F08A828B83A32232
:10451000F088828983A3A3A3A322F08A828B8312CB
:10452000C52322E0F50C750D00780C22F0888289F5
:1045300083A312C53622E0850A82850B83A3A322BA
:1045400074EE12119074FE1211208A0C8B0DECFA8D
:10455000EDFB741412116CE0F512A3E0F513741660
:1045600012116CE0FE741812116CE0F510A3E0F566
:1045700011851A82851B83AC82AD831226DC8A0EDC
:104580008B0FEA450F6049851A82851B8312BD2E69
:104590001227AE8A828B83E5824583602FA3A31204
:1045A000C4EFE50A450B602478101213A3781212A9
:1045B00013A3EEF9AC0EAD0FAA0CAB0D850A8285E4
:1045C0000B8312118E74041211368006790E80024C
:1045D000790102B9C874F612119074FE1211207498
:1045E0000C12116C12C4E4851A82851B83F07401CD
:1045F00012116CE9F0E4F50AF50B780A1213A375B1
:104600000A02780A1213A3740412116C85820A85B7
:10461000830B780A1213A31228027406121136743F
:1046200002121136806874F7121190EAFEEBFF89CE
:104630000A7C1A7D0312281AEA5402600BA90AEEBA
:10464000FAEFFB1226D08002790102B04274F61212
:10465000119074FF6A700374FF6B70168C828D83E7
:1046600012C693E4F08C828D83A3A3A312C693A3F6
:1046700080181227EA8A0A8B0BA80AA90BE849605E
:104680000D8882898374FF12B144A3A3E4F07F02F2
:1046900002126274FFF0A3F08C828D83A3A32274B4
:1046A000F61211901227EA8A828B83E58245836095
:1046B00006A3A3E0FA80027A007B0080D174F21294
:1046C00011908A0A8B0BECFEEDFF740E12116CE058
:1046D000F50C1227EA8A0E8B0FA80EA90FE8497075
:1046E00026EEFCEFFD7AFF7BFF1227EA8A0E8B0F86
:1046F000A80EA90FE8497004791180168882898371
:10470000E50AF0A3E50BF088828983A3A3E50CF00A
:1047100079007F0602126274EE121190EAFEEBFF3E
:104720008C0A8D0B890E741412116C12C7E1741669
:1047300012116C12BD2E750F00E849600302C7D537
:104740007402650E600302C7D0741212116C12C796
:10475000EBFCA3E0F9EC2400F510E439F511EAF4E0
:10476000F8EBF4F9EC58F8E51159F9E849705CE513
:104770000A2406F8ED3400F9880C890D8882F58347
:1047800012C7F612281A8A128B13E51065127004EC
:10479000E5116513604278101213A3850C82850D14
:1047A0008312C7F61228207402121136E9F50F7031
:1047B0002778101213A3850A82850B83A3A312C73F
:1047C000F41228387402121136800D750F8080089B
:1047D000750F0D8003750F0BA90F02BE8D8E828F92
:1047E0008312C7E522E0F8A3E0F92212C7E5888228
:1047F0008983E022A3A3E0FCA3E0FDEEFAEFFB2215
:1048000074E812119074E7121120851A82851B83B7
:10481000EAF0A3EBF08C188D198910750A00750B5E
:1048200000743112116CE0F514A3E0F51574331225
:10483000116CE0F516A3E0F517743512116CE0F574
:1048400011E50B75F003A4F8A9F0851A82851B8386
:1048500012C96AE0F47003A3E0F4700302C94DEEDC
:104860002402F50EEF12C960E0700302C94D8518ED
:104870000C85190D780C1213A3AC16AD17AA14AB46
:10488000151227A274021211368A0C8B0DEA450DFF
:10489000700302C94DE4F512F51378121213A374D4
:1048A0000612116C85821285831378121213A37479
:1048B0000912116C85821285831378121213A38555
:1048C0001482851583A3A3A3A31213BA7914AC0C85
:1048D000AD0D8E828F8312BD2E1227FC740812112B
:1048E00036E97069850C82850D83A3A3A3A312C743
:1048F000E1740212116C12BF9C850E82850F83E059
:10490000A2E05018A910740212116CAC82AD838E13
:10491000828F8312BD2E1226F4E9420A850E82850B
:104920000F83E0A2E15026E511F50C780C1213A7D5
:10493000A910740312116CAC82AD838E828F831226
:10494000BD2E1226EE7401121136E9420A050BE55E
:104950000BC39402500302C841A90A741902C4C7C8
:104960003400F50F850E82F58322E028FEA3E0399E
:10497000FF8E828F832274F2121190EAFEEBFF8980
:104980000D7401650D600E7402650D706A79011277
:1049900029FAE97062EEFAEFFB1227E48A0A8B0B20
:1049A000EA450B6047750C00800B7C177D00790091
:1049B000122F8E050C9002E7E0F8E50CC398502109
:1049C000E50C75F017A4F8A9F0850A82850B83A37E
:1049D000A3E028FAA3E039FB8A828B8312B2967097
:1049E000C9850A82850B8374FFF0A3F07C1A7D03CE
:1049F000EEFAEFFB12281402C71274F21211908A19
:104A00000A8B0BECFEEDFF740E12116C12C0779046
:104A10000CC0E0F4603D7A097B00122F9AEA4B60EB
:104A2000328A828B8374B1F0A3E412C509A312C544
:104A300007A3E50AF0A3E50B12CA56EEF0A3EF12A6
:104A4000CA56A3A3E50CF0A3E50DF0900CC0E0F965
:104A5000122FA602C712F08A828B83A3A3A3A3A35B
:104A600022C082C0839061907404F0A37448F0A3C4
:104A70007402F09061807440F09061BC7403F09017
:104A800061877419F0906265741BF0906249E0C30D
:104A9000941390619C400A7409F0906066740180E0
:104AA00007740DF0906066E4F090619A7433F0A39F
:104AB0007455F09061A0743AF0900540E064017084
:104AC00009C2919003A7746780059003A77461F0F1
:104AD0009033DAE493906186F09033DCE493F460F1
:104AE00027E493540FF8906185E0686012E5C6549E
:104AF000804449F5C6E59E547F644970F8E8F05358
:104B0000C680E59E547F70FA7905122D5A02CCBCFE
:104B1000C082C083E9540FF9906185E0696012E5B5
:104B2000C654804449F5C6E59E547F644970F8E94F
:104B3000F053C680E59E547F70FA02CCBCC082C0A0
:104B400083E5A8F853A87E906181E4F0A3F0A3F078
:104B5000C2BA539AFEC289759B00C2C275E900753C
:104B6000910075BF0075A91175B905906181F0A319
:104B700074C0F0A3E4F0D2BA439A0174805842A8FA
:104B800002CCBCC082C08374F81211209003A5E04F
:104B9000F8A3E0F9E849700302CCB19003A5E05412
:104BA0004060237908851A82851B83AA82AB831211
:104BB0002BBC851A82851B83AA82AB831228AA90FC
:104BC00003A5E054BFF0E054806010790C7A667B56
:104BD00005122BBC9003A5E0547FF0E0A2E0503119
:104BE00090619A7433F0A37455F09061A0743AF018
:104BF000900540E064017009C2919003A77467803A
:104C0000059003A77461F01228B09003A5E054FE4C
:104C1000F0E05402603190619A743FF0A3745AF04E
:104C20009061A0747FF0900540E064017009D2911A
:104C30009003A7747180059003A7746AF01228B0DE
:104C40009003A5E054FDF0E0540460139033D8E4E1
:104C500093906186F01228B69003A5E054FBF0E033
:104C6000540860139033D9E493906186F01228B60B
:104C70009003A5E054F7F0E0541060139033DAE4A9
:104C800093906186F01228B69003A5E054EFF0E00F
:104C90005420600A1228B69003A5E054DFF0A3E088
:104CA0005401600D122AE41228BC9003A6E054FEC1
:104CB000F0740812113602CCBCF0A3F0D083D0827D
:104CC000020D9674EC12119074F4121120851A8260
:104CD000851B83AC82AD837583817582BD7404129C
:104CE00010339033D893F4600302CE4F907808E0ED
:104CF000C39402500302CE2F740412116CAC82AD27
:104D0000837583817582627408121033851A8285D7
:104D10001B83858214858315740412116CAC82ADDB
:104D2000837510FF7511FF7FFF7E00750E48750FAC
:104D300078801574086E700302CDC374096E700319
:104D400002CDC3740A6E607B850E82850F83780A5C
:104D5000120FD88C828D83A90BE50CC9F8881274C8
:104D600018780A120F06E512450AF8C3E098A3E086
:104D700099850E82850F83780A120FD840188C828D
:104D80008D837418780A120F06E512450AF8E0C3FD
:104D900098F8A3E0801C7418780A120F06E51245F3
:104DA0000AFAE9FB8C828D83E0F8A3E0F9EAC39864
:104DB000F8EB99F9C3E89510E99511500688108928
:104DC00011EEFF0EE50E2404F50EE50F3400F50F8D
:104DD000EEC39413500302CD3374FF651070047456
:104DE000FF651160238F0A7402780A12110D74484E
:104DF000250AF5827478350BF583780A120FD88569
:104E00001482851583E50AF0EC2402FCED3400FDE4
:104E1000851482851583A3858214858315740C12ED
:104E2000116CE5826C7003E5836D600302CD217522
:104E30000A01750B00780A1213A3740212116CACEC
:104E400082AD837AF67B0C1231C87402121136746B
:104E50000C1211367F0C021262C082C0839061AEC8
:104E60007468F0A3746AF090624574FBF0A304F0D8
:104E700053F4FD43FE029005407401F09061A0E000
:104E8000643A90619A70237433F0A37455F0906182
:104E9000A0743AF0740164017009C2919003A77480
:104EA0006780289003A774618021743FF0A3745A2F
:104EB000F09061A0747FF0740164017009D2919048
:104EC00003A7747180059003A7746A02CCBB7F08A6
:104ED000021262C082C0839004F2E06401700A9002
:104EE00004F7E06004790C8002790002CCBCC08237
:104EF000C08375E1F19004F5E0605B146009146013
:104F00005F14605714705E122AF69004EBE0F97A91
:104F1000EC7B04122CDC7AD67BBE7C897D8E122D34
:104F2000127A557B557C557D00122CE89004F6E0F2
:104F3000F9122CF47901122D4E9004E9E0F8A3E067
:104F4000C82416F582E83400F583740EF0A3742BA0
:104F5000F0790002CCBC122AFC80AF122B0280AA8E
:104F6000122B0880A5791280EA74F012119075D97D
:104F70000D9004D6E0A2E0E4331313F89004EBE0C4
:104F8000C4333354C0484401F5D978E979048882A0
:104F90008983A3A3A3E0F5D988828983A3A882A9E2
:104FA00083E864EF7003E9640470E378D6790488D9
:104FB000828983A3E0F5D988828983A3A882A98303
:104FC000E864DC7003E9640470E575E1959004D64B
:104FD000E0F97AD77B04122CE2900CE274A2F0A3E1
:104FE000742AF0A37404F0A3742CF0A37404F0A347
:104FF000742CF0A37404F0A3742CF0A374A8F0A391
:10500000742AF0A37404F0A3742CF0A374C0F0A36A
:10501000742AF0900CF07404F0A3742CF0A37404C0
:10502000F0A3742CF0A37404F0A3742CF0A3740404
:10503000F0A3742CF0A37404F0A3742CF0A37404F4
:10504000F0A3742CF09004F5E064019004E9701270
:10505000E0F8A3E0F5838882A3A3750A00750B0826
:105060008010E0F8A3E0F5838882A3A3750A047595
:105070000B00750C00750D00780A120F51750EFFAC
:10508000750FFF7510FF751100780A790E120F9FCA
:105090009004E9E0F8A3E0C8240EF582E83400F5B6
:1050A00083780A120FE79004E9E0F8A3E0C824141B
:1050B000F582E83400F5837413F09003A37402F0D2
:1050C00002CECE74F71211909004FBE02407F5D9BC
:1050D0009004EBE0C4333354C0F5D978E9790488FF
:1050E000828983A3A3A3E0F5D988828983A3A882B8
:1050F000A983E864EF7003E9640470E39004FBE0C3
:10510000601F78E97904FAE82413F582E93400F5A0
:1051100083E0F5D988828983A3A882A9831AEA70DB
:10512000E690051BE02407F5D99004EBE0C4333387
:1051300054C04404F5D978E9790488828983A3A30B
:10514000A3E0F5D988828983A3A882A983E864EFC4
:105150007003E9640470E390051BE0601F78E9794F
:1051600004FAE82433F582E93400F583E0F5D988C0
:10517000828983A3A882A9831AEA70E675E19590D3
:105180000CE274AEF0A3742AF0A37404F0A3742CA0
:10519000F0A37404F0A3742CF0A37404F0A3742C93
:1051A000F0A374A8F0A3742AF0A37404F0A3742CE1
:1051B000F0A374C0F0A3742AF0900CF07404F0A370
:1051C000742CF0A37404F0A3742CF0A37404F0A363
:1051D000742CF0A37404F0A3742CF0A37404F0A353
:1051E000742CF0A37404F0A3742CF09004E9E0F89C
:1051F000A3E0C8240EF582E83400F58374FFF0A321
:10520000F0A3F0A3F09004E9E0F8A3E0C82414F5BB
:1052100082E83400F5837412F09003A37401F0FF68
:1052200002126274F71211909004FBE02407F5D982
:105230009004EBE0C4333354C04402F5D978E979E3
:105240000488828983A3A3A3E0F5D988828983A3F4
:10525000A882A983E864EF7003E9640470E3900412
:10526000FBE0601F78E97904FAE82413F582E93459
:1052700000F583E0F5D988828983A3A882A9831ADF
:10528000EA70E675E195900CE274BAF0A3742AF026
:10529000A374BAF0A3742AF0A374BAF0A3742AF02A
:1052A000A374BAF0A3742AF0A374BAF0A3742AF01A
:1052B000A374BAF0A3742AF0A374C0F0A3742AF004
:1052C000900CF07404F0A3742CF0A37404F0A37495
