:020000040000FA
:100800008D1FFFFF0000005E41414141FFFFFFFFE0
:10081000FFFFFFFFFFFFFFFFFFFFFFFFFFFFFFFFE8
:10082000000102030405060708090A0BFFFFFFFF8A
:10083000020B04021967FFFFFFFFFFFFFFFFFFFF2F
:10084000FFFFFFFFFFFFFFFFFFFFFFFFFFFFFFFFB8
:10085000FFFFFFFFFFFFFFFFFFFFFF022106FFFF7C
:10086000FFFFFF0220E8FFFFFFFFFFFFFFFFFFFF8B
:10087000FFFFFFFFFFFFFFFFFFFFFFFFFFFFFFFF88
:10088000FFFFFF0219DAFFFFFFFFFFFFFFFFFFFF80
:10089000FFFFFFFFFFFFFFFFFFFFFF02209BFFFFA8
:1008A000FFFFFFFFFFFFFFFFFFFFFF0220BFFFFF74
:1008B000FFFFFF0217D301FF0000B400002800284B
:1008C00000283075A000A000A000A00000080008CB
:1008D000E001F000100010001000100010001000E7
:1008E00050005000500010001000D0070000000021
:1008F00000000F0001000500307507001000010026
:1009000081FF00000000FFFE221C230423FF0202DF
:100910000208025000A0000000E8030263A90100E1
:100920000056A9026BA9010000A208025BA9010000
:1009300000B202026BA9010000A3080259A901003C
:1009400000C802026BA9010000A40802FEA8010071
:1009500000CA02026BA9010000A508025FA90800F5
:1009600000CB02026BA9010000A6080267A90100E2
:1009700000A708FF0100FF200263A901000050A9A1
:10098000026BA90100000B09026DA9000000000024
:10099000025DA903000018037A287A287A287A28A9
:1009A0007A287A287A287A287A287A287A287A2837
:1009B0007A28D82AF02AD22AFFFF1C0263A9010054
:1009C0000053A9026BA90100004E091030A80200D3
:1009D000008E07025DA90300009007026FA90100C5
:1009E00000DFA8026BA90100004E091040A8020018
:1009F000008F07025DA90300009607026FA901009E
:100A000000ECA8FFFFFF00013075030201060000A3
:100A100000000000000000000000000000000000D6
:100A200000000000000000000000FFFF0600800C36
:100A3000E803140953696D706C65424C455065724A
:100A40006970686572616C051250002003020A002B
:100A50000201060302F0FF41524320424F4F54006F
:100A60000000000000000000000000002C2E00002C
:100A7000E5C754F84405F5C779012200000080FB62
:100A8000120A70B90003020AEEE479217808B8006E
:100A9000028004F709D8FCE479297802B8000280C2
:100AA00004F709D8FCE490028078CC79068002F043
:100AB000A3D8FCD9FA781C9008B67A01BA00028053
:100AC00007E493A3F608DAF97A4B7B089008B77825
:100AD000BA79028015E493A3AD82AE838A828B83B8
:100AE000F0A3AA82AB838D828E83D8E9D9E7758281
:100AF000AB7583FF7405120B1675827B75830A74C0
:100B000000120B1675D00075813F751A80751B0297
:100B1000759F00020A80C09FF59FE473D09F22D08A
:100B200083D082C09FE493C0E0740193C0E074025C
:100B300093F59F22E066701008A3E066700A08A390
:100B4000E066700408A3E06622C3E7960809E7960A
:100B50000809E7960809E79622C3E09608A3E096FD
:100B600008A3E09608A3E09622C00AC3E096F50A1F
:100B700008A3E096420A08A3E096420A08A3E0967A
:100B8000450A7001D3D00A22080808EAC0E0EBC089
:100B9000E086F0E7A4FA180986F0E7A42AFA180913
:100BA00086F0E7A42AFA180986F0E7A42AFA19863B
:100BB000F0E7A4FBE5F02AFA190886F0E7A42BFB7E
:100BC000E5F03AFA190886F0E7A42BFBE5F03AFACB
:100BD00018180986F0E7A4C5F02BFBE43AFA1908C7
:100BE000E7C5F0C6A426F6E5F03BFBE43AFA188622
:100BF000F0E7A4F6E5F00826F6E43B08F6E43A0848
:100C0000F6D0E0FBD0E0FA22E4CFC0E0E4CEC0E0D2
:100C1000E4CDC0E0E4CCC0E075F020E626F608E6BE
:100C200033F608E633F608E633F6181818EC33FC0A
:100C3000ED33FDEE33FEEF33FFC3EC9709ED97097B
:100C4000EE9709EF97191919400FFFEC97FC09ED82
:100C500097FD09EE97FE191906D5F0BFECF709EDDF
:100C6000F709EEF709EFF7191919D0E0FCD0E0FD0C
:100C7000D0E0FED0E0FF226016080808C6C313C605
:100C800018C613C618C613C618C613C6D5E0EA227E
:100C90007009080808226016181818C6C333C60859
:100CA000C633C608C633C608C633C6D5E0EA22E650
:100CB00027F60809E637F60809E637F60809E637A1
:100CC000F622E026F608A3E036F608A3E036F6089A
:100CD000A3E036F622E026F008A3E036F008A3E011
:100CE00036F008A3E036F022C3E697F60809E69747
:100CF000F60809E697F60809E697F622C3E096F0AB
:100D000008A3E096F008A3E096F008A3E096F0228E
:100D1000E657F60809E657F60809E657F60809E621
:100D200057F622E056F608A3E056F608A3E056F67A
:100D300008A3E056F622E056F008A3E056F008A318
:100D4000E056F008A3E056F022E0F608A3E0F6082B
:100D5000A3E0F608A3E0F622E6F008A3E6F008A375
:100D6000E6F008A3E6F022E0FAA3E0FBA3E0FCA390
:100D7000E0FD22EAF0A3EBF0A3ECF0A3EDF022E01B
:100D8000F8A3E0F9A3E0FAA3E0FB22E8F0A3E9F07E
:100D9000A3EAF0A3EBF022CAC0E0E6F0A308DAFA77
:100DA000D0E0FA22CAC0E0E0A3C582CCC582C583E8
:100DB000CDC583F0A3C582CCC582C583CDC583DAFA
:100DC000E6D0E0CA22C3E498F8E499F9120E06804E
:100DD00026C3E49AFAE49BFBE920E7E9120E06E455
:100DE00098F8E499F922C3E498F8E499F9120E0608
:100DF000E498F8E499F9C3E49AFAE49BFB22EB2027
:100E0000E7CFE920E7E0B90010BB0008E88AF084EA
:100E1000F8AAF022E4FBC8FA22EB70227B10C83358
:100E2000C8C933C9335007C39AC3DBF280069A504E
:100E3000012ADBEAC833F4C8C933F4C9FA2275F0D1
:100E400008E4C833C8C933C933C99AC99B5004C917
:100E50002AC93BD5F0ECFBC833F4C8E4C9FA2260D8
:100E60000D08C6A2E713C618C613C6D5E0F3226064
:100E70000C08C6C313C618C613C6D5E0F422700406
:100E800022600D18C6C333C608C633C6D5E0F418B1
:100E900022251A10AF08F51A400C151B8008F51A08
:100EA0004002151BD2AF2200C0D0251A10AF08F5A2
:100EB0001A500C051B8008F51A5002051BD2AFD042
:100EC000D022251AF58210AF08F51A400C151B80A8
:100ED00008F51A4002151BD2AF851B8322251AF58F
:100EE00082E4351BF58322251AFAE4351BFB222503
:100EF0001AFCE4351BFD22E473251AC582C0E0E527
:100F00001B34FFC583C0E0E51AC3958224F810AFF7
:100F10000885831B85821A800885831B85821AD2E7
:100F2000AFCEF0A3E520F0A3780AE608F0A3DEFA3E
:100F3000EFF0A3E58124FAF8E608F0A3E608F0A3B1
:100F4000E608F0A30808E608F0A3E608F0A3158178
:100F50001581D0E0FED0E0F8158115811581E8C03B
:100F6000E0EEC0E022251AC582C0E0E51B34FFC5D3
:100F700083C0E0E51AC3958224F910AF0885831B6E
:100F800085821A800885831B85821AD2AFCEF0A392
:100F9000E520F0A3780AE608F0A3DEFAEFF0A3E577
:100FA0008124FBF8E608F0A3E608F0A30808E608A9
:100FB000F0A3E608F0A315811581D0E0FED0E0F89B
:100FC00015811581E8C0E0EEC0E022851B83851AFB
:100FD00082E0A3FEE0A3F520780AE0A3F608DFFA9A
:100FE000E0A3FFE0A3C0E0E0A3C0E0E0A3C0E0E036
:100FF000A3C0E0E0A3C0E010AF0885821A85831B80
:10100000800885821A85831BD2AFD083D082020BE1
:101010001C851B83851A82E0A3FEE0A3F520780AD5
:10102000E0A3F608DFFAE0A3FFE0A3C0E0E0A3C07E
:10103000E0E0A3C0E0E0A3C0E010AF0885821A851D
:10104000831B800885821A85831BD2AFD083D08210
:1010500022C0D0251AC582C0E0E51B34FFC583C07D
:10106000E0E51AC3958224F310AF0885831B8582BF
:101070001A800885831B85821AD2AFC8F0A3E9F0D5
:10108000A3EAF0A3EBF0A3790AE709F0A3D8FAECFE
:10109000F0A3EDF0A3EEF0A3EFF0A3D0E0F0A3D027
:1010A000E0F0A3D0E0F0A3E520F0A3E5F0F0A32268
:1010B000851B83851A82E0C0E0A3E0F9A3E0FAA3D0
:1010C000E0FBA3780AE0F608A3DFFAE0FCA3E0FD6A
:1010D000A3E0FEA3E0FFA3E0C0E0A3E0C0E0A3E044
:1010E000F5D0A3E0F520A3E0A3F5F010AF088583C9
:1010F0001B85821A800885831B85821AD2AFD08215
:10110000D083D0E0F8D0E03274048006740280020C
:101110007401C0E0F404120EC2D0E0120D972274E4
:1011200004800474028000CCC0E0EDC0E0E51AC386
:101130009CCCAD1B50011D10AF068C1A8D1B800678
:101140008C1A8D1BD2AF120DA4D0E0FDD0E0FC2292
:10115000D083D082E9C0E0E493A3C386F0C5F095C4
:10116000F0F908E493A386F0C5F095F0700BE493D2
:10117000A3C3994005E9048002A3E475F002A42505
:1011800082F582E5F03583F583D0E0F9E493A3C0DE
:10119000E0E493C0E022D083D082ECC0E0EDC0E078
:1011A000E493A3FCE493A3FDED4C600D1211E2EC7B
:1011B00024FFFCED34FFFD80EFE493A3FCE493A354
:1011C000FDED4C600D121221EC24FFFCED34FFFD0F
:1011D00080EFD0E0FDD0E0FCE493A3C0E0E493C056
:1011E000E022C0E0C3E49396087401939618400F80
:1011F000E49366700808740193661870007019A370
:10120000A3C3E49396087401939618A3A3400DD04A
:10121000E0D0E0D0E00211D2A3A3A3A3A3A3D0E027
:1012200022C0E0C0F088F0E493667008087401936F
:1012300066187000A8F0A3A3700BD0F0D0E0D0E047
:10124000D0E00211D2A3A3D0F0D0E02274F5120FA7
:1012500065EAFEEBFFEE2434F8EF3400F9880A89E2
:101260000BEE2435F582EF3400F583E0F8EE2437F9
:10127000F582EF3400F583E0F50CEC850CF0A4FC6E
:10128000AAF0850CF0EDA42AFDE82CF8E43DF97AEB
:10129000257B00120E06EA850A82850B83F0F8741E
:1012A0000758F97401B900028004C333D9FCFAE885
:1012B000131313541FF8EE28F8EF3400F9E8245DF7
:1012C000F582E93400F583E05A6008EE2434F582B3
:1012D000EF802CEE2434F582EF3400F583E0C0E09B
:1012E000EE2436F582EF3400F583E0F5F0D0E084AB
:1012F000A8F0EE28F8EF3400F9E82438F582E93454
:1013000000F583E0F97F0402101174F5120F65EA0D
:10131000FEEBFFEE2434F582EF3400F583E0C0E00D
:10132000EE2435F582EF3400F583D0E0F08E828F25
:1013300083A3A3A3A3A3A3A3C082C0838E828F830E
:10134000A3A3A3A3A3E0F8A3E0F9D083D082E0C3D2
:1013500098F50AA3E099F50BEE247FF582EF3400AF
:10136000F583E064017069EE2480F582EF3400F5C6
:1013700083E0F8A3E0F98E828F83A3A3A3A3A3A3A2
:10138000A3E0FCA3E0FD8E828F83A3A3A3A3A3E02D
:10139000FAA3E0FBC3EA9CEB9D5010C3EC98ED99D7
:1013A000402EC3EA98EB995027800EC3EA98EB9938
:1013B0004007C3EC98ED9940177CDB7D04EEFAEF13
:1013C000FB1227D8EE247FF582EF3400F583E4F09A
:1013D000EE2434F8EF3400F9E8FCE9FDEE2435F5AD
:1013E00082EF3400F583E0F8EE2437F582EF340025
:1013F000F583E0F50CE50A850CF0A4F50AAAF08562
:101400000CF0E50BA42AF50BE8250AF8E4350BF9F6
:101410007A257B00120E06EA8C828D83F0F8740721
:1014200058F97401B900028004C333D9FCFAE813F7
:101430001313541FF8EE28F8EF3400F9E8245DF593
:1014400082E93400F583E05A6008EE2434F582EF37
:10145000802CEE2434F582EF3400F583E0C0E0EE1A
:101460002436F582EF3400F583E0F5F0D0E084A86F
:10147000F0EE28F8EF3400F9E82438F582E934007A
:10148000F583E0F9122087021305C082C083851A14
:1014900082851B83E0F8A3E0F9C3EA9CEB9D501022
:1014A000C3EC98ED99401BC3EA98EB995014800E59
:1014B000C3EA98EB994007C3EC98ED994004790191
:1014C00080027900D083D08222EAC39CFAEB9DFB94
:1014D0002274EF120F659003A1E064086005E064D8
:1014E00007702A9061C8E060249003CFE0F4601D8B
:1014F000E0F875F003A4C8AAF02AF974D128FE74A4
:101500000339FF8E828F83A3A3A3E0700302160129
:10151000906060E0C0E0EE2468F582EF3400F5836F
:10152000D0E0F0750E44750F05750A00750B00E5E7
:10153000D914F50CE5D95403F51060177403651040
:10154000605CE50C6010EE2467F582EF3400F583F3
:10155000E070030215E690053FE06401602AEE2486
:1015600082F582EF3400F583E0600478048002782D
:1015700000850C0AE50AC398FA95E0FB1226B28AA8
:101580000A8B0BEA450B70051229CA8074EE24827F
:10159000F582EF3400F583E070048A0E8B0FE50CC2
:1015A0006012850E82850F83F50DE5D9F0A3150D28
:1015B000E50D70F6EE2482F582EF3400F583E060ED
:1015C0004474FC250CF50C780E12110CAC0CA9100F
:1015D000EEFAEFFB1228747402120EA7E97026AA25
:1015E0000AAB0B122DBA793D8E828F83A3A3A3A3DE
:1015F000E0FA7B0012258CEEFAEFFB1227F012289E
:101600008679008074740365106056850C1275131A
:1016100000781212110CAC0EAD0FAA0AAB0B1228F7
:10162000507402120EA7EE2468F582EF3400F583A1
:10163000E064807004747F8001E0F50E780E121172
:1016400010E510F50E780E121110A90CAC0AAD0BB6
:101650009003CFE0FA7B001225507402120EA7808F
:10166000139003A1E06408600BAC0EAD0FEEFAEF2F
:10167000FB1228E01229D679017F0A02101174F5B5
:10168000120F6574FC120E91EAFEEBFF890AA2AFFD
:10169000E433F50BC2AF806AEE2463F8EF3400F94F
:1016A0007A007B00A2AFE433F50CC2AF8882898355
:1016B000E0FCA3E0FDEC4D603A88828983E0FAA368
:1016C000E0FB8A828B83E0FCA3E0FD88828983ECC7
:1016D000F0A3EDF08A828B83E4F0A3F08882898303
:1016E000E0FCA3E0FDEC4D700A88828983A3A3E4AB
:1016F000F0A3F0E50CA2E092AF122DBA9004E2E064
:1017000004F0EE2463F582EF3400F583E0F8A3E003
:10171000F9E849603DEE2463F582EF3400F583E09B
:101720002402FAA3E03400FBEA2402F50CEB3400B7
:10173000F50D780C12110C8A828B83E0FCA3E0F982
:10174000EEFAEFFB1228147402120EA7E9700302DE
:1017500016989004E2E060639004E3E0F89004E2FD
:10176000E0C398500C7402650A70509004E4E06085
:101770004A8E828F83A3A3A3A3E0851A82851B834D
:10178000F0A3E4F09004E2E0F87402120EDDE8F059
:10179000A3E4F09004E2E0F89004E1E028F07402A1
:1017A000120EDDAC82AD83851A82851B83AA82ABC3
:1017B00083790112255C9004E2E4F0E50BA2E0924B
:1017C000AF7404120EA7021305FFFFFF8521878562
:1017D00022C622C0E0C0D0E8C0E0E9C0E0EAC0E034
:1017E000EBC0E0ECC0E0EDC0E0EEC0E0C00AC00B32
:1017F000C00CC00DC082C083C0F0A2AFE433FEC2F3
:10180000AF759B00906182E0A2E05012E591A2E0EA
:10181000500C7591FE7401652170031214D1E0A281
:10182000E55051E591A2E5504B7591DF9003A1E0A1
:1018300064076005E06408702374016521703579E0
:10184000019003CFE0FA75F003A4CAA8F028FB7456
:10185000D12AFA74033BFB12167E8018E0640D70E7
:10186000139003C3E004F064287002E4F07A00E00F
:10187000F91229DC906182E0A2E6400302191AE520
:1018800091A2E6400302191A7591BF9003A1E0648A
:10189000057008122916122922800312291C7521AD
:1018A0000012297CE99003A2F07900122970122716
:1018B000547A017B009003A0E0F9122C0490780385
:1018C000E064427055900543E014F0704DC2AF12D1
:1018D00018D200782AD0E0F618D0E0F6E59F540739
:1018E0007005750BFF8003750B7FC4C0E07829E697
:1018F000F50A08E6550BF50B740B780A120E6FD03B
:10190000E0250AF8906270E0A2E740F8E8C333905F
:101910006272F0906270E0D2E0F0906181E0A2E348
:101920005009E5E9A2E3500375E9F7A3E0A2E75007
:1019300009E591A2E7500375917FEEA2E092AFD046
:10194000F0D083D082D00DD00CD00BD00AD0E0FEE6
:10195000D0E0FDD0E0FCD0E0FBD0E0FAD0E0F9D060
:10196000E0F8D0D0D0E032C0E0C0D0C082C08390D8
:101970006183E0A2E05009E5BFA2E0500375BFFE1D
:10198000E0A2E15009E5BFA2E1500375BFFDE0A26E
:10199000E25009E5BFA2E2500375BFFBE0A2E350AD
:1019A00009E5BFA2E3500375BFF7E0A2E45009E5E3
:1019B000BFA2E4500375BFEFE0A2E55009E5BFA266
:1019C000E5500375BFDFE0A2E65009E5BFA2E6508F
:1019D0000375BFBFD083D0828088C0E0C0D0E8C08C
:1019E000E0E9C0E0EAC0E0EBC0E0ECC0E0EDC0E060
:1019F000C0F0E5A7A2E6500FE5A1A2E6500953A763
:101A0000BF75A1BF121A3FE5A7A2E5500CE5A1A240
:101A1000E5500653A7DF75A1DFE5A7A2E15009E570
:101A2000A1A2E1500375A1FDE5A7A2E2500CE5A13A
:101A3000A2E2500653A7FB75A1FBD0F00219507427
:101A4000F8120F657521019003A1E064067015126C
:101A500028A48A828B83A3A3A3A3A3A3E0FAA3E071
:101A6000FB122904A2AFE433FED2AF9003A7E064D7
:101A70000170187A207B009003A0E0F9122C8E7A76
:101A8000207B009003A0E0F9122C0A906182E0D242
:101A9000E6F0900540E0602185C62280169003A6FE
:101AA000E064017008E5C654F84405F5C653BEFC71
:101AB0001217CC7401652160E4EEA2E092AF7F01C1
:101AC000021011FF8E238F24858228858327851A93
:101AD00082851B83E0CEA3E0CF852882852783EB18
:101AE000C9EAC8EDCBECCA75F010C3E833C8E933D6
:101AF000C9EA33CAEB33CBC3EA9EF526EB9FF52543
:101B0000B35004AB25AA26EC33CCED33CDD5F0DAB7
:101B1000AE23AF242274E9120F6574F8120E91857A
:101B20001A82851B83ECF0A3EDF08A0A8B0B9003DD
:101B3000A1E024F7C394055006750A01021CAC12FB
:101B400028A48A0C8B0DAE0CAF0DEE4F7003021C57
:101B5000A9AC0AAD0B7402120EDDAA82AB83122966
:101B6000348E828F83A3A3750EFF750FFF7510FF50
:101B7000751100780E120D237402120EDD7512FF1E
:101B80007513FF7514FF7515007812120D23780E6A
:101B90007912120B49502A780E7912120CE8750A44
:101BA00001750BC8750C00750D00780A790E120BC3
:101BB000495052850E0A850F0B85100C85110D803A
:101BC000507516017517C875180075190085120A29
:101BD00085130B85140C85150D780A790E120CE807
:101BE0007816790A120B49401C750A00750B0075AE
:101BF0000C00750D01780A7912120CE8780A790E3A
:101C0000120CAF800C750A01750B00750C00750D78
:101C1000007409780A120C90750E19F50FF510F57D
:101C200011780A790E120C088E828F83A3A3A3A3C6
:101C3000A3A3E0F8A3E0F97AD07B03120E06880E86
:101C4000890FE4F510F511780A790E120CAF7406BD
:101C5000120EDDE0F8A3E0F97AD07B03120E06E85D
:101C6000FA8A0EE4F50F780A790E120B49500778BC
:101C70000A790E120CE89003A1E06408600AE0649F
:101C8000066005E06405702D750E0D780E790A1258
:101C90000B494021750EF4750FFF7510FF7511FF8C
:101CA000780A790E120CAF800C750A00750B00755E
:101CB0000C00750D00851A82851B83E0F8A3E0F502
:101CC000838882780A120D587408120EA77F1002BA
:101CD000101174F7120F6512294690053EE0640159
:101CE0007010906245E4F0A3F053F4F343FE0C53FC
:101CF00090F31228F2E5C654804449F5C6E59E5497
:101D00007F644970F8906185740FF090053CE0F4B1
:101D10007002A3E0604E90053DE0600814601B1463
:101D2000602E8040750A01750B0090053CE0780A32
:101D3000120E7EE50AF45280802A750A01750B00A6
:101D400090053CE0780A120E7EE50AF45290801469
:101D5000750A01750B0090053CE0780A120E7EE5CD
:101D60000AF452A079007F0202101174F7120F6575
:101D7000E9FEEAFF74016E700C7A807B009003A08C
:101D8000E0F9122C04902E44E493F46008E493F9F3
:101D9000122748800953C680E59E547F70FA1228A6
:101DA000F890053EE06401700312276090053CE066
:101DB000F47002A3E0604B90053DE0600814601AE7
:101DC00014602C803D750A01750B0090053CE0788D
:101DD0000A120E7EE50A42808028750A01750B0002
:101DE00090053CE0780A120E7EE50A429080137559
:101DF0000A01750B0090053CE0780A120E7EE50A98
:101E000042A01229461228A48A0A8B0BA80AA90B01
:101E1000E8496015E5E170FCE82414F582E9340036
:101E2000F583E0F46003E0F5E174016F700A7A0174
:101E30009003A0E0F9122C58021D6674ED120F6594
:101E40008A0A8B0B8C0C8D0D7413120EDD780E121A
:101E50000D49780A790E120B497512017513C87570
:101E600014007515005012780A790E120CE87812D9
:101E7000790A120B4950168010780E790A120CE874
:101E80007812790E120B4940047901800279007FA3
:101E90000C02101174ED120F658A0A8B0B8C0C8DDD
:101EA0000D7413120EDD780E120D49780E790A1298
:101EB0000B494011780A790E120CE8AA0AAB0BAC58
:101EC0000CAD0D8022751200751300751400751588
:101ED000017812790E120CE87812790A120CAFAA66
:101EE00012AB13AC14AD1580A68A828B83750AFFE2
:101EF000750BFF750CFF750D00780A120D367F0407
:101F000002101174F5120F658C828D83780A120D00
:101F1000498A828B83780A120CFCEA2404F8EB3499
:101F200000F98C828D83A3A3A3A3E0FCA3E0FD882A
:101F3000828983C3E09CF0A3E09DF088828983C3FB
:101F4000E09420A3E0944E40268A828B83750AFF9A
:101F5000750BFF750CFF750DFF780A120CD58A8280
:101F60008B83A3A3A3A3E02420F0A3E0344EF002CC
:101F70001EE974F5120F65E9FE9004F6E0FAA3E09D
:101F8000FBEEC333F8E433F9749F28F58274A83963
:101F9000F583E02AF50AA3E03BF50B780A12110C51
:101FA0007A407B427C0F7D00121AC47402120EA785
:101FB0008A0A8B0B8C0C8D0D7410780A120C77AA80
:101FC0000AAB0B7F0402101174F1120F658A0E8B9D
:101FD0000F8C108D11740F120EDDE0FAA3E0FB746C
:101FE00011120EDDE0F50AA3E0F50B780A12110CD0
:101FF000EA2401F50AEB3400F50BE4F50CF50D7855
:102000000E790A120B88750A71750B02780E790A1F
:10201000120B88AA0EAB0FAC10AD11121AC47402C9
:10202000120EA78B0BEA450B60047A0180027A003E
:10203000EC2AFCED3400FD7413120EDDE0F8A3E091
:10204000F9E8FEE9FFECF8EDF97A717B02120E0671
:10205000880A890B8E828F83780A120D58ECF8ED6E
:10206000F97A717B02120E068A0A8B0B7405780AC4
:10207000120E7E8E828F83A3A3A3A3E50AF0A3E5AD
:102080000BF07F08021011C082C083E9906000F05D
:10209000D083D08222C2AF02000022C0E0C0D0E8CC
:1020A000C0E0E9C0E0E5A8D2AFC2C5751C00A2E758
:1020B000A2E792AFD0E0F9D0E0F8D0D0D0E032C0C3
:1020C000E074F2121051A2AFE433FED2AFE58AA25F
:1020D000E05003122D36758A00C2EB751C00EEA28B
:1020E000E092AF7F010210B0C0E074F2121051A272
:1020F000AFE433FED2AFE58BA2E05003122D36756C
:102100008B00C2E880D5C0E0C0D0E8C0E0E9C0E004
:10211000E5A8D2AFC2C7751C00A2E7A2E792AFD074
:10212000E0F9D0E0F8D0D0D0E032120B1F3BD0075E
:10213000120B1F52D007120B1F83D007120B1FBEAA
:10214000D007120B1FE8D007120B1F12D107120B7A
:102150001F29D107120B1F40D107120B1F57D107A0
:10216000120B1F80D107120B1F93D107120B1FA94F
:10217000D107120B1FBCD107120B1F008007120BD7
:102180001F048107120B1F3C8107120B1F5F810781
:10219000120B1F6A8107120B1F8D8107120B1F9CE8
:1021A0008207120B1F718307120B1FEC8307120BA0
:1021B0001F748407120B1FAF8407120B1FE68407DE
:1021C000120B1F748507120B1F4D8607120B1FADD4
:1021D0008607120B1FB88607120B1F378707120BD3
:1021E0001F3A8707120B1F3D8707120B1FCC87076B
:1021F000120B1FCF8707120B1FFF8707120B1F2918
:102200008807120B1F178907120B1FC98907120BAA
:102210001FE3AA07120B1F0BAB07120B1F39AB07EB
:10222000120B1F70AB07120B1FCEAB07120B1F193F
:10223000AC07120B1F64AC07120B1FA4AC07120BE8
:102240001FEAAC07120B1F18AD07120B1FD5AD0705
:10225000120B1FDFAD07120B1FECAD07120B1F1F78
:10226000AE07120B1FEBAE07120B1FF7AE07120BD8
:102270001F0FAF07120B1F19AF07120B1FD8DC0778
:10228000120B1FF0DC07120B1F08DD07120B1F21BA
:10229000D606120B1FFDD606120B1F61D806120BB5
:1022A0001FB8D806120B1F39D906120B1F29DA06E0
:1022B000120B1F76DA06120B1FFCDA06120B1F2E0A
:1022C000DB06120B1F42DD06120B1F84DD06120B0C
:1022D0001FA2DD06120B1F25DE06120B1FF9DE06FC
:1022E000120B1FC1DF06120B1FA39207120B1F76E2
:1022F0009307120B1F1F9407120B1F729407120BE8
:102300001F229507120B1FAE9507120B1F9A9607F7
:10231000120B1FC99607120B1FDC9707120B1F2405
:102320009807120B1FF99807120B1F359907120B0C
:102330001F519907120B1FD5C007120B1FEBC007C7
:10234000120B1F11C107120B1F2DC207120B1F37D3
:10235000C207120B1F6CC307120B1F64C407120BBA
:102360001FBCA507120B1FECA607120B1F1FA70708
:10237000120B1F69A707120B1F30A907120B1FEBC7
:10238000EE05120B1F55EF05120B1FB4F005120BD3
:102390001FC4F005120B1FF1F005120B1F4DF105C4
:1023A000120B1F54F205120B1F1EF305120B1F7E9A
:1023B000F405120B1FC7F405120B1F14F505120BC1
:1023C0001F3AF505120B1F48F705120B1F4DF705B5
:1023D000120B1F52F905120B1F9FF905120B1F124A
:1023E000FA05120B1F45FA05120B1FE7FA05120B2F
:1023F0001F90FB05120B1FC8FB05120B1FCBFB0523
:10240000120B1F13FC05120B1F53FC05120B1F5858
:102410003D00120B1F703D00120B1FB83D00120B48
:102420001FCE3D00120B1F153E00120B1F293F004F
:10243000120B1FB63F00120B1F72A905120B1FAD26
:10244000A905120B1FF2A905120B1FB2AA05120B48
:102450001F38AB05120B1F9DAB05120B1FC9AB0537
:10246000120B1F02AC05120B1F40AE05120B1F24EE
:10247000B005120B1F0AB205120B1F4DB305120B4C
:102480001F9BB505120B1FADB605120B1FF8B70544
:10249000120B1F08B905120B1F25B905120B1F607F
:1024A000B905120B1F82B905120B1FE5B905120BF6
:1024B0001FA6BE05120B1F3BBF05120B1F8DBF05CC
:1024C000120B1FABBF05120B1F05C005120B1F041B
:1024D000C105120B1F88C105120B1FA0AF07120BFD
:1024E0001FAAAF07120B1FEDAF07120B1F08B00793
:1024F000120B1F98B007120B1FC0B007120B1FFD65
:10250000B007120B1F34B107120B1F5DB107120B7E
:102510001FD2B107120B1FE7B107120B1FFCB10747
:10252000120B1F3DB207120B1F77B207120B1FA32E
:10253000B207120B1FDBB207120B1F5AB307120BA5
:102540001FA3B307120B1FCDB307120B1FF8B3075E
:10255000120B1F07D807120B1F84BC06120B1FB2E9
:10256000BC06120B1F00BE06120B1FE0BE06120BAC
:102570001FFFBE06120B1F7CBF06120B1FBFBF063C
:10258000120B1F15C106120B1FD6C106120B1F5DC1
:10259000C406120B1FFEC406120B1FF4C506120B55
:1025A0001FF1C606120B1F4BC806120B1FD6C8061A
:1025B000120B1FACD607120B1F15D707120B1F6982
:1025C000D707120B1F90D707120B1FC1D707120B8B
:1025D0001F9AB807120B1F07B907120B1F4EB90736
:1025E000120B1F66BA07120B1F62BB07120B1F45A7
:1025F000BC07120B1F3A8A07120B1F7C8A07120BAB
:102600001F4E8B07120B1F278C07120B1F218D07E4
:10261000120B1F038E07120B1F6C8E07120B1F224B
:102620008F07120B1F968F07120B1F029007120BBA
:102630001F2B9007120B1FA59007120B1F3E91072F
:10264000120B1FA39107120B1FB89107120B1FFE4D
:102650009107120B1F179207120B1F7C9207120B88
:102660001F7F9207120B1F45C707120B1F6DC7076D
:10267000120B1FABC707120B1F69C807120B1FD025
:10268000C807120B1FECC807120B1F14C907120B47
:102690001F44C907120B1F53C907120B1FD0C907CC
:1026A000120B1F482E00120B1F263000120B1F5852
:1026B0003200120B1F943200120B1FC13200120B9A
:1026C0001FAB3300120B1FF63300120B1F413400F7
:1026D000120B1F763400120B1FC43400120B1FF3B1
:1026E0003400120B1F163500120B1F633500120B3E
:1026F0001FE83500120B1F023800120B1F413A0071
:10270000120B1F823A00120B1F243C00120B1F6594
:102710003C00120B1FD83C00120B1F2E3D00120B69
:102720001F6FAF06120B1F6DB006120B1F06B70608
:10273000120B1F27B906120B1FF2BA06120B1F5AF3
:10274000BC06120B1FEFC105120B1F9EC205120B18
:102750001FCBC205120B1F11C305120B1F51C4055D
:10276000120B1FE7C505120B1F61C605120B1FDCFC
:10277000C605120B1F36C805120B1F96C905120B92
:102780001F9CCA05120B1FFDCB05120B1F16CC0593
:10279000120B1F74CC05120B1F62CD05120B1F9577
:1027A000CD05120B1F05CE05120B1F7FCE05120B98
:1027B0001FC9CE05120B1F93CF05120B1F68D00542
:1027C000120B1F47D105120B1FD2D105120B1F4050
:1027D000D205120B1FB4D205120B1FDFD205120B4C
:1027E0001F9ED305120B1F03D505120B1F20D50505
:1027F000120B1F3FD505120B1F30D605120B1F55AC
:10280000D605120B1F7FD605120B1FFAD605120B29
:102810001F54D705120B1FBDD805120B1F6BD9050E
:10282000120B1FACD905120B1F139406120B1F615C
:102830009406120B1F6D9406120B1F4B9506120B7C
:102840001F7C9506120B1FAD9506120B1F2D9606C9
:10285000120B1F659606120B1FB79606120B1FF47C
:102860009606120B1F119906120B1F379B06120BAF
:102870001F229D06120B1F0C9F06120B1FF7FF064F
:10288000120B1F008006120B1F308006120B1F094F
:102890008706120B1F8E8806120B1F8B8E06120BDB
:1028A0001F738F06120B1FB08F06120B1FD38F06DC
:1028B000120B1F049006120B1F0D9006120B1F1710
:1028C0009006120B1F059106120B1FFB9106120BAF
:1028D0001FDCD905120B1FDBDD05120B1FE1DD0527
:1028E000120B1F1CE505120B1F35EA05120B1F0703
:1028F000BD07120B1F9DBD07120B1FB3BD07120BA7
:102900001F29BE07120B1F9DBE07120B1FDBBE0740
:10291000120B1F4FBF07120B1FC8BF07120B1FD18F
:10292000BF07120B1FDDBF07120B1FF2BF07120BF1
:102930001F30C007120B1F46C007120B1FA5C00790
:10294000120B1F6EC407120B1F7BC407120B1F95BF
:10295000C407120B1FD4C407120B1F12C507120B9A
:102960001F77C507120B1F8CC507120B1F97C507D2
:10297000120B1FA4C507120B1FBBC507120B1FC9E3
:10298000C507120B1FD4C507120B1FE0C507120B9A
:102990001FEFC507120B1FFAC507120B1F17C6073B
:1029A000120B1F27C607120B1F3DC607120B1F591C
:1029B000C607120B1F64C607120B1F79C607120B3E
:1029C0001F8DC607120B1FEEC607120B1FF4C6079A
:1029D000120B1FFAC607120B1F00C707120B1F129C
:1029E000C707120B1FECA106120B1F78A206120BD1
:1029F0001FD7A306120B1FF8A506120B1FE4A6068D
:102A0000120B1F19A706120B1F3BA706120B1FEA7A
:102A1000A706120B1FE2A906120B1F0BAA06120B28
:102A20001F9DAA06120B1FCFAA06120B1FDCAA06B7
:102A3000120B1F33AB06120B1F59AB06120B1FC62E
:102A4000AD06120B1FC9AE06120B1F21AF06120BEB
:102A50001F03E206120B1F0DE206120B1F2FE206E8
:102A6000120B1F3BE206120B1FD4E306120B1F03CF
:102A7000E406120B1F1FE506120B1F78E506120B6A
:102A80001FECE606120B1F59E706120B1F94E70610
:102A9000120B1FD3E706120B1F8CEA06120B1FA6A0
:102AA000EA06120B1F32EB06120B1F40EB06120B4D
:102AB0001F99EB06120B1FA7EB06120B1F1AEC0651
:102AC000120B1F7EEC06120B1FC8EC06120B1F51D7
:102AD000ED06120B1F73ED06120B1F99EF06120B7A
:102AE0001FAEF206120B1FC6F306120B1F79F40677
:102AF000120B1F5BF506120B1FE3D107120B1F0809
:102B0000D207120B1F7AD207120B1F7FF806120B87
:102B10001F88F806120B1F91F806120B1F68F906A2
:102B2000120B1F19FB06120B1F4FFB06120B1F89FE
:102B3000FB06120B1FBFFB06120B1FF9FB06120B45
:102B40001F2DFC06120B1F59FC06120B1FA2FC06C0
:102B5000120B1FDCFC06120B1F25FD06120B1F7D3E
:102B6000FD06120B1FB2FD06120B1F0DFE06120B07
:102B70001F47FE06120B1F98FE06120B1FCEFE0605
:102B8000120B1F08FF06120B1F2BFF06120B1F57FD
:102B9000DE07120B1F83DE07120B1FDEDE07120B90
:102BA0001FE8DE07120B1FF8DE07120B1F49A007F4
:102BB000120B1F53A007120B1F91A007120B1FDA55
:102BC000A007120B1F14A107120B1F6EA107120BF7
:102BD0001F8FA107120B1F98A107120B1FE9A10756
:102BE000120B1F12A207120B1F1CA207120B1F8829
:102BF000A207120B1F16A307120B1F64A307120BC9
:102C00001F9AA307120B1F21A407120B1F61A40711
:102C1000120B1F99A407120B1FABA407120B1FCA9C
:102C2000A407120B1FD3A407120B1F92A507120BA8
:102C30001F24DA07120B1F4DCC07120B1F83CC0782
:102C4000120B1FB9CC07120B1F12CE07120B1F025B
:102C5000DF07120B1F18DF07120B1F22DF07120BF3
:102C60001F6CDF07120B1F9ADF07120B1F20B40720
:102C7000120B1F39B407120B1FDDB407120B1F1DF7
:102C8000B507120B1F36B507120B1F6AB507120BDB
:102C90001FB7B507120B1FEBB507120B1F2DB60799
:102CA000120B1F2DB807120B1FF8DB07120B1F2189
:102CB000DC07120B1F4ADC07120B1F8CDC07120B00
:102CC0001F3DE007120B1FA1DD07120B1FB2DD072E
:102CD000120B1FF4DF07120B1F33E007120B1FE06C
:102CE0003F00120B1FEB3F00120B1FB8E007120B47
:102CF0001F1EDB07120B1F2EDB07120B1F40DB070B
:102D0000120B1FF2DB07120B1F20D907120B1FA596
:102D1000D907120B1F0BDA07120B1F88D307120BF0
:102D20001FB6D307120B1F15D407120B1F2DD40784
:102D3000120B1F83D407120B1FDBD407120B1F19B2
:102D4000D507120B1F1CD507120B1FA2E007120B91
:102D50001FB2E007120B1FB5E007120B1FF83F0070
:102D6000120B1F18CA07120B1FA3CB07120B1F044D
:102D7000CC07120B1F4ACC07120B1FC69907120B68
:102D80001F039A07120B1F1F9A07120B1FE39A07C4
:102D9000120B1FCC9B07120B1F2B9D07120B1F92B0
:102DA0009D07120B1F759E07120B1FFC9E07120B2F
:102DB0001F05A007120B1F25D507120B1F7AD50779
:102DC000120B1FE8D507120B1F58D607120B1F4016
:102DD000FD05120B1F6AFD05120B1F3FFE05120BAE
:102DE0001F33FF05120B1F57C906120B1FBECC065F
:102DF000120B1F3ACE06120B1F91CE06120B1FB0FC
:102E0000CE06120B1F0DCF06120B1F88D006120B19
:102E10001F6CD106120B1FAED406120B1F7ED506F7
:102E2000120B1F4CCE07120B1F9ECF07120B1F1544
:102E3000D007120B1FCBFF06120B1F84E007FFFF0A
:102E4000FFFFFFFFFFFFFFFF74F4120EF9E990038D
:102E5000A0F0122940907800E0C4540F5407640396
:102E60007004793F8002797F750A06750B00780A35
:102E700012110C7C8E7D037AEA7B07122D067402F8
:102E8000120EA790038EE0F47049A3E0F47044A3FF
:102E9000E0F4703FA3E0F4703AA3E0F47035A3E0EF
:102EA000F4703090780EE090038EF090780FE09000
:102EB000038FF0907810E0900390F0907811E090FC
:102EC0000391F0907812E0900392F0907813E090E4
:102ED0000393F090039474FFF0A3F0A3F0A3F0A386
:102EE000F0A3F090038EE090039AF090038FE090AF
:102EF000039BF0900390E090039CF0900391E0908E
:102F0000039DF0900392E090039EF0900393E09075
:102F1000039FF09003BE7406F0A3740DF0A3E4F0D9
:102F2000A37440F0A37401F09004EA74FFF0A3F0DE
:102F3000A3F0A3F0A3F0A3F09004E9E4F09004F070
:102F4000F0A374A0F0A3E4F0A37403F0A37407F05B
:102F5000A3E4F0A37428F0A3E4F0A304F0A3E4F046
:102F6000900519F090053C74FFF0A3E4F090053E45
:102F7000F090054004F09005417490F0A37401F0C6
:102F800012275A1226B81228EC79017A437B0512CF
:102F90002832900543E075F01484E5F004F0790CD4
:102FA0007A647B0512283212284A7A009003A0E046
:102FB000F9122C58907803E064427055900543E074
:102FC00014F0704DC2AF122FC900782AD0E0F61865
:102FD000D0E0F6E59F54077005750BFF8003750B75
:102FE0007FC4C0E07829E6F50A08E6550BF50B74B6
:102FF0000B780A120E6FD0E0250AF8906270E0A2FA
:10300000E740F8E8C333906272F0906270E0D2E07B
:10301000F09003CBE4F0A3F07A80FB9003A0E0F9FA
:10302000122C040234BF74F4120EF9EAFEEBFFEE28
:10303000A2E050459003A2E0C39480E0500FC33358
:10304000F8E433F9742C28F5827409800EF4C33344
:10305000F8E433F9743A28F582740939F583E0F815
:10306000A3E0F5838882120EF77A009003A0E0F9BE
:10307000122C58EE640102324C54026040750A0072
:10308000780A121110E4F50B780A12110C780A1262
:10309000110C780A12110C750AD5750B04780A12F6
:1030A000110C9004D4E0FD7C017A007B00793C1285
:1030B00025867409120EA7EE640202324CEE540407
:1030C00070030231629003CFE0F875F003A4C8AA40
:1030D000F02AF974D128FA740339FBEA242AF5821C
:1030E000EB3400F583E0F50A780A121110EA243275
:1030F000F582EB3400F583E0F50AA3E0F50B7404E8
:10310000780A120E6F780A12110CEA2420F582EB6D
:103110003400F583121123EA242EF582EB3400F5F6
:1031200083E0F50AA3E0C313F50BE50A13F50A786B
:103130000A12110C750AD5750B04780A12110C903D
:1031400004D4E0FD7C018A828B83A3A3A3A3E0FACD
:103150007B0079001225867409120EA7EE64040222
:10316000324CEE54406040750A00780A121110E4A7
:10317000F50B780A12110C780A12110C780A121148
:103180000C750AD5750B04780A12110C9004D4E062
:10319000FD7C017A007B00793B1225867409120EB2
:1031A000A7EE644002324CEE5480603B900541E053
:1031B000F8A3E0F9E849602A7900122C5290054101
:1031C000E0F50AA3E0F50BE4F50CF50D780A121111
:1031D000087A007B019003A0E0F9122C827404129B
:1031E0000EA7EE64808065EF5401600C7901122C0B
:1031F00052EEFAEF64018056EF5402600AC2AF75D6
:10320000C9AB75C95B80FEEF5404600A122095EECD
:10321000FAEF640480389003A7E064017033EE5441
:1032200020602E9003A1E024F9600314701B793F05
:103230009003CFE0FA75F003A4CAA8F028FB74D17C
:103240002AFA74033BFB1227F6EE6420FAEFFB80A8
:10325000047A007B000234BF74F6120EF9C3EA94BC
:1032600011EB940050047A1080027A20EA2408FAC4
:10327000E43400FB122DB48A0A8B0BA80AA90BE8D0
:1032800049600AE82404FAE93400FB80047A007BF0
:10329000000237FD74F6120EF9EA2405FAEB340049
:1032A000FB122DB48A0A8B0BA80AA90BE849600A05
:1032B000E82405FAE93400FB80047A007B00023739
:1032C000FDC082C083C2AF12291CE5E170FC75E12C
:1032D0000112274E75E1F112294C1227427907128B
:1032E00029AC79011229B279021229761229941295
:1032F00029A079001229A679011229A67A557B55B1
:103300007C557D0012295E9004D4E4F0A3F0A3F074
:10331000A3F0A3F0A3F0A3F09004F0F0A3F0A3F0C7
:103320009004F47407F09004F37403F09004F9E44B
:10333000F09004F8F0900519F01227E4122880129A
:1033400027FC79001229B89004DB74FFF0A3F0A3E6
:10335000F0A3F0A3741FF0906012E4F0A3F090606B
:1033600063F07521009003A1F09004E0F09004E177
:10337000740CF09004E2E4F09004E304F09004E4B0
:10338000E4F09004E504F09004E6E4F09003A3F088
:10339000A3F09003A6F09003A704F09003BD04F0FF
:1033A00090053FE4F0D2AFF9023D27C082C0839080
:1033B000038EE08A828B83F090038FE08A828B8376
:1033C000A3F0900390E08A828B83A3A3F0900391F3
:1033D000E08A828B83A3A3A3F0900392E08A828B7E
:1033E00083A3A3A3A3F0900393E08A828B83A3A378
:1033F000A3A3A3023D24C082C0838A828B83E09072
:103400000394F08A828B83A3E0900395F08A828BE9
:1034100083A3A3E0900396F08A828B83A3A3A3E007
:10342000900397F08A828B83A3A3A3A3E0900398D1
:10343000F08A828B83A3A3A3A3A3E0900399023D08
:103440002474F6120EF9EA4B6016EC4D6012740A01
:10345000120EDDE0F50AA3E0F50BE50A450B70045A
:103460007912800F780A12110C1228447402120E7D
:10347000A779000237FD74F4120EF9EAFEEBFF891A
:103480000A9003A1E064096014E0640A600FE0643C
:103490000B600AE0640C6005E0640D7004790C8038
:1034A0001E1228A48B0DEA450D700BA90AEEFAEF47
:1034B000FB12283280099003A3E04440F0790D7F8D
:1034C00004020FCB74F6120EF9EA4B6003E97004A4
:1034D0007912801CEAFEEBFF890A12282CE98E8201
:1034E0008F83F0A3AE82AF83150AE50A70EC7900F2
:1034F0000237FDC082C083E9F8740168700B900543
:103500003F7401F07900023D27E8700690053FE422
:1035100080F1791280F0C082C0839003A1E0640C36
:10352000701290618EE0F974806970258C828D83B1
:10353000747F8029C3EB940F5013EA4B700F9003F4
:10354000D4E070047902801890043980D879128010
:103550000F9003A5E0F8E9C3988C828D83F0790081
:10356000023D2774F7120EF9E9FE74056E601E74B1
:10357000136E601974146E601474156E600F741AF3
:103580006E600A74296E6005743B6E7026C3EB94FE
:103590000F5020EA4B701C9003D4E0700479028035
:1035A0004490043AE064017025A3E0640270087955
:1035B0003A80327912802EEE9004C5F09003EEE44A
:1035C000F0A3F079027AD17B031227D28015EE9016
:1035D00004C5F09003EEE4F0A3F079027AD17B0306
:1035E0001227C679000237F874EA120EF9EC4D6022
:1035F00014E9C3941C500E7416120EDDE0F8600A34
:10360000740168600579120237F3C3EB940F501907
:10361000EA4B70159003D4E070047902800D900499
:10362000E1E0700A79070237F379120237F3EC24EC
:10363000FEFCED34FFFD8C828D83E9F0E8700474AC
:103640000280027401A3F0EC24FEFCED34FFFD7A4D
:10365000347B0412281A9004E1E014F09003A1E0F6
:1036600064086008E0640760030237F19003CFE06C
:1036700060030237F179007AD17B0312167E9061E4
:10368000D0E070030237F19004E5E06401600302CA
:1036900037F19003EEE0F8A3E0F9E8497003023750
:1036A000F1A2AFE433F516C2AF1228A48A0A8B0B3D
:1036B000AE0AAF0B12292E8A128B138C148D158A29
:1036C0000A8B0B8C0C8D0D750E01750F007510009B
:1036D000751100780A790E120CAF780A1211088E53
:1036E000828F83A3A3120D67121E3B7404120EA7D0
:1036F000E9640160030237EB9003FFE02406F50A5A
:10370000A3E03400F50BE4F50CF50D7812790A12FC
:103710000CAF78121211088E828F83A3A3120D674B
:10372000121E3B7404120EA7E9640160030237EB1A
:10373000EE2408F50EEF3400F50F850E82F58312A6
:10374000111FAA12AB13AC14AD15121E94740412FF
:103750000EA79003FF121123121AC47402120EA7AF
:103760008A0A8B0B8C0C8D0D7410780A120C7790D2
:1037700003DAE0F8A3E0F99003D6E8F0A3E9F0E873
:10378000250AF8E9350BF9A3E8F0A3E9F0850E82E4
:10379000850F83C082C0839003FFE0F50EA3E0F5A0
:1037A0000F780A790E120B88D083D082780A120C17
:1037B000C2750EFF750FFF7510FF780A790E120D96
:1037C000108E828F83A3A3E50AF0A3E50BF0A3E597
:1037D0000CF0A3E4F0900406E0900405F07AD17BAD
:1037E0000312130AEEFAEFFB12288CE516A2E09200
:1037F000AF79007F0E020FCB7F01020FCB7F020259
:103800000FCB74F6120EF9EAFEEBFF890A740B1265
:103810000EDDE0F50B740C120EDDE0F8A3E0F9E527
:103820000A605F7401650A60157403650A602F748D
:1038300002650A60297404650A60030238DDE849FC
:1038400070030238DDE50B60097401650B6003024B
:1038500038DD7403650A60067402650A7046EE245A
:1038600060FAEF34FFFBC3EA9461EB943F506EECD7
:103870002460FAED34FFFBC3EA9461EB943F4024EB
:10388000805BEE24E0FAEF34FFFBC3EA94E1EB94B3
:103890003F504AEC24E0FAED34FFFBC3EA94E1EB3D
:1038A000943F5039C3EC9EED9F4032740A120EDDF6
:1038B000E0FA600574016A7024740F120EDDE0FCFA
:1038C000600F74016C600A74026C600574036C70A4
:1038D0000C740E120EDDE0FB74075B7005791202AA
:1038E0003A3E9004F0E064017005790C023A3EE53E
:1038F0000A9004F3F074075BA3F0ECA3F0EA9004E1
:10390000E9702FE4F090038EE09004EAF090038FCA
:10391000E09004EBF0900390E09004ECF0900391C1
:10392000E09004EDF0900392E09004EEF0900393A9
:10393000802E7401F0900394E09004EAF0900395D7
:10394000E09004EBF0900396E09004ECF090039785
:10395000E09004EDF0900398E09004EEF09003996D
:10396000E09004EFF07401650A7053E50B9004D405
:10397000F088828983E09004D5F088828983A3E06F
:103980009004D6F088828983A3A3E09004D7F088BE
:10399000828983A3A3A3E09004D8F088828983A3BB
:1039A000A3A3A3E09004D9F088828983A3A3A3A34F
:1039B000A3E09004DAF09004F1E4F0A3807D7404B5
:1039C000650A704DE50B9004D4F088828983E090FD
:1039D00004D5F088828983A3E09004D6F088828998
:1039E00083A3A3E09004D7F088828983A3A3A3E0F4
:1039F0009004D8F088828983A3A3A3A3E09004D97C
:103A0000F088828983A3A3A3A3A3E09004DAF080C3
:103A100023EC70047900801974016C7004790180C2
:103A20001074026C70047902800774036C7005795D
:103A30000312299A9004F1EEF0A3EFF07900023717
:103A4000FD74F6120EF9E9FEC39420500BEE9004BB
:103A5000F9F06023EA4B700479128023E0F50A75CF
:103A60000B00780A12110CEAFCEBFD7AFA7B0412C7
:103A70002BB07402120EA79004F87401F0790002C2
:103A800037FD74F0120EF9E9FE9003A1E0640970AD
:103A900003023BABE0640A7003023BABE0640B70D3
:103AA00003023BABE0640C7003023BABE0640D70BF
:103AB00003023BAB9004F3E0601664016012E06423
:103AC00003600DE064026008E064046003023C20CF
:103AD0009004E9E0600764016003023C209004F375
:103AE000E064036005E0640270109004F1C3E094A8
:103AF000A0A3E094005003023C20EE7003023BB907
:103B0000146003023C209004F0E064017003023B67
:103B1000AB9004F3E0600964016005E06404700B9D
:103B20001228B0E954FD6003023BAB7901122898DA
:103B30009004E7EAF0A3EBF09004F07401F0900336
:103B4000A1E0706E12292E8A0A8B0B8C0C8D0D75DC
:103B50000E03750F00751000751100780A790E12AA
:103B60000CAF750EFF750FFF7510FF780A790E12F6
:103B70000D109004E7E0F8A3E0F5838882A3A37812
:103B80000A120D589004E7E0F8A3E0C82406F58275
:103B9000E83400F583E4F0A3F0122766E960107AB8
:103BA000E77B0412289E9004F0E4F079218005124E
:103BB000288679007F08020FCB9004F0E060ECA229
:103BC000AFE433FFC2AF7AE77B0412289E9004F083
:103BD000E4F01228B6E9704112291C906182E0C21B
:103BE000E6F0E5E170FC75E1017591BF75E1F190DA
:103BF00003A7E0640170187A207B009003A0E0F92D
:103C0000122C8E7A207B009003A0E0F9122C0A7A05
:103C1000009003A0E0F9122C58EFA2E092AF80923E
:103C20007912809074F6120EF9E9FEC39420500BBD
:103C3000EE900519F06023EA4B700479128023E0BE
:103C4000F50A750B00780A12110CEAFCEBFD7A1AE2
:103C50007B05122BB07402120EA79004F87401F0C9
:103C600079000237FDC082C0839003A1E064076041
:103C700004790C805CEC4D605BC3EB940F5055EA0B
:103C80004B70519003D4E07004790280447A008C28
:103C9000828D83E0C0E0EAF8C3E498F895E0F97417
:103CA0009E28F582740439F583A3A3A3A3D0E0F082
:103CB0000A8C828D83A3AC82AD83EAC3941040CF7B
:103CC0009004A47401F079057AD17B031227C67998
:103CD00000023D27791280F9C082C0839003A1E0E1
:103CE00064076004790C8039C3EB940F5020EA4BD1
:103CF000701C9003D4E07004790280259004ADE03C
:103D00006401700E9004C57406F07902800A79127D
:103D1000800FA37406F0790D7AD17B031227C67940
:103D200000023D27F07900D083D082020B1CC082B4
:103D3000C083E9F8900540E07004790C800EE860DB
:103D40000D1470109003A67401F0790080D99003CF
:103D5000A6E480F5791280F4C082C0839002DCEA88
:103D6000F0A3EBF0D083D082020B1C7F01020FCBBB
:103D7000C082C0838A828B83E064B07039A3E07014
:103D8000358A828B83A3A3A3A3E0F8741268701111
:103D9000EA241DF582EB3400F583E064017017809E
:103DA00005741B6870107C017D008A828B83A3A33D
:103DB000123F231225C880AC74F7120EF9E9900265
:103DC000DBF07A047B001225B012237C809D74F412
:103DD000120EF98A0A8B0BEB548060309002DBE004
:103DE000F9122BEC8A0C8B0DAE0CAF0DEE4F60135D
:103DF0008E828F83E064A07003122424EEFAEFFB1E
:103E0000122BDAAA0AE50B6480FB80047A007B009F
:103E10007F04020FCB74F5120EF974F5120E91EABD
:103E2000FEEBFF7404120EDDAC82AD83122178E943
:103E3000F50CEE2402F50AEF3400F50BE9600302FD
:103E40003ED07406120EDDE0A2E050299002DEE0C2
:103E5000F8A3E0F9E84960187404120EDD123F1966
:103E60009002DFE0F5838882120EF7E9F50C80609E
:103E7000750C06805B9002DCE0F8A3E0F9E849608D
:103E80001A7404120EDD123F199002DDE0F58388EA
:103E900082120EF7E9F50C70058035750C06740575
:103EA000120EDDE0702A7406120EDDE0851A82859E
:103EB0001B83F07401120EDDE4F0A3F07403120E04
:103EC000DDE50CF0851A82851B83123F1912212A29
:103ED0008E828F83A3A3A3A3A3A3123F23EA4B60E5
:103EE00003122DBAE50C701D7406120EDDE0F87495
:103EF0001268700C7405120EDDE064017007800F0B
:103F0000741B68600A7C017D00123F1D1225C87475
:103F10000B120EA77F03020FCBAC82AD83850A8202
:103F2000850B83E0FAA3E0FB2274F0120EF9890AF4
:103F30008A0E8B0F8C0B8D0C7A1E7B00122BD48A71
:103F4000108B11AE10AF11EE4F60648E828F8374B0
:103F5000B0F0A3E50BF08E828F83A3A3E50EF0A350
:103F6000E50FF08E828F83A3A3A3A3E50CF0EE24CC
:103F700005FAEF3400FB7410120EDDE0FCA3E0FD47
:103F8000EC4D6015750E19750F00780E12110C129C
:103F90002BB07402120EA780097C197D00790012E3
:103FA0002BC8EEFAEFFBA90A122BE0790080027908
:103FB000137F08020FCB74F7120EF9EAFEEBFFEE47
:103FC0004F601A8E828F83E0F974FF69600F74FE70
:103FD00069600A122DDE8E828F8374FFF0023D6BC2
:103FE000E5BDF9E5BCFAE9FB020B1C53B4F3EBF5B4
:103FF000BCEAF5BC020B1CFF851C87C2AF020B1C80
:020000040002F8
:10A800008421C4239021CA239C21D023A821D623AC
:10A81000B421DC23C621DC23D221E223A821E823B2
:10A82000C021EE2300000000E421EE23F021F423F8
:10A8300000000000000000B000405104C1FF00F023
:10A8400000000000000000B000405104C2FF00F012
:10A8500000000000000000000000000000000000F8
:10A8600000000000000000000000000000000000E8
:10A8700001010201020101020102030304010301BB
:10A88000010101010303020103A626FA2C922BD237
:10A890002DD42540231E24FC2A022E3C24262EF4EF
:10A8A00001FA00960064004B0032001E0014000004
:10A8B000000000000000000000000000000087FB16
:10A8C000349B5F800000800010000000000000004A
:10A8D000000000000000B000405104C0FF00F0493B
:10A8E0006D67204964656E7469667900496D6720FB
:10A8F000426C6F636B007869E0AB50C3F0D2022A00
:10A9000000000000001B7E2D842D00000000A2240A
:10A91000000070237623000001000000FFFFFFFF0E
:10A92000E803000060EA000031B1E1FFE7FFFFFF4C
:10A930007D000000881300000000FF000100FF0000
:10A9400043000000419C000019000000640000006A
:10A950000265A910CFA80269A9012A002A022903C9
:10A960002A012800280118042A00180328052A01B2
:10A97000290B74F7120EF9E99002E0F07C187D03C0
:10A980007AFF7BFF1224B49002E174FFF0A3F0A3DE
:10A99000E4F0A3F079051224489002E0E0F91223D4
:10A9A000887ACC7B2412266A7F01020FCB74F412C2
:10A9B0000EF98A0A8B0BEB548060309002E0E0F9CC
:10A9C000122BEC8A0C8B0DAE0CAF0DEE4F60138E7C
:10A9D000828F83E064B07003122460EEFAEFFB1202
:10A9E0002BDAAA0AE50B6480FB80047A007B000264
:10A9F000ABC474F2120EF974FC120E91EAFEEBFF76
:10AA0000EE4F60387402120EDDEEF0A3EF12AE29A5
:10AA1000ECF0A3ED12AE29AA82AB83122382E9F5F2
:10AA20000A70737412120EDD12B9DDE50C450D606B
:10AA3000658E828F8312AAA0EE4F7005750A028080
:10AA4000557A067B00122C408A0E8B0FA80EA90F98
:10AA5000E8497005750A13803D88828983E412AA4B
:10AA6000AAA3A3EEF0A3EF12BE76E50CF0A3E50DCA
:10AA7000F09002E612AB329002E66017E0FCA3E031
:10AA80008003EAFCEBFD8C828D8312AB3270F38C79
:10AA9000828D8312B902A90A7404120EA702C000A3
:10AAA000A3A3A3A3E0FEA3E0FF22F0A3F088828982
:10AAB000832274F2120EF9890CE975F017A4FEAF27
:10AAC000F09002E5E4F09002E312AB32600A122C3F
:10AAD000469002E3E4F0A3F0EEFAEFFB122C408A7A
:10AAE0000A8B0BEA450B602FEEFCEFFD7900122B71
:10AAF000C89002E3E50AF0A3E50BF07B00800812A2
:10AB0000AB1CE4F0A3F00BEBC3950C40F2E50C900A
:10AB100002E5F079008002791302C000EB75F017AE
:10AB2000A4F8A9F09002E3E028FAA3E0398A82F5BC
:10AB3000832212B698EA4B2274F4120EF9750A00B9
:10AB4000750B00740C120EDD12BE4AFEE9FF800C7C
:10AB5000E50A2401F50AE50B3400F50BC3E50A9C70
:10AB6000E50B9D5032850A0C850B0D7403780C1291
:10AB70000E7EEA250CF8EB350DF988828983A3A3B4
:10AB8000A3A3A3A312B9DDEE650C7003EF650D70EE
:10AB9000BFE8FAE9FB80047A007B00802774F41296
:10ABA0000EF97900EAA2E0501B750A0C750BA97822
:10ABB0000A12110C7C047D007A0C7B091224427469
:10ABC00002120EA77F04020FCBC082C0839002E660
:10ABD00012ABFC601C88828983A3A3E06A7003A384
:10ABE000E06B8882898370E8A3A3A3A312B6948044
:10ABF000047A007B00D083D082020B1C12C0D3E801
:10AC0000492274EE120EF974FC120E91EAFEEBFF6B
:10AC1000851A82851B83E4F0A3F0EE240212B8E6C5
:10AC2000EE240512AE17EE2404F510EF12B1FCE08D
:10AC300024FE603924FC604624FE605224FE605EDF
:10AC400024FE700302AD1C24FE700302AD9424FEAA
:10AC5000700302ADA324FE700302ADB224FC7003A6
:10AC600002ADC124FE700302ADD002AE0D9002FF12
:10AC70007417F0A3E412AE3112213002AE0D851A22
:10AC800082851B83AC82AD8312246602ADDD851AFA
:10AC900082851B83AC82AD8312246C02ADDD850EF0
:10ACA0000A850F0B7402120EDDAC82AD83850A8219
:10ACB000850B8312B6941223A08A0E8B0FAC0EADB7
:10ACC0000FEC4D6042E4F50EF50F780E12110C7585
:10ACD0000EFF750F02780E12110C750E00750F0322
:10ACE000780E12110C7408120EDD1211237916124F
:10ACF000B68E1224A87408120EA7E9F50E700B1276
:10AD0000B68A122148800F750E01850A82850B8351
:10AD100012AE1F12B902850E0A02ADE07402120EC5
:10AD2000DDAC82AD83850E82850F8312B69412232B
:10AD3000A08A128B13AC12AD13EC4D6043850E82CA
:10AD4000850F83A3A31211237512FF7513027812C6
:10AD500012110C751200751303781212110C74087D
:10AD6000120EDD121123791612B68E1224A8740861
:10AD7000120EA7E9F50B700B12B68A12214E800F46
:10AD8000750B01850E82850F8312AE1F12B90285E5
:10AD90000B0A804C851A82851B83AC82AD831224FA
:10ADA00072803A851A82851B83AC82AD8312247827
:10ADB000802B851A82851B83AC82AD8312247E8012
:10ADC0001C851A82851B83AC82AD83122484800D7E
:10ADD000851A82851B83AC82AD8312248AE9F50A29
:10ADE000E50A60298E828F83A3E06414601F8510BA
:10ADF00082851183E09002FF12AE2912C0CF90032A
:10AE00000012B902E50AA312AE3112212AEEFAEFBE
:10AE1000FB12241202B7EEF50EEF3400F50F2212EA
:10AE2000C0D3851A82851B8322F0851A82851B83F5
:10AE300022F07CFF7D02850C82850D8312B698225C
:10AE400074EE120EF974FC120E918A0C8B0D8C109C
:10AE50008D11EA2405F50AEB3400F50B7C157D0015
:10AE600079007AFF7B02122BC8E50A2402F50EE571
:10AE70000B12AE1A851A82851B8385821285831375
:10AE8000781212110C850A82850B83A3A3A3A31247
:10AE9000B34412110CE50A2405F512E50B3400F554
:10AEA00013781212110C850E82850F8312B69E1232
:10AEB000239A7406120EA78A128B13AE12AF13E5F3
:10AEC0000C2402F50CE50D12B8E9EE4F700302B048
:10AED0000680177402120EDD12B69488828983EA06
:10AEE000F0A3EBF09002FFE004F09002FFE0C394C7
:10AEF00005400302B006E4F512F513781212110CA6
:10AF00007512E8751302781212110C7512E9751397
:10AF100002781212110C7406120EDD121123791030
:10AF2000EEFCEFFD12B68E1224A87408120EA7E9EB
:10AF3000705E850A82850B83A3A3A3A3A3A3A3E0CA
:10AF4000F89002E8E068704812B34412110C7CE9F2
:10AF50007D02E50A2408FAE50B3400FB122BC274CB
:10AF600002120EA7E960298E828F83A3A3A3A312E6
:10AF7000B6949002FFE0F51274027812120E7E74FD
:10AF8000002512F58274033513F583EAF0A3EBF084
:10AF90007402120EDD858212858313781212110C51
:10AFA0007402120EDD121123850E82850F8312C0EA
:10AFB000E41223A67404120EA78A128B13AE12AFEA
:10AFC000139002FFE0F51275130074027812120E4E
:10AFD0007E74FF2512F874023513F988828983A3E1
:10AFE00012AB32700302AECAE82403F8E93400F968
:10AFF000EE4F600302AED38882898374FFF0A3F022
:10B000009002FFE004F09002FFE0600A12B68A129C
:10B01000213C7900800B850A82850B8312B8F9796F
:10B020000A02B7EE74EA120EF974FE120E918C1435
:10B030008D15EA2405F50EEB12C0EE12AAA4750ACE
:10B0400000750B00EA2402F512EB3400F513851AA3
:10B0500082851B8385820C85830D780C12110C85EB
:10B060000E82850F83A3A3A3A312B20612110CE5CF
:10B070000E2405F50CE50F12B8E9780C12110C85B9
:10B080000E82850F8312C0E212239A7406120EA755
:10B090008A0C8B0DEA450D700302B1B7EA2404F562
:10B0A00010EB12B1FC12AAA48A828B83A3A3A3E0A3
:10B0B000F985128285138312B69412238EE9F50B5B
:10B0C000600302B1B7E4F516F517781612110C7586
:10B0D00016E8751702781612110C7516E975170225
:10B0E000781612110C7406120EDD1211237913ACAE
:10B0F0000CAD0D85128285138312B6941224A874A8
:10B1000008120EA7E9F50B600302B1B79002E8E060
:10B11000F8E50A7009E02402900300F0801790031C
:10B1200000E0FCE82402FAE43400FBEA6C7001EB76
:10B13000600302B1BB850A82AA8212B33B94141247
:10B14000B3335073851082851183E0C0E074012A07
:10B1500012B1F3D0E0F0050A851082851183A3E0D7
:10B16000C0E0850A0C7401250C12B1F3D0E0F005A3
:10B170000A9002E812B20612110C7CE97D02850ADF
:10B180000C7401250CFA74033400FB122BB074020A
:10B19000120EA79002E8E0250AF50A74FF6E70030C
:10B1A00074FF6F6012EE24010EEF3400FFE50AC356
:10B1B0009414500302B04EE50A601312B57F851255
:10B1C0008285138312B69412214279008014E50B14
:10B1D0007003750B0A851482851583EEF0A3EFF0DA
:10B1E000A90B7402120EA77F0E020FCB850A0E74F4
:10B1F00001250EF58274033400F583223400F51125
:10B20000851082F5832212BE892274EE120EF97423
:10B21000FE120E918C108D11EA2405F50EEB12AE84
:10B220001A750D009002FFE4F0F50CEA2402F50A0D
:10B23000EB3400F50B80499002FFE0FA9002E8E061
:10B24000F812B33B941712B333400D9002FFE0F8AD
:10B250007416C3989002E8F012B34412110C7CE902
:10B260007D0274002AFA74033400FB122BB07402BE
:10B27000120EA79002E8E0F89002FFE028F0050C1B
:10B28000E50E2416F582E50F12B1F7E0F8E50CC3E0
:10B2900098400302B31C9002FFE0C39416507DE572
:10B2A0000CC333F8E433F9E50E28FEE50F39FF85CA
:10B2B0001A82851B83AC82AD838E828F8312B694F3
:10B2C0001223A08A128B13AC12AD13EC4D700575CE
:10B2D0000D018043E4F512F513781212110C75126A
:10B2E000E8751302781212110C7512E975130278C1
:10B2F0001212110C7406120EDD1211237916850A32
:10B3000082850B8312B6941224A87408120EA7E942
:10B31000F50D700302B23712B8F580107CFF7D0284
:10B32000850A82850B8312B694122154A90D7402EA
:10B3300002B7F0E99400C365D03322EA28F8E43478
:10B3400000F9E822E0F51275130078122274EA126F
:10B350000EF974FC120E918A0E8B0F8C148D15EA67
:10B360002405F50CEB12B8E9750A00750B00E50C25
:10B370002402F512E50D3400F5137402120EDD857A
:10B380008210858311781012110C850C82850D8333
:10B39000A3A3A3A312BE3512110CE50C2405F510CE
:10B3A000E50D3400F511781012110C851282851309
:10B3B0008312B8EF12B68E12239A7406120EA78A61
:10B3C000108B11AE10AF11E50E2402F510E50F340D
:10B3D00000F51180408882898374FFF0050A12B15C
:10B3E000EC74FFF0050A9002E8E0F50E750F0078A6
:10B3F0000E12110C7CE97D02850A0E7401250EFAED
:10B4000074033400FB122BB07402120EA79002E8F2
:10B41000E0250AF50AEE4F60718E828F83A3A3A305
:10B42000E0F985108285118312B69412238EE9F516
:10B430000BEE240412AE17E97044E4F516F5177804
:10B440001612110C7516E8751702781612110C7584
:10B4500016E9751702781612110C7408120EDD1217
:10B4600011237911EEFCEFFD85108285118312B650
:10B47000941224A87408120EA7E9F50B6027850E14
:10B4800082850F8312B57512B902E50A700302B501
:10B490005B12B57F85108285118312B69412215AF2
:10B4A000790002B570850A82AA82EA9002E87009E2
:10B4B000E02404900300F08022E0F8900300E0F51F
:10B4C00016E82404FCE43400FDEC65167001ED7010
:10B4D000C012B33B941212B33350B6850E82850F5F
:10B4E00083E0C0E074012A12B1F3D0E0F0050A85D0
:10B4F0000E82850F83A3E0C0E012B1ECD0E012B55C
:10B500009185820E85830F780E12110C7404120E31
:10B51000DD12112385128285138312C0E41223A643
:10B520007404120EA78A0E8B0FAE0EAF0F850A0E93
:10B530007401250EF874033400F9EE4F700302B362
:10B54000D5851A82851B83E08882898312B591A3F1
:10B55000E0C0E012B1ECD0E002B3E3E50B7003759C
:10B560000B0A850C82850D8312B57512B902A90BE1
:10B57000740402B1E412C0D385148285158322902D
:10B580000300E0F5F0E50A849002FFF07CFF7D0205
:10B5900022F0050A851A82851B832274EC120EF9AB
:10B5A00074FE120E918A0A8B0B8C108D11EA240501
:10B5B000FEEB3400FF851A82851B83AC82AD838E3F
:10B5C000828F8312B6941223A08A0C8B0DEE24185E
:10B5D00012AE17EA450D700302B66512B7D75032A6
:10B5E000851A82851B8312B69412249C8A128B13AF
:10B5F000EA4513606B7912AC0CAD0D850A82850BA0
:10B600008312B694851282851383120EF7E9F50C26
:10B610007058E4F50CF50D780C12110C8E828F83A6
:10B62000A3A3E0F50C780C12110CEE240312B8E67B
:10B63000780C12110C8E828F8312B69E1224AE7477
:10B6400006120EA7E9F50C7021850E82850F83E0A6
:10B65000701F850A82850B8312B6941221608011B7
:10B66000750C0E8009750C018004E50C600312B89E
:10B67000F5850E82850F83E0600479008002A90CB5
:10B680007402120EA77F0C020FCB7CFF7D02850C8B
:10B6900082850D8312B69822E0FAA3E0FB22E0FC3B
:10B6A000A3E0FD850A82850B8312B6982274EE1200
:10B6B0000EF974FE120E918A0A8B0B8C0E8D0FEA16
:10B6C0002405FEEB3400FF751000851A82851B836C
:10B6D000AC82AD838E828F8312B6941223A08A0C23
:10B6E0008B0DEA450D700302B7C312B7D7503585ED
:10B6F0001A82851B8312B69412249C8A108B11EA3D
:10B700004511605E7912AC0CAD0D850A82850B8304
:10B7100012B694851082851183120EF7E9F5106038
:10B720000302B7C6850A82850B8312B9DDAA0CFB1A
:10B730001224908A128B13A812A913E849701E7A5A
:10B74000FF7BFF1224908A128B13A812A913E849D9
:10B75000606C88828983E50CF0A3E50DF0750C0020
:10B76000800775100E805F050C9002E5E0FAE50C8D
:10B77000C39A504AE50C75F017A4FAABF088828999
:10B7800083A3A3E02AFAA3E03BFB8A828B8312B84F
:10B79000EFEC4D70D2750C17750D00780C12110C72
:10B7A000EEFCEFFD122BB07402120EA7EEFCEFFDC3
:10B7B000850A82850B8312B6941221668014751057
:10B7C00009800375100112C0CB850E82850F83128C
:10B7D000B902A91002B32EE50A2402F50AE50B34DA
:10B7E00000F50B8A828B83A3A3A3E0A2E522740455
:10B7F000120EA77F0A020FCB74EC120EF98C128D79
:10B8000013EA2405F50EEB12AE1A751100EA2402B4
:10B81000F50CEB12B8E9850C82F58312B69412246C
:10B82000908A0A8B0BEA450B700302B8DB75100097
:10B830008071850E82850F83E06401704F8E828F48
:10B8400083A3A31211238E828F83A3A3A3A3E0F566
:10B8500014751500781412110CEE2405F514EF344C
:10B8600000F515781412110C12B68E1224AE74065F
:10B87000120EA7E9F5116014850E82850F83E4F09E
:10B8800012C0CB85128285138312B9027C177D000A
:10B890007900EEFAEFFB122BC88E828F83E4F0A3BF
:10B8A000F005109002E5E0F8E510C398501EE51091
:10B8B00075F017A4F8A9F0850A82850B83A3A3125B
:10B8C000C0F812B8EFEC4D600302B832850A8285E9
:10B8D0000B8374FFF0A3F0E511700612B68E1221EF
:10B8E0006CA91102B685F50CEF3400F50D22A3E02A
:10B8F000FCA3E0FD228E828F8312C0D38510828547
:10B900001183E8F0A3E9F022C082C0839002E1E055
:10B910006A7003A3E06B70067AE17B0280047A0010
:10B920007B0002ABF5C082C08378008C828D83E0FF
:10B930006A7003A3E06B7010E875F003A4F8A9F037
:10B94000EC28FAED39FB8015088C828D83A3A3A324
:10B95000E06A7003A3E06B60DF7A007B0002ABF566
:10B9600074F6120EF912245A8A828B83E58245837B
:10B9700070067A007B008007A3A3A3A312B69402EB
:10B98000BF7C74F2120EF9E9FE740E120EDD12B9CC
:10B99000DD7410120EDD12BE558C828D83E06402C0
:10B9A0007036A312C0D9F50EA3E0F9A80E74026890
:10B9B00070037429697021750E02750F00780E12DC
:10B9C000110C780A12110C780C12110CEEF91224D9
:10B9D000C67406120EA78002790102C000E0F50CC1
:10B9E000A3E0F50D2274E8120EF974FB120E91E932
:10B9F000851A82851B83F08A188B19ECFEEDFF7582
:10BA00001200741D120EDD12C0CF741D120EDD1255
:10BA1000B9028E828F83A3A3A3E0A2E4502D741DEC
:10BA2000120EDD12B69412249C8A828B83E5824525
:10BA300083700302BE26790AEEFCEFFDAA18AB194B
:10BA4000120EF7E9F512600302BE29741F120EDD13
:10BA500012BE557421120EDD12B9DD7423120EDDF3
:10BA6000E0F510A3E0F5118E828F83E0640260039D
:10BA700002BDD4A312C0CF850A82850B83A3858221
:10BA800014858315EE240612AE1788828983E0FAA6
:10BA9000A3E0F9EA2400F516E439F5177816121137
:10BAA00096010000280128C9BA070002288EBB03AE
:10BAB00028FBBA0029C5BC0129F0BC022991BC03AE
:10BAC00029C5BC04296FBDD4BDE510451160030232
:10BAD000BDCF850E82850F8312BE4AFAE9FB8A82AA
:10BAE0008B83E0850C82850D8312BE8012110C8A37
:10BAF000828B83A3E0FCA3E002BD59E510451160F1
:10BB00000302BDCF850C82850D837401F012BE5DEA
:10BB1000850A82850B83F07C007D008E828F83A353
:10BB2000A3A3A3E02401FAA3E03400FB1223A0EABC
:10BB30004B60418A828B83E02402F8850C82850D5C
:10BB400083E028F0EA2404F8EB3400F98882898342
:10BB5000E085148285158312BE9212BE8012110CEC
:10BB60008A828B8312B8EEE50A2403FAE50B3400CF
:10BB7000FB02BD5E850C82850D83E02404F07C040D
:10BB80007D007900AA14AB15122BC802BE29E5105E
:10BB90004511600302BDCF12BE5DFEA3E0FF850C20
:10BBA00082850D837404F0EE850A82850B83F0EFA5
:10BBB000851482851583F07403120EDDAC82AD838B
:10BBC000EEFAEFFB1223A08A0E8B0FEA450F7003EB
:10BBD00002BC728A828B83A3A312AAA07401120EE4
:10BBE000DD858210858311781012110C7405120EF8
:10BBF000DD1211237CFF7DFF1223A67404120EA711
:10BC00008B11EA45117033850E82850F8312BE3584
:10BC100012110C850E82850F83A31211237C027DE5
:10BC2000007A617BA91222027404120EA7E9700A3D
:10BC30007401120EDD74FFF0A3F08E828F83E06436
:10BC4000027039750E02750F00780E12110C8E827B
:10BC50008F8312B8EEE50A2404FAE50B3400FB12D8
:10BC60002BB07402120EA7850C82850D83E024028E
:10BC700080097401120EDDEEF0A3EFF07401120ED4
:10BC8000DD12BE46F07401120EDDA312BE3E02BDEF
:10BC9000C9E5104511600302BDCF850E82850F8373
:10BCA00012B8EFAA18AB191224BA850C82850D833D
:10BCB0007402F0EA850A82850B83F085148285156B
:10BCC00083EB02BDCCE5104511600302BDCF12BE6F
:10BCD0005DF8A3E0F9850C82850D837402F0E88598
:10BCE0000A82850B83F0E985148285158302BDCC19
:10BCF000850E82850F8312B694122BAAEAFC8C82E1
:10BD0000A882C39510E49511405FE865107002E5C4
:10BD10001170047C008022851A82851B83E0FAE57D
:10BD2000102AFAE5113400FBC3EA98EB94005003A3
:10BD3000E08005E510CCC39CFCEC850C82850D836E
:10BD4000F08C0C750D00780C12110C850E82850F8D
:10BD500083E02510FCA3E03511FDAA0AAB0B122BE2
:10BD6000B07402120EA702BE2975120702BE29E5A1
:10BD7000104511705A850E82850F8312C0CF850C35
:10BD800082850D83740712AAAC12BE3E12AAACA320
:10BD9000E0851482851583F0E82402FAE93400FB7B
:10BDA0008A828B8312BE3E12BE6D12BE46A312BEA5
:10BDB0007612BE4FF0E82405F8E93400F98882894C
:10BDC0008312BE4FA312BE92A3A3A3A3F0805A7501
:10BDD000120B8055741D120EDD12B69412245A8A6D
:10BDE000828B83E5824583603D12C0CF880E890F28
:10BDF000E8450F6031781012110C780C12110C7894
:10BE00000A12110C7406120EDDE0F9EEFCEFFDAA29
:10BE100018AB19850E82850F83120EF77406120E69
:10BE2000A7E9F512800375120EA9127405120EA768
:10BE30007F10020FCBE0F510751100781022E0851D
:10BE40000A82850B832212BE9C2212C0D3E82212E2
:10BE5000BE9CA3A322E0F50AA3E0F50B22850E8287
:10BE6000850F83E0F8A3E0F5838882E022A3A3F0A6
:10BE70008A828B83A322F088828983A3A3A3A3222F
:10BE8000F08A828B8312BE8922E0F50C750D007852
:10BE90000C22F088828983A312BE9C22E0850A824C
:10BEA000850B83A3A32274EE120EF974FE120E9179
:10BEB0008A0C8B0DECFAEDFB7414120EDDE0F5121A
:10BEC000A3E0F5137416120EDDE0FE7418120EDDF9
:10BED000E0F510A3E0F511851A82851B83AC82ADD5
:10BEE000831223A08A0E8B0FEA450F6049851A82C0
:10BEF000851B8312B69412245A8A828B83E582456D
:10BF000083602FA3A312BE55E50A450B6024781069
:10BF100012110C781212110CEEF9AC0EAD0FAA0C26
:10BF2000AB0D850A82850B83120EF77404120EA7DF
:10BF30008006790E8002790102B32E74F6120EF992
:10BF400074FF6A700374FF6B70168C828D8312BF4E
:10BF500081E4F08C828D83A3A3A312BF81A38018F8
:10BF60001224968A0A8B0BA80AA90BE849600D884F
:10BF700082898374FF12AAAAA3A3E4F07F02020FAE
:10BF8000CB74FFF0A3F08C828D83A3A32274F612EE
:10BF90000EF91224968A828B83E58245836006A37C
:10BFA000A3E0FA80027A007B0080D174F2120EF9CD
:10BFB0008A0A8B0BECFEEDFF740E120EDDE0F50C21
:10BFC0001224968A0E8B0FA80EA90FE8497026EE50
:10BFD000FCEFFD7AFF7BFF1224968A0E8B0FA80ED2
:10BFE000A90FE84970047911801688828983E50ACF
:10BFF000F0A3E50BF088828983A3A3E50CF0790018
:10C000007F06020FCB74EE120EF9EAFEEBFF8C0AEC
:10C010008D0B890E7414120EDD12C0CF7416120E21
:10C02000DD12B694750F00E849600302C0C37402C4
:10C03000650E600302C0BE7412120EDD12C0D9FC80
:10C04000A3E0F9EC2400F510E439F511EAF4F8EB7B
:10C05000F4F9EC58F8E51159F9E849705CE50A245F
:10C0600006F8ED3400F9880C890D8882F58312C03A
:10C07000E41224BA8A128B13E51065127004E511DC
:10C0800065136042781012110C850C82850D8312A5
:10C09000C0E41224C07402120EA7E9F50F702778CD
:10C0A0001012110C850A82850B83A3A312C0E21221
:10C0B00024D27402120EA7800D750F808008750FB0
:10C0C0000D8003750F0BA90F02B7F38E828F8312B9
:10C0D000C0D322E0F8A3E0F92212C0D3888289837A
:10C0E000E022A3A3E0FCA3E0FDEEFAEFFB22340084
:10C0F000F50F850E82F58322E028FEA3E039FF8E3E
:10C10000828F832274F2120EF9EAFEEBFF890D741E
:10C1100001650D600E7402650D706A790112268842
:10C12000E97062EEFAEFFB1224908A0A8B0BEA4563
:10C130000B6047750C00800B7C177D007900122B7B
:10C14000C8050C9002E5E0F8E50CC3985021E50C19
:10C1500075F017A4F8A9F0850A82850B83A3A3E0E4
:10C1600028FAA3E039FB8A828B8312ABFC70C98565
:10C170000A82850B8374FFF0A3F07C187D03EEFA2E
:10C18000EFFB1224B402C00074F2120EF98A0A8B7B
:10C190000BECFEEDFF740E120EDD12B9DD90090AF4
:10C1A000E0F4603D7A097B00122BD4EA4B60328ABE
:10C1B000828B8374B1F0A3E412BE6FA312BE6DA391
:10C1C000E50AF0A3E50B12C1E4EEF0A3EF12C1E41F
:10C1D000A3A3E50CF0A3E50DF090090AE0F9122BFA
:10C1E000E002C000F08A828B83A3A3A3A3A322C092
:10C1F00082C0839061907404F0A37448F0A3740229
:10C20000F09061807440F09061BC7403F09061879D
:10C210007419F0906265741BF0906249E0C3941346
:10C2200090619C400A7409F0906066740180077404
:10C230000DF0906066E4F090619A7433F0A3745549
:10C24000F09061A0743AF090053EE064017009C27C
:10C25000919003A5746780059003A57461F0902EFA
:10C2600042E493906186F0902E44E493F46027E4D6
:10C2700093540FF8906185E0686012E5C6548044DD
:10C2800049F5C6E59E547F644970F8E8F053C680CE
:10C29000E59E547F70FA79051229BE02C44AC08215
:10C2A000C083E9540FF9906185E0696012E5C654D6
:10C2B000804449F5C6E59E547F644970F8E9F0531F
:10C2C000C680E59E547F70FA02C44AC082C083E5EE
:10C2D000A8F853A87E906181E4F0A3F0A3F0C2BA5D
:10C2E000539AFEC289759B00C2C275E90075910020
:10C2F00075BF0075A91175B905906181F0A374C06F
:10C30000F0A3E4F0D2BA439A0174805842A802C460
:10C310004AC082C08374F8120E919003A3E0F8A380
:10C32000E0F9E849700302C43F9003A3E054406081
:10C33000237908851A82851B83AA82AB831228324F
:10C34000851A82851B83AA82AB831225389003A3AA
:10C35000E054BFF0E054806010790C7A647B0512E1
:10C3600028329003A3E0547FF0E0A2E050319061C6
:10C370009A7433F0A37455F09061A0743AF090056C
:10C380003EE064017009C2919003A5746780059036
:10C3900003A57461F012253E9003A3E054FEF0E083
:10C3A0005402603190619A743FF0A3745AF0906126
:10C3B000A0747FF090053EE064017009D291900373
:10C3C000A5747180059003A5746AF012253E900350
:10C3D000A3E054FDF0E054046013902E40E49390E9
:10C3E0006186F01225449003A3E054FBF0E054086A
:10C3F0006013902E41E493906186F01225449003DF
:10C40000A3E054F7F0E054106013902E42E49390B0
:10C410006186F01225449003A3E054EFF0E054202D
:10C42000600A1225449003A3E054DFF0A3E0540116
:10C43000600D12276012254A9003A4E054FEF074A8
:10C4400008120EA702C44AF0A3F0D083D082020BD8
:10C450001C74EC120EF974F4120E91851A82851B6D
:10C4600083AC82AD837583A97582287404120DA4F0
:10C47000902E4093F4600302C5DD907808E0C394E9
:10C4800002500302C5BD7404120EDDAC82AD83758B
:10C4900083A87582F67408120DA4851A82851B8301
:10C4A0008582148583157404120EDDAC82AD83750C
:10C4B00010FF7511FF7FFF7E00750E48750F7880A5
:10C4C0001574086E700302C55174096E700302C5BD
:10C4D00051740A6E607B850E82850F83780A120D77
:10C4E000498C828D83A90BE50CC9F88812741878E1
:10C4F0000A120C77E512450AF8C3E098A3E0998583
:10C500000E82850F83780A120D4940188C828D8324
:10C510007418780A120C77E512450AF8E0C398F807
:10C52000A3E0801C7418780A120C77E512450AFA09
:10C53000E9FB8C828D83E0F8A3E0F9EAC398F8EB7D
:10C5400099F9C3E89510E99511500688108911EE04
:10C55000FF0EE50E2404F50EE50F3400F50FEEC3D3
:10C560009413500302C4C174FF6510700474FF6516
:10C570001160238F0A7402780A120E7E7448250A0D
:10C58000F5827478350BF583780A120D498514828B
:10C59000851583E50AF0EC2402FCED3400FD8514DA
:10C5A00082851583A3858214858315740C120EDD94
:10C5B000E5826C7003E5836D600302C4AF750A0108
:10C5C000750B00780A12110C7402120EDDAC82ADEC
:10C5D000837A907B0B122D0C7402120EA7740C122E
:10C5E0000EA77F0C020FCBC082C0839061AE74682F
:10C5F000F0A3746AF090624574FBF0A304F053F466
:10C60000FD43FE0290053E7401F09061A0E0643AA3
:10C6100090619A70237433F0A37455F09061A07404
:10C620003AF0740164017009C2919003A5746780A7
:10C63000289003A574618021743FF0A3745AF09090
:10C6400061A0747FF0740164017009D2919003A518
:10C65000747180059003A5746A02C4497F08020FB3
:10C66000CBC082C08375E1F19004F3E0605B14609D
:10C670000914605F14605714705E12276C9004E90F
:10C68000E0F97AEA7B041229527AD67BBE7C897D56
:10C690008E1229887A557B557C557D0012295E9033
:10C6A00004F4E0F912296A79011229B29004E7E052
:10C6B000F8A3E0C82416F582E83400F5837484F00A
:10C6C000A37427F0790002C44A12277280AF1227A0
:10C6D0007880AA12277E80A5791280EA74F0120E63
:10C6E000F975D90D9004D4E0A2E0E4331313F89067
:10C6F00004E9E0C4333354C0484401F5D978E779FC
:10C700000488828983A3A3A3E0F5D988828983A3BF
:10C71000A882A983E864ED7003E9640470E378D427
:10C72000790488828983A3E0F5D988828983A3A8C4
:10C7300082A983E864DA7003E9640470E575E19521
:10C740009004D4E0F97AD57B0412295890092C740E
:10C750001EF0A37427F0A3747AF0A37428F0A374D6
:10C760007AF0A37428F0A3747AF0A37428F0A37469
:10C7700024F0A37427F0A3747AF0A37428F0A374B0
:10C780003CF0A37427F090093A747AF0A37428F06F
:10C79000A3747AF0A37428F0A3747AF0A37428F039
:10C7A000A3747AF0A37428F0A3747AF0A37428F029
:10C7B000A3747AF0A37428F09004F3E06401900469
:10C7C000E77012E0F8A3E0F5838882A3A3750A005E
:10C7D000750B088010E0F8A3E0F5838882A3A375A9
:10C7E0000A04750B00750C00750D00780A120CC256
:10C7F000750EFF750FFF7510FF751100780A790E21
:10C80000120D109004E7E0F8A3E0C8240EF582E8CA
:10C810003400F583780A120D589004E7E0F8A3E09D
:10C82000C82414F582E83400F5837413F09003A152
:10C830007402F002C65C74F7120EF99004F9E02459
:10C8400007F5D99004E9E0C4333354C0F5D978E74B
:10C85000790488828983A3A3A3E0F5D98882898398
:10C86000A3A882A983E864ED7003E9640470E390EF
:10C8700004F9E0601F78E77904FAE82413F582E907
:10C880003400F583E0F5D988828983A3A882A9833F
:10C890001AEA70E6900519E02407F5D99004E9E05A
:10C8A000C4333354C04404F5D978E77904888289C5
:10C8B00083A3A3A3E0F5D988828983A3A882A9834F
:10C8C000E864ED7003E9640470E3900519E0601F0B
:10C8D00078E77904FAE82433F582E93400F583E057
:10C8E000F5D988828983A3A882A9831AEA70E6759C
:10C8F000E19590092C742AF0A37427F0A3747AF0C0
:10C90000A37428F0A3747AF0A37428F0A3747AF0C7
:10C91000A37428F0A37424F0A37427F0A3747AF00E
:10C92000A37428F0A3743CF0A37427F090093A7420
:10C930007AF0A37428F0A3747AF0A37428F0A37497
:10C940007AF0A37428F0A3747AF0A37428F0A37487
:10C950007AF0A37428F0A3747AF0A37428F09004FA
:10C96000E7E0F8A3E0C8240EF582E83400F583740C
:10C97000FFF0A3F0A3F0A3F09004E7E0F8A3E0C871
:10C980002414F582E83400F5837412F09003A17446
:10C9900001F0FF020FCB74F7120EF99004F9E024B6
:10C9A00007F5D99004E9E0C4333354C04402F5D903
:10C9B00078E7790488828983A3A3A3E0F5D98882E4
:10C9C0008983A3A882A983E864ED7003E9640470F5
:10C9D000E39004F9E0601F78E77904FAE82413F59E
:10C9E00082E93400F583E0F5D988828983A3A8829F
:10C9F000A9831AEA70E675E19590092C7436F0A3C4
:10CA00007427F0A37436F0A37427F0A37436F0A350
:10CA10007427F0A37436F0A37427F0A37436F0A340
:10CA20007427F0A37436F0A37427F0A3743CF0A32A
:10CA30007427F090093A747AF0A37428F0A3747AFA
:10CA4000F0A37428F0A3747AF0A37428F0A3747A86
:10CA5000F0A37428F0A3747AF0A37428F0A3747A76
:10CA6000F0A37428F09004E7E0F8A3E0C8240EF5E2
:10CA700082E83400F58374FFF0A3F0A3F0A3F090F4
:10CA800004E7E0F8A3E0C82414F582E83400F58355
:10CA90007414F09003A17404F002CD5D74F7120ECB
:10CAA000F99004F9E02407F5D99004E9E0C43333A0
:10CAB00054C04406F5D978E7790488828983A3A312
:10CAC000A3E0F5D988828983A3A882A983E864EDCD
