:020000040000FA
:10000000020647C2AFF50841FCFFFFC2AFF5086129
:100010000EFFFFC2AFF5086120FFFFC2AFF5086118
:1000200032FFFFC2AFF5086144FFFFC2AFF50861C0
:1000300056FFFFC2AFF5086168FFFFC2AFF5086168
:100040007AFFFFC2AFF508618CFFFFC2AFF5086110
:100050009EFFFFC2AFF50861B0FFFFC2AFF50861B8
:10006000C2FFFFC2AFF50861D4FFFFC2AFF5086160
:10007000E6FFFFC2AFF50861F8FFFFC2AFF50881E8
:100080000AFFFFC2AFF508811CFFFFC2AFF5088170
:100090002EFFFFFF758701002274F4120531890AD3
:1000A000750C00750D08780C1206367C807D017A7F
:1000B000007B0012044474021205F2850A0E9001BE
:1000C00086E0F50CA3E0F50D7409780C120656E5F0
:1000D0000CF50B9001867409780C120623E0C3F529
:1000E0000CA3E0950DF50D7402780C120623AE0CEE
:1000F000AF0DE50E250BF50B7401650E7006744D02
:10010000250BF50B53B4F375BC0075BC008040742F
:100110008028F582740139F583E0F5BD08E87001A7
:1001200009C3E99408402C050A7408650A70037530
:100130000A55750C00750D08780C1206367C807D0A
:10014000017A007B00A90A12044474021205F278B5
:10015000007900E50E650A700AE8497006780379AF
:100160000080B9E50B650A70A6EE687002EF697051
:100170009EE5BDF9E5BCFAE9FB7F0502059774FC35
:1001800012060D750A04750B00780A120636740201
:1001900012067C7A007B007908120444740212056E
:1001A000F2852182852283E0F47003A3E0F4602DC0
:1001B000852182852283E0F8A3E0F9E849601E7476
:1001C00002120672E0687003A3E0697010750901FD
:1001D000024030C2AF75C9AB75C95B80FE780A12A8
:1001E0000636740212067C7A007B00790112044400
:1001F00074021205F2852182852283E0F47003A344
:10020000E0F470030202EC852182852283E0F8A3EA
:10021000E0F9E84970030202EC7402120672E0F899
:10022000A3E0F9852182852283E0687003A3E06959
:100230007010750900020830C2AF75C9AB75C95B93
:1002400080FE74FF68700374FF6960030202EC5360
:10025000BEFBE59DA2E650FAE5C654804449F5C6CA
:10026000E59E547F644970F853C67FE59EA2E7403F
:10027000FA53C680E59E547F70FA43BE04906270C4
:100280007408F07409F5D575D48079011200998A43
:100290000A8B0BA80AA90B852182852283E068704E
:1002A00003A3E0697046852182852283E0F8A3E0FC
:1002B000F97402120672E8F0A3E9F0852182852222
:1002C0008374FFF0A3F0750A01750B00780A12061B
:1002D00036740212067C7A007B021204CB7402127E
:1002E00005F2C2AF75C9AB75C95B80FE43BE031290
:1002F0000094C2AF75C9AB75C95B80FEE5096007A4
:10030000E508D2AF024033E508D2AF020833E50971
:100310006007E508D2AF02403BE508D2AF02083BD8
:10032000E5096007E508D2AF024043E508D2AF0215
:100330000843E5096007E508D2AF02404BE508D263
:10034000AF02084BE5096007E508D2AF024053E56C
:1003500008D2AF020853E5096007E508D2AF0240B2
:100360005BE508D2AF02085BE5096007E508D2AF9C
:10037000024063E508D2AF020863E5096007E508BB
:10038000D2AF02406BE508D2AF02086BE509600707
:10039000E508D2AF024073E508D2AF020873E50961
:1003A0006007E508D2AF02407BE508D2AF02087BC8
:1003B000E5096007E508D2AF024083E508D2AF0245
:1003C0000883E5096007E508D2AF02408BE508D253
:1003D000AF02088BE5096007E508D2AF024093E55C
:1003E00008D2AF020893E5096007E508D2AF0240E2
:1003F0009BE508D2AF02089BE5096007E508D2AF8C
:100400000240A3E508D2AF0208A3E5096007E508AA
:10041000D2AF0240ABE508D2AF0208ABE5096007F6
:10042000E508D2AF0240B3E508D2AF0208B3E50950
:100430006007E508D2AF0240BBE508D2AF0208BBB7
:100440000002044074F5120531890A740F550AF54B
:100450000C750D00740B780C120623EA2400F8EBDF
:100460003480F9E82400E9350DF9E5C7F50BA2AFB2
:10047000E433F50CC2AFE50AC4540FFAE5C754F8EB
:100480004AF5C7740B120672E0FEA3E0FFEE4F6060
:100490002CEEFAEFFB88828983E08C828D83F088D2
:1004A000828983A3A882A9838C828D83A3AC82AD29
:1004B00083EA24FF1AEB34FFFBEA4B70D8850BC7A5
:1004C000E50CA2E092AF7F0402059774F7120531A4
:1004D000ED900980F0ECA3F0A37462F0A37473F0C4
:1004E000A3E0541FF07409120672E0F50AA3E0F5C8
:1004F0000BE50A333354FC900985F07406780A1230
:100500000656E50A900984F09009867412F0A374E7
:1005100042F053D1FE75D601EA906271F0EBA3F080
:10052000906270E0D2E1F0E0A2E740FB7F020205BA
:10053000972521C582C0E0E52234FFC583C0E0E5F0
:1005400021C3958224F910AF0885832285822180FA
:1005500008858322858221D2AFCEF0A3E520F0A3C7
:10056000780AE608F0A3DEFAEFF0A3E58124FBF8B1
:10057000E608F0A3E608F0A30808E608F0A3E608FA
:10058000F0A315811581D0E0FED0E0F8158115812A
:10059000E8C0E0EEC0E022852283852182E0A3FE50
:1005A000E0A3F520780AE0A3F608DFFAE0A3FFE075
:1005B000A3C0E0E0A3C0E0E0A3C0E0E0A3C0E0107F
:1005C000AF08858221858322800885822185832248
:1005D000D2AFD083D082222521F58210AF08F52139
:1005E000400C15228008F52140021522D2AF852249
:1005F000832200C0D0252110AF08F521500C052220
:100600008008F52150020522D2AFD0D0222521103A
:10061000AF08F521400C15228008F5214002152273
:10062000D2AF22700422600D18C6C333C608C63389
:10063000C6D5E0F4182274028000C0E0F40412056C
:10064000D7D0E01206652275D00075813F752180F4
:10065000752201020684600C08C6C313C618C613AF
:10066000C6D5E0F422CAC0E0E6F0A308DAFAD0E08A
:10067000FA222521F582E43522F583222521FCE4A6
:100680003522FD2212017E12068A00000080FBFF47
:10069000FFFFFFFFFFFFFFFFFFFFFFFFFFFFFFFF6A
:1006A000FFFFFFFFFFFFFFFFFFFFFFFFFFFFFFFF5A
:1006B000FFFFFFFFFFFFFFFFFFFFFFFFFFFFFFFF4A
:1006C000FFFFFFFFFFFFFFFFFFFFFFFFFFFFFFFF3A
:1006D000FFFFFFFFFFFFFFFFFFFFFFFFFFFFFFFF2A
:1006E000FFFFFFFFFFFFFFFFFFFFFFFFFFFFFFFF1A
:1006F000FFFFFFFFFFFFFFFFFFFFFFFFFFFFFFFF0A
:10070000FFFFFFFFFFFFFFFFFFFFFFFFFFFFFFFFF9
:10071000FFFFFFFFFFFFFFFFFFFFFFFFFFFFFFFFE9
:10072000FFFFFFFFFFFFFFFFFFFFFFFFFFFFFFFFD9
:10073000FFFFFFFFFFFFFFFFFFFFFFFFFFFFFFFFC9
:10074000FFFFFFFFFFFFFFFFFFFFFFFFFFFFFFFFB9
:10075000FFFFFFFFFFFFFFFFFFFFFFFFFFFFFFFFA9
:10076000FFFFFFFFFFFFFFFFFFFFFFFFFFFFFFFF99
:10077000FFFFFFFFFFFFFFFFFFFFFFFFFFFFFFFF89
:10078000FFFFFFFFFFFFFFFFFFFFFFFFFFFFFFFF79
:10079000FFFFFFFFFFFFFFFFFFFFFFFFFFFFFFFF69
:1007A000FFFFFFFFFFFFFFFFFFFFFFFFFFFFFFFF59
:1007B000FFFFFFFFFFFFFFFFFFFFFFFFFFFFFFFF49
:1007C000FFFFFFFFFFFFFFFFFFFFFFFFFFFFFFFF39
:1007D000FFFFFFFFFFFFFFFFFFFFFFFFFFFFFFFF29
:1007E000FFFFFFFFFFFFFFFFFFFFFFFFFFFFFFFF19
:1007F000FFFFFFFFFFFFFFFFFFFFFFFFFFFFFFFF09
:0400000500000647AA
:00000001FF
