:020000040000FA
:10400000787DFFFF0100007C42424242FFFFFFFF3C
:10401000FFFFFFFFFFFFFFFFFFFFFFFFFFFFFFFFB0
:10402000000102030405060708090A0BFFFFFFFF52
:104030000245600253E3FFFFFFFFFFFFFFFFFFFFAB
:10404000FFFFFFFFFFFFFFFFFFFFFFFFFFFFFFFF80
:10405000FFFFFFFFFFFFFFFFFFFFFF025B7CFFFF94
:10406000FFFFFF025B5EFFFFFFFFFFFFFFFFFFFFA2
:10407000FFFFFFFFFFFFFFFFFFFFFFFFFFFFFFFF50
:10408000FFFFFF025456FFFFFFFFFFFFFFFFFFFF91
:10409000FFFFFFFFFFFFFFFFFFFFFF025B17FFFFB9
:1040A000FFFFFFFFFFFFFFFFFFFFFF025B40FFFF80
:1040B000FFFFFF02524F01FF0000B400002800285C
:1040C00000283075A000A000A000A0000008000893
:1040D000E001F000100010001000100010001000AF
:1040E00050005000500010001000D00700000000E9
:1040F00000000F00010005003075070010000100EE
:1041000081FF00000000FFAA5DC85DB05DFF0202F4
:104110000208025000A0000000E80302ED82010046
:1041200000B68202E982010000BC0A02DF820100BF
:1041300000B40202E982010000BD0A02DB82010034
:1041400000CA0202E982010000BE0A02D98201000F
:1041500000CC0202E982010000BF0A02D5820800F9
:1041600000CD0202E982010000C00A02D1820100F2
:1041700000C10AFF0100FF2002ED82010000B382AE
:1041800002E982010000250B02CF8200000000003E
:104190000209830300001A038063806380638063E5
:1041A00080638063806380638063806380638063F7
:1041B000806314662C660E66FFFF424D14002000DB
:1041C0006400126402ED82010000BC8202E98201F7
:1041D0000000700B02D382010000710B02098303FF
:1041E00000005808020202020202020202010D004F
:1041F0000000100102ED82010000BF8202E982018D
:104200000000920B02C9820100005E0802E98201EF
:104210000000930B02C7820100005B8102E982016A
:104220000000940B022282010000B98102E98201A0
:104230000000950B02C582010000988102E982010D
:104240000000960B02CD82010000A38102E98201E9
:104250000000970B02E1820100008D8102E98201DA
:104260000000980B02F382010000F68102E982014E
:104270000000990B02F582010000408102E98201F1
:1042800000009A0B02DD820100009B0B01E8030590
:104290003F100A1C02ED82010000C28202E9820185
:1042A0000000410C10308002000055090209830310
:1042B0000000570902E582010000688102E98201DD
:1042C0000000410C104080020000560902098303DF
:1042D00000005D0902E582010000EC81FFFFFF00A4
:1042E000013075030201060000000000000000001C
:1042F00000000000000000000000000000000000BE
:10430000000000FFFF0600800CE8030160EA0000E7
:104310000C09504D322E3554455354455205125018
:10432000002003020A000201060302F0FF0F1850EA
:104330004D322E355F544553544552003C6B0000BE
:10434000486B0A436861726163746572697374696A
:10435000632031000243686172616374657269733E
:104360007469632032000A43686172616374657224
:104370006973746963203300104368617261637408
:10438000657269737469632034000A4368617261FD
:104390006374657269737469632035000A436861E8
:1043A00072616374657269737469632036000243D5
:1043B0006861726163746572697374696320370040
:1043C0000A4368617261637465726973746963201A
:1043D000380002436861726163746572697374695D
:1043E0006320390002ED82010000B98202E98201F6
:1043F0000000F00C02F9820300002E0A02E582019F
:104400000000F10C02E982010000020D02FB8201B2
:1044100000002F0A02E582010000030D02E982017B
:104420000000140D02FD82030000410A02E5820132
:104430000000150D02E982010000260D02FF820036
:104440000000420A020983030000560A02E58201C5
:104450000000270D02E982010000380D02018303EC
:1044600000005C0A02E582010000390D02E98201C8
:1044700000004A0D0203830300005D0A02E5820189
:1044800000004B0D02E9820100005C0D0205830370
:1044900000005E0A02E5820100005D0D02E9820172
:1044A00000006E0D0207830300005F0A02E582012F
:1044B00000006F0D02E982010000800D02E7820119
:1044C0000000640A02E582010000810DE5C754F88E
:1044D0004404F5C779012200000080FB1244CCB9E6
:1044E000000302454AE479217808B800028004F705
:1044F00009D8FCE479297802B800028004F709D8C9
:10450000FCE490028078E679088002F0A3D8FCD918
:10451000FA781C9040B67A01BA00028007E493A3AF
:10452000F608DAF97A657B0A9040B7781679058043
:1045300015E493A3AD82AE838A828B83F0A3AA8213
:10454000AB838D828E83D8E9D9E77582787583FD38
:1045500074031245727582D77583447400124572D4
:1045600075D00075813F751A80751B02759F00021A
:1045700044DCC09FF59FE473D09F22D083D082C0DB
:104580009FE493C0E0740193C0E0740293F59F220E
:10459000E76670100809E766700A0809E7667004A4
:1045A0000809E76622E066701008A3E066700A0852
:1045B000A3E066700408A3E06622C3E7960809E753
:1045C000960809E7960809E79622C3E09608A3E053
:1045D0009608A3E09608A3E09622C00AC3E096F5E9
:1045E0000A08A3E096420A08A3E096420A08A3E05C
:1045F00096450A7001D3D00A22080808EAC0E0EB09
:10460000C0E086F0E7A4FA180986F0E7A42AFA18B1
:104610000986F0E7A42AFA180986F0E7A42AFA190D
:1046200086F0E7A4FBE5F02AFA190886F0E7A42B48
:10463000FBE5F03AFA190886F0E7A42BFBE5F03A1F
:10464000FA18180986F0E7A4C5F02BFBE43AFA192A
:1046500008E7C5F0C6A426F6E5F03BFBE43AFA18F5
:1046600086F0E7A4F6E5F00826F6E43B08F6E43A1F
:1046700008F6D0E0FBD0E0FA22E4CFC0E0E4CEC000
:10468000E0E4CDC0E0E4CCC0E075F020E626F6081A
:10469000E633F608E633F608E633F6181818EC3376
:1046A000FCED33FDEE33FEEF33FFC3EC9709ED97DE
:1046B00009EE9709EF97191919400FFFEC97FC09BC
:1046C000ED97FD09EE97FE191906D5F0BFECF70935
:1046D000EDF709EEF709EFF7191919D0E0FCD0E072
:1046E000FDD0E0FED0E0FF226016080808C6C31324
:1046F000C618C613C618C613C618C613C6D5E0EA30
:10470000227009080808226016181818C6C333C694
:1047100008C633C608C633C608C633C6D5E0EA2283
:10472000E627F60809E637F60809E637F60809E647
:1047300037F622E026F608A3E036F608A3E036F6C0
:1047400008A3E036F622E026F008A3E036F008A33E
:10475000E036F008A3E036F022C3E697F60809E653
:1047600097F60809E697F60809E697F622C3E09659
:10477000F008A3E096F008A3E096F008A3E096F016
:1047800022E657F60809E657F60809E657F608093B
:10479000E657F622E056F608A3E056F608A3E056E0
:1047A000F608A3E056F622E056F008A3E056F0081B
:1047B000A3E056F008A3E056F022E0F608A3E0F6E6
:1047C00008A3E0F608A3E0F622E6F008A3E6F00866
:1047D000A3E6F008A3E6F022E0FAA3E0FBA3E0FCE6
:1047E000A3E0FD22EAF0A3EBF0A3ECF0A3EDF022AE
:1047F000E0F8A3E0F9A3E0FAA3E0FB22E8F0A3E9E4
:10480000F0A3EAF0A3EBF022CAC0E0E6F0A308DAD6
:10481000FAD0E0FA22CAC0E0E0A3C582CCC582C5C6
:1048200083CDC583F0A3C582CCC582C583CDC583A6
:10483000DAE6D0E0CA22C3E498F8E499F91248779E
:104840008026C3E49AFAE49BFBE920E7E912487763
:10485000E498F8E499F922C3E498F8E499F9124845
:1048600077E498F8E499F9C3E49AFAE49BFB22EB25
:1048700020E7CFE920E7E0B90010BB0008E88AF0A4
:1048800084F8AAF022E4FBC8FA22EB70227B10C85D
:1048900033C8C933C9335007C39AC3DBF280069AC1
:1048A00050012ADBEAC833F4C8C933F4C9FA2275C7
:1048B000F008E4C833C8C933C933C99AC99B500446
:1048C000C92AC93BD5F0ECFBC833F4C8E4C9FA22C5
:1048D000600D08C6A2E713C618C613C6D5E0F322BA
:1048E000600C08C6C313C618C613C6D5E0F4227000
:1048F0000422600D18C6C333C608C633C6D5E0F41B
:104900001822251A10AF08F51A400C151B8008F55F
:104910001A4002151BD2AF2200C0D0251A10AF08D2
:10492000F51A500C051B8008F51A5002051BD2AF72
:10493000D0D022251AF58210AF08F51A400C151BAD
:104940008008F51A4002151BD2AF851B8322251A59
:10495000F582E4351BF58322251AF8E4351BF9228C
:10496000251AFAE4351BFB22251AFCE4351BFD222F
:10497000E473251AC582C0E0E51B34FFC583C0E09F
:10498000E51AC3958224F810AF0885831B85821A27
:10499000800885831B85821AD2AFCEF0A3E520F074
:1049A000A3780AE608F0A3DEFAEFF0A3E58124FA83
:1049B000F8E608F0A3E608F0A3E608F0A30808E686
:1049C00008F0A3E608F0A315811581D0E0FED0E041
:1049D000F8158115811581E8C0E0EEC0E022251AA6
:1049E000C582C0E0E51B34FFC583C0E0E51AC3956E
:1049F0008224F910AF0885831B85821A800885837D
:104A00001B85821AD2AFCEF0A3E520F0A3780AE688
:104A100008F0A3DEFAEFF0A3E58124FBF8E608F046
:104A2000A3E608F0A30808E608F0A3E608F0A3153B
:104A3000811581D0E0FED0E0F815811581E8C0E055
:104A4000EEC0E022851B83851A82E0A3FEE0A3F579
:104A500020780AE0A3F608DFFAE0A3FFE0A3C0E0B5
:104A6000E0A3C0E0E0A3C0E0E0A3C0E0E0A3C0E0BA
:104A700010AF0885821A85831B800885821A85837A
:104A80001BD2AFD083D082024578851B83851A82E2
:104A9000E0A3FEE0A3F520780AE0A3F608DFFAE041
:104AA000A3FFE0A3C0E0E0A3C0E0E0A3C0E0E0A378
:104AB000C0E010AF0885821A85831B800885821AA2
:104AC00085831BD2AFD083D08222C0D0251AC58265
:104AD000C0E0E51B34FFC583C0E0E51AC39582241E
:104AE000F310AF0885831B85821A800885831B8598
:104AF000821AD2AFC8F0A3E9F0A3EAF0A3EBF0A3C7
:104B0000790AE709F0A3D8FAECF0A3EDF0A3EEF0F0
:104B1000A3EFF0A3D0E0F0A3D0E0F0A3D0E0F0A3A7
:104B2000E520F0A3E5F0F0A322851B83851A82E03F
:104B3000C0E0A3E0F9A3E0FAA3E0FBA3780AE0F663
:104B400008A3DFFAE0FCA3E0FDA3E0FEA3E0FFA3DF
:104B5000E0C0E0A3E0C0E0A3E0F5D0A3E0F520A32F
:104B6000E0A3F5F010AF0885831B85821A800885C5
:104B7000831B85821AD2AFD082D083D0E0F8D0E0F8
:104B80003274048006740280027401C0E0F40412DE
:104B90004933D0E012480822740480047402800073
:104BA000CCC0E0EDC0E0E51AC39CCCAD1B50011DAC
:104BB00010AF068C1A8D1B80068C1A8D1BD2AF127B
:104BC0004815D0E0FDD0E0FC22D083D082E9C0E0DF
:104BD000E493A3C386F0C5F095F0F908E493A386A7
:104BE000F0C5F095F0700BE493A3C3994005E90478
:104BF0008002A3E475F002A42582F582E5F03583F6
:104C0000F583D0E0F9E493A3C0E0E493C0E022D0C0
:104C100083D082ECC0E0EDC0E0E493A3FCE493A376
:104C2000FDED4C600D124C5BEC24FFFCED34FFFD00
:104C300080EFE493A3FCE493A3FDED4C600D124CD4
:104C40009AEC24FFFCED34FFFD80EFD0E0FDD0E0D6
:104C5000FCE493A3C0E0E493C0E022C0E0C3E4938B
:104C600096087401939618400FE4936670080874D0
:104C70000193661870007019A3A3C3E49396087497
:104C800001939618A3A3400DD0E0D0E0D0E0024CF1
:104C90004BA3A3A3A3A3A3D0E022C0E0C0F088F05D
:104CA000E4936670080874019366187000A8F0A376
:104CB000A3700BD0F0D0E0D0E0D0E0024C4BA3A327
:104CC000D0F0D0E022FFFFFF74F51249DEEAFEEBE0
:104CD000FFEE2434F8EF3400F9880A890BEE24350E
:104CE000F582EF3400F583E0F8EE2437F582EF34F7
:104CF00000F583E0F50CEC850CF0A4FCAAF0850C23
:104D0000F0EDA42AFDE82CF8E43DF97A257B0012A9
:104D10004877EA850A82850B83F0F8740758F9749E
:104D200001B900028004C333D9FCFAE81313135409
:104D30001FF8EE28F8EF3400F9E8245DF582E93435
:104D400000F583E05A6008EE2434F582EF802CEE03
:104D50002434F582EF3400F583E0C0E0EE2436F52C
:104D600082EF3400F583E0F5F0D0E084A8F0EE287F
:104D7000F8EF3400F9E82438F582E93400F583E0EF
:104D8000F97F04024A8A74F51249DEEAFEEBFFEE6F
:104D90002434F582EF3400F583E0C0E0EE2435F5ED
:104DA00082EF3400F583D0E0F08E828F83A3A3A33B
:104DB000A3A3A3A3C082C0838E828F83A3A3A3A334
:104DC000A3E0F8A3E0F9D083D082E0C398F50AA36A
:104DD000E099F50BEE247FF582EF3400F583E06473
:104DE000017069EE2480F582EF3400F583E0F8A3CA
:104DF000E0F98E828F83A3A3A3A3A3A3A3E0FCA3C4
:104E0000E0FD8E828F83A3A3A3A3A3E0FAA3E0FB1C
:104E1000C3EA9CEB9D5010C3EC98ED99402EC3EA79
:104E200098EB995027800EC3EA98EB994007C3ECA2
:104E300098ED9940177CDD7D04EEFAEFFB1262DEFF
:104E4000EE247FF582EF3400F583E4F0EE2434F8AD
:104E5000EF3400F9E8FCE9FDEE2435F582EF34008B
:104E6000F583E0F8EE2437F582EF3400F583E0F5C2
:104E70000CE50A850CF0A4F50AAAF0850CF0E50B08
:104E8000A42AF50BE8250AF8E4350BF97A257B000E
:104E9000124877EA8C828D83F0F8740758F9740110
:104EA000B900028004C333D9FCFAE8131313541F6A
:104EB000F8EE28F8EF3400F9E8245DF582E93400D3
:104EC000F583E05A6008EE2434F582EF802CEE245E
:104ED00034F582EF3400F583E0C0E0EE2436F5824D
:104EE000EF3400F583E0F5F0D0E084A8F0EE28F888
:104EF000EF3400F9E82438F582E93400F583E0F96D
:104F0000125B03024D81C082C083851A82851B8398
:104F1000E0F8A3E0F9C3EA9CEB9D5010C3EC98EDD8
:104F200099401BC3EA98EB995014800EC3EA98EBA2
:104F3000994007C3EC98ED9940047901800279000B
:104F4000D083D08222EAC39CFAEB9DFB2274EF123D
:104F500049DE9003A3E064086005E06407702A90CE
:104F600061C8E060249003D1E0F4601DE0F875F0C2
:104F700003A4C8AAF02AF974D328FE740339FF8E5B
:104F8000828F83A3A3A3E0700302507D906060E052
:104F9000C0E0EE2468F582EF3400F583D0E0F075D0
:104FA0000E46750F05750A00750B00E5D914F50C52
:104FB000E5D95403F510601774036510605CE50CC7
:104FC0006010EE2467F582EF3400F583E070030291
:104FD0005062900541E06401602AEE2482F582EF80
:104FE0003400F583E06004780480027800850C0AC0
:104FF000E50AC398FA95E0FB1261A68A0A8B0BEAD0
:10500000450B70051264E28074EE2482F582EF3461
:1050100000F583E070048A0E8B0FE50C6012850E9C
:1050200082850F83F50DE5D9F0A3150DE50D70F61A
:10503000EE2482F582EF3400F583E0604474FC25B1
:105040000CF50C780E124B85AC0CA910EEFAEFFBA8
:1050500012637A7402124918E97026AA0AAB0B127D
:105060006A70793D8E828F83A3A3A3A3E0FA7B00AD
:1050700012607AEEFAEFFB1262F612638C7900800E
:1050800074740365106056850C1275130078121243
:105090004B85AC0EAD0FAA0AAB0B1263567402120D
:1050A0004918EE2468F582EF3400F583E0648070DF
:1050B00004747F8001E0F50E780E124B89E510F53F
:1050C0000E780E124B89A90CAC0AAD0B9003D1E0FF
:1050D000FA7B0012603E740212491880139003A3F9
:1050E000E06408600BAC0EAD0FEEFAEFFB1263E666
:1050F0001264EE79017F0A024A8A74F51249DE745D
:10510000FC124902EAFEEBFF890AA2AFE433F50B79
:10511000C2AF806AEE2463F8EF3400F97A007B00B6
:10512000A2AFE433F50CC2AF88828983E0FCA3E030
:10513000FDEC4D603A88828983E0FAA3E0FB8A8225
:105140008B83E0FCA3E0FD88828983ECF0A3EDF083
:105150008A828B83E4F0A3F088828983E0FCA3E059
:10516000FDEC4D700A88828983A3A3E4F0A3F0E5E7
:105170000CA2E092AF126A709004E4E004F0EE2416
:1051800063F582EF3400F583E0F8A3E0F9E84960C5
:105190003DEE2463F582EF3400F583E02402FAA3A8
:1051A000E03400FBEA2402F50CEB3400F50D780C3A
:1051B000124B858A828B83E0FCA3E0F9EEFAEFFBC9
:1051C00012631A7402124918E97003025114900410
:1051D000E4E060639004E5E0F89004E4E0C39850F4
:1051E0000C7402650A70509004E6E0604A8E828F6B
:1051F00083A3A3A3A3E0851A82851B83F0A3E4F015
:105200009004E4E0F8740212494EE8F0A3E4F09050
:1052100004E4E0F89004E3E028F0740212494EAC94
:1052200082AD83851A82851B83AA82AB83790112A2
:10523000604A9004E4E4F0E50BA2E092AF7404123B
:105240004918024D81FFFFFF8521878522C622C0B4
:10525000E0C0D0E8C0E0E9C0E0EAC0E0EBC0E0ECCC
:10526000C0E0EDC0E0EEC0E0C00AC00BC00CC00D55
:10527000C082C083C0F0A2AFE433FEC2AF759B0012
:10528000906182E0A2E05012E591A2E0500C75918D
:10529000FE740165217003124F4DE0A2E55051E507
:1052A00091A2E5504B7591DF9003A3E06407600580
:1052B000E06408702374016521703579019003D191
:1052C000E0FA75F003A4CAA8F028FB74D32AFA7494
:1052D000033BFB1250FA8018E0640D70139003C575
:1052E000E004F064287002E4F07A00E0F91264F45B
:1052F000906182E0A2E64003025396E591A2E64067
:10530000030253967591BF9003A3E06405700812E1
:10531000641C1264288003126422752100126482C6
:10532000E99003A4F079001264761262547A017B4A
:10533000009003A2E0F912674C907803E064427099
:1053400055900545E014F0704DC2AF12534E0078F1
:105350002AD0E0F618D0E0F6E59F54077005750BEB
:10536000FF8003750B7FC4C0E07829E6F50A08E6E4
:10537000550BF50B740B780A1248E0D0E0250AF8BB
:10538000906270E0A2E740F8E8C333906272F09058
:105390006270E0D2E0F0906181E0A2E35009E5E9BB
:1053A000A2E3500375E9F7A3E0A2E75009E591A253
:1053B000E7500375917FEEA2E092AFD0F0D083D09A
:1053C00082D00DD00CD00BD00AD0E0FED0E0FDD0C2
:1053D000E0FCD0E0FBD0E0FAD0E0F9D0E0F8D0D0AB
:1053E000D0E032C0E0C0D0C082C083906183E0A230
:1053F000E05009E5BFA2E0500375BFFEE0A2E15016
:1054000009E5BFA2E1500375BFFDE0A2E25009E546
:10541000BFA2E2500375BFFBE0A2E35009E5BFA2C3
:10542000E3500375BFF7E0A2E45009E5BFA2E450E2
:105430000375BFEFE0A2E55009E5BFA2E550037593
:10544000BFDFE0A2E65009E5BFA2E6500375BFBF8B
:10545000D083D0828088C0E0C0D0E8C0E0E9C0E05E
:10546000EAC0E0EBC0E0ECC0E0EDC0E0C0F0E5A7D2
:10547000A2E6500FE5A1A2E6500953A7BF75A1BF50
:105480001254BBE5A7A2E5500CE5A1A2E5500653D6
:10549000A7DF75A1DFE5A7A2E15009E5A1A2E150D0
:1054A0000375A1FDE5A7A2E2500CE5A1A2E250061A
:1054B00053A7FB75A1FBD0F00253CC74F81249DE60
:1054C0007521019003A3E0640670151263AA8A8215
:1054D0008B83A3A3A3A3A3A3E0FAA3E0FB12640A14
:1054E000A2AFE433FED2AF9003A9E0640170187A52
:1054F000207B009003A2E0F91267D67A207B00900F
:1055000003A2E0F9126752906182E0D2E6F09005C2
:1055100042E0602185C62280169003A8E0640170F5
:1055200008E5C654F84405F5C653BEFC125248744B
:1055300001652160E4EEA2E092AF7F01024A8AFF9A
:105540008E238F24858228858327851A82851B8355
:10555000E0CEA3E0CF852882852783EBC9EAC8ED9A
:10556000CBECCA75F010C3E833C8E933C9EA33CAD3
:10557000EB33CBC3EA9EF526EB9FF525B35004AB86
:1055800025AA26EC33CCED33CDD5F0DAAE23AF240B
:105590002274E91249DE74F8124902851A82851BC9
:1055A00083ECF0A3EDF08A0A8B0B9003A3E024F7C1
:1055B000C394055006750A010257281263AA8A0C83
:1055C0008B0DAE0CAF0DEE4F7003025725AC0AAD3C
:1055D0000B740212494EAA82AB8312643A8E828FF8
:1055E00083A3A3750EFF750FFF7510FF751100786B
:1055F0000E124794740212494E7512FF7513FF750F
:1056000014FF7515007812124794780E791212451E
:10561000BA502A780E7912124759750A01750BC8CB
:10562000750C00750D00780A790E1245BA50528536
:105630000E0A850F0B85100C85110D805075160113
:105640007517C875180075190085120A85130B8522
:10565000140C85150D780A790E1247597816790AB7
:105660001245BA401C750A00750B00750C00750DCB
:1056700001780A7912124759780A790E1247208068
:105680000C750A01750B00750C00750D0074097816
:105690000A124701750E19F50FF510F511780A7900
:1056A0000E1246798E828F83A3A3A3A3A3A3E0F84F
:1056B000A3E0F97AD07B03124877880E890FE4F5CE
:1056C00010F511780A790E124720740612494EE03F
:1056D000F8A3E0F97AD07B03124877E8FA8A0EE45F
:1056E000F50F780A790E1245BA5007780A790E122A
:1056F00047599003A3E06408600AE064066005E08F
:105700006405702D750E0D780E790A1245BA402188
:10571000750EF4750FFF7510FF7511FF780A790E7D
:10572000124720800C750A00750B00750C00750D72
:1057300000851A82851B83E0F8A3E0F583888278D0
:105740000A1247C974081249187F10024A8A74F76E
:105750001249DE12644C900540E0640170109062C2
:1057600045E4F0A3F053F4F343FE0C5390F31263BB
:10577000F8E5C654804449F5C6E59E547F644970F7
:10578000F8906185740FF090053EE0F47002A3E09C
:10579000604E90053FE0600814601B14602E80404E
:1057A000750A01750B0090053EE0780A1248EFE596
:1057B0000AF45280802A750A01750B0090053EE0BC
:1057C000780A1248EFE50AF452908014750A0175C0
:1057D0000B0090053EE0780A1248EFE50AF452A06B
:1057E00079007F02024A8A74F71249DEE9FEEAFF75
:1057F00074016E700C7A807B009003A2E0F912674E
:105800004C906BA8E493F46008E493F9126248802A
:105810000953C680E59E547F70FA1263FE900540DE
:10582000E06401700312626090053EE0F47002A330
:10583000E0604B90053FE0600814601A14602C8013
:105840003D750A01750B0090053EE0780A1248EF9D
:10585000E50A42808028750A01750B0090053EE03C
:10586000780A1248EFE50A42908013750A01750B19
:105870000090053EE0780A1248EFE50A42A0126463
:105880004C1263AA8A0A8B0BA80AA90BE849601577
:10589000E5E170FCE82414F582E93400F583E0F4D6
:1058A0006003E0F5E174016F700A7A019003A2E0F1
:1058B000F91267A00257E274ED1249DE8A0A8B0BD7
:1058C0008C0C8D0D741312494E780E1247BA780A5B
:1058D000790E1245BA7512017513C8751400751545
:1058E000005012780A790E1247597812790A124537
:1058F000BA50168010780E790A1247597812790E2C
:105900001245BA40047901800279007F0C024A8A6C
:1059100074ED1249DE8A0A8B0B8C0C8D0D741312F8
:10592000494E780E1247BA780E790A1245BA4011DC
:10593000780A790E124759AA0AAB0BAC0CAD0D8050
:10594000227512007513007514007515017812790F
:105950000E1247597812790A124720AA12AB13ACDB
:1059600014AD1580A68A828B83750AFF750BFF75AF
:105970000CFF750D00780A1247A77F04024A8A744B
:10598000F51249DE8C828D83780A1247BA8A828B9F
:1059900083780A12476DEA2404F8EB3400F98C820C
:1059A0008D83A3A3A3A3E0FCA3E0FD88828983C326
:1059B000E09CF0A3E09DF088828983C3E09420A35B
:1059C000E0944E40268A828B83750AFF750BFF7523
:1059D0000CFF750DFF780A1247468A828B83A3A3BA
:1059E000A3A3E02420F0A3E0344EF002596574F53F
:1059F0001249DEE9FE9004F8E0FAA3E0FBEEC333BF
:105A0000F8E433F9741028F582748139F583E02ABB
:105A1000F50AA3E03BF50B780A124B857A407B42EE
:105A20007C0F7D0012554074021249188A0A8B0BB4
:105A30008C0C8D0D7410780A1246E8AA0AAB0B7F05
:105A400004024A8A74F11249DE8A0E8B0F8C108D83
:105A500011740F12494EE0FAA3E0FB741112494E83
:105A6000E0F50AA3E0F50B780A124B85EA2401F56C
:105A70000AEB3400F50BE4F50CF50D780E790A12FB
:105A800045F9750A71750B02780E790A1245F9AA63
:105A90000EAB0FAC10AD1112554074021249188BA9
:105AA0000BEA450B60047A0180027A00EC2AFCEDD7
:105AB0003400FD741312494EE0F8A3E0F9E8FEE962
:105AC000FFECF8EDF97A717B02124877880A890BAE
:105AD0008E828F83780A1247C9ECF8EDF97A717BD0
:105AE000021248778A0A8B0B7405780A1248EF8EE7
:105AF000828F83A3A3A3A3E50AF0A3E50BF07F089D
:105B0000024A8AC082C083E9906000F0D083D082CC
:105B100022C2AF02000022C0E074F2124ACAA2AF51
:105B2000E433FED2AFE589A2E1500312699875898A
:105B300000C2C5751C00EEA2E092AF7F01024B29A6
:105B4000C0E074F2124ACAA2AFE433FED2AFE58AD3
:105B5000A2E25003126998758A00C2EB80D5C0E0BA
:105B600074F2124ACAA2AFE433FED2AFE58BA2E0D0
:105B70005003126998758B00C2E880B7C0E0C0D0AE
:105B8000E8C0E0E9C0E0E5A8D2AFC2C7751C00A23A
:105B9000E7A2E792AFD0E0F9D0E0F8D0D0D0E03281
:105BA00012457B0AFD0312457B1CFD0312457BB2A7
:105BB000EC0312457BC9EC0312457BFAEC0312455A
:105BC0007B35ED0312457B5FED0312457B89ED03C9
:105BD00012457BA0ED0312457BB7ED0312457BCE4A
:105BE000ED0312457BF7ED0312457B0AEE031245E8
:105BF0007B20EE0312457B33EE0312457B5AEE0306
:105C000012457B5BEC0212457B5FED0212457B97F0
:105C1000ED0212457BBAED0212457BC5ED0212453D
:105C20007BE8ED0212457BF7EE0212457BCCEF02DA
:105C300012457B47F00212457BCFF00212457B0AEA
:105C4000F10212457B41F10212457BCFF102124570
:105C50007BA8F20212457B08F30212457B13F30284
:105C600012457B92F30212457B95F30212457B9815
:105C7000F30212457B27F40212457B2AF4021245F7
:105C80007B5AF40212457B84F40212457B72F502C2
:105C900012457B24F60212457BDCFA0112457B0497
:105CA000FB0112457B32FB0112457B69FB0112456A
:105CB0007BC7FB0112457B12FC0112457B5DFC0199
:105CC00012457B9DFC0112457BE3FC0112457B11D3
:105CD000FD0112457BCEFD0112457BD8FD01124529
:105CE0007BE5FD0112457B18FE0112457BE4FE01B8
:105CF00012457BF0FE0112457B08FF0112457B1225
:105D0000FF0112457BB6F90312457BC4F903124526
:105D10007BDCF90312457BF4F90312457B0080021A
:105D200012457BAC800212457B27810212457B48DD
:105D3000820212457B84820212457B2D830212452A
:105D40007B14840212457B78850212457BCF850245
:105D500012457B50860212457B40870212457B8D9F
:105D6000870212457B13880212457B458802124543
:105D70007B598A0212457B9B8A0212457BB98A02B3
:105D800012457B3C8B0212457B108C0212457BD85E
:105D90008C0212457B39A00312457B0CA1031245EE
:105DA0007BB5A10312457B08A20312457BB8A20371
:105DB00012457B44A30312457B30A40312457B5F4D
:105DC000A40312457B72A50312457BBAA5031245B5
:105DD0007B8FA60312457BCBA60312457BE7A60368
:105DE00012457B86FC0312457B38CE0312457B4E61
:105DF000CE0312457B74CE0312457B90CF03124530
:105E00007B9ACF0312457BCFD00312457BC7D103CA
:105E100012457B66B30312457B96B40312457BC9DA
:105E2000B40312457B13B50312457BDAB603124562
:105E30007B8BDB0112457BF5DB0112457B54DD01D9
:105E400012457B64DD0112457B91DD0112457BE843
:105E5000DD0112457B91DE0112457B98DF01124581
:105E60007B62E00112457BC2E10112457B05E20144
:105E700012457BAAE20112457BF7E20112457B1D28
:105E8000E30112457B2BE50112457B30E50112450C
:105E90007B35E70112457B82E70112457BF5E7017F
:105EA00012457B28E80112457BCAE80112457B7345
:105EB000E90112457BABE90112457BAEE9011245D0
:105EC0007BF6E90112457B36EA0112457B8DEA013A
:105ED00012457BB5DE0312457BCDDE0312457B15F3
:105EE000DF0312457B2BDF0312457B72DF03124574
:105EF0007B86E00312457B13E10312457B5EE103E1
:105F000012457B00800112457B0C800112457B47C6
:105F1000800112457B8C800112457B4C810112452A
:105F20007BD2810112457B37820112457B6382015E
:105F300012457B9C820112457BDA840112457BBEAF
:105F4000860112457BA4880112457BE78901124531
:105F50007B358C0112457B478D0112457B928E016A
:105F600012457BA28F0112457BBF8F0112457BFA40
:105F70008F0112457B1C900112457B7F90011245D9
:105F80007B40950112457BD5950112457B269601F4
:105F900012457B4D960112457B9F960112457BBDB4
:105FA000960112457B17970112457B009801124517
:105FB0007B76990112457BFA990112457B8DB803D6
:105FC00012457B97B80312457BDAB80312457BF57F
:105FD000B80312457B85B90312457BADB903124561
:105FE0007BEAB90312457B21BA0312457B4ABA0307
:105FF00012457BBFBA0312457BD4BA0312457BE935
:10600000BA0312457B1ABB0312457B2EBB03124514
:106010007B53BB0312457B8DBB0312457BB9BB038E
:1060200012457BF1BB0312457B70BC0312457BB963
:10603000BC0312457BE3BC0312457B0EBD03124536
:106040007BC2F50312457B5AD40212457B88D402E9
:1060500012457BD6D50212457BB6D60212457BD5BA
:10606000D60212457B52D70212457B95D7021245C4
:106070007BEBD80212457BACD90212457B33DC02A4
:1060800012457BD4DC0212457BCADD0212457BC778
:10609000DE0212457B21E00212457BACE002124594
:1060A0007B24F30312457B8DF30312457BE1F3035D
:1060B00012457B08F40312457B39F40312457BB08B
:1060C000C10312457B1DC20312457B64C203124506
:1060D0007B7CC30312457B78C40312457B5BC503FD
:1060E00012457B00800312457B42800312457B14DE
:1060F000810312457BED810312457BE78203124544
:106100007BC9830312457B32840312457BE88403F9
:1061100012457B5C850312457BC8850312457BF1E4
:10612000850312457B6B860312457B04870312456A
:106130007B69870312457B7E870312457BC48703F7
:1061400012457BDD870312457B42880312457B4560
:10615000880312457BBCDB0312457BE4DB0312455D
:106160007B22DC0312457BE0DC0312457B47DD0329
:1061700012457B63DD0312457B8BDD0312457BBB40
:10618000DD0312457BCADD0312457B47DE03124562
:106190007B6DDE0312457B7AEB0112457B58ED01E6
:1061A00012457B8AEF0112457BC6EF0112457BF356
:1061B000EF0112457BDDF00112457B28F10112450C
:1061C0007B73F10112457B85F10112457BC5F1011D
:1061D00012457BFAF10112457B48F20112457B77AB
:1061E000F20112457B9AF20112457BE7F20112455A
:1061F0007B6CF30112457B86F50112457BC5F701E7
:1062000012457B06F80112457BA8F90112457BE98E
:10621000F90112457B5CFA0112457BB2FA01124585
:106220007B45C70212457B43C80212457BDCCE0288
:1062300012457BFDD00212457BC8D20212457B304D
:10624000D40212457B619A0112457B109B011245D5
:106250007B3D9B0112457B839B0112457BC39C01C7
:1062600012457B599E0112457BD39E0112457BEE60
:106270009E0112457B699F0112457BC3A001124517
:106280007B23A20112457B29A30112457B8AA4012D
:1062900012457BA3A40112457B01A50112457BEFAA
:1062A000A50112457B22A60112457B92A60112454B
:1062B0007B0CA70112457B56A70112457B20A80144
:1062C00012457BF5A80112457BD4A90112457B5FDD
:1062D000AA0112457BCDAA0112457B41AB011245B3
:1062E0007B6CAB0112457B2BAC0112457B90AD0161
:1062F00012457BADAD0112457BCCAD0112457BBD96
:10630000AE0112457BE2AE0112457B0CAF01124596
:106310007B87AF0112457BE1AF0112457B4AB1019A
:1063200012457BF8B10112457B39B20112457B71F0
:10633000B90212457BBFB90212457BCBB9021245A7
:106340007BA9BA0212457BDABA0212457B0BBB026B
:1063500012457B8BBB0212457BC3BB0212457B15EA
:10636000BC0212457B52BC0212457B6FBE02124535
:106370007B95C00212457B80C20212457B6AC40233
:1063800012457BF8FF0112457B78C70112457BA8B7
:10639000C70112457B81CE0112457B06D001124513
:1063A0007B03D60112457BEBD60112457B28D70132
:1063B00012457B4BD70112457B7CD70112457B856B
:1063C000D70112457B8FD70112457B7DD80112453D
:1063D0007B73D90112457B69B20112457B68B60116
:1063E00012457B6EB60112457BA9BD0112457BC2E9
:1063F000C20112457B6ACA0312457B00CB031245DA
:106400007B16CB0312457B8CCB0312457B00CC0360
:1064100012457B3ECC0312457BB2CC0312457B2B4D
:10642000CD0312457B34CD0312457B40CD0312458D
:106430007B55CD0312457B93CD0312457BA9CD033C
:1064400012457B08CE0312457B1DC60312457B2AED
:10645000C60312457B44C60312457B83C60312451F
:106460007BC1C60312457B26C70312457B3BC7038E
:1064700012457B46C70312457B53C70312457B6A0F
:10648000C70312457B78C70312457B83C7031245B8
:106490007B8FC70312457B9EC70312457BA9C703A9
:1064A00012457BCCC70312457B73C80312457B831F
:1064B000C80312457B9DC80312457BBAC803124529
:1064C0007BD6C80312457BFBC80312457B06C90374
:1064D00012457B1BC90312457B2FC90312457B90D4
:1064E000C90312457B96C90312457B9CC90312451B
:1064F0007BA2C90312457BBAC90312457BEDC903D0
:1065000012457B629D0212457BE69D0212457B95FA
:106510009E0212457BF49F0212457B15A202124592
:106520007B01A30212457B36A30212457B58A302CE
:1065300012457B07A40212457BFFA50212457B286A
:10654000A60212457BBAA60212457BECA6021245B2
:106550007BF9A60212457B50A70212457B76A70263
:1065600012457BE3A90212457BE6AA0212457B3E57
:10657000AB0212457BF18E0212457BFB8F02124566
:106580007BE2900212457BEC900212457B0E910259
:1065900012457B1A910212457BB3920212457BE2AF
:1065A000920212457BFE930212457B5794021245DC
:1065B0007BBD950212457B9C960212457BF89602A4
:1065C00012457B65970212457BA0970212457BDF3F
:1065D000970212457B989A0212457BB29A021245A5
:1065E0007B3E9B0212457B4C9B0212457BA59B0286
:1065F00012457BB39B0212457B269C0212457B8A87
:106600009C0212457BD49C0212457B2DE10212456F
:106610007B4FE10212457B75E30212457B8AE6025D
:1066200012457BA2E70212457B55E80212457B37F3
:10663000E90212457B6CEE0312457B91EE03124595
:106640007B03EF0312457BBF980312457BC8980379
:1066500012457BD1980312457BA8990312457B59BB
:106660009B0312457B8F9B0312457BC99B031245FD
:106670007BFF9B0312457B399C0312457B6D9C037A
:1066800012457B999C0312457BE29C0312457B1CBF
:106690009D0312457B659D0312457BBD9D031245FD
:1066A0007BF29D0312457B4D9E0312457B879E0323
:1066B00012457BD89E0312457B0E9F0312457B48F3
:1066C0009F0312457B769F0312457B999F031245DA
:1066D0007B43FB0312457B6FFB0312457BCAFB0325
:1066E00012457BD4FB0312457BE4FB0312457B99E7
:1066F000900312457BA3900312457BE19003124562
:106700007B2A910312457B64910312457BBE910362
:1067100012457BDF910312457B81940312457B8AEE
:10672000940312457BDB940312457B0495031245C9
:106730007B0E950312457B7A950312457B0E9603DB
:1067400012457B62960312457B98960312457B1F88
:10675000970312457B5F970312457B97970312457A
:106760007BA9970312457BC8970312457BD19703FA
:1067700012457B95980312457BDFF70312457BDEBC
:10678000E80312457B14E90312457B4AE9031245ED
:106790007BA3EA0312457BEEFB0312457B04FC035B
:1067A00012457B0EFC0312457B58FC0312457B9976
:1067B000FF0112457B36BD0312457B4FBD031245D9
:1067C0007BF3BD0312457B33BE0312457B4CBE03F6
:1067D00012457B80BE0312457BCDBE0312457B0173
:1067E000BF0312457B43BF0312457B43C1031245E0
:1067F0007B11F00312457B3AF00312457B63F003F3
:1068000012457BFEF00312457B16F10312457B58BF
:10681000F10312457B47D50312457BB7D5031245DB
:106820007BC3D50312457B50D60312457B88E10319
:1068300012457BB8E10312457BCBE10312457B088F
:10684000E20312457B27E20312457B83E2031245F4
:106850007B19E30312457B93E30312457B9CD8032A
:1068600012457BC1D80312457BEDD80312457B1935
:10687000FE0312457BAC6B0012457B106E00124587
:106880007BC26F0012457BB4700012457B397100EA
:1068900012457BB7710012457BE4710012457B08FD
:1068A000750012457B82750012457B71760012459A
:1068B0007BAB760012457BEB760012457BA578001A
:1068C00012457BF8780012457B41790012457BAF79
:1068D000790012457BE1790012457BF97900124578
:1068E0007B0E7B0012457B1E7B0012457B4E7C009D
:1068F00012457B707C0012457BA67C0012457B4BC9
:106900007E0012457B8A7E0012457BAA7F001245DD
:106910007B8DFA0312457B9EFA0312457BD0FD0363
:1069200012457B0FFE0312457BC2FE0312457BCD51
:10693000FE0312457BEFFE0312457BD9F803124597
:106940007BE9F80312457BFEF80312457BB0F9039F
:1069500012457BDBF60312457B60F70312457BC6CD
:10696000F70312457B7FF40312457BB3F403124512
:106970007BDCF40312457B53F50312457BDDEA0310
:1069800012457B15EB0312457B84EB0312457BAE6E
:10699000EB0312457B07EC0312457B60EC031245C9
:1069A0007BA5EC0312457BA8EC0312457BD1D103F8
:1069B00012457BE6D10312457B4FD30312457BBBC7
:1069C000D30312457B2FD40312457B49D4031245D0
:1069D0007B60D40312457B73D40312457B8BD403B5
:1069E00012457BA0D40312457BC1D40312457B1210
:1069F000D50312457BD9FE0312457BE9FE03124500
:106A00007BECFE0312457BF87F0012457BA9E60371
:106A100012457B34E80312457B95E80312457BDB86
:106A2000E80312457BF4FF0212457BF9FF02124591
:106A30007B5CA70312457B99A70312457BB5A7038F
:106A400012457B79A80312457B62A90312457BF5A9
:106A5000AA0312457B5CAB0312457B3FAC03124596
:106A60007BC6AC0312457BD6AD0312457B9DF1037B
:106A700012457BF2F10312457B60F20312457BD095
:106A8000F20312457B3EE40312457B68E4031245A2
:106A90007B3DE50312457B31E60312457B698803A4
:106AA00012457B26890312457B61890312457B8948
:106AB000890312457BEB890312457B378A03124514
:106AC0007B908A0312457B218B0312457B238C0329
:106AD00012457BE08D0312457B628E0312457BC716
:106AE0008E0312457BDE8E0312457BEE8F0312452B
:106AF0007B2C900312457B8CAB0212457B16AF02B8
:106B000012457B9EB00212457BF5B00212457B1404
:106B1000B10212457B92B10212457B30B30212459D
:106B20007B14B40212457BFEB70212457BCEB8023D
:106B300012457B95F60212457B71F90212457BE006
:106B4000FB0212457BDDFD0212457B1EFE02124553
:106B50007B6BFF0212457B98FF0212457B1AAE0346
:106B600012457B5FAE0312457B7CAE0312457BA1D1
:106B7000AF0312457B2AB00312457B21B1031245B6
:106B80007BCCB20312457B05B30312457B96FE0313
:106B900012457B60FE0312457BCF7F0012457BD6FA
:106BA000FF02FFFFFFFFFFFFFFFFFFFF74F012492F
:106BB0007274FA124902890AECFEEDFF750B008A25
:106BC0000C8B0D780C124BC9000410D46DEF6B0DBB
:106BD0006C276C3F6C5D6C756C986CB06CC46CEE23
:106BE0006C6B6D7C6D936DAE6DD46DD46D046D74F6
:106BF00001650A6003026DCF8E828F83E0F8C39433
:106C0000034003026DCFE8900C3A026DAB7402654D
:106C10000A6003026DCF8E828F8312757C900C3BCD
:106C2000E8F0A3E9026DAB7401650A6003026DCF61
:106C3000126DFC4003026DCFE8900867026DAB74E3
:106C400001650A6003026DCF8E828F83E0F8C394E2
:106C5000054003026DCFE8900868026DAB740165D2
:106C60000A6003026DCF126DFC4003026DCFE89005
:106C70000869026DAB7410650A6003026DCF750C74
:106C800010750D00780C124B857A6A7B081266F23B
:106C90007402124918026DF57401650A6003026DF1
:106CA000CF126DFC4003026DCFE890087A026DAB05
:106CB0007401650A6003026DCF8E828F83E0900CB1
:106CC0003E026DAB7404650A6003026DCF8E828F45
:106CD00083780E1247BA90826B780E1245DA500311
:106CE000026DCF90087C780E1247C9026DF5E960FD
:106CF00003026DCF125DF8E970051268D2805690DC
:106D0000090F80637407650A6003026DCF750C0676
:106D1000750D00780C124B858E828F83A3AC82ADEB
:106D20008374021249601266F874021249187C00DA
:106D30007D00AA1AAB1B8E828F83E0F912687EE970
:106D4000F50CC3940A4003026DF2125DF8E9700C71
:106D5000A90C1268D87950126AEE806E7410250C56
:106D6000F582E43409F583740180407401650A708A
:106D70005E126DFC5059E890087B802F7401650A03
:106D8000704D8E828F83E0F8C3940A5042E8900CD5
:106D90003D80187401650A70368E828F83E0F87426
:106DA000F928C3940A5028E8900C3FF080477401FA
:106DB000650A701B90090EE0F88E828F83E09009BF
:106DC0000EF0E87030E06401702B1268C680267502
:106DD0000B188021C3EA9427EB94005015740265C8
:106DE0000A700F8E828F8312789F125C96E9F50BE2
:106DF0008003750B02A90B74060271DC8E828F83EF
:106E0000E0F8C3940222740E1249187F04024A4427
:106E100074F012497274B11249028C108D11908273
:106E20002A742012496874061248157420124968A1
:106E300012687EE9F50D745F12494EE0F50EE9C364
:106E4000940A4003026F8E75F006E9A4F50B7441B5
:106E50001249687A0E7420250BF9126AE8E9700964
:106E6000744D12494EE0FE80027E00900C3AE064C0
:106E7000027005750A018003750A007408650E70BA
:106E800004742280027421250BFF7C1B7D00790095
:106E9000742612496012670AEEA2E0E433F50C741E
:106EA000261249687A1BEFF9126AE8E970257440E6
:106EB00012494EE024F9C3940A5018780A124B89FB
:106EC0007427124968A90CAA10AB11125D3874011D
:106ED0001249187C147D007900740C124960126705
:106EE0000A740C1249687A107424250BF9126AE8A6
:106EF000E970307C1079FF740C124960126770E9F8
:106F00007021741C12494EAC82AD837A047425251D
:106F10000BF9126AE8740C124968A90CAA10AB119B
:106F2000125D20AC1AAD1B7A0C7470250DF9126A33
:106F3000E8E97049AA1AAB1B1268AE7F00EF75F042
:106F400003A4F8A9F0851A82851B83E58228F8E559
:106F5000831276A4127899601D88828983A3A3E0A6
:106F6000F50A750B00780A124B85AA10AB11125F57
:106F70008474021249180FEFC3940440C0EEA2E1DA
:106F8000500C900866E0F9AA10AB11125F8A7404E5
:106F9000650E7027900C3AE06402701F7A0090082A
:106FA0007AE060010A900867E06004780480027863
:106FB00000E84AF9AA10AB11125DE07900744F02A3
:106FC00071DC74F112497274F01249028A0E8B0F4F
:106FD0008C0A8D0B7E0AE9600C14600914603A1467
:106FE00060750270A81268C0E9FEC3940A400302EB
:106FF00070A8E50A450B70030270A8750C06750DA4
:1070000000780C124B85AC0EAD0FAA0AAB0B1266C2
:10701000F274021249180270A87F00750C06750DF3
:1070200000780C124B85AC0EAD0FEF75F00EA4F886
:10703000A9F0748828FA740839FB126704740212E4
:107040004918E970090FEFC3940A505C80CDEFFE38
:10705000C3940A505380427F00AC1AAD1B7A10755E
:10706000F006EFA42423F9126AE8E9701C7C107979
:10707000FFAA1AAB1B126770E9700EAC0EAD0FAA17
:107080001AAB1B125D02E960090FEFC3940A501896
:1070900080C7EFFEC3940A500FE50A450B6009AAAA
:1070A0000AAB0BEEF91268BAEEF974101249187FA8
:1070B00007024A4474F4124972E9FF7E1574FF6AAC
:1070C000700374FF6B7028750A00EFFC7A027B0076
:1070D000A90A12689CE960027E00050AE50AC394C9
:1070E0000A40E7EF604E7AEA7B68126188804512B9
:1070F000616A8A0A8B0BEA450B60387C007D00EAE6
:107100002405FAE4350BFB850A82850B83A3A3A330
:10711000A3E0F912687EE9C3940A500BEFFC7A02EF
:107120007B0012689C7E00EF600AAA0AAB0B126813
:10713000EA80011EEEF9026E0B74F21249728C0A9B
:107140008D0B7E15740E12494EE0F50CA3E0F50D83
:1071500074FF6A700374FF6B701D7F00AC0CAD0D83
:10716000AA0AAB0BEFF91268A2E960027E000FEFEA
:10717000C3940A503B80E512616A8A828B83E58260
:107180004583602B7C007D00E5822405FAE435838D
:10719000FBA3A3A3A3E0F912687EE9C3940A5010ED
:1071A000AC0CAD0DAA0AAB0B1268A27E0080011ECA
:1071B000EEF97F06024A44C082C083900880EAF05C
:1071C000A3EBF0900866E0FC7D007A267B00125C61
:1071D00096900866E0F9125F00027C9F1249187FC2
:1071E00008024A4474F012497274EC124902EAFE31
:1071F000EBFFEE240CF50EE43FF50FEE2405F51041
:10720000E43FF511EE2409F50CE43FF50DEE2403FF
:10721000F50AE43FF50B8E828F83A3A3E024FA7076
:10722000030274A024FD70030273BE147003027283
:10723000BB14601024FD7003027395147003027375
:10724000F50274F7127FA1604AE0F5838882E0F5C9
:1072500010A3E0F511E51045116038850E82850F09
:1072600083E0F50E780E124B89EE240BF582E43F95
:10727000F583E0F9850C82850D8312789F0A0A0A4E
:10728000AB0B851082851183124970740112491865
:107290000274F7850C82850D83124B9C90087C123A
:1072A00047D8125D327402124918E970030274F76C
:1072B0007901850C82850D8302746B8E828F83A386
:1072C00085820C85830DE0600302737885108285CA
:1072D0001183E0A2E0400302737890091A127FA4A0
:1072E00060030273787C0E7D007900AA1AAB1B1232
:1072F000670A850E82850F83127C6AEA4B601075DF
:107300000E06750F00780E124B85EA2410801B12B2
:107310007C6412616AEA4B70030274F7750E06759D
:107320000F00780E124B85EA2405FCE43BFD740245
:107330001249601266F27402124918851082851192
:1073400083E0A2E25004D2F08002C2F0A2F0E43363
:10735000F8740C12494EE048F0EEFCEFFDAA1AABAF
:107360001B1268B4E970117A027B00900866E0F99C
:1073700012674C79000274F9127FA170030274F74E
:107380001274FE70030274F7850C82850D83E0FC95
:107390007901027494127FA170030274F7127C29A0
:1073A000890DE8450D70030274F78E828F83A3E088
:1073B000FC7902127C648882850D8302749B7C00B8
:1073C0007D00EE2404FAE43FFB850A82850B83E00E
:1073D000F912687EE9F8C3940A40030274F7EE24B8
:1073E0000AFCE43FFD7A0475F006E8A42425F912AE
:1073F0006AE20274F7127C6490087BE06007900CEC
:107400003DE0F98069900C3AE070047905805F12E4
:10741000616A8A0E8B0FA80EA90FE82404F50EE40A
:1074200039F50F8E828F83A3A3A3A3A3A3A3E0A206
:10743000E05041E84970030274F7850E82850F839E
:10744000E0FE6030850C82850D83E0541070257459
:107450000E124968E82405FAE439FBEEF912687E59
:10746000E970117903850A82850B83127C6A125DAB
:107470002C0274F7AC10AD11850E82850F83E0F9F4
:10748000127C641268F6127FA1606C1274FE606751
:107490007C007900127C648E828F83124970805741
:1074A000125DF8E9705190090FE0640170151268DF
:1074B000D290090FE4F07C0AFDF97A107B0912677B
:1074C0000A802C750C00850C0A7410250AFEE43421
:1074D00009FF8E828F83E06401700BA90C1268D8BB
:1074E0008E828F83E4F0050CE50CC3940A40D779B3
:1074F00050126AEE1268C6790174140271DC127CB3
:107500002DE8FEE9FFEE4F2274F412497274F21274
:107510004902EAFE8C0B75F006E9A42420F50AACBA
:107520001AAD1B7A0EF9126AE8E9704B7C0679FFF6
:10753000AA1AAB1B126770E9703D740C12494E1207
:10754000757CE8F50DE50B6005EE420D8004EEF468
:10755000520D850D82AA82E86A7001E96015740CEB
:1075600012494EEAF0A3E4F0AC1AAD1B7A0EA90A58
:10757000126AE2790180027900026E06E0F8A3E067
:10758000F92274F212497274E6124902890B8A0ECA
:107590008B0FECFEEDFF740C1249687A0E75F00645
:1075A000E9A42420F9126AE8E960030276677C0600
:1075B00079FF740C124960126770E9600302766704
:1075C0007470250BF50AAC1AAD1B7A0CF9126AE837
:1075D000E96003027663AA1AAB1B1268AEE50E459A
:1075E0000F701D7C0C7900AA1AAB1B126770E97032
:1075F000727C0C7D007900AA1AAB1B12670A8051BD
:10760000AC1AAD1BAA0EAB0F1268A88A0C8B0DA882
:107610000CA90DE8497022EE4F604CAC1AAD1B7AF4
:10762000007B001268A8EAF8EBF9EA4B603988821F
:107630008983E50EF0A3E50FF01276E0FAEE6A70AA
:1076400001EF601FEEF04F700888828983E4F0A399
:10765000F0AA1AAB1B1268AEAC1AAD1B7A0CA90AC1
:10766000126AE2790180027900741A1249180271D3
:10767000B274F71249727F00EF75F003A4F8A9F015
:10768000EC28F8ED1276A4E06A7003A3E06B7006B4
:10769000E8FAE9FB800B0FEFC3940440DB7A007B30
:1076A000000279DC39F9888289832274F7124972E1
:1076B0007E00EE75F003A4F8A9F0EA28F8EB127644
:1076C000A4E0F4FCA3E0F4FD88828983ECF0A3ED50
:1076D000F01276E0F4F00EEEC3940440D50279DCAB
:1076E000E82402F582E439F583E02274F412497249
:1076F00074F4124902EAFEEBFF8C0C8D0D90091A0E
:10770000127FA4704FEE4F700302787AEC450D7033
:107710000302787A1268C0E9900C40F0C3940A40E2
:1077200033750A007C0679FFE50A75F00EA4FAAB02
:10773000F074822AFA74083BFB126770E960030256
:1077400077D3050AE50AC3940A40D9750B0AE50BFD
:10775000900C40F0900C40E0C3940A400302787A09
:1077600075F006E0A4F890091A127C6AEA4B706979
:10777000EEFCEFFD7A0E742028F9126AE27C0C7D93
:107780000079FFAA1AAB1B12670AAC1AAD1B7A0C60
:10779000900C40E02470F9126AE2750A0E750B0035
:1077A000780A124B85EEFCEFFD900C40E075F00E70
:1077B000A4F8A9F0748228FA740839FB1266F274EE
:1077C0000212491890091AE50CF0A3E50DF07900B2
:1077D00002787C850A0B02774E1278812406127893
:1077E0009360197A1B742128F9126AE212788A24AC
:1077F00006F582E438F583E4F0A380D11278812481
:107800000A12789360107A1B742228F9126AE21225
:10781000788A240A80DB127881240C127893601015
:107820007A10742328F9126AE212788A240C80C133
:10783000127881240812789360347A10742428F91D
:10784000126AE212788A2408F582E438F583E0248B
:1078500010FCA3E03400FD7A0475F006900C40E0C3
:10786000A42425F9126AE212788A240880839009F8
:107870000EE060031268FC1268F07901740C026E6D
:107880000890091AE0F9A3E0C92290091AE0F8A3C8
:10789000E0C822F582E439F58312789FEC4D22E0AE
:1078A000FCA3E0FD2274F412497274F2124902EA58
:1078B000FEEBFFE9C3940A5004EE4F700479028096
:1078C00034AC1AAD1B7A0E75F006E9A42420F91227
:1078D0006AE8E9F50A701C750C06750D00780C1243
:1078E0004B857402124968EEFAEFFB1266F27402DD
:1078F000124918A90A026E0674F4124972EAFEEBE4
:10790000FF750A00750C06750D00780C124B85EE9C
:10791000FCEFFDE50A75F00EA4F8A9F0748228FAD0
:10792000740839FB1267047402124918E96004A94B
:107930000A800B050AE50AC3940A40C8790A026E58
:107940000B74F7124972750A00E50A75F00EA4F877
:10795000A9F0748228FE740839FFEEFCEFFD7A0E60
:1079600075F006E50AA42420F9126AE8E960297C8A
:10797000067D0079FFEEFAEFFB12670A7C067D00B8
:1079800079FFEE2CFAE43FFB12670AEE240CF58235
:10799000E43FF583E4F0A3F0050AE50AC3940A4046
:1079A000A890090EE060031268FC1268F0802D7444
:1079B000F71249727E007F007C0679FFEF75F00EAA
:1079C000A4FAABF074822AFA74083BFB126770E9E0
:1079D00070010E0FEFC3940A40DEEEF97F01024AF8
:1079E0004474F71249727E00EEF91268D80EEEC3A5
:1079F000940A5003E960F180E374F312497274CB86
:107A0000124902E9FF900C40E06F701B7A017B0085
:107A1000900866E0F91267527A027B00900866E0EF
:107A2000F912675212690875F006EFA4FE74202E51
:107A3000F50A74271249687A0EA90A126AE8E96001
:107A400003027AFF7C0679FF74271249601267707F
:107A5000E96003027AFF7C0E7D0079FF74271249EA
:107A60006012670A7C1B7D0079FF740C124960125A
:107A7000670A7C0C7D0079FFAA1AAB1B12670A7497
:107A8000271249687A0EA90A126AE2E9F50A740C0B
:107A90001249687A1B74212EF9126AE2E9F50E7414
:107AA0000C1249687A1B74222EF9126AE2E9F50D6C
:107AB000740C1249687A1074232EF9126AE2E9F5FF
:107AC0000B740C1249687A1074242EF9126AE2E9D8
:107AD000F50C740C1249687A0474252EF9126AE2C6
:107AE000E9FEAC1AAD1B7A0C74702FF9126AE2E948
:107AF000F8E50E450D450B450C4E48420A800375CE
:107B00000A00A90A74351249187F05024A4474F71D
:107B1000124972E9900866F01268C60279DC74F4C2
:107B2000124972EAFEEBFF54807003027BB69008A4
:107B300066E0F91267348A0A8B0BEA450B607078AD
:107B4000018A828B83E02450603D14600624E1604A
:107B50004F8052A3A3A3A3E0704E8A828B83A3A37A
:107B6000A3A3A3A3A3124B9C8A828B83A3A3A3A347
:107B7000A312789F8A828B83A3A3127C6A12688ADD
:107B800074021249188021A3A3A3A3E0641E7018F5
:107B900079008A828B83A3A3127C6A12688480088E
:107BA000126896E9F8E86007AA0AAB0B126722EEA2
:107BB000FAEF64808065EE540260237C007D007AD9
:107BC000007B001268B4E960117A017B00900866BE
:107BD000E0F912674CEE6402803F7A028046EEA222
:107BE000E0503F127C3A127C6A126902E9602F125F
:107BF0007FA1601F127C29880A890BE8450B60135E
:107C00007C007901127C3A127C6A850A82850B839A
:107C1000124970126908EE6401FAEFFB80087A01DC
:107C200080027A007B00026E0B127C2D22E0F5832D
:107C30008882A3A3E0F8A3E0F92290091AE0F8A350
:107C4000E0F5838882A3A3A3227F02024A44C08274
:107C5000C083900866E0F98A828B83A3127C6A1243
:107C60005F8A803B850A82850B83E0FAA3E0FB22D2
:107C7000C082C08374FF1249021268CCE9C3940227
:107C8000851A82851B83400474028002740AF0AC5A
:107C90001AAD1B7A017905125E107401124918D0D1
:107CA00083D08202457874F412497274E812490252
:107CB0008A0A8B0BE9FE8C0C8D0D7C187D007900F7
:107CC000AA1AAB1B12670A851A82851B83E50AF084
:107CD000A3E50BF0900868E0C0E0740212494ED0B2
:107CE000E0F0900869E0C0E0740312494ED0E0F083
:107CF000900C3FE0C0E0741712494ED0E0F07415CC
:107D000012494EE054FEF8A3E0F9900C3EE0A2E0E8
:107D1000E433FAE84AF8741512494E127E41A2E1A2
:107D20005004D2F08002C2F0E854FDFAA2F0E4332D
:107D300025E0F8EA48F8741512494E127E41A2E394
:107D40005004D2F08002C2F0E854F7FAA2F0E43313
:107D5000F50A750B007403780A1248EF127E3A1286
:107D6000494E127E41A2E45004D2F08002C2F0E8F3
:107D700054EFFAA2F0E433F50A7404780A1248EFDB
:107D8000127E3A12494E127E41A2E55004D2F08092
:107D900002C2F0E854DFFAA2F0E433F50A74057881
:107DA0000A1248EF127E3A12494E127E41A2E25068
:107DB00004D2F08002C2F0E854FBFAA2F0E433F5FA
:107DC0000A7402780A1248EF127E3A12494EE8F01D
:107DD000A3E9F0900869E0601D750A10780A124B5B
:107DE000857C6A7D08740612494EAA82AB831266AE
:107DF000F2740212491890087AE06010EE6009747B
:107E00001512494EE04402F07801800278007414A3
:107E100012494EE048F0900867E060047804800260
:107E20007800741412494EE048F0AC0CAD0DAA1A5B
:107E3000AB1B125D267418026E08EA450AF8741529
:107E400022E8F0A3E9F0900C3EE02274F7124972A8
:107E5000126002750A00E50A75F00EA4F8A9F07424
:107E60008228FE740839FF7C0679FFEEFAEFFB12D8
:107E70006770E97009EEFAEFFB7900126008050AF5
:107E8000E50AC3940A40CF0279DC74F61249727491
:107E9000FD124902EAFEEBFF90091C127FA4703923
:107EA000750A1E750B09780A124B85750A02750B47
:107EB00000780A124B85750A09750B83780A124BF4
:107EC000857CFF7DFF7A017B00125E5274061249A9
:107ED0001890091CEAF0A3EBF090091C127FA47023
:107EE00003027F8BE4F50AF50B780A124B857404C4
:107EF000124958880A890B780A124B857404124972
:107F000058880A890B780A124B8590091E124B9CDF
:107F1000790290091C127F99125F7874081249182F
:107F2000E97036851A82851B83E0FA740112494E86
:107F3000E0F8E4C8F9EA28F50AE439F50BEA450B5C
:107F40006017780A124B8590091C127C3DA3127FA2
:107F50009912688A7402124918E4F50AF50B780A36
:107F6000124B8590091E124B9C7CFF7DFF90091CD3
:107F7000127C6A125E5E740412491890091CEAF0C1
:107F8000A3EBF090091C127FA470047901800279A0
:107F9000007403124918027C4912789FEEFAEFFB35
:107FA0002290088012757CE84922C082C083900923
:107FB0001A127FA4601090091A127C6A126722902C
:107FC000091AE4F0A3F0900C40740AF0027C9F744C
:107FD000F7124972EAF8EBF98C828D83E0A3AC8248
:107FE000AD838A828B83F0A3AA82AB8370EAE8FA1E
:107FF000E9FB7F01024A44FF851C87C2AF02457836
:10800000C082C083E9900B24F002828F74F712497A
:1080100072E99002E2F07C1A7D037AFF7BFF125F27
:10802000909002E374FFF0A3F0A3E4F0A3F07905CD
:10803000125F189002E2E0F9125E3A7AAE7B5F12AC
:1080400061587F01024A4474F41249728A0A8B0B08
:10805000EB548060309002E2E0F91267348A0C8BB6
:108060000DAE0CAF0DEE4F60138E828F83E064B0C7
:108070007003125F30EEFAEFFB126722AA0AE50BDB
:108080006480FB80047A007B0002825E74F21249F5
:108090007274FC124902EAFEEBFFEE4F6038740284
:1080A00012494EEEF0A3EF1284C3ECF0A3ED12845C
:1080B000C3AA82AB83125E34E9F50A70737412129C
:1080C000494E129077E50C450D60658E828F8312C4
:1080D000813AEE4F7005750A0280557A067B0012D0
:1080E00067888A0E8B0FA80EA90FE8497005750ADC
:1080F00013803D88828983E4128144A3A3EEF0A318
:10810000EF129510E50CF0A3E50DF09002E8128156
:10811000CC9002E86017E0FCA3E08003EAFCEBFDF2
:108120008C828D831281CC70F38C828D83128F9C14
:10813000A90A7404124918029712A3A3A3A3E0FE8C
:10814000A3E0FF22F0A3F0888289832274F212490F
:1081500072890CE975F017A4FEAFF09002E7E4F025
:108160009002E51281CC600A12678E9002E5E4F07D
:10817000A3F0EEFAEFFB1267888A0A8B0BEA450B35
:10818000602FEEFCEFFD790012670A9002E5E50A28
:10819000F0A3E50BF07B0080081281B6E4F0A3F0B9
:1081A0000BEBC3950C40F2E50C9002E7F0790080F0
:1081B000027913029712EB75F017A4F8A9F0900258
:1081C000E5E028FAA3E0398A82F58322128D32EAAB
:1081D0004B2274F4124972750A00750B00740C126C
:1081E000494E1294E4FEE9FF800CE50A2401F50AE9
:1081F000E50B3400F50BC3E50A9CE50B9D50328579
:108200000A0C850B0D7403780C1248EFEA250CF864
:10821000EB350DF988828983A3A3A3A3A3A31290AE
:1082200077EE650C7003EF650D70BFE8FAE9FB802F
:10823000047A007B00802774F41249727900EAA264
:10824000E0501B750A54750B82780A124B857C042A
:108250007D007A267B0B125F1274021249187F048C
:10826000024A44C082C0839002E8128296601C8851
:10827000828983A3A3E06A7003A3E06B8882898369
:1082800070E8A3A3A3A3128D2E80047A007B00D0F4
:1082900083D0820245781297E5E8492274EE1249AC
:1082A0007274FC124902EAFEEBFF851A82851B8379
:1082B000E4F0A3F0EE2402128F80EE24051284B1C4
:1082C000EE2404F510EF128896E024FE603924FCB9
:1082D000604624FE605224FE605E24FE700302832A
:1082E000B624FE700302842E24FE700302843D2413
:1082F000FE700302844C24FC700302845B24FE7035
:108300000302846A0284A79003017417F0A3E412A5
:1083100084CB125BB20284A7851A82851B83AC8250
:10832000AD83125F36028477851A82851B83AC8207
:10833000AD83125F3C028477850E0A850F0B7402B1
:1083400012494EAC82AD83850A82850B83128D2E35
:10835000125E588A0E8B0FAC0EAD0FEC4D6042E4EE
:10836000F50EF50F780E124B85750E01750F03781B
:108370000E124B85750E02750F03780E124B857425
:108380000812494E124B9C7916128D28125F787490
:1083900008124918E9F50E700B128D24125BCA8081
:1083A0000F750E01850A82850B831284B9128F9C8A
:1083B000850E0A02847A740212494EAC82AD83851E
:1083C0000E82850F83128D2E125E588A128B13AC8B
:1083D00012AD13EC4D6043850E82850F83A3A3126B
:1083E0004B9C7512017513037812124B857512029E
:1083F0007513037812124B85740812494E124B9C68
:108400007916128D28125F787408124918E9F50B55
:10841000700B128D24125BD0800F750B01850E82BC
:10842000850F831284B9128F9C850B0A804C851AA4
:1084300082851B83AC82AD83125F42803A851A82AB
:10844000851B83AC82AD83125F48802B851A8285A1
:108450001B83AC82AD83125F4E801C851A82851B04
:1084600083AC82AD83125F54800D851A82851B8395
:10847000AC82AD83125F5AE9F50AE50A60298E8263
:108480008F83A3E06414601F851082851183E090C0
:1084900003011284C31297E1900302128F9CE50A34
:1084A000A31284CB125BACEEFAEFFB125ED6028E07
:1084B00088F50EEF3400F50F221297E5851A8285B4
:1084C0001B8322F0851A82851B8322F07C017D03A9
:1084D000850C82850D83128D322274EE12497274DE
:1084E000FC1249028A0C8B0D8C108D11EA2405F5C3
:1084F0000AEB3400F50B7C157D0079007A017B03D3
:1085000012670AE50A2402F50EE50B1284B4851AF7
:1085100082851B838582128583137812124B858591
:108520000A82850B83A3A3A3A31289DE124B85E5E0
:108530000A2405F512E50B3400F5137812124B8569
:10854000850E82850F83128D38125E527406124991
:10855000188A128B13AE12AF13E50C2402F50CE54A
:108560000D128F83EE4F70030286A08017740212E3
:10857000494E128D2E88828983EAF0A3EBF0900396
:1085800001E004F0900301E0C3940540030286A0DB
:10859000E4F512F5137812124B857512EA75130281
:1085A0007812124B857512EB7513027812124B85F7
:1085B000740612494E124B9C7910EEFCEFFD128DA1
:1085C00028125F787408124918E9705E850A82855E
:1085D0000B83A3A3A3A3A3A3A3E0F89002EAE068FC
:1085E00070481289DE124B857CEB7D02E50A240877
:1085F000FAE50B3400FB1267047402124918E960B3
:10860000298E828F83A3A3A3A3128D2E900301E052
:10861000F512740278121248EF74022512F5827472
:10862000033513F583EAF0A3EBF0740212494E858B
:1086300082128583137812124B85740212494E12EE
:108640004B9C850E82850F831297F6125E5E740432
:108650001249188A128B13AE12AF13900301E0F582
:1086600012751300740278121248EF74012512F883
:1086700074033513F988828983A31281CC700302B5
:108680008564E82403F8E93400F9EE4F60030285BD
:108690006D8882898374FFF0A3F0900301E004F0F9
:1086A000900301E0600A128D24125BBE7900800BFA
:1086B000850A82850B83128F93790A028E8874EA69
:1086C00012497274FE1249028C148D15EA2405F5C4
:1086D0000EEB12996012813E750A00750B00EA24B8
:1086E00002F512EB3400F513851A82851B8385820F
:1086F0000C85830D780C124B85850E82850F83A324
:10870000A3A3A31288A0124B85E50E2405F50CE562
:108710000F128F83780C124B85850E82850F831282
:1087200097F4125E5274061249188A0C8B0DEA45B2
:108730000D7003028851EA2404F510EB128896129A
:10874000813E8A828B83A3A3A3E0F98512828513DD
:1087500083128D2E125E40E9F50B6003028851E40E
:10876000F516F5177816124B857516EA7517027807
:1087700016124B857516EB7517027816124B857419
:108780000612494E124B9C7913AC0CAD0D8512822A
:10879000851383128D2E125F787408124918E9F53B
:1087A0000B60030288519002EAE0F8E50A7009E0E4
:1087B0002402900302F08017900302E0FCE82402F8
:1087C000FAE43400FBEA6C7001EB60030288558523
:1087D0000A82AA821289D594141289CD5073851009
:1087E00082851183E0C0E074032A12888DD0E0F006
:1087F000050A851082851183A3E0C0E0850A0C7408
:1088000003250C12888DD0E0F0050A9002EA128848
:10881000A0124B857CEB7D02850A0C7403250CFAB3
:1088200074033400FB1266F274021249189002EAD3
:10883000E0250AF50A74FF6E700374FF6F6012EE94
:1088400024010EEF3400FFE50AC39414500302869E
:10885000E8E50A6013128C19851282851383128D44
:108860002E125BC479008014E50B7003750B0A852A
:108870001482851583EEF0A3EFF0A90B7402124960
:10888000187F0E024A44850A0E7403250EF5827481
:10889000033400F583223400F511851082F583221C
:1088A0001295232274EE12497274FE1249028C1042
:1088B0008D11EA2405F50EEB1284B4750D009003BA
:1088C00001E4F0F50CEA2402F50AEB3400F50B8024
:1088D00049900301E0FA9002EAE0F81289D5941772
:1088E0001289CD400D900301E0F87416C3989002F0
:1088F000EAF01289DE124B857CEB7D0274022AFAC3
:1089000074033400FB1266F274021249189002EAF2
:10891000E0F8900301E028F0050CE50E2416F5823E
:10892000E50F128891E0F8E50CC39840030289B680
:10893000900301E0C39416507DE50CC333F8E43393
:10894000F9E50E28FEE50F39FF851A82851B83ACF9
:1089500082AD838E828F83128D2E125E588A128B87
:1089600013AC12AD13EC4D7005750D018043E4F5A9
:1089700012F5137812124B857512EA7513027812EC
:10898000124B857512EB7513027812124B85740623
:1089900012494E124B9C7916850A82850B83128DE3
:1089A0002E125F787408124918E9F50D70030288D9
:1089B000D1128F8F80107C017D03850A82850B8305
:1089C000128D2E125BD6A90D7402028E8AE99400D4
:1089D000C365D03322EA28F8E43400F9E822E0F550
:1089E0001275130078122274EA12497274FC12494B
:1089F000028A0E8B0F8C148D15EA2405F50CEB12F0
:108A00008F83750A00750B00E50C2402F512E50D45
:108A10003400F513740212494E8582108583117853
:108A200010124B85850C82850D83A3A3A3A31294FA
:108A3000CF124B85E50C2405F510E50D3400F5113A
:108A40007810124B85851282851383128F89128DBF
:108A500028125E5274061249188A108B11AE10AF9C
:108A600011E50E2402F510E50F3400F51180408861
:108A700082898374FFF0050A12888674FFF0050A64
:108A80009002EAE0F50E750F00780E124B857CEB34
:108A90007D02850A0E7403250EFA74033400FB125E
:108AA00066F274021249189002EAE0250AF50AEE0D
:108AB0004F60718E828F83A3A3A3E0F98510828516
:108AC0001183128D2E125E40E9F50BEE2404128400
:108AD000B1E97044E4F516F5177816124B85751652
:108AE000EA7517027816124B857516EB7517027822
:108AF00016124B85740812494E124B9C7911EEFCEC
:108B0000EFFD851082851183128D2E125F78740817
:108B1000124918E9F50B6027850E82850F83128CA8
:108B20000F128F9CE50A7003028BF5128C198510C9
:108B300082851183128D2E125BDC7900028C0A85EE
:108B40000A82AA82EA9002EA7009E02404900302F1
:108B5000F08022E0F8900302E0F516E82404FCE43B
:108B60003400FDEC65167001ED70C01289D59412C9
:108B70001289CD50B6850E82850F83E0C0E0740364
:108B80002A12888DD0E0F0050A850E82850F83A316
:108B9000E0C0E0128886D0E0128C2B85820E85839F
:108BA0000F780E124B85740412494E124B9C85129D
:108BB000828513831297F6125E5E74041249188A36
:108BC0000E8B0FAE0EAF0F850A0E7403250EF874D0
:108BD000033400F9EE4F7003028A6F851A82851BF9
:108BE00083E088828983128C2BA3E0C0E012888600
:108BF000D0E0028A7DE50B7003750B0A850C828537
:108C00000D83128C0F128F9CA90B740402887E12A4
:108C100097E585148285158322900302E0F5F0E53F
:108C20000A84900301F07C017D0322F0050A851A75
:108C300082851B832274EC12497274FE1249028AE7
:108C40000A8B0B8C108D11EA2405FEEB3400FF8596
:108C50001A82851B83AC82AD838E828F83128D2E08
:108C6000125E588A0C8B0DEE24181284B1EA450D61
:108C70007003028CFF128E715032851A82851B831D
:108C8000128D2E125F6C8A128B13EA4513606B797A
:108C900012AC0CAD0D850A82850B83128D2E8512C8
:108CA00082851383124970E9F50C7058E4F50CF5D0
:108CB0000D780C124B858E828F83A3A3E0F50C7880
:108CC0000C124B85EE2403128F80780C124B858E8C
:108CD000828F83128D38125F7E7406124918E9F56F
:108CE0000C7021850E82850F83E0701F850A8285B6
:108CF0000B83128D2E125BE28011750C0E800975AC
:108D00000C018004E50C6003128F8F850E82850FA5
:108D100083E0600479008002A90C74021249187F74
:108D20000C024A447C017D03850C82850D83128DE3
:108D30003222E0FAA3E0FB22E0FCA3E0FD850A82F8
:108D4000850B83128D322274EE12497274FE124921
:108D5000028A0A8B0B8C0E8D0FEA2405FEEB340081
:108D6000FF751000851A82851B83AC82AD838E82CD
:108D70008F83128D2E125E588A0C8B0DEA450D7072
:108D800003028E5D128E715035851A82851B831207
:108D90008D2E125F6C8A108B11EA4511605E79127C
:108DA000AC0CAD0D850A82850B83128D2E85108249
:108DB000851183124970E9F5106003028E60850AFF
:108DC00082850B83129077AA0CFB125F608A128B4C
:108DD00013A812A913E849701E7AFF7BFF125F6087
:108DE0008A128B13A812A913E849606C88828983C0
:108DF000E50CF0A3E50DF0750C00800775100E80F2
:108E00005F050C9002E7E0FAE50CC39A504AE50CC6
:108E100075F017A4FAABF088828983A3A3E02AFA3D
:108E2000A3E03BFB8A828B83128F89EC4D70D27555
:108E30000C17750D00780C124B85EEFCEFFD1266D9
:108E4000F27402124918EEFCEFFD850A82850B834D
:108E5000128D2E125BE880147510098003751001C5
:108E60001297DD850E82850F83128F9CA9100289CF
:108E7000C8E50A2402F50AE50B3400F50B8A828B5B
:108E800083A3A3A3E0A2E52274041249187F0A0277
:108E90004A4474EC1249728C128D13EA2405F50EC3
:108EA000EB1284B4751100EA2402F50CEB128F83E7
:108EB000850C82F583128D2E125F608A0A8B0BEA75
:108EC000450B7003028F757510008071850E8285C9
:108ED0000F83E06401704F8E828F83A3A3124B9C9B
:108EE0008E828F83A3A3A3A3E0F5147515007814D5
:108EF000124B85EE2405F514EF3400F515781412A5
:108F00004B85128D28125F7E7406124918E9F511FF
:108F10006014850E82850F83E4F01297DD8512823E
:108F2000851383128F9C7C177D007900EEFAEFFB8E
:108F300012670A8E828F83E4F0A3F005109002E797
:108F4000E0F8E510C398501EE51075F017A4F8A9D5
:108F5000F0850A82850B83A3A312996A128F89EC8C
:108F60004D6003028ECC850A82850B8374FFF0A3CB
:108F7000F0E5117006128D28125BEEA911028D1F0B
:108F8000F50CEF3400F50D22A3E0FCA3E0FD228EEA
:108F9000828F831297E5851082851183E8F0A3E91B
:108FA000F022C082C0839002E3E06A7003A3E06B0A
:108FB00070067AE37B0280047A007B0002828FC015
:108FC00082C08378008C828D83E06A7003A3E06B9B
:108FD0007010E875F003A4F8A9F0EC28FAED39FB5D
:108FE0008015088C828D83A3A3A3E06A7003A3E09D
:108FF0006B60DF7A007B0002828F74F61249721276
:109000005F2A8A828B83E582458370067A007B0023
:109010008007A3A3A3A3128D2E02968E74F2124989
:1090200072E9FE740E12494E129077741012494E76
:109030001294EF8C828D83E064027036A31297EB5A
:10904000F50EA3E0F9A80E74026870037429697024
:1090500021750E02750F00780E124B85780A124B9F
:1090600085780C124B85EEF9125FA274061249182E
:1090700080027901029712E0F50CA3E0F50D22744D
:10908000E812497274FB124902E9851A82851B8332
:10909000F08A188B19ECFEEDFF751200741D124951
:1090A0004E1297E1741D12494E128F9C8E828F834F
:1090B000A3A3A3E0A2E4502D741D12494E128D2EDD
:1090C000125F6C8A828B83E582458370030294C0B1
:1090D000790AEEFCEFFDAA18AB19124970E9F512F6
:1090E00060030294C3741F12494E1294EF7421124C
:1090F000494E129077742312494EE0F510A3E0F523
:10910000118E828F83E06402600302946EA3129733
:10911000E1850A82850B83A3858214858315EE245D
:10912000061284B188828983E0FAA3E0F9EA240078
:10913000F516E439F5177816124C0F0100002801D6
:109140002863910700022828920328959100295F3F
:109150009301298A9302292B9303295F93042909F8
:10916000946E94E51045116003029469850E828522
:109170000F831294E4FAE9FB8A828B83E0850C82E8
:10918000850D8312951A124B858A828B83A3E0FC8E
:10919000A3E00293F3E51045116003029469850C86
:1091A00082850D837401F01294F7850A82850B8302
:1091B000F07C007D008E828F83A3A3A3A3E0240113
:1091C000FAA3E03400FB125E58EA4B60418A828BBE
:1091D00083E02402F8850C82850D83E028F0EA24E0
:1091E00004F8EB3400F988828983E08514828515C0
:1091F0008312952C12951A124B858A828B83128FBB
:1092000088E50A2403FAE50B3400FB0293F8850C89
:1092100082850D83E02404F07C047D007900AA148B
:10922000AB1512670A0294C3E5104511600302945E
:10923000691294F7FEA3E0FF850C82850D83740408
:10924000F0EE850A82850B83F0EF85148285158305
:10925000F0740312494EAC82AD83EEFAEFFB125E5E
:10926000588A0E8B0FEA450F700302930C8A828B8B
:1092700083A3A312813A740112494E85821085831B
:10928000117810124B85740512494E124B9C7CFFCD
:109290007DFF125E5E74041249188B11EA4511704D
:1092A00033850E82850F831294CF124B85850E82F3
:1092B000850F83A3124B9C7C027D007AEB7B82128C
:1092C0005C8A7404124918E9700A740112494E74D8
:1092D000FFF0A3F08E828F83E064027039750E0276
:1092E000750F00780E124B858E828F83128F88E562
:1092F0000A2404FAE50B3400FB1266F274021249E8
:1093000018850C82850D83E02402800974011249BE
:109310004EEEF0A3EFF0740112494E1294E0F07497
:109320000112494EA31294D8029463E510451160CE
:1093300003029469850E82850F83128F89AA18AB68
:1093400019125F96850C82850D837402F0EA850AF6
:1093500082850B83F0851482851583EB029466E584
:1093600010451160030294691294F7F8A3E0F9859F
:109370000C82850D837402F0E8850A82850B83F0E8
:10938000E9851482851583029466850E82850F8394
:10939000128D2E1266ECEAFC8C82A882C39510E432
:1093A0009511405FE865107002E51170047C008043
:1093B00022851A82851B83E0FAE5102AFAE511342A
:1093C00000FBC3EA98EB94005003E08005E510CC65
:1093D000C39CFCEC850C82850D83F08C0C750D0014
:1093E000780C124B85850E82850F83E02510FCA337
:1093F000E03511FDAA0AAB0B1266F274021249188D
:109400000294C37512070294C3E5104511705A8582
:109410000E82850F831297E1850C82850D83740778
:109420001281461294D8128146A3E08514828515D4
:1094300083F0E82402FAE93400FB8A828B831294D9
:10944000D81295071294E0A31295101294E9F0E84F
:109450002405F8E93400F9888289831294E9A3127B
:10946000952CA3A3A3A3F0805A75120B8055741DED
:1094700012494E128D2E125F2A8A828B83E5824515
:1094800083603D1297E1880E890FE8450F603178BF
:1094900010124B85780C124B85780A124B85740696
:1094A00012494EE0F9EEFCEFFDAA18AB19850E82C9
:1094B000850F831249707406124918E9F51280036A
:1094C00075120EA91274051249187F10024A44E061
:1094D000F510751100781022E0850A82850B832231
:1094E000129536221297E5E822129536A3A322E0C0
:1094F000F50AA3E0F50B22850E82850F83E0F8A321
:10950000E0F5838882E022A3A3F08A828B83A322E2
:10951000F088828983A3A3A3A322F08A828B83127B
:10952000952322E0F50C750D00780C22F0888289D5
:1095300083A312953622E0850A82850B83A3A3229A
:1095400074EE12497274FE1249028A0C8B0DECFA09
:10955000EDFB741412494EE0F512A3E0F5137416F6
:1095600012494EE0FE741812494EE0F510A3E0F5E2
:1095700011851A82851B83AC82AD83125E588A0ED8
:109580008B0FEA450F6049851A82851B83128D2E49
:10959000125F2A8A828B83E5824583602FA3A31200
:1095A00094EFE50A450B60247810124B857812126F
:1095B0004B85EEF9AC0EAD0FAA0CAB0D850A82857A
:1095C0000B8312497074041249188006790E8002C8
:1095D00079010289C874F612497274FE1249027444
:1095E0000C12494E1294E4851A82851B83F0740193
:1095F00012494EE9F0E4F50AF50B780A124B85752D
:109600000A02780A124B85740412494E85820A8533
:10961000830B780A124B85125F7E74061249187408
:1096200002124918806874F7124972EAFEEBFF894A
:109630000A7C1A7D03125F96EA5402600BA90AEEB7
:10964000FAEFFB125E4C8002790102804274F6123E
:10965000497274FF6A700374FF6B70168C828D837D
:10966000129693E4F08C828D83A3A3A3129693A306
:109670008018125F668A0A8B0BA80AA90BE849605A
:109680000D8882898374FF128144A3A3E4F07F02D2
:10969000024A4474FFF0A3F08C828D83A3A322744A
:1096A000F6124972125F668A828B83E58245836077
:1096B00006A3A3E0FA80027A007B0080D174F21244
:1096C00049728A0A8B0BECFEEDFF740E12494EE0D4
:1096D000F50C125F668A0E8B0FA80EA90FE8497071
:1096E00026EEFCEFFD7AFF7BFF125F668A0E8B0F82
:1096F000A80EA90FE8497004791180168882898321
:10970000E50AF0A3E50BF088828983A3A3E50CF0BA
:1097100079007F06024A4474EE124972EAFEEBFFBA
:109720008C0A8D0B890E741412494E1297E174162F
:1097300012494E128D2E750F00E84960030297D52D
:109740007402650E60030297D0741212494E12978C
:10975000EBFCA3E0F9EC2400F510E439F511EAF490
:10976000F8EBF4F9EC58F8E51159F9E849705CE5C3
:109770000A2406F8ED3400F9880C890D8882F583F7
:109780001297F6125F968A128B13E5106512700419
:10979000E511651360427810124B85850C82850DAA
:1097A000831297F6125F9C7402124918E9F50F7044
:1097B000277810124B85850A82850B83A3A3129705
:1097C000F4125FB47402124918800D750F8080087E
:1097D000750F0D8003750F0BA90F028E8D8E828F72
:1097E000831297E522E0F8A3E0F9221297E5888238
:1097F0008983E022A3A3E0FCA3E0FDEEFAEFFB22C5
:1098000074E812497274E7124902851A82851B8333
:10981000EAF0A3EBF08C188D198910750A00750B0E
:1098200000743112494EE0F514A3E0F515743312BB
:10983000494EE0F516A3E0F517743512494EE0F5F0
:1098400011E50B75F003A4F8A9F0851A82851B8336
:1098500012996AE0F47003A3E0F4700302994DEEEC
:109860002402F50EEF129960E0700302994D8518FD
:109870000C85190D780C124B85AC16AD17AA14ABDC
:1098800015125F1E74021249188A0C8B0DEA450DE1
:10989000700302994DE4F512F5137812124B85749A
:1098A0000612494E8582128583137812124B8574F5
:1098B0000912494E8582128583137812124B8585D1
:1098C0001482851583A3A3A3A3124B9C7914AC0C1B
:1098D000AD0D8E828F83128D2E125F78740812491F
:1098E00018E97069850C82850D83A3A3A3A3129741
:1098F000E1740212494E128F9C850E82850F83E01F
:10990000A2E05018A910740212494EAC82AD838EA9
:10991000828F83128D2E125E70E9420A850E828537
:109920000F83E0A2E15026E511F50C780C124B896B
:10993000A910740312494EAC82AD838E828F8312BC
:109940008D2E125E6A7401124918E9420A050BE570
:109950000BC394025003029841A90A74190294C7D8
:109960003400F50F850E82F58322E028FEA3E0394E
:10997000FF8E828F832274F2124972EAFEEBFF8916
:109980000D7401650D600E7402650D706A79011227
:109990006176E97062EEFAEFFB125F608A0A8B0B68
:1099A000EA450B6047750C00800B7C177D00790041
:1099B00012670A050C9002E7E0F8E50CC398502105
:1099C000E50C75F017A4F8A9F0850A82850B83A32E
:1099D000A3E028FAA3E039FB8A828B831282967077
:1099E000C9850A82850B8374FFF0A3F07C1A7D037E
:1099F000EEFAEFFB125F9002971274F21249728A2C
:109A00000A8B0BECFEEDFF740E12494E129077900C
:109A10000B24E0F4603D7A097B0012671CEA4B607E
:109A2000328A828B8374B1F0A3E4129509A3129554
:109A300007A3E50AF0A3E50B129A56EEF0A3EF1286
:109A40009A56A3A3E50CF0A3E50DF0900B24E0F9E2
:109A5000126728029712F08A828B83A3A3A3A3A381
:109A600022C082C0839061907404F0A37448F0A374
:109A70007402F09061807440F09061BC7403F090C7
:109A800061877419F0906265741BF0906249E0C3BD
:109A9000941390619C400A7409F090606674018090
:109AA00007740DF0906066E4F090619A7433F0A34F
:109AB0007455F09061A0743AF0900540E064017034
:109AC00009C2919003A7746780059003A77461F0A1
:109AD000906BA6E493906186F0906BA8E493F46099
