:020000040000FA
:10300000438AFFFF0100009A42424242FFFFFFFF56
:10301000FFFFFFFFFFFFFFFFFFFFFFFFFFFFFFFFC0
:10302000000102030405060708090A0BFFFFFFFF62
:1040300002457E0253FFFFFFFFFFFFFFFFFFFFFF71
:10404000FFFFFFFFFFFFFFFFFFFFFFFFFFFFFFFF80
:10405000FFFFFFFFFFFFFFFFFFFFFF025B9EFFFF72
:10406000FFFFFF025B80FFFFFFFFFFFFFFFFFFFF80
:10407000FFFFFFFFFFFFFFFFFFFFFFFFFFFFFFFF50
:10408000FFFFFF025472FFFFFFFFFFFFFFFFFFFF75
:10409000FFFFFFFFFFFFFFFFFFFFFF025B33FFFF9D
:1040A000FFFFFFFFFFFFFFFFFFFFFF025B57FFFF69
:1040B000FFFFFF02526B01FF0000B4000028002840
:1040C00000283075A000A000A000A0000008000893
:1040D000E001F000100010001000100010001000AF
:1040E00050005000500010001000D00700000000E9
:1040F00000000F00010005003075070010000100EE
:1041000081FF00000000FFCC5DEA5DD25DFF02028E
:104110000208025000A0000000E80302EB82010048
:1041200000AF8202E782010000BD0A02098301009C
:1041300000B40202E782010000BE0A02DB82010035
:1041400000CA0202E782010000BF0A02D782010012
:1041500000CC0202E782010000C00A02D5820800FA
:1041600000CD0202E782010000C10A02D1820100F3
:1041700000C20AFF0100FF2002EB82010000B582AD
:1041800002E782010000260B02CD82000000000041
:1041900002E1820300001A03A263A263A263A26386
:1041A000A263A263A263A263A263A263A263A263E7
:1041B000A26336664E663066FFFF424D1400200053
:1041C0006400126402EB82010000B88202E78201FF
:1041D0000000710B02CF82010000720B02E182032A
:1041E00000005808020202020202020202010D004F
:1041F0000000100102EB82010000BB8202E7820195
:104200000000930B02C5820100005E0802E78201F4
:104210000000940B02C3820100005B8102E782016F
:104220000000950B02C182010000A38102E7820118
:104230000000960B02C982010000AE8102E78201F4
:104240000000970B02CB820100008D8102E7820102
:104250000000980B02DD82010000988102E78201D4
:104260000000990B02F182010000538202E78201F3
:1042700000009A0B02F382010000408102E78201F4
:1042800000009B0B02D9820100009C0B01E8030592
:104290003F100A1C02EB82010000BE8202E782018D
:1042A0000000420C105080020000550902E1820318
:1042B0000000570902E582010000688102E78201DF
:1042C0000000420C106080020000560902E18203E7
:1042D00000005D0902E582010000EC81FFFFFF00A4
:1042E000013075030201060000000000000000001C
:1042F00000000000000000000000000000000000BE
:10430000000000FFFF0600800CE80301C027090041
:104310000C09504D322E3554455354455205122840
:10432000002800020A000201060302F0FF0F1850E5
:104330004D322E355F544553544552005E6B00009C
:104340006A6B0A4368617261637465726973746948
:10435000632031000243686172616374657269733E
:104360007469632032000A43686172616374657224
:104370006973746963203300104368617261637408
:10438000657269737469632034000A4368617261FD
:104390006374657269737469632035000A436861E8
:1043A00072616374657269737469632036000243D5
:1043B0006861726163746572697374696320370040
:1043C0000A4368617261637465726973746963201A
:1043D000380002436861726163746572697374695D
:1043E000632039000A4F4144000002EB82010000C3
:1043F000B28202E782010000F10C02F782030000A2
:104400002E0A02E582010000F20C02E782010000A0
:10441000030D02F9820100002F0A02E5820100006B
:10442000040D02E782010000150D02FB820300006B
:10443000410A02E582010000160D02E78201000038
:10444000270D02FD82000000420A02E18203000003
:10445000560A02E582010000280D02E782010000F1
:10446000390D02FF820300005C0A02E582010000B0
:104470003A0D02E7820100004B0D020183030000A8
:104480005D0A02E5820100004C0D02E78201000096
:104490005D0D0203830300005E0A02E58201000055
:1044A0005E0D02E7820100006F0D0205830300002C
:1044B0005F0A02E582010000700D02E78201000040
:1044C000810D020783010000640A02E582010000F9
:1044D000820D02E782010000930D02E382090000D1
:1044E000650A02E582010000940DE5C754F8440412
:1044F000F5C779012200000080FB1244EAB90003ED
:10450000024568E479217808B800028004F709D8E8
:10451000FCE479297802B800028004F709D8FCE4A9
:1045200090028078E779088002F0A3D8FCD9FA7865
:104530001C9040B67A01BA00028007E493A3F60803
:10454000DAF97A667B0A9040B7783479058015E409
:1045500093A3AD82AE838A828B83F0A3AA82AB83BE
:104560008D828E83D8E9D9E77582D87583FD74036F
:104570001245907582F5758344740012459075D08C
:104580000075813F751A80751B02759F000244FA01
:10459000C09FF59FE473D09F22D083D082C09FE458
:1045A00093C0E0740193C0E0740293F59F22E76624
:1045B00070100809E766700A0809E76670040809C0
:1045C000E76622E066701008A3E066700A08A3E0C0
:1045D00066700408A3E06622C3E7960809E7960818
:1045E00009E7960809E79622C3E09608A3E0960833
:1045F000A3E09608A3E09622C00AC3E096F50A0855
:10460000A3E096420A08A3E096420A08A3E0964572
:104610000A7001D3D00A22080808EAC0E0EBC0E023
:1046200086F0E7A4FA180986F0E7A42AFA180986A2
:10463000F0E7A42AFA180986F0E7A42AFA1986F006
:10464000E7A4FBE5F02AFA190886F0E7A42BFBE5BE
:10465000F03AFA190886F0E7A42BFBE5F03AFA18CD
:10466000180986F0E7A4C5F02BFBE43AFA1908E72D
:10467000C5F0C6A426F6E5F03BFBE43AFA1886F04E
:10468000E7A4F6E5F00826F6E43B08F6E43A08F677
:10469000D0E0FBD0E0FA22E4CFC0E0E4CEC0E0E41A
:1046A000CDC0E0E4CCC0E075F020E626F608E633A5
:1046B000F608E633F608E633F6181818EC33FCED86
:1046C00033FDEE33FEEF33FFC3EC9709ED9709EEB0
:1046D0009709EF97191919400FFFEC97FC09ED970F
:1046E000FD09EE97FE191906D5F0BFECF709EDF7B5
:1046F00009EEF709EFF7191919D0E0FCD0E0FDD069
:10470000E0FED0E0FF226016080808C6C313C618F2
:10471000C613C618C613C618C613C6D5E0EA22705B
:1047200009080808226016181818C6C333C608C638
:1047300033C608C633C608C633C6D5E0EA22E62724
:10474000F60809E637F60809E637F60809E637F607
:1047500022E026F608A3E036F608A3E036F608A322
:10476000E036F622E026F008A3E036F008A3E036B3
:10477000F008A3E036F022C3E697F60809E697F6BC
:104780000809E697F60809E697F622C3E096F008CE
:10479000A3E096F008A3E096F008A3E096F022E6E6
:1047A00057F60809E657F60809E657F60809E657E6
:1047B000F622E056F608A3E056F608A3E056F608FF
:1047C000A3E056F622E056F008A3E056F008A3E076
:1047D00056F008A3E056F022E0F608A3E0F608A39E
:1047E000E0F608A3E0F622E6F008A3E6F008A3E668
:1047F000F008A3E6F022E0FAA3E0FBA3E0FCA3E0CC
:10480000FD22EAF0A3EBF0A3ECF0A3EDF022E0F838
:10481000A3E0F9A3E0FAA3E0FB22E8F0A3E9F0A308
:10482000EAF0A3EBF022CAC0E0E6F0A308DAFAD07F
:10483000E0FA22CAC0E0E0A3C582CCC582C583CD20
:10484000C583F0A3C582CCC582C583CDC583DAE616
:10485000D0E0CA22C3E498F8E499F912489580267A
:10486000C3E49AFAE49BFBE920E7E9124895E4984F
:10487000F8E499F922C3E498F8E499F9124895E428
:1048800098F8E499F9C3E49AFAE49BFB22EB20E759
:10489000CFE920E7E0B90010BB0008E88AF084F80F
:1048A000AAF022E4FBC8FA22EB70227B10C833C8BE
:1048B000C933C9335007C39AC3DBF280069A50014B
:1048C0002ADBEAC833F4C8C933F4C9FA2275F00800
:1048D000E4C833C8C933C933C99AC99B5004C92A2B
:1048E000C93BD5F0ECFBC833F4C8E4C9FA22600D2B
:1048F00008C6A2E713C618C613C6D5E0F322600C9B
:1049000008C6C313C618C613C6D5E0F42270042225
:10491000600D18C6C333C608C633C6D5E0F41822E6
:10492000251A10AF08F51A400C151B8008F51A401F
:1049300002151BD2AF2200C0D0251A10AF08F51AFD
:10494000500C051B8008F51A5002051BD2AFD0D0C1
:1049500022251AF58210AF08F51A400C151B8008A5
:10496000F51A4002151BD2AF851B8322251AF5824A
:10497000E4351BF58322251AF8E4351BF922251AA4
:10498000FAE4351BFB22251AFCE4351BFD22E473F7
:10499000251AC582C0E0E51B34FFC583C0E0E51AD7
:1049A000C3958224F810AF0885831B85821A80087E
:1049B00085831B85821AD2AFCEF0A3E520F0A378C1
:1049C0000AE608F0A3DEFAEFF0A3E58124FAF8E6A0
:1049D00008F0A3E608F0A3E608F0A30808E608F04C
:1049E000A3E608F0A315811581D0E0FED0E0F8150C
:1049F0008115811581E8C0E0EEC0E022251AC5824C
:104A0000C0E0E51B34FFC583C0E0E51AC3958224EE
:104A1000F910AF0885831B85821A800885831B8562
:104A2000821AD2AFCEF0A3E520F0A3780AE608F010
:104A3000A3DEFAEFF0A3E58124FBF8E608F0A3E695
:104A400008F0A30808E608F0A3E608F0A31581150E
:104A500081D0E0FED0E0F815811581E8C0E0EEC01D
:104A6000E022851B83851A82E0A3FEE0A3F520786F
:104A70000AE0A3F608DFFAE0A3FFE0A3C0E0E0A3AA
:104A8000C0E0E0A3C0E0E0A3C0E0E0A3C0E010AF5E
:104A90000885821A85831B800885821A85831BD22C
:104AA000AFD083D082024596851B83851A82E0A30E
:104AB000FEE0A3F520780AE0A3F608DFFAE0A3FF02
:104AC000E0A3C0E0E0A3C0E0E0A3C0E0E0A3C0E05A
:104AD00010AF0885821A85831B800885821A85831A
:104AE0001BD2AFD083D08222C0D0251AC582C0E0AD
:104AF000E51B34FFC583C0E0E51AC3958224F3109B
:104B0000AF0885831B85821A800885831B85821ADE
:104B1000D2AFC8F0A3E9F0A3EAF0A3EBF0A3790ABF
:104B2000E709F0A3D8FAECF0A3EDF0A3EEF0A3EFC1
:104B3000F0A3D0E0F0A3D0E0F0A3D0E0F0A3E52014
:104B4000F0A3E5F0F0A322851B83851A82E0C0E084
:104B5000A3E0F9A3E0FAA3E0FBA3780AE0F608A338
:104B6000DFFAE0FCA3E0FDA3E0FEA3E0FFA3E0C0CA
:104B7000E0A3E0C0E0A3E0F5D0A3E0F520A3E0A32C
:104B8000F5F010AF0885831B85821A800885831B8A
:104B900085821AD2AFD082D083D0E0F8D0E03274D0
:104BA000048006740280027401C0E0F404124951CA
:104BB000D0E0124826227404800474028000CCC025
:104BC000E0EDC0E0E51AC39CCCAD1B50011D10AF59
:104BD000068C1A8D1B80068C1A8D1BD2AF1248339F
:104BE000D0E0FDD0E0FC22D083D082E9C0E0E493A5
:104BF000A3C386F0C5F095F0F908E493A386F0C549
:104C0000F095F0700BE493A3C3994005E90480028A
:104C1000A3E475F002A42582F582E5F03583F583DF
:104C2000D0E0F9E493A3C0E0E493C0E022D083D0C5
:104C300082ECC0E0EDC0E0E493A3FCE493A3FDEDBF
:104C40004C600D124C79EC24FFFCED34FFFD80EF3D
:104C5000E493A3FCE493A3FDED4C600D124CB8EC7F
:104C600024FFFCED34FFFD80EFD0E0FDD0E0FCE45C
:104C700093A3C0E0E493C0E022C0E0C3E4939608AD
:104C80007401939618400FE49366700808740193BA
:104C9000661870007019A3A3C3E493960874019377
:104CA0009618A3A3400DD0E0D0E0D0E0024C69A359
:104CB000A3A3A3A3A3D0E022C0E0C0F088F0E493B4
:104CC0006670080874019366187000A8F0A3A370BA
:104CD0000BD0F0D0E0D0E0D0E0024C69A3A3D0F03C
:104CE000D0E022FF74F51249FCEAFEEBFFEE24341B
:104CF000F8EF3400F9880A890BEE2435F582EF3499
:104D000000F583E0F8EE2437F582EF3400F583E018
:104D1000F50CEC850CF0A4FCAAF0850CF0EDA42AAF
:104D2000FDE82CF8E43DF97A257B00124895EA85E8
:104D30000A82850B83F0F8740758F97401B90002F0
:104D40008004C333D9FCFAE8131313541FF8EE2878
:104D5000F8EF3400F9E8245DF582E93400F583E0EA
:104D60005A6008EE2434F582EF802CEE2434F5826C
:104D7000EF3400F583E0C0E0EE2436F582EF340036
:104D8000F583E0F5F0D0E084A8F0EE28F8EF3400E9
:104D9000F9E82438F582E93400F583E0F97F04026C
:104DA0004AA874F51249FCEAFEEBFFEE2434F582C2
:104DB000EF3400F583E0C0E0EE2435F582EF3400F7
:104DC000F583D0E0F08E828F83A3A3A3A3A3A3A334
:104DD000C082C0838E828F83A3A3A3A3A3E0F8A382
:104DE000E0F9D083D082E0C398F50AA3E099F50BEF
:104DF000EE247FF582EF3400F583E064017069EE04
:104E00002480F582EF3400F583E0F8A3E0F98E8288
:104E10008F83A3A3A3A3A3A3A3E0FCA3E0FD8E829F
:104E20008F83A3A3A3A3A3E0FAA3E0FBC3EA9CEBB5
:104E30009D5010C3EC98ED99402EC3EA98EB995021
:104E400027800EC3EA98EB994007C3EC98ED994090
:104E5000177CDD7D04EEFAEFFB126300EE247FF594
:104E600082EF3400F583E4F0EE2434F8EF3400F9F7
:104E7000E8FCE9FDEE2435F582EF3400F583E0F837
:104E8000EE2437F582EF3400F583E0F50CE50A8572
:104E90000CF0A4F50AAAF0850CF0E50BA42AF50B9A
:104EA000E8250AF8E4350BF97A257B00124895EAE3
:104EB0008C828D83F0F8740758F97401B900028070
:104EC00004C333D9FCFAE8131313541FF8EE28F87F
:104ED000EF3400F9E8245DF582E93400F583E05A07
:104EE0006008EE2434F582EF802CEE2434F582EF56
:104EF0003400F583E0C0E0EE2436F582EF3400F5AF
:104F000083E0F5F0D0E084A8F0EE28F8EF3400F963
:104F1000E82438F582E93400F583E0F9125B1F02DA
:104F20004D9DC082C083851A82851B83E0F8A3E073
:104F3000F9C3EA9CEB9D5010C3EC98ED99401BC35C
:104F4000EA98EB995014800EC3EA98EB994007C396
:104F5000EC98ED994004790180027900D083D082E9
:104F600022EAC39CFAEB9DFB2274EF1249FC9003EA
:104F7000A3E064086005E06407702A9061C8E060FF
:104F8000249003D1E0F4601DE0F875F003A4C8AAF2
:104F9000F02AF974D328FE740339FF8E828F83A31D
:104FA000A3A3E07003025099906060E0C0E0EE249B
:104FB00068F582EF3400F583D0E0F0750E46750F8A
:104FC00005750A00750B00E5D914F50CE5D95403F5
:104FD000F510601774036510605CE50C6010EE243A
:104FE00067F582EF3400F583E0700302507E900590
:104FF00041E06401602AEE2482F582EF3400F583FB
:10500000E06004780480027800850C0AE50AC39801
:10501000FA95E0FB1261C88A0A8B0BEA450B700512
:105020001265048074EE2482F582EF3400F583E08B
:1050300070048A0E8B0FE50C6012850E82850F833B
:10504000F50DE5D9F0A3150DE50D70F6EE2482F50A
:1050500082EF3400F583E0604474FC250CF50C7895
:105060000E124BA3AC0CA910EEFAEFFB12639C746A
:1050700002124936E97026AA0AAB0B126A92793DF0
:105080008E828F83A3A3A3A3E0FA7B0012609CEE21
:10509000FAEFFB1263181263AE7900807474036533
:1050A000106056850C127513007812124BA3AC0ECB
:1050B000AD0FAA0AAB0B1263787402124936EE24C4
:1050C00068F582EF3400F583E064807004747F80BB
:1050D00001E0F50E780E124BA7E510F50E780E12D2
:1050E0004BA7A90CAC0AAD0B9003D1E0FA7B0012E0
:1050F0006060740212493680139003A3E064086074
:105100000BAC0EAD0FEEFAEFFB12640812651079CE
:10511000017F0A024AA874F51249FC74FC12492066
:10512000EAFEEBFF890AA2AFE433F50BC2AF806A57
:10513000EE2463F8EF3400F97A007B00A2AFE43389
:10514000F50CC2AF88828983E0FCA3E0FDEC4D60E2
:105150003A88828983E0FAA3E0FB8A828B83E0FCB1
:10516000A3E0FD88828983ECF0A3EDF08A828B8333
:10517000E4F0A3F088828983E0FCA3E0FDEC4D70AD
:105180000A88828983A3A3E4F0A3F0E50CA2E0924D
:10519000AF126A929004E4E004F0EE2463F582EF2B
:1051A0003400F583E0F8A3E0F9E849603DEE2463BC
:1051B000F582EF3400F583E02402FAA3E03400FB2B
:1051C000EA2402F50CEB3400F50D780C124BA38A9F
:1051D000828B83E0FCA3E0F9EEFAEFFB12633C74F0
:1051E00002124936E970030251309004E4E0606332
:1051F0009004E5E0F89004E4E0C398500C74026574
:105200000A70509004E6E0604A8E828F83A3A3A3C5
:10521000A3E0851A82851B83F0A3E4F09004E4E008
:10522000F8740212496CE8F0A3E4F09004E4E0F8AA
:105230009004E3E028F0740212496CAC82AD8385DF
:105240001A82851B83AA82AB83790112606C900459
:10525000E4E4F0E50BA2E092AF7404124936024D8B
:105260009DFFFFFF8521878522C622C0E0C0D0E8D0
:10527000C0E0E9C0E0EAC0E0EBC0E0ECC0E0EDC0B7
:10528000E0EEC0E0C00AC00BC00CC00DC082C083FD
:10529000C0F0A2AFE433FEC2AF759B00906182E024
:1052A000A2E05012E591A2E0500C7591FE740165E8
:1052B000217003124F69E0A2E55051E591A2E5503B
:1052C0004B7591DF9003A3E064076005E06408700C
:1052D0002374016521703579019003D1E0FA75F0EE
:1052E00003A4CAA8F028FB74D32AFA74033BFB1268
:1052F00051168018E0640D70139003C5E004F0644B
:10530000287002E4F07A00E0F9126516906182E0FC
:10531000A2E640030253B2E591A2E640030253B273
:105320007591BF9003A3E06405700812643E126497
:105330004A80031264447521001264A4E99003A416
:10534000F079001264981262767A017B009003A2D1
:10535000E0F912676E907803E0644270559005455D
:10536000E014F0704DC2AF12536A00782AD0E0F614
:1053700018D0E0F6E59F54077005750BFF800375A4
:105380000B7FC4C0E07829E6F50A08E6550BF50B5B
:10539000740B780A1248FED0E0250AF8906270E09B
:1053A000A2E740F8E8C333906272F0906270E0D2F6
:1053B000E0F0906181E0A2E35009E5E9A2E3500347
:1053C00075E9F7A3E0A2E75009E591A2E75003755C
:1053D000917FEEA2E092AFD0F0D083D082D00DD0FA
:1053E0000CD00BD00AD0E0FED0E0FDD0E0FCD0E045
:1053F000FBD0E0FAD0E0F9D0E0F8D0D0D0E032C075
:10540000E0C0D0C082C083906183E0A2E05009E593
:10541000BFA2E0500375BFFEE0A2E15009E5BFA2C4
:10542000E1500375BFFDE0A2E25009E5BFA2E250E2
:105430000375BFFBE0A2E35009E5BFA2E35003758B
:10544000BFF7E0A2E45009E5BFA2E4500375BFEF47
:10545000E0A2E55009E5BFA2E5500375BFDFE0A279
:10546000E65009E5BFA2E6500375BFBFD083D082E6
:105470008088C0E0C0D0E8C0E0E9C0E0EAC0E0EB6E
:10548000C0E0ECC0E0EDC0E0C0F0E5A7A2E6500F40
:10549000E5A1A2E6500953A7BF75A1BF1254D7E5F5
:1054A000A7A2E5500CE5A1A2E5500653A7DF75A120
:1054B000DFE5A7A2E15009E5A1A2E1500375A1FD36
:1054C000E5A7A2E2500CE5A1A2E2500653A7FB75A6
:1054D000A1FBD0F00253E874F81249FC7521019049
:1054E00003A3E0640670151263CC8A828B83A3A3A6
:1054F000A3A3A3A3E0FAA3E0FB12642CA2AFE433BE
:10550000FED2AF9003A9E0640170187A207B00906E
:1055100003A2E0F91267F87A207B009003A2E0F979
:10552000126774906182E0D2E6F0900542E060215B
:1055300085C62280169003A8E064017008E5C65471
:10554000F84405F5C653BEFC12526474016521602F
:10555000E4EEA2E092AF7F01024AA8FF8E238F24DF
:10556000858228858327851A82851B83E0CEA3E068
:10557000CF852882852783EBC9EAC8EDCBECCA75B5
:10558000F010C3E833C8E933C9EA33CAEB33CBC3FD
:10559000EA9EF526EB9FF525B35004AB25AA26EC31
:1055A00033CCED33CDD5F0DAAE23AF242274E9123B
:1055B00049FC74F8124920851A82851B83ECF0A3FC
:1055C000EDF08A0A8B0B9003A3E024F7C3940550F7
:1055D00006750A010257441263CC8A0C8B0DAE0C7F
:1055E000AF0DEE4F7003025741AC0AAD0B740212BF
:1055F000496CAA82AB8312645C8E828F83A3A375ED
:105600000EFF750FFF7510FF751100780E1247B26F
:10561000740212496C7512FF7513FF7514FF75152E
:105620000078121247B2780E79121245D8502A78B3
:105630000E7912124777750A01750BC8750C007543
:105640000D00780A790E1245D85052850E0A850F42
:105650000B85100C85110D80507516017517C875D6
:10566000180075190085120A85130B85140C851511
:105670000D780A790E1247777816790A1245D840C4
:105680001C750A00750B00750C00750D01780A7900
:1056900012124777780A790E12473E800C750A017C
:1056A000750B00750C00750D007409780A12471F00
:1056B000750E19F50FF510F511780A790E12469747
:1056C0008E828F83A3A3A3A3A3A3E0F8A3E0F97A18
:1056D000D07B03124895880E890FE4F510F51178F8
:1056E0000A790E12473E740612496CE0F8A3E0F9FD
:1056F0007AD07B03124895E8FA8A0EE4F50F780A0F
:10570000790E1245D85007780A790E124777900320
:10571000A3E06408600AE064066005E06405702D9B
:10572000750E0D780E790A1245D84021750EF47564
:105730000FFF7510FF7511FF780A790E12473E8032
:105740000C750A00750B00750C00750D00851A822A
:10575000851B83E0F8A3E0F5838882780A1247E787
:1057600074081249367F10024AA874F71249FC12D5
:10577000646E900540E064017010906245E4F0A30F
:10578000F053F4F343FE0C5390F312641AE5C6543D
:10579000804449F5C6E59E547F644970F890618560
:1057A000740FF090053EE0F47002A3E0604E9005A7
:1057B0003FE0600814601B14602E8040750A01757C
:1057C0000B0090053EE0780A12490DE50AF452807C
:1057D000802A750A01750B0090053EE0780A12498F
:1057E0000DE50AF452908014750A01750B009005BE
:1057F0003EE0780A12490DE50AF452A079007F02D2
:10580000024AA874F71249FCE9FEEAFF74016E70BF
:105810000C7A807B009003A2E0F912676E906BC84F
:10582000E493F46008E493F912626A800953C68035
:10583000E59E547F70FA126420900540E064017088
:105840000312628290053EE0F47002A3E0604B9088
:10585000053FE0600814601A14602C803D750A0151
:10586000750B0090053EE0780A12490DE50A42806A
:105870008028750A01750B0090053EE0780A1249F0
:105880000DE50A42908013750A01750B0090053EE4
:10589000E0780A12490DE50A42A012646E1263CC48
:1058A0008A0A8B0BA80AA90BE8496015E5E170FC90
:1058B000E82414F582E93400F583E0F46003E0F5B0
:1058C000E174016F700A7A019003A2E0F91267C2D5
:1058D0000257FE74ED1249FC8A0A8B0B8C0C8D0D5D
:1058E000741312496C780E1247D8780A790E124553
:1058F000D87512017513C87514007515005012780B
:105900000A790E1247777812790A1245D850168014
:1059100010780E790A1247777812790E1245D8401E
:10592000047901800279007F0C024AA874ED1249C3
:10593000FC8A0A8B0B8C0C8D0D741312496C780E3B
:105940001247D8780E790A1245D84011780A790E94
:10595000124777AA0AAB0BAC0CAD0D802275120072
:105960007513007514007515017812790E124777BA
:105970007812790A12473EAA12AB13AC14AD158007
:10598000A68A828B83750AFF750BFF750CFF750D58
:1059900000780A1247C57F04024AA874F51249FC30
:1059A0008C828D83780A1247D88A828B83780A1278
:1059B000478BEA2404F8EB3400F98C828D83A3A38F
:1059C000A3A3E0FCA3E0FD88828983C3E09CF0A34D
:1059D000E09DF088828983C3E09420A3E0944E4048
:1059E000268A828B83750AFF750BFF750CFF750D78
:1059F000FF780A1247648A828B83A3A3A3A3E024BF
:105A000020F0A3E0344EF002598174F51249FCE90C
:105A1000FE9004F8E0FAA3E0FBEEC333F8E433F9B8
:105A2000743028F582748139F583E02AF50AA3E001
:105A30003BF50B780A124BA37A407B427C0F7D002A
:105A400012555C74021249368A0A8B0B8C0C8D0D30
:105A50007410780A124706AA0AAB0B7F04024AA800
:105A600074F11249FC8A0E8B0F8C108D11740F1279
:105A7000496CE0FAA3E0FB741112496CE0F50AA34B
:105A8000E0F50B780A124BA3EA2401F50AEB340087
:105A9000F50BE4F50CF50D780E790A124617750A28
:105AA00071750B02780E790A124617AA0EAB0FAC6D
:105AB00010AD1112555C74021249368B0BEA450B7E
:105AC00060047A0180027A00EC2AFCED3400FD7457
:105AD0001312496CE0F8A3E0F9E8FEE9FFECF8EDF9
:105AE000F97A717B02124895880A890B8E828F831E
:105AF000780A1247E7ECF8EDF97A717B02124895C3
:105B00008A0A8B0B7405780A12490D8E828F83A343
:105B1000A3A3A3E50AF0A3E50BF07F08024AA8C0FF
:105B200082C083E9906000F0D083D08222C2AF02AD
:105B3000000022C0E0C0D0E8C0E0E9C0E0E5A8D2A3
:105B4000AFC2C5751C00A2E7A2E792AFD0E0F9D0C2
:105B5000E0F8D0D0D0E032C0E074F2124AE8A2AF50
:105B6000E433FED2AFE58AA2E050031269BA758A27
:105B700000C2EB751C00EEA2E092AF7F01024B4722
:105B8000C0E074F2124AE8A2AFE433FED2AFE58B74
:105B9000A2E050031269BA758B00C2E880D5C0E05C
:105BA000C0D0E8C0E0E9C0E0E5A8D2AFC2C7751C2C
:105BB00000A2E7A2E792AFD0E0F9D0E0F8D0D0D0D1
:105BC000E03212459965FD0312459977FD031245B0
:105BD000996AEC0312459981EC03124599B2EC03E2
:105BE000124599EDEC0312459917ED0312459941C1
:105BF000ED0312459958ED031245996FED031245D7
:105C00009986ED03124599AFED03124599C2ED0354
:105C1000124599D8ED03124599EBED0312459912FF
:105C2000EE031245995BEC021245995FED021245B5
:105C30009997ED02124599BAED02124599C5ED0208
:105C4000124599E8ED02124599F7EE02124599CCFA
:105C5000EF0212459947F002124599CFF002124522
:105C6000990AF10212459941F102124599CFF102C8
:105C7000124599A8F20212459908F30212459913A8
:105C8000F30212459992F30212459995F3021245D7
:105C90009998F30212459927F4021245992AF402C1
:105CA0001245995AF40212459984F40212459972E8
:105CB000F50212459924F602124599DCFA011245C3
:105CC0009904FB0112459932FB0112459969FB01C8
:105CD000124599C7FB0112459912FC011245995DC5
:105CE000FC011245999DFC01124599E3FC01124506
:105CF0009911FD01124599CEFD01124599D8FD017A
:105D0000124599E5FD0112459918FE01124599E4E5
:105D1000FE01124599F0FE0112459908FF01124556
:105D20009912FF0112459911FA031245991FFA03BE
:105D300012459937FA031245994FFA031245990013
:105D40008002124599AC80021245992781021245C2
:105D5000994882021245998482021245992D830244
:105D6000124599148402124599788502124599CFFB
:105D700085021245995086021245994087021245C4
:105D8000998D870212459913880212459945880218
:105D9000124599598A021245999B8A02124599B96E
:105DA0008A021245993C8B02124599108C021245C9
:105DB00099D88C021245997AA1031245994DA203F4
:105DC000124599F6A20312459949A303124599F980
:105DD000A30312459985A40312459971A5031245A1
:105DE00099A0A503124599B3A603124599FBA603F2
:105DF000124599D0A7031245990CA803124599287A
:105E0000A803124599E1FC03124599ADCF03124551
:105E100099C3CF03124599E9CF0312459905D103E0
:105E20001245990FD10312459944D2031245993C6A
:105E3000D303124599DBB4031245990BB6031245FF
:105E4000993EB60312459988B6031245994FB80397
:105E50001245998BDB01124599F5DB0112459954E6
:105E6000DD0112459964DD0112459991DD0112456C
:105E700099E8DD0112459991DE0112459998DF01FB
:105E800012459962E001124599C2E1011245990556
:105E9000E201124599AAE201124599F7E201124581
:105EA000991DE3011245992BE50112459930E50151
:105EB00012459935E70112459982E701124599F596
:105EC000E70112459928E801124599CAE8011245EF
:105ED0009973E901124599ABE901124599AEE901BF
:105EE000124599F6E90112459936EA011245998D54
:105EF000EA011245993BE00312459953E00312452C
:105F0000999BE003124599B1E003124599F8E0032B
:105F10001245990CE20312459999E203124599E45E
:105F2000E2031245990080011245990C8001124547
:105F3000994780011245998C80011245994C810145
:105F4000124599D281011245993782011245996310
:105F500082011245999C8201124599DA8401124509
:105F600099BE8601124599A48801124599E78901D5
:105F7000124599358C01124599478D011245999228
:105F80008E01124599A28F01124599BF8F011245CA
:105F900099FA8F011245991C90011245997F900141
:105FA000124599409501124599D5950112459926BA
:105FB00096011245994D96011245999F96011245F9
:105FC00099BD9601124599179701124599009801BC
:105FD000124599769901124599FA9901124599024B
:105FE000BA031245990CBA031245994FBA031245E8
:105FF000996ABA03124599FABA0312459922BB036A
:106000001245995FBB0312459996BB03124599BF90
:10601000BB0312459934BC0312459949BC03124590
:10602000995EBC031245998FBC03124599A3BC032A
:10603000124599C8BC0312459902BD031245992E19
:10604000BD0312459966BD03124599E5BD0312458E
:10605000992EBE0312459958BE0312459983BE037B
:1060600012459917F7031245995AD4021245998897
:10607000D402124599D6D502124599B6D6021245D8
:1060800099D5D60212459952D70212459995D70251
:10609000124599EBD802124599ACD90212459933B1
:1060A000DC02124599D4DC02124599CADD02124580
:1060B00099C7DE0212459921E002124599ACE0022F
:1060C00012459979F403124599E2F4031245993681
:1060D000F5031245995DF5031245998EF5031245B6
:1060E0009925C30312459992C303124599D9C30355
:1060F000124599F1C403124599EDC503124599D093
:10610000C60312459995F602124599D7F602124533
:1061100099A9F70212459982F8021245997CF90271
:106120001245995EFA02124599C7FA021245997D05
:10613000FB02124599F1FB021245995DFC021245E2
:106140009986FC0212459900FD0212459999FD02BB
:10615000124599FEFD0212459913FE021245995906
:10616000FE0212459972FE02124599D7FE021245AF
:1061700099DAFE0212459942DD031245996ADD0360
:10618000124599A8DD0312459966DE03124599CDA3
:10619000DE03124599E9DE0312459911DF0312452A
:1061A0009941DF0312459950DF03124599CDDF0372
:1061B000124599F3DF031245997AEB01124599587C
:1061C000ED011245998AEF01124599C6EF0112457A
:1061D00099F3EF01124599DDF00112459928F1017B
:1061E00012459973F10112459985F101124599C53E
:1061F000F101124599FAF10112459948F20112454F
:106200009977F2011245999AF201124599E7F20144
:106210001245996CF30112459986F501124599C50D
:10622000F70112459906F801124599A8F90112459E
:1062300099E9F9011245995CFA01124599B2FA01FE
:1062400012459945C70212459943C802124599DC87
:10625000CE02124599FDD002124599C8D2021245CC
:106260009930D402124599619A01124599109B0107
:106270001245993D9B01124599839B01124599C393
:106280009C01124599599E01124599D39E011245D0
:1062900099EE9E01124599699F01124599C3A0018B
:1062A00012459923A20112459929A3011245998A01
:1062B000A401124599A3A40112459901A501124513
:1062C00099EFA50112459922A60112459992A601BE
:1062D0001245990CA70112459956A701124599201C
:1062E000A801124599F5A801124599D4A9011245B2
:1062F000995FAA01124599CDAA0112459941AB01B6
:106300001245996CAB011245992BAC01124599903D
:10631000AD01124599ADAD01124599CCAD011245C3
:1063200099BDAE01124599E2AE011245990CAF013B
:1063300012459987AF01124599E1AF011245994A7B
:10634000B101124599F8B10112459939B2011245CE
:106350009971B902124599BFB902124599CBB90298
:10636000124599A9BA02124599DABA021245990B57
:10637000BB021245998BBB02124599C3BB02124561
:106380009915BC0212459952BC021245996FBE0282
:1063900012459995C00212459980C2021245996A28
:1063A000C402124599EF7F0012459978C701124542
:1063B00099A8C70112459981CE0112459906D001CD
:1063C00012459903D601124599EBD6011245992839
:1063D000D7011245994BD7011245997CD701124537
:1063E0009985D7011245998FD7011245997DD8011A
:1063F00012459973D90112459969B20112459968FC
:10640000B6011245996EB601124599A9BD01124512
:1064100099C2C201124599DFCB0312459975CC038D
:106420001245998BCC0312459901CD0312459975FC
:10643000CD03124599B3CD0312459927CE031245DA
:1064400099A0CE03124599A9CE03124599B5CE0362
:10645000124599CACE0312459908CF031245991ED9
:10646000CF031245997DCF0312459992C703124578
:10647000999FC703124599B9C703124599F8C703F5
:1064800012459936C8031245999BC803124599B025
:10649000C803124599BBC803124599C8C8031245E1
:1064A00099DFC803124599EDC803124599F8C8034E
:1064B00012459904C90312459913C9031245991E3F
:1064C000C90312459941C903124599E8C903124508
:1064D00099F8C90312459912CA031245992FCA03A4
:1064E0001245994BCA0312459970CA031245997B0C
:1064F000CA0312459990CA03124599A4CA031245CA
:106500009905CB031245990BCB0312459911CB0387
:1065100012459917CB031245992FCB031245996267
:10652000CB03124599629D02124599E69D021245E0
:1065300099959E02124599F49F0212459915A2025F
:1065400012459901A30212459936A30212459958A2
:10655000A30212459907A402124599FFA50212450C
:106560009928A602124599BAA602124599ECA602EC
:10657000124599F9A60212459950A702124599763B
:10658000A702124599E3A902124599E6AA0212450B
:10659000993EAB02124599F18E02124599FB8F028A
:1065A000124599E29002124599EC90021245990E1B
:1065B00091021245991A9102124599B3920212451D
:1065C00099E29202124599FE93021245995794025C
:1065D000124599BD95021245999C9602124599F86B
:1065E0009602124599659702124599A097021245A5
:1065F00099DF9702124599989A02124599B29A0228
:106600001245993E9B021245994C9B02124599A551
:106610009B02124599B39B02124599269C02124592
:10662000998A9C02124599D49C021245992DE10247
:106630001245994FE10212459975E3021245998A74
:10664000E602124599A2E70212459955E802124561
:106650009937E90212459924EE0312459949EE0350
:10666000124599BBEE03124599009A031245990908
:106670009A03124599129A03124599E99A03124511
:10668000999A9C03124599D09C031245990A9D033F
:10669000124599409D031245997A9D03124599AE82
:1066A0009D03124599DA9D03124599239E031245D5
:1066B000995D9E03124599A69E03124599FE9E037D
:1066C000124599339F031245998E9F03124599C82D
:1066D0009F0312459919A0031245994FA003124533
:1066E0009989A003124599B7A003124599DAA0032E
:1066F0001245999EFB03124599CAFB031245992541
:10670000FC031245992FFC031245993FFC031245E7
:1067100099DA9103124599E4910312459922920363
:106720001245996B9203124599A59203124599FF60
:106730009203124599209303124599C2950312457D
:1067400099CB95031245991C9603124599459603DA
:106750001245994F9603124599BB96031245994FDE
:106760009703124599A39703124599D997031245A8
:1067700099609803124599A09803124599D89803F7
:10678000124599EA980312459909990312459912FD
:106790009903124599D69903124599FEFE021245B6
:1067A000996BEA03124599A1EA03124599D7EA03C6
:1067B00012459930EC0312459949FC031245995F43
:1067C000FC0312459969FC03124599B3FC03124579
:1067D0009999FF01124599ABBE03124599C4BE03B6
:1067E00012459968BF03124599A8BF03124599C184
:1067F000BF03124599F5BF0312459942C0031245E4
:106800009976C003124599B8C003124599B8C203DE
:1068100012459966F1031245998FF103124599B813
:10682000F10312459953F2031245996BF203124595
:1068300099ADF203124599BCD6031245992CD703A2
:1068400012459938D703124599C5D7031245990EB9
:10685000E3031245993EE30312459951E3031245C0
:106860009987E303124599A5E303124599F0E303E1
:1068700012459986E40312459903E50312459922CE
:10688000DA0312459947DA0312459973DA03124580
:106890009979FE03124599CC6B00124599306E0030
:1068A000124599E26F00124599D47000124599592A
:1068B0007100124599D77100124599047200124572
:1068C00099287500124599A2750012459991760094
:1068D000124599CB76001245990B7700124599C560
:1068E000780012459918790012459961790012458E
:1068F00099CF7900124599017A00124599197A00C9
:106900001245992E7B001245993E7B001245996EE7
:106910007C00124599907C00124599C67C00124576
:10692000996B7E00124599AA7E00124599CA7F0094
:10693000124599E8FA03124599F9FA03124599307C
:10694000FE031245996FFE0312459968FF03124535
:106950009973FF0312459995FF0312459934F90382
:1069600012459944F90312459959F9031245990BB7
:10697000FA0312459930F803124599B5F803124508
:10698000991BF903124599D4F50312459908F603AA
:1069900012459931F603124599A8F603124599C993
:1069A000EF03124599F7EF0312459956F00312458C
:1069B000996EF003124599C4F0031245991CF10336
:1069C0001245995AF1031245995DF1031245994612
:1069D000D3031245995BD303124599C4D4031245DE
:1069E0009930D503124599A4D503124599BED50314
:1069F000124599D5D503124599E8D503124599005A
:106A0000D60312459915D60312459936D603124579
:106A10009987D6031245997FFF031245998FFF038B
:106A200012459992FF03124599F87F001245993655
:106A3000E803124599C1E90312459922EA03124578
:106A40009968EA03124599A6FF03124599ABFF0323
:106A50001245999DA803124599DAA803124599F6A3
:106A6000A803124599BAA903124599A3AA0312458E
:106A70009936AC031245999DAC0312459980AD033C
:106A800012459907AE0312459917AF03124599F2C3
:106A9000F20312459947F303124599B5F3031245E2
:106AA0009925F403124599CBE503124599F5E503C1
:106AB000124599CAE603124599BEE703124599AA01
:106AC0008903124599678A03124599A28A031245E0
:106AD00099CA8A031245992C8B03124599788B0326
:106AE000124599D18B03124599628C031245996422
:106AF0008D03124599218F03124599A38F031245E7
:106B0000990890031245991F90031245992F9103FC
:106B10001245996D91031245998CAB021245991655
:106B2000AF021245999EB002124599F5B002124586
:106B30009914B10212459992B10212459930B302EB
:106B400012459914B402124599FEB702124599CE26
:106B5000B802124599008003124599DB8203124561
:106B6000996085031245995D87031245999E8703B5
:106B70001245993F89031245996C89031245995B27
:106B8000AF03124599A0AF03124599BDAF0312455B
:106B900099F7B00312459988B10312459981B20360
:106BA00012459941B4031245997AB403124599F6F6
:106BB000FE03124599C0FE0312459922FF031245B8
:106BC000994AFF03FFFFFFFFFFFFFFFF74F0124929
:106BD0009074FA124920890AECFEEDFF750B008AC9
:106BE0000C8B0D780C124BE7000410F46D0F6C2D1C
:106BF0006C476C5F6C7D6C956CB86CD06CE46C0E03
:106C00006D8B6D9C6DB36DCE6DF46DF46D246D74F4
:106C100001650A6003026DEF8E828F83E0F8C394F2
:106C2000034003026DEFE8900C3B026DCB740265EC
:106C30000A6003026DEF8E828F8312759C900C3C6C
:106C4000E8F0A3E9026DCB7401650A6003026DEF01
:106C5000126E1C4003026DEFE8900867026DCB7462
:106C600001650A6003026DEF8E828F83E0F8C394A2
:106C7000054003026DEFE8900868026DCB74016572
:106C80000A6003026DEF126E1C4003026DEFE89084
:106C90000869026DCB7410650A6003026DEF750C14
:106CA00010750D00780C124BA37A6A7B08126714DA
:106CB0007402124936026E157401650A6003026D92
:106CC000EF126E1C4003026DEFE890087A026DCB64
:106CD0007401650A6003026DEF8E828F83E0900C71
:106CE0003F026DCB7404650A6003026DEF8E828FE4
:106CF00083780E1247D8908263780E1245F85003BD
:106D0000026DEF90087C780E1247E7026E15E9607D
:106D100003026DEF125E1AE970051268F480569056
:106D2000090F80637407650A6003026DEF750C0636
:106D3000750D00780C124BA38E828F83A3AC82ADAD
:106D400083740212497E12671A74021249367C005B
:106D50007D00AA1AAB1B8E828F83E0F91268A0E92E
:106D6000F50CC3940A4003026E12125E1AE9700C0D
:106D7000A90C1268FA7950126B10806E7410250CF1
:106D8000F582E43409F583740180407401650A706A
:106D90005E126E1C5059E890087B802F7401650AC2
:106DA000704D8E828F83E0F8C3940A5042E8900CB5
:106DB0003E80187401650A70368E828F83E0F87405
:106DC000F928C3940A5028E8900C40F080477401D9
:106DD000650A701B90090EE0F88E828F83E090099F
:106DE0000EF0E87030E06401702B1268E8802675C0
:106DF0000B188021C3EA9427EB94005015740265A8
:106E00000A700F8E828F831278BF125CB8E9F50B7F
:106E10008003750B02A90B74060271FC8E828F83AE
:106E2000E0F8C3940222740E1249367F04024A62CB
:106E300074F012499074B11249208C108D11908217
:106E40003074201249867406124833742012498621
:106E50001268A0E9F50D745F12496CE0F50EE9C304
:106E6000940A4003026FAE75F006E9A4F50B744175
:106E70001249867A0E7420250BF9126B0AE9700903
:106E8000744D12496CE0FE80027E00900C3BE06481
:106E9000027005750A018003750A007408650E709A
:106EA00004742280027421250BFF7C1B7D00790075
:106EB000742612497E12672CEEA2E0E433F50C74BE
:106EC000261249867A1BEFF9126B0AE97025744085
:106ED00012496CE024F9C3940A5018780A124BA79F
:106EE0007427124986A90CAA10AB11125D5A7401BD
:106EF0001249367C147D007900740C12497E1267A9
:106F00002C740C1249867A107424250BF9126B0A22
:106F1000E970307C1079FF740C12497E126792E997
:106F20007021741C12496CAC82AD837A04742525DF
:106F30000BF9126B0A740C124986A90CAA10AB113A
:106F4000125D42AC1AAD1B7A0C7470250DF9126BF0
:106F50000AE97049AA1AAB1B1268D07F00EF75F0DE
:106F600003A4F8A9F0851A82851B83E58228F8E539
:106F7000831276C41278B9601D88828983A3A3E046
:106F8000F50A750B00780A124BA3AA10AB11125F19
:106F9000A674021249360FEFC3940440C0EEA2E17A
:106FA000500C900866E0F9AA10AB11125FAC7404A3
:106FB000650E7027900C3BE06402701F7A00900809
:106FC0007AE060010A900867E06004780480027843
:106FD00000E84AF9AA10AB11125E027900744F0260
:106FE00071FC74F112499074F01249208A0E8B0FD3
:106FF0008C0A8D0B7E0AE9600C14600914603A1447
:1070000060750270C81268E2E9FEC3940A40030288
:1070100070C8E50A450B70030270C8750C06750D43
:1070200000780C124BA3AC0EAD0FAA0AAB0B126783
:107030001474021249360270C87F00750C06750D73
:1070400000780C124BA3AC0EAD0FEF75F00EA4F848
:10705000A9F0748828FA740839FB126726740212A2
:107060004936E970090FEFC3940A505C80CDEFFEFA
:10707000C3940A505380427F00AC1AAD1B7A10753E
:10708000F006EFA42423F9126B0AE9701C7C107936
:10709000FFAA1AAB1B126792E9700EAC0EAD0FAAD5
:1070A0001AAB1B125D24E960090FEFC3940A501854
:1070B00080C7EFFEC3940A500FE50A450B6009AA8A
:1070C0000AAB0BEEF91268DCEEF974101249367F48
:1070D00007024A6274F4124990E9FF7E1574FF6A50
:1070E000700374FF6B7028750A00EFFC7A027B0056
:1070F000A90A1268BEE960027E00050AE50AC39487
:107100000A40E7EF604E7A0C7B691261AA80451253
:10711000618C8A0A8B0BEA450B60387C007D00EAA3
:107120002405FAE4350BFB850A82850B83A3A3A310
:10713000A3E0F91268A0E9C3940A500BEFFC7A02AD
:107140007B001268BE7E00EF600AAA0AAB0B1269D0
:107150000C80011EEEF9026E2B74F21249908C0A1B
:107160008D0B7E15740E12496CE0F50CA3E0F50D45
:1071700074FF6A700374FF6B701D7F00AC0CAD0D63
:10718000AA0AAB0BEFF91268C4E960027E000FEFA8
:10719000C3940A503B80E512618C8A828B83E5821E
:1071A0004583602B7C007D00E5822405FAE435836D
:1071B000FBA3A3A3A3E0F91268A0E9C3940A5010AB
:1071C000AC0CAD0DAA0AAB0B1268C47E0080011E88
:1071D000EEF97F06024A62C082C083900880EAF01E
:1071E000A3EBF0900866E0FC7D007A267B00125C41
:1071F000B8900866E0F9125F22027CBF1249367F20
:1072000008024A6274F012499074EC124920EAFEB6
:10721000EBFFEE240CF50EE43FF50FEE2405F51020
:10722000E43FF511EE2409F50CE43FF50DEE2403DF
:10723000F50AE43FF50B8E828F83A3A3E024FA7056
:10724000030274C024FD70030273DE147003027223
:10725000DB14601024FD70030273B5147003027414
:1072600015027517127FC1604AE0F5838882E0F548
:1072700010A3E0F511E51045116038850E82850FE9
:1072800083E0F50E780E124BA7EE240BF582E43F57
:10729000F583E0F9850C82850D831278BF0A0A0A0E
:1072A000AB0B85108285118312498E740112493609
:1072B000027517850C82850D83124BBA90087C12DB
:1072C00047F6125D547402124936E97003027517CD
:1072D0007901850C82850D8302748B8E828F83A346
:1072E00085820C85830DE06003027398851082858A
:1072F0001183E0A2E0400302739890091A127FC440
:1073000060030273987C0E7D007900AA1AAB1B12F1
:10731000672C850E82850F83127C8AEA4B6010757C
:107320000E06750F00780E124BA3EA2410801B1274
:107330007C8412618CEA4B7003027517750E06751A
:107340000F00780E124BA3EA2405FCE43BFD740207
:1073500012497E1267147402124936851082851113
:1073600083E0A2E25004D2F08002C2F0A2F0E43343
:10737000F8740C12496CE048F0EEFCEFFDAA1AAB71
:107380001B1268D6E970117A027B00900866E0F95A
:1073900012676E7900027519127FC17003027517AA
:1073A00012751E7003027517850C82850D83E0FC33
:1073B00079010274B4127FC17003027517127C49FF
:1073C000890DE8450D70030275178E828F83A3E047
:1073D000FC7902127C848882850D830274BB7C0058
:1073E0007D00EE2404FAE43FFB850A82850B83E0EE
:1073F000F91268A0E9F8C3940A4003027517EE2455
:107400000AFCE43FFD7A0475F006E8A42425F9128D
:107410006B04027517127C8490087BE06007900C67
:107420003EE0F98069900C3BE070047905805F12C2
:10743000618C8A0E8B0FA80EA90FE82404F50EE4C8
:1074400039F50F8E828F83A3A3A3A3A3A3A3E0A2E6
:10745000E05041E8497003027517850E82850F835D
:10746000E0FE6030850C82850D83E0541070257439
:107470000E124986E82405FAE439FBEEF91268A0F9
:10748000E970117903850A82850B83127C8A125D6B
:107490004E027517AC10AD11850E82850F83E0F991
:1074A000127C84126918127FC1606C12751E6067AD
:1074B0007C007900127C848E828F8312498E8057E3
:1074C000125E1AE9705190090FE06401701512689C
:1074D000F490090FE4F07C0AFDF97A107B09126739
:1074E0002C802C750C00850C0A7410250AFEE434DF
:1074F00009FF8E828F83E06401700BA90C1268FA79
:107500008E828F83E4F0050CE50CC3940A40D77992
:1075100050126B101268E8790174140271FC127C2D
:107520004DE8FEE9FFEE4F2274F412499074F21216
:107530004920EAFE8C0B75F006E9A42420F50AAC7C
:107540001AAD1B7A0EF9126B0AE9704B7C0679FFB3
:10755000AA1AAB1B126792E9703D740C12496C12A7
:10756000759CE8F50DE50B6005EE420D8004EEF428
:10757000520D850D82AA82E86A7001E96015740CCB
:1075800012496CEAF0A3E4F0AC1AAD1B7A0EA90A1A
:10759000126B04790180027900026E26E0F8A3E004
:1075A000F92274F212499074E6124920890B8A0E6E
:1075B0008B0FECFEEDFF740C1249867A0E75F00607
:1075C000E9A42420F9126B0AE960030276877C069D
:1075D00079FF740C12497E126792E9600302768784
:1075E0007470250BF50AAC1AAD1B7A0CF9126B0AF4
:1075F000E96003027683AA1AAB1B1268D0E50E4538
:107600000F701D7C0C7900AA1AAB1B126792E970EF
:10761000727C0C7D007900AA1AAB1B12672C80517A
:10762000AC1AAD1BAA0EAB0F1268CA8A0C8B0DA840
:107630000CA90DE8497022EE4F604CAC1AAD1B7AD4
:10764000007B001268CAEAF8EBF9EA4B60398882DD
:107650008983E50EF0A3E50FF0127700FAEE6A7069
:1076600001EF601FEEF04F700888828983E4F0A379
:10767000F0AA1AAB1B1268D0AC1AAD1B7A0CA90A7F
:10768000126B04790180027900741A124936027172
:10769000D274F71249907F00EF75F003A4F8A9F0B7
:1076A000EC28F8ED1276C4E06A7003A3E06B700674
:1076B000E8FAE9FB800B0FEFC3940440DB7A007B10
:1076C000000279FC39F9888289832274F712499083
:1076D0007E00EE75F003A4F8A9F0EA28F8EB127624
:1076E000C4E0F4FCA3E0F4FD88828983ECF0A3ED10
:1076F000F0127700F4F00EEEC3940440D50279FC4A
:10770000E82402F582E439F583E02274F41249900A
:1077100074F4124920EAFEEBFF8C0C8D0D90091ACF
:10772000127FC4704FEE4F700302789AEC450D70D3
:107730000302789A1268E2E9900C41F0C3940A407F
:1077400033750A007C0679FFE50A75F00EA4FAABE2
:10775000F074822AFA74083BFB126792E960030214
:1077600077F3050AE50AC3940A40D9750B0AE50BBD
:10777000900C41F0900C41E0C3940A400302789AC7
:1077800075F006E0A4F890091A127C8AEA4B706939
:10779000EEFCEFFD7A0E742028F9126B047C0C7D50
:1077A0000079FFAA1AAB1B12672CAC1AAD1B7A0C1E
:1077B000900C41E02470F9126B04750A0E750B00F1
:1077C000780A124BA3EEFCEFFD900C41E075F00E31
:1077D000A4F8A9F0748228FA740839FB12671474AB
:1077E0000212493690091AE50CF0A3E50DF0790074
:1077F00002789C850A0B02776E1278A12406127813
:10780000B360197A1B742128F9126B041278AA2428
:1078100006F582E438F583E4F0A380D11278A12440
:107820000A1278B360107A1B742228F9126B0412C2
:1078300078AA240A80DB1278A1240C1278B3601095
:107840007A10742328F9126B041278AA240C80C1D0
:107850001278A124081278B360347A10742428F9BD
:10786000126B041278AA2408F582E438F583E02428
:1078700010FCA3E03400FD7A0475F006900C41E0A2
:10788000A42425F9126B041278AA24088083900995
:107890000EE0600312691E1269127901740C026E07
:1078A0002890091AE0F9A3E0C92290091AE0F8A388
:1078B000E0C822F582E439F5831278BFEC4D22E06E
:1078C000FCA3E0FD2274F412499074F2124920EAFC
:1078D000FEEBFFE9C3940A5004EE4F700479028076
:1078E00034AC1AAD1B7A0E75F006E9A42420F91207
:1078F0006B0AE9F50A701C750C06750D00780C1200
:107900004BA37402124986EEFAEFFB12671474025D
:10791000124936A90A026E2674F4124990EAFEEB67
:10792000FF750A00750C06750D00780C124BA3EE5E
:10793000FCEFFDE50A75F00EA4F8A9F0748228FAB0
:10794000740839FB1267267402124936E96004A9EB
:107950000A800B050AE50AC3940A40C8790A026E38
:107960002B74F7124990750A00E50A75F00EA4F819
:10797000A9F0748228FE740839FFEEFCEFFD7A0E40
:1079800075F006E50AA42420F9126B0AE960297C47
:10799000067D0079FFEEFAEFFB12672C7C067D0076
:1079A00079FFEE2CFAE43FFB12672CEE240CF582F3
:1079B000E43FF583E4F0A3F0050AE50AC3940A4026
:1079C000A890090EE0600312691E126912802D74DE
:1079D000F71249907E007F007C0679FFEF75F00E6C
:1079E000A4FAABF074822AFA74083BFB126792E99E
:1079F00070010E0FEFC3940A40DEEEF97F01024AD8
:107A00006274F71249907E00EEF91268FA0EEEC326
:107A1000940A5003E960F180E374F312499074CB47
:107A2000124920E9FF900C41E06F701B7A017B0046
:107A3000900866E0F91267747A027B00900866E0AD
:107A4000F912677412692A75F006EFA4FE74202EED
:107A5000F50A74271249867A0EA90A126B0AE960A0
:107A600003027B1F7C0679FF742712497E126792FE
:107A7000E96003027B1F7C0E7D0079FF74271249A9
:107A80007E12672C7C1B7D0079FF740C12497E12DC
:107A9000672C7C0C7D0079FFAA1AAB1B12672C7433
:107AA000271249867A0EA90A126B04E9F50A740CAA
:107AB0001249867A1B74212EF9126B04E9F50E74B3
:107AC0000C1249867A1B74222EF9126B04E9F50D0B
:107AD000740C1249867A1074232EF9126B04E9F59E
:107AE0000B740C1249867A1074242EF9126B04E977
:107AF000F50C740C1249867A0474252EF9126B0465
:107B0000E9FEAC1AAD1B7A0C74702FF9126B04E904
:107B1000F8E50E450D450B450C4E48420A800375AD
:107B20000A00A90A74351249367F05024A6274F7C1
:107B3000124990E9900866F01268E80279FC74F442
:107B4000124990EAFEEBFF54807003027BD6900846
:107B500066E0F91267568A0A8B0BEA450B6070786B
:107B6000018A828B83E02450603D14600624E1602A
:107B70004F8052A3A3A3A3E0704E8A828B83A3A35A
:107B8000A3A3A3A3A3124BBA8A828B83A3A3A3A309
:107B9000A31278BF8A828B83A3A3127C8A1268AC5B
:107BA00074021249368021A3A3A3A3E0641E7018B7
:107BB00079008A828B83A3A3127C8A1268A680082C
:107BC0001268B8E9F8E86007AA0AAB0B126744EE3E
:107BD000FAEF64808065EE540260237C007D007AB9
:107BE000007B001268D6E960117A017B009008667C
:107BF000E0F912676EEE6402803F7A028046EEA2E0
:107C0000E0503F127C5A127C8A126924E9602F12DC
:107C10007FC1601F127C49880A890BE8450B6013FD
:107C20007C007901127C5A127C8A850A82850B833A
:107C300012498E12692AEE6401FAEFFB80087A017C
:107C400080027A007B00026E2B127C4D22E0F583CD
:107C50008882A3A3E0F8A3E0F92290091AE0F8A330
:107C6000E0F5838882A3A3A3227F02024A62C08236
:107C7000C083900866E0F98A828B83A3127C8A1203
:107C80005FAC803B850A82850B83E0FAA3E0FB2290
:107C9000C082C08374FF1249201268EEE9C39402C7
:107CA000851A82851B83400474028002740AF0AC3A
:107CB0001AAD1B7A017905125E327401124936D071
:107CC00083D08202459674F412499074E8124920D8
:107CD0008A0A8B0BE9FE8C0C8D0D7C187D007900D7
:107CE000AA1AAB1B12672C851A82851B83E50AF042
:107CF000A3E50BF0900868E0C0E0740212496CD074
:107D0000E0F0900869E0C0E0740312496CD0E0F044
:107D1000900C40E0C0E0741712496CD0E0F074158C
:107D200012496CE054FEF8A3E0F9900C3FE0A2E0A9
:107D3000E433FAE84AF8741512496C127E61A2E144
:107D40005004D2F08002C2F0E854FDFAA2F0E4330D
:107D500025E0F8EA48F8741512496C127E61A2E336
:107D60005004D2F08002C2F0E854F7FAA2F0E433F3
:107D7000F50A750B007403780A12490D127E5A1227
:107D8000496C127E61A2E45004D2F08002C2F0E895
:107D900054EFFAA2F0E433F50A7404780A12490D9C
:107DA000127E5A12496C127E61A2E55004D2F08014
:107DB00002C2F0E854DFFAA2F0E433F50A74057861
:107DC0000A12490D127E5A12496C127E61A2E250CB
:107DD00004D2F08002C2F0E854FBFAA2F0E433F5DA
:107DE0000A7402780A12490D127E5A12496CE8F0A0
:107DF000A3E9F0900869E0601D750A10780A124B3B
:107E0000A37C6A7D08740612496CAA82AB83126750
:107E100014740212493690087AE06010EE6009741A
:107E20001512496CE04402F0780180027800741465
:107E300012496CE048F0900867E060047804800222
:107E40007800741412496CE048F0AC0CAD0DAA1A1D
:107E5000AB1B125D487418026E28EA450AF87415C7
:107E600022E8F0A3E9F0900C3FE02274F712499069
:107E7000126024750A00E50A75F00EA4F8A9F074E2
:107E80008228FE740839FF7C0679FFEEFAEFFB12B8
:107E90006792E97009EEFAEFFB790012602A050A91
:107EA000E50AC3940A40CF0279FC74F61249907433
:107EB000FD124920EAFEEBFF90091C127FC47039C5
:107EC000750A1E750B09780A124BA3750A02750B09
:107ED00000780A124BA3750AE1750B82780A124BDF
:107EE000A37CFF7DFF7A017B00125E747406124949
:107EF0003690091CEAF0A3EBF090091C127FC470C5
:107F000003027FABE4F50AF50B780A124BA3740465
:107F1000124976880A890B780A124BA37404124915
:107F200076880A890B780A124BA390091E124BBA65
:107F3000790290091C127FB9125F9A7408124936AF
:107F4000E97036851A82851B83E0FA740112496C48
:107F5000E0F8E4C8F9EA28F50AE439F50BEA450B3C
:107F60006017780A124BA390091C127C5DA3127F44
:107F7000B91268AC7402124936E4F50AF50B780AB6
:107F8000124BA390091E124BBA7CFF7DFF90091C77
:107F9000127C8A125E80740412493690091CEAF041
:107FA000A3EBF090091C127FC47004790180027960
:107FB000007403124936027C691278BFEEFAEFFBB7
:107FC0002290088012759CE84922C082C0839009E3
:107FD0001A127FC4601090091A127C8A12674490AA
:107FE000091AE4F0A3F0900C41740AF0027CBF027D
:107FF0004596FFFFFFFFFFFF851C87C2AF02459636
:10800000C082C083E9900B25F002828F74F7124979
:1080100090E99002E2F07C1A7D037AFF7BFF125F09
:10802000B29002E374FFF0A3F0A3E4F0A3F07905AB
:10803000125F3A9002E2E0F9125E5C7AD07B5F1246
:10804000617A7F01024A6274F41249908A0A8B0BAA
:10805000EB548060309002E2E0F91267568A0C8B94
:108060000DAE0CAF0DEE4F60138E828F83E064B0C7
:108070007003125F52EEFAEFFB126744AA0AE50B97
:108080006480FB80047A007B0002825E74F21249F5
:108090009074FC124920EAFEEBFFEE4F6038740248
:1080A00012496CEEF0A3EF1284C3ECF0A3ED12843E
:1080B000C3AA82AB83125E56E9F50A70737412127A
:1080C000496C129077E50C450D60658E828F8312A6
:1080D000813AEE4F7005750A0280557A067B0012D0
:1080E00067AA8A0E8B0FA80EA90FE8497005750ABA
:1080F00013803D88828983E4128144A3A3EEF0A318
:10810000EF129510E50CF0A3E50DF09002E8128156
:10811000CC9002E86017E0FCA3E08003EAFCEBFDF2
:108120008C828D831281CC70F38C828D83128F9C14
:10813000A90A7404124936029712A3A3A3A3E0FE6E
:10814000A3E0FF22F0A3F0888289832274F212490F
:1081500090890CE975F017A4FEAFF09002E7E4F007
:108160009002E51281CC600A1267B09002E5E4F05B
:10817000A3F0EEFAEFFB1267AA8A0A8B0BEA450B13
:10818000602FEEFCEFFD790012672C9002E5E50A06
:10819000F0A3E50BF07B0080081281B6E4F0A3F0B9
:1081A0000BEBC3950C40F2E50C9002E7F0790080F0
:1081B000027913029712EB75F017A4F8A9F0900258
:1081C000E5E028FAA3E0398A82F58322128D32EAAB
:1081D0004B2274F4124990750A00750B00740C124E
:1081E000496C1294E4FEE9FF800CE50A2401F50ACB
:1081F000E50B3400F50BC3E50A9CE50B9D50328579
:108200000A0C850B0D7403780C12490DEA250CF845
:10821000EB350DF988828983A3A3A3A3A3A31290AE
:1082200077EE650C7003EF650D70BFE8FAE9FB802F
:10823000047A007B00802774F41249907900EAA246
:10824000E0501B750A2A750B82780A124BA37C0436
:108250007D007A277B0B125F3474021249367F044B
:10826000024A62C082C0839002E8128296601C8833
:10827000828983A3A3E06A7003A3E06B8882898369
:1082800070E8A3A3A3A3128D2E80047A007B00D0F4
:1082900083D0820245961297E5E8492274EE12498E
:1082A0009074FC124920EAFEEBFF851A82851B833D
:1082B000E4F0A3F0EE2402128F80EE24051284B1C4
:1082C000EE2404F510EF128896E024FE603924FCB9
:1082D000604624FE605224FE605E24FE700302832A
:1082E000B624FE700302842E24FE700302843D2413
:1082F000FE700302844C24FC700302845B24FE7035
:108300000302846A0284A79003017417F0A3E412A5
:1083100084CB125BD40284A7851A82851B83AC822E
:10832000AD83125F58028477851A82851B83AC82E5
:10833000AD83125F5E028477850E0A850F0B74028F
:1083400012496CAC82AD83850A82850B83128D2E17
:10835000125E7A8A0E8B0FAC0EAD0FEC4D6042E4CC
:10836000F50EF50F780E124BA3750E01750F0378FD
:108370000E124BA3750E02750F03780E124BA374E9
:108380000812496C124BBA7916128D28125F9A7432
:1083900008124936E9F50E700B128D24125BEC8041
:1083A0000F750E01850A82850B831284B9128F9C8A
:1083B000850E0A02847A740212496CAC82AD838500
:1083C0000E82850F83128D2E125E7A8A128B13AC69
:1083D00012AD13EC4D6043850E82850F83A3A3126B
:1083E0004BBA7512017513037812124BA375120262
:1083F0007513037812124BA3740812496C124BBA0E
:108400007916128D28125F9A7408124936E9F50B15
:10841000700B128D24125BF2800F750B01850E829A
:10842000850F831284B9128F9C850B0A804C851AA4
:1084300082851B83AC82AD83125F64803A851A8289
:10844000851B83AC82AD83125F6A802B851A82857F
:108450001B83AC82AD83125F70801C851A82851BE2
:1084600083AC82AD83125F76800D851A82851B8373
:10847000AC82AD83125F7CE9F50AE50A60298E8241
:108480008F83A3E06414601F851082851183E090C0
:1084900003011284C31297E1900302128F9CE50A34
:1084A000A31284CB125BCEEEFAEFFB125EF8028EC3
:1084B00088F50EEF3400F50F221297E5851A8285B4
:1084C0001B8322F0851A82851B8322F07C017D03A9
:1084D000850C82850D83128D322274EE12499074C0
:1084E000FC1249208A0C8B0D8C108D11EA2405F5A5
:1084F0000AEB3400F50B7C157D0079007A017B03D3
:1085000012672CE50A2402F50EE50B1284B4851AD5
:1085100082851B838582128583137812124BA38573
:108520000A82850B83A3A3A3A31289DE124BA3E5C2
:108530000A2405F512E50B3400F5137812124BA34B
:10854000850E82850F83128D38125E74740612496F
:10855000368A128B13AE12AF13E50C2402F50CE52C
:108560000D128F83EE4F70030286A08017740212E3
:10857000496C128D2E88828983EAF0A3EBF0900378
:1085800001E004F0900301E0C3940540030286A0DB
:10859000E4F512F5137812124BA37512EA75130263
:1085A0007812124BA37512EB7513027812124BA3BB
:1085B000740612496C124BBA7910EEFCEFFD128D65
:1085C00028125F9A7408124936E9705E850A82851E
:1085D0000B83A3A3A3A3A3A3A3E0F89002EAE068FC
:1085E00070481289DE124BA37CEB7D02E50A240859
:1085F000FAE50B3400FB1267267402124936E96073
:10860000298E828F83A3A3A3A3128D2E900301E052
:10861000F5127402781212490D74022512F5827453
:10862000033513F583EAF0A3EBF0740212496C856D
:1086300082128583137812124BA3740212496C12B2
:108640004BBA850E82850F831297F6125E807404F2
:108650001249368A128B13AE12AF13900301E0F564
:10866000127513007402781212490D74012512F864
:1086700074033513F988828983A31281CC700302B5
:108680008564E82403F8E93400F9EE4F60030285BD
:108690006D8882898374FFF0A3F0900301E004F0F9
:1086A000900301E0600A128D24125BE07900800BD8
:1086B000850A82850B83128F93790A028E8874EA69
:1086C00012499074FE1249208C148D15EA2405F588
:1086D0000EEB12996012813E750A00750B00EA24B8
:1086E00002F512EB3400F513851A82851B8385820F
:1086F0000C85830D780C124BA3850E82850F83A306
:10870000A3A3A31288A0124BA3E50E2405F50CE544
:108710000F128F83780C124BA3850E82850F831264
:1087200097F4125E7474061249368A0C8B0DEA4572
:108730000D7003028851EA2404F510EB128896129A
:10874000813E8A828B83A3A3A3E0F98512828513DD
:1087500083128D2E125E62E9F50B6003028851E4EC
:10876000F516F5177816124BA37516EA75170278E9
:1087700016124BA37516EB7517027816124BA374DD
:108780000612496C124BBA7913AC0CAD0D851282EE
:10879000851383128D2E125F9A7408124936E9F5FB
:1087A0000B60030288519002EAE0F8E50A7009E0E4
:1087B0002402900302F08017900302E0FCE82402F8
:1087C000FAE43400FBEA6C7001EB60030288558523
:1087D0000A82AA821289D594141289CD5073851009
:1087E00082851183E0C0E074032A12888DD0E0F006
:1087F000050A851082851183A3E0C0E0850A0C7408
:1088000003250C12888DD0E0F0050A9002EA128848
:10881000A0124BA37CEB7D02850A0C7403250CFA95
:1088200074033400FB12671474021249369002EA92
:10883000E0250AF50A74FF6E700374FF6F6012EE94
:1088400024010EEF3400FFE50AC39414500302869E
:10885000E8E50A6013128C19851282851383128D44
:108860002E125BE679008014E50B7003750B0A8508
:108870001482851583EEF0A3EFF0A90B7402124960
:10888000367F0E024A62850A0E7403250EF5827445
:10889000033400F583223400F511851082F583221C
:1088A0001295232274EE12499074FE1249208C1006
:1088B0008D11EA2405F50EEB1284B4750D009003BA
:1088C00001E4F0F50CEA2402F50AEB3400F50B8024
:1088D00049900301E0FA9002EAE0F81289D5941772
:1088E0001289CD400D900301E0F87416C3989002F0
:1088F000EAF01289DE124BA37CEB7D0274022AFAA5
:1089000074033400FB12671474021249369002EAB1
:10891000E0F8900301E028F0050CE50E2416F5823E
:10892000E50F128891E0F8E50CC39840030289B680
:10893000900301E0C39416507DE50CC333F8E43393
:10894000F9E50E28FEE50F39FF851A82851B83ACF9
:1089500082AD838E828F83128D2E125E7A8A128B65
:1089600013AC12AD13EC4D7005750D018043E4F5A9
:1089700012F5137812124BA37512EA7513027812CE
:10898000124BA37512EB7513027812124BA37406E7
:1089900012496C124BBA7916850A82850B83128DA7
:1089A0002E125F9A7408124936E9F50D7003028899
:1089B000D1128F8F80107C017D03850A82850B8305
:1089C000128D2E125BF8A90D7402028E8AE99400B2
:1089D000C365D03322EA28F8E43400F9E822E0F550
:1089E0001275130078122274EA12499074FC12492D
:1089F000208A0E8B0F8C148D15EA2405F50CEB12D2
:108A00008F83750A00750B00E50C2402F512E50D45
:108A10003400F513740212496C8582108583117835
:108A200010124BA3850C82850D83A3A3A3A31294DC
:108A3000CF124BA3E50C2405F510E50D3400F5111C
:108A40007810124BA3851282851383128F89128DA1
:108A500028125E7474061249368A108B11AE10AF5C
:108A600011E50E2402F510E50F3400F51180408861
:108A700082898374FFF0050A12888674FFF0050A64
:108A80009002EAE0F50E750F00780E124BA37CEB16
:108A90007D02850A0E7403250EFA74033400FB125E
:108AA000671474021249369002EAE0250AF50AEECC
:108AB0004F60718E828F83A3A3A3E0F98510828516
:108AC0001183128D2E125E62E9F50BEE24041284DE
:108AD000B1E97044E4F516F5177816124BA3751634
:108AE000EA7517027816124BA37516EB7517027804
:108AF00016124BA3740812496C124BBA7911EEFC92
:108B0000EFFD851082851183128D2E125F9A7408F5
:108B1000124936E9F50B6027850E82850F83128C8A
:108B20000F128F9CE50A7003028BF5128C198510C9
:108B300082851183128D2E125BFE7900028C0A85CC
:108B40000A82AA82EA9002EA7009E02404900302F1
:108B5000F08022E0F8900302E0F516E82404FCE43B
:108B60003400FDEC65167001ED70C01289D59412C9
:108B70001289CD50B6850E82850F83E0C0E0740364
:108B80002A12888DD0E0F0050A850E82850F83A316
:108B9000E0C0E0128886D0E0128C2B85820E85839F
:108BA0000F780E124BA3740412496C124BBA851243
:108BB000828513831297F6125E8074041249368AF6
:108BC0000E8B0FAE0EAF0F850A0E7403250EF874D0
:108BD000033400F9EE4F7003028A6F851A82851BF9
:108BE00083E088828983128C2BA3E0C0E012888600
:108BF000D0E0028A7DE50B7003750B0A850C828537
:108C00000D83128C0F128F9CA90B740402887E12A4
:108C100097E585148285158322900302E0F5F0E53F
:108C20000A84900301F07C017D0322F0050A851A75
:108C300082851B832274EC12499074FE1249208AAB
:108C40000A8B0B8C108D11EA2405FEEB3400FF8596
:108C50001A82851B83AC82AD838E828F83128D2E08
:108C6000125E7A8A0C8B0DEE24181284B1EA450D3F
:108C70007003028CFF128E715032851A82851B831D
:108C8000128D2E125F8E8A128B13EA4513606B7958
:108C900012AC0CAD0D850A82850B83128D2E8512C8
:108CA0008285138312498EE9F50C7058E4F50CF5B2
:108CB0000D780C124BA38E828F83A3A3E0F50C7862
:108CC0000C124BA3EE2403128F80780C124BA38E50
:108CD000828F83128D38125FA07406124936E9F52F
:108CE0000C7021850E82850F83E0701F850A8285B6
:108CF0000B83128D2E125C048011750C0E80097589
:108D00000C018004E50C6003128F8F850E82850FA5
:108D100083E0600479008002A90C74021249367F56
:108D20000C024A627C017D03850C82850D83128DC5
:108D30003222E0FAA3E0FB22E0FCA3E0FD850A82F8
:108D4000850B83128D322274EE12499074FE124903
:108D5000208A0A8B0B8C0E8D0FEA2405FEEB340063
:108D6000FF751000851A82851B83AC82AD838E82CD
:108D70008F83128D2E125E7A8A0C8B0DEA450D7050
:108D800003028E5D128E715035851A82851B831207
:108D90008D2E125F8E8A108B11EA4511605E79125A
:108DA000AC0CAD0D850A82850B83128D2E85108249
:108DB00085118312498EE9F5106003028E60850AE1
:108DC00082850B83129077AA0CFB125F828A128B2A
:108DD00013A812A913E849701E7AFF7BFF125F8265
:108DE0008A128B13A812A913E849606C88828983C0
:108DF000E50CF0A3E50DF0750C00800775100E80F2
:108E00005F050C9002E7E0FAE50CC39A504AE50CC6
:108E100075F017A4FAABF088828983A3A3E02AFA3D
:108E2000A3E03BFB8A828B83128F89EC4D70D27555
:108E30000C17750D00780C124BA3EEFCEFFD1267BA
:108E4000147402124936EEFCEFFD850A82850B830D
:108E5000128D2E125C0A80147510098003751001A2
:108E60001297DD850E82850F83128F9CA9100289CF
:108E7000C8E50A2402F50AE50B3400F50B8A828B5B
:108E800083A3A3A3E0A2E52274041249367F0A0259
:108E90004A6274EC1249908C128D13EA2405F50E87
:108EA000EB1284B4751100EA2402F50CEB128F83E7
:108EB000850C82F583128D2E125F828A0A8B0BEA53
:108EC000450B7003028F757510008071850E8285C9
:108ED0000F83E06401704F8E828F83A3A3124BBA7D
:108EE0008E828F83A3A3A3A3E0F5147515007814D5
:108EF000124BA3EE2405F514EF3400F51578141287
:108F00004BA3128D28125FA07406124936E9F511A1
:108F10006014850E82850F83E4F01297DD8512823E
:108F2000851383128F9C7C177D007900EEFAEFFB8E
:108F300012672C8E828F83E4F0A3F005109002E775
:108F4000E0F8E510C398501EE51075F017A4F8A9D5
:108F5000F0850A82850B83A3A312996A128F89EC8C
:108F60004D6003028ECC850A82850B8374FFF0A3CB
:108F7000F0E5117006128D28125C10A911028D1FE8
:108F8000F50CEF3400F50D22A3E0FCA3E0FD228EEA
:108F9000828F831297E5851082851183E8F0A3E91B
:108FA000F022C082C0839002E3E06A7003A3E06B0A
:108FB00070067AE37B0280047A007B0002828FC015
:108FC00082C08378008C828D83E06A7003A3E06B9B
:108FD0007010E875F003A4F8A9F0EC28FAED39FB5D
:108FE0008015088C828D83A3A3A3E06A7003A3E09D
:108FF0006B60DF7A007B0002828F74F61249901258
:109000005F4C8A828B83E582458370067A007B0001
:109010008007A3A3A3A3128D2E02968E74F2124989
:1090200090E9FE740E12496C129077741012496C1C
:109030001294EF8C828D83E064027036A31297EB5A
:10904000F50EA3E0F9A80E74026870037429697024
:1090500021750E02750F00780E124BA3780A124B81
:10906000A3780C124BA3EEF9125FC47406124936B2
:1090700080027901029712E0F50CA3E0F50D22744D
:10908000E812499074FB124920E9851A82851B83F6
:10909000F08A188B19ECFEEDFF751200741D124951
:1090A0006C1297E1741D12496C128F9C8E828F8313
:1090B000A3A3A3E0A2E4502D741D12496C128D2EBF
:1090C000125F8E8A828B83E582458370030294C08F
:1090D000790AEEFCEFFDAA18AB1912498EE9F512D8
:1090E00060030294C3741F12496C1294EF7421122E
:1090F000496C129077742312496CE0F510A3E0F5E7
:10910000118E828F83E06402600302946EA3129733
:10911000E1850A82850B83A3858214858315EE245D
:10912000061284B188828983E0FAA3E0F9EA240078
:10913000F516E439F5177816124C2D0100002801B8
:109140002863910700022828920328959100295F3F
:109150009301298A9302292B9303295F93042909F8
:10916000946E94E51045116003029469850E828522
:109170000F831294E4FAE9FB8A828B83E0850C82E8
:10918000850D8312951A124BA38A828B83A3E0FC70
:10919000A3E00293F3E51045116003029469850C86
:1091A00082850D837401F01294F7850A82850B8302
:1091B000F07C007D008E828F83A3A3A3A3E0240113
:1091C000FAA3E03400FB125E7AEA4B60418A828B9C
:1091D00083E02402F8850C82850D83E028F0EA24E0
:1091E00004F8EB3400F988828983E08514828515C0
:1091F0008312952C12951A124BA38A828B83128F9D
:1092000088E50A2403FAE50B3400FB0293F8850C89
:1092100082850D83E02404F07C047D007900AA148B
:10922000AB1512672C0294C3E5104511600302943C
:10923000691294F7FEA3E0FF850C82850D83740408
:10924000F0EE850A82850B83F0EF85148285158305
:10925000F0740312496CAC82AD83EEFAEFFB125E40
:109260007A8A0E8B0FEA450F700302930C8A828B69
:1092700083A3A312813A740112496C8582108583FD
:10928000117810124BA3740512496C124BBA7CFF73
:109290007DFF125E8074041249368B11EA4511700D
:1092A00033850E82850F831294CF124BA3850E82D5
:1092B000850F83A3124BBA7C027D007AE97B821270
:1092C0005CAC7404124936E9700A740112496C747A
:1092D000FFF0A3F08E828F83E064027039750E0276
:1092E000750F00780E124BA38E828F83128F88E544
:1092F0000A2404FAE50B3400FB12671474021249C5
:1093000036850C82850D83E02402800974011249A0
:109310006CEEF0A3EFF0740112496C1294E0F0745B
:109320000112496CA31294D8029463E510451160B0
:1093300003029469850E82850F83128F89AA18AB68
:1093400019125FB8850C82850D837402F0EA850AD4
:1093500082850B83F0851482851583EB029466E584
:1093600010451160030294691294F7F8A3E0F9859F
:109370000C82850D837402F0E8850A82850B83F0E8
:10938000E9851482851583029466850E82850F8394
:10939000128D2E12670EEAFC8C82A882C39510E40F
:1093A0009511405FE865107002E51170047C008043
:1093B00022851A82851B83E0FAE5102AFAE511342A
:1093C00000FBC3EA98EB94005003E08005E510CC65
:1093D000C39CFCEC850C82850D83F08C0C750D0014
:1093E000780C124BA3850E82850F83E02510FCA319
:1093F000E03511FDAA0AAB0B12671474021249364C
:109400000294C37512070294C3E5104511705A8582
:109410000E82850F831297E1850C82850D83740778
:109420001281461294D8128146A3E08514828515D4
:1094300083F0E82402FAE93400FB8A828B831294D9
:10944000D81295071294E0A31295101294E9F0E84F
:109450002405F8E93400F9888289831294E9A3127B
:10946000952CA3A3A3A3F0805A75120B8055741DED
:1094700012496C128D2E125F4C8A828B83E58245D5
:1094800083603D1297E1880E890FE8450F603178BF
:1094900010124BA3780C124BA3780A124BA374063C
:1094A00012496CE0F9EEFCEFFDAA18AB19850E82AB
:1094B000850F8312498E7406124936E9F51280032E
:1094C00075120EA91274051249367F10024A62E025
:1094D000F510751100781022E0850A82850B832231
:1094E000129536221297E5E822129536A3A322E0C0
:1094F000F50AA3E0F50B22850E82850F83E0F8A321
:10950000E0F5838882E022A3A3F08A828B83A322E2
:10951000F088828983A3A3A3A322F08A828B83127B
:10952000952322E0F50C750D00780C22F0888289D5
:1095300083A312953622E0850A82850B83A3A3229A
:1095400074EE12499074FE1249208A0C8B0DECFACD
:10955000EDFB741412496CE0F512A3E0F5137416D8
:1095600012496CE0FE741812496CE0F510A3E0F5A6
:1095700011851A82851B83AC82AD83125E7A8A0EB6
:109580008B0FEA450F6049851A82851B83128D2E49
:10959000125F4C8A828B83E5824583602FA3A312DE
:1095A00094EFE50A450B60247810124BA378121251
:1095B0004BA3EEF9AC0EAD0FAA0CAB0D850A82855C
:1095C0000B8312498E74041249368006790E80028C
:1095D00079010289C874F612499074FE1249207408
:1095E0000C12496C1294E4851A82851B83F0740175
:1095F00012496CE9F0E4F50AF50B780A124BA375F1
:109600000A02780A124BA3740412496C85820A85F7
:10961000830B780A124BA3125FA0740612493674AA
:1096200002124936806874F7124990EAFEEBFF890E
:109630000A7C1A7D03125FB8EA5402600BA90AEE95
:10964000FAEFFB125E6E8002790102804274F6121C
:10965000499074FF6A700374FF6B70168C828D835F
:10966000129693E4F08C828D83A3A3A3129693A306
:109670008018125F888A0A8B0BA80AA90BE8496038
:109680000D8882898374FF128144A3A3E4F07F02D2
:10969000024A6274FFF0A3F08C828D83A3A322742C
:1096A000F6124990125F888A828B83E58245836037
:1096B00006A3A3E0FA80027A007B0080D174F21244
:1096C00049908A0A8B0BECFEEDFF740E12496CE098
:1096D000F50C125F888A0E8B0FA80EA90FE849704F
:1096E00026EEFCEFFD7AFF7BFF125F888A0E8B0F60
:1096F000A80EA90FE8497004791180168882898321
:10970000E50AF0A3E50BF088828983A3A3E50CF0BA
:1097100079007F06024A6274EE124990EAFEEBFF7E
:109720008C0A8D0B890E741412496C1297E1741611
:1097300012496C128D2E750F00E84960030297D50F
:109740007402650E60030297D0741212496C12976E
:10975000EBFCA3E0F9EC2400F510E439F511EAF490
:10976000F8EBF4F9EC58F8E51159F9E849705CE5C3
:109770000A2406F8ED3400F9880C890D8882F583F7
:109780001297F6125FB88A128B13E51065127004F7
:10979000E511651360427810124BA3850C82850D8C
:1097A000831297F6125FBE7402124936E9F50F7004
:1097B000277810124BA3850A82850B83A3A31297E7
:1097C000F4125FD67402124936800D750F8080083E
:1097D000750F0D8003750F0BA90F028E8D8E828F72
:1097E000831297E522E0F8A3E0F9221297E5888238
:1097F0008983E022A3A3E0FCA3E0FDEEFAEFFB22C5
:1098000074E812499074E7124920851A82851B83F7
:10981000EAF0A3EBF08C188D198910750A00750B0E
:1098200000743112496CE0F514A3E0F5157433129D
:10983000496CE0F516A3E0F517743512496CE0F5B4
:1098400011E50B75F003A4F8A9F0851A82851B8336
:1098500012996AE0F47003A3E0F4700302994DEEEC
:109860002402F50EEF129960E0700302994D8518FD
:109870000C85190D780C124BA3AC16AD17AA14ABBE
:1098800015125F4074021249368A0C8B0DEA450DA1
:10989000700302994DE4F512F5137812124BA3747C
:1098A0000612496C8582128583137812124BA374B9
:1098B0000912496C8582128583137812124BA38595
:1098C0001482851583A3A3A3A3124BBA7914AC0CFD
:1098D000AD0D8E828F83128D2E125F9A74081249FD
:1098E00036E97069850C82850D83A3A3A3A3129723
:1098F000E1740212496C128F9C850E82850F83E001
:10990000A2E05018A910740212496CAC82AD838E8B
:10991000828F83128D2E125E92E9420A850E828515
:109920000F83E0A2E15026E511F50C780C124BA74D
:10993000A910740312496CAC82AD838E828F83129E
:109940008D2E125E8C7401124936E9420A050BE530
:109950000BC394025003029841A90A74190294C7D8
:109960003400F50F850E82F58322E028FEA3E0394E
:10997000FF8E828F832274F2124990EAFEEBFF89F8
:109980000D7401650D600E7402650D706A79011227
:109990006198E97062EEFAEFFB125F828A0A8B0B24
:1099A000EA450B6047750C00800B7C177D00790041
:1099B00012672C050C9002E7E0F8E50CC3985021E3
:1099C000E50C75F017A4F8A9F0850A82850B83A32E
:1099D000A3E028FAA3E039FB8A828B831282967077
:1099E000C9850A82850B8374FFF0A3F07C1A7D037E
:1099F000EEFAEFFB125FB202971274F21249908AEC
:109A00000A8B0BECFEEDFF740E12496C12907790EE
:109A10000B25E0F4603D7A097B0012673EEA4B605B
:109A2000328A828B8374B1F0A3E4129509A3129554
:109A300007A3E50AF0A3E50B129A56EEF0A3EF1286
:109A40009A56A3A3E50CF0A3E50DF0900B25E0F9E1
:109A500012674A029712F08A828B83A3A3A3A3A35F
:109A600022C082C0839061907404F0A37448F0A374
:109A70007402F09061807440F09061BC7403F090C7
:109A800061877419F0906265741BF0906249E0C3BD
:109A9000941390619C400A7409F090606674018090
:109AA00007740DF0906066E4F090619A7433F0A34F
:109AB0007455F09061A0743AF0900540E064017034
:109AC00009C2919003A7746780059003A77461F0A1
:109AD000906BC6E493906186F0906BC8E493F46059
