:020000040000FA
:10300000960CFFFF0100009A42424242FFFFFFFF81
:10301000FFFFFFFFFFFFFFFFFFFFFFFFFFFFFFFFC0
:10302000000102030405060708090A0BFFFFFFFF62
:1040300002457E0253FFFFFFFFFFFFFFFFFFFFFF71
:10404000FFFFFFFFFFFFFFFFFFFFFFFFFFFFFFFF80
:10405000FFFFFFFFFFFFFFFFFFFFFF025B5CFFFFB4
:10406000FFFFFFFFFFFFFFFFFFFFFF025BBBFFFF45
:10407000FFFFFF025B33FFFFFFFFFFFFFFFFFFFFBD
:10408000FFFFFF025472FFFFFFFFFFFFFFFFFFFF75
:10409000FFFFFFFFFFFFFFFFFFFFFF025B80FFFF50
:1040A000FFFFFFFFFFFFFFFFFFFFFFFFFFFFFFFF20
:1040B000FFFFFF02526B01FF0000B4000028002840
:1040C00000283075A000A000A000A0000008000893
:1040D000E001F000100010001000100010001000AF
:1040E00050005000500010001000D00700000000E9
:1040F00000000F00010005003075070010000100EE
:1041000081FF00000000FF2E5E4C5E345EFF020265
:104110000208025000A0000000E80302078201002C
:10412000000082020382010000580C021B82010081
:1041300000B402020382010000590C021782010040
:1041400000CA020203820100005A0C02158201001B
:1041500000CC020203820100005B0C022F820800E7
:1041600000CD020203820100005C0C020B82010000
:10417000005D0CFF0100FF20020782010000F481B6
:10418000020382010000C10C025A810000000000FD
:104190000227820300001A030464046404640464B4
:1041A00004640464046404640464046404640464CF
:1041B00004649866B0669266FFFF424D23002000BB
:1041C00064001264020782010000FD810203820183
:1041D00000000C0D020F820100000D0D022782036A
:1041E00000005808020202020202020202010D004F
:1041F00000001001020782010000F1810203820128
:1042000000002E0D0219820100005E0802038201E7
:1042100000002F0D021D82010000158102038201A2
:104220000000300D021F820100006A81020382013A
:104230000000310D0223820100004581020382014A
:104240000000320D0225820100002F81020382014D
:104250000000330D0221820100003A810203820135
:104260000000340D022D82010000C581020382018D
:104270000000350D022B820100000781020382013C
:104280000000360D022982010000370D01E8030508
:104290003F100A1C020782010000FA81020382011A
:1042A0000000DD0D105080020000FF0A022782038B
:1042B0000000010B02118201000022810203820131
:1042C0000000DD0D106080020000000B0227820359
:1042D0000000070B0211820100005081FFFFFF0068
:1042E000013075030201060000000000000000001C
:1042F00000000000000000000000000000000000BE
:10430000000000FFFF0600800CE80301C027090041
:104310000C09504D322E3554455354455205122840
:10432000002800020A000201060302F0FF0F1850E5
:104330004D322E355F54455354455200786B000082
:10434000846B0A436861726163746572697374692E
:10435000632031000243686172616374657269733E
:104360007469632032000A43686172616374657224
:104370006973746963203300104368617261637408
:10438000657269737469632034000A4368617261FD
:104390006374657269737469632035000A436861E8
:1043A00072616374657269737469632036000243D5
:1043B0006861726163746572697374696320370040
:1043C0000A4368617261637465726973746963201A
:1043D000380002436861726163746572697374695D
:1043E000632039000A4F41440000020782010000A7
:1043F000F7810203820100008C0E02338203000069
:10440000C90B0211820100008D0E0203820100001F
:104410009E0E023582010000CA0B021182010000CB
:104420009F0E020382010000B00E023782030000DB
:10443000DC0B021182010000B10E020382010000B8
:10444000C20E023982000000DD0B02278203000049
:10445000F10B021182010000C30E02038201000071
:10446000D40E023B82030000F70B02118201000010
:10447000D50E020382010000E60E023D8203000019
:10448000F80B021182010000E70E02038201000016
:10449000F80E023F82030000F90B021182010000B6
:1044A000F90E0203820100000A0F0241820300009C
:1044B000FA0B0211820100000B0F020382010000BF
:1044C0001C0F024382010000FF0B02118201000059
:1044D0001D0F0203820100002E0F02458209000019
:1044E000000C0211820100002F0FE5C754F84404AC
:1044F000F5C779012200000080FB1244EAB90003ED
:10450000024568E479217808B800028004F709D8E8
:10451000FCE479297802B800028004F709D8FCE4A9
:104520009002807882790A8002F0A3D8FCD9FA78C8
:104530001C9040B67A01BA00028007E493A3F60803
:10454000DAF97A017B0C9040B7783479058015E46C
:1045500093A3AD82AE838A828B83F0A3AA82AB83BE
:104560008D828E83D8E9D9E775828C7583FB7403BD
:104570001245907582F5758344740012459075D08C
:104580000075813F751A80751B02759F000244FA01
:10459000C09FF59FE473D09F22D083D082C09FE458
:1045A00093C0E0740193C0E0740293F59F22E76624
:1045B00070100809E766700A0809E76670040809C0
:1045C000E76622E066701008A3E066700A08A3E0C0
:1045D00066700408A3E06622C3E7960809E7960818
:1045E00009E7960809E79622C3E09608A3E0960833
:1045F000A3E09608A3E09622C00AC3E096F50A0855
:10460000A3E096420A08A3E096420A08A3E0964572
:104610000A7001D3D00A22080808EAC0E0EBC0E023
:1046200086F0E7A4FA180986F0E7A42AFA180986A2
:10463000F0E7A42AFA180986F0E7A42AFA1986F006
:10464000E7A4FBE5F02AFA190886F0E7A42BFBE5BE
:10465000F03AFA190886F0E7A42BFBE5F03AFA18CD
:10466000180986F0E7A4C5F02BFBE43AFA1908E72D
:10467000C5F0C6A426F6E5F03BFBE43AFA1886F04E
:10468000E7A4F6E5F00826F6E43B08F6E43A08F677
:10469000D0E0FBD0E0FA22E4CFC0E0E4CEC0E0E41A
:1046A000CDC0E0E4CCC0E075F020E626F608E633A5
:1046B000F608E633F608E633F6181818EC33FCED86
:1046C00033FDEE33FEEF33FFC3EC9709ED9709EEB0
:1046D0009709EF97191919400FFFEC97FC09ED970F
:1046E000FD09EE97FE191906D5F0BFECF709EDF7B5
:1046F00009EEF709EFF7191919D0E0FCD0E0FDD069
:10470000E0FED0E0FF226016080808C6C313C618F2
:10471000C613C618C613C618C613C6D5E0EA22705B
:1047200009080808226016181818C6C333C608C638
:1047300033C608C633C608C633C6D5E0EA22E62724
:10474000F60809E637F60809E637F60809E637F607
:1047500022E026F608A3E036F608A3E036F608A322
:10476000E036F622E026F008A3E036F008A3E036B3
:10477000F008A3E036F022C3E697F60809E697F6BC
:104780000809E697F60809E697F622C3E096F008CE
:10479000A3E096F008A3E096F008A3E096F022E6E6
:1047A00057F60809E657F60809E657F60809E657E6
:1047B000F622E056F608A3E056F608A3E056F608FF
:1047C000A3E056F622E056F008A3E056F008A3E076
:1047D00056F008A3E056F022E0F608A3E0F608A39E
:1047E000E0F608A3E0F622E6F008A3E6F008A3E668
:1047F000F008A3E6F022E0FAA3E0FBA3E0FCA3E0CC
:10480000FD22EAF0A3EBF0A3ECF0A3EDF022E0F838
:10481000A3E0F9A3E0FAA3E0FB22E8F0A3E9F0A308
:10482000EAF0A3EBF022CAC0E0E6F0A308DAFAD07F
:10483000E0FA22CAC0E0E0A3C582CCC582C583CD20
:10484000C583F0A3C582CCC582C583CDC583DAE616
:10485000D0E0CA22C3E498F8E499F912489580267A
:10486000C3E49AFAE49BFBE920E7E9124895E4984F
:10487000F8E499F922C3E498F8E499F9124895E428
:1048800098F8E499F9C3E49AFAE49BFB22EB20E759
:10489000CFE920E7E0B90010BB0008E88AF084F80F
:1048A000AAF022E4FBC8FA22EB70227B10C833C8BE
:1048B000C933C9335007C39AC3DBF280069A50014B
:1048C0002ADBEAC833F4C8C933F4C9FA2275F00800
:1048D000E4C833C8C933C933C99AC99B5004C92A2B
:1048E000C93BD5F0ECFBC833F4C8E4C9FA22600D2B
:1048F00008C6A2E713C618C613C6D5E0F322600C9B
:1049000008C6C313C618C613C6D5E0F42270042225
:10491000600D18C6C333C608C633C6D5E0F41822E6
:10492000251A10AF08F51A400C151B8008F51A401F
:1049300002151BD2AF2200C0D0251A10AF08F51AFD
:10494000500C051B8008F51A5002051BD2AFD0D0C1
:1049500022251AF58210AF08F51A400C151B8008A5
:10496000F51A4002151BD2AF851B8322251AF5824A
:10497000E4351BF58322251AF8E4351BF922251AA4
:10498000FAE4351BFB22251AFCE4351BFD22E473F7
:10499000251AC582C0E0E51B34FFC583C0E0E51AD7
:1049A000C3958224F810AF0885831B85821A80087E
:1049B00085831B85821AD2AFCEF0A3E520F0A378C1
:1049C0000AE608F0A3DEFAEFF0A3E58124FAF8E6A0
:1049D00008F0A3E608F0A3E608F0A30808E608F04C
:1049E000A3E608F0A315811581D0E0FED0E0F8150C
:1049F0008115811581E8C0E0EEC0E022251AC5824C
:104A0000C0E0E51B34FFC583C0E0E51AC3958224EE
:104A1000F910AF0885831B85821A800885831B8562
:104A2000821AD2AFCEF0A3E520F0A3780AE608F010
:104A3000A3DEFAEFF0A3E58124FBF8E608F0A3E695
:104A400008F0A30808E608F0A3E608F0A31581150E
:104A500081D0E0FED0E0F815811581E8C0E0EEC01D
:104A6000E022851B83851A82E0A3FEE0A3F520786F
:104A70000AE0A3F608DFFAE0A3FFE0A3C0E0E0A3AA
:104A8000C0E0E0A3C0E0E0A3C0E0E0A3C0E010AF5E
:104A90000885821A85831B800885821A85831BD22C
:104AA000AFD083D082024596851B83851A82E0A30E
:104AB000FEE0A3F520780AE0A3F608DFFAE0A3FF02
:104AC000E0A3C0E0E0A3C0E0E0A3C0E0E0A3C0E05A
:104AD00010AF0885821A85831B800885821A85831A
:104AE0001BD2AFD083D08222C0D0251AC582C0E0AD
:104AF000E51B34FFC583C0E0E51AC3958224F3109B
:104B0000AF0885831B85821A800885831B85821ADE
:104B1000D2AFC8F0A3E9F0A3EAF0A3EBF0A3790ABF
:104B2000E709F0A3D8FAECF0A3EDF0A3EEF0A3EFC1
:104B3000F0A3D0E0F0A3D0E0F0A3D0E0F0A3E52014
:104B4000F0A3E5F0F0A322851B83851A82E0C0E084
:104B5000A3E0F9A3E0FAA3E0FBA3780AE0F608A338
:104B6000DFFAE0FCA3E0FDA3E0FEA3E0FFA3E0C0CA
:104B7000E0A3E0C0E0A3E0F5D0A3E0F520A3E0A32C
:104B8000F5F010AF0885831B85821A800885831B8A
:104B900085821AD2AFD082D083D0E0F8D0E03274D0
:104BA000048006740280027401C0E0F404124951CA
:104BB000D0E0124826227404800474028000CCC025
:104BC000E0EDC0E0E51AC39CCCAD1B50011D10AF59
:104BD000068C1A8D1B80068C1A8D1BD2AF1248339F
:104BE000D0E0FDD0E0FC22D083D082E9C0E0E493A5
:104BF000A3C386F0C5F095F0F908E493A386F0C549
:104C0000F095F0700BE493A3C3994005E90480028A
:104C1000A3E475F002A42582F582E5F03583F583DF
:104C2000D0E0F9E493A3C0E0E493C0E022D083D0C5
:104C300082ECC0E0EDC0E0E493A3FCE493A3FDEDBF
:104C40004C600D124C79EC24FFFCED34FFFD80EF3D
:104C5000E493A3FCE493A3FDED4C600D124CB8EC7F
:104C600024FFFCED34FFFD80EFD0E0FDD0E0FCE45C
:104C700093A3C0E0E493C0E022C0E0C3E4939608AD
:104C80007401939618400FE49366700808740193BA
:104C9000661870007019A3A3C3E493960874019377
:104CA0009618A3A3400DD0E0D0E0D0E0024C69A359
:104CB000A3A3A3A3A3D0E022C0E0C0F088F0E493B4
:104CC0006670080874019366187000A8F0A3A370BA
:104CD0000BD0F0D0E0D0E0D0E0024C69A3A3D0F03C
:104CE000D0E022FF74F51249FCEAFEEBFFEE24341B
:104CF000F8EF3400F9880A890BEE2435F582EF3499
:104D000000F583E0F8EE2437F582EF3400F583E018
:104D1000F50CEC850CF0A4FCAAF0850CF0EDA42AAF
:104D2000FDE82CF8E43DF97A257B00124895EA85E8
:104D30000A82850B83F0F8740758F97401B90002F0
:104D40008004C333D9FCFAE8131313541FF8EE2878
:104D5000F8EF3400F9E8245DF582E93400F583E0EA
:104D60005A6008EE2434F582EF802CEE2434F5826C
:104D7000EF3400F583E0C0E0EE2436F582EF340036
:104D8000F583E0F5F0D0E084A8F0EE28F8EF3400E9
:104D9000F9E82438F582E93400F583E0F97F04026C
:104DA0004AA874F51249FCEAFEEBFFEE2434F582C2
:104DB000EF3400F583E0C0E0EE2435F582EF3400F7
:104DC000F583D0E0F08E828F83A3A3A3A3A3A3A334
:104DD000C082C0838E828F83A3A3A3A3A3E0F8A382
:104DE000E0F9D083D082E0C398F50AA3E099F50BEF
:104DF000EE247FF582EF3400F583E064017069EE04
:104E00002480F582EF3400F583E0F8A3E0F98E8288
:104E10008F83A3A3A3A3A3A3A3E0FCA3E0FD8E829F
:104E20008F83A3A3A3A3A3E0FAA3E0FBC3EA9CEBB5
:104E30009D5010C3EC98ED99402EC3EA98EB995021
:104E400027800EC3EA98EB994007C3EC98ED994090
:104E5000177CDD7D04EEFAEFFB126362EE247FF532
:104E600082EF3400F583E4F0EE2434F8EF3400F9F7
:104E7000E8FCE9FDEE2435F582EF3400F583E0F837
:104E8000EE2437F582EF3400F583E0F50CE50A8572
:104E90000CF0A4F50AAAF0850CF0E50BA42AF50B9A
:104EA000E8250AF8E4350BF97A257B00124895EAE3
:104EB0008C828D83F0F8740758F97401B900028070
:104EC00004C333D9FCFAE8131313541FF8EE28F87F
:104ED000EF3400F9E8245DF582E93400F583E05A07
:104EE0006008EE2434F582EF802CEE2434F582EF56
:104EF0003400F583E0C0E0EE2436F582EF3400F5AF
:104F000083E0F5F0D0E084A8F0EE28F8EF3400F963
:104F1000E82438F582E93400F583E0F9125B1F02DA
:104F20004D9DC082C083851A82851B83E0F8A3E073
:104F3000F9C3EA9CEB9D5010C3EC98ED99401BC35C
:104F4000EA98EB995014800EC3EA98EB994007C396
:104F5000EC98ED994004790180027900D083D082E9
:104F600022EAC39CFAEB9DFB2274EF1249FC9003EA
:104F7000A3E064086005E06407702A9061C8E060FF
:104F8000249003D1E0F4601DE0F875F003A4C8AAF2
:104F9000F02AF974D328FE740339FF8E828F83A31D
:104FA000A3A3E07003025099906060E0C0E0EE249B
:104FB00068F582EF3400F583D0E0F0750E46750F8A
:104FC00005750A00750B00E5D914F50CE5D95403F5
:104FD000F510601774036510605CE50C6010EE243A
:104FE00067F582EF3400F583E0700302507E900590
:104FF00041E06401602AEE2482F582EF3400F583FB
:10500000E06004780480027800850C0AE50AC39801
:10501000FA95E0FB12622A8A0A8B0BEA450B7005AF
:105020001265668074EE2482F582EF3400F583E029
:1050300070048A0E8B0FE50C6012850E82850F833B
:10504000F50DE5D9F0A3150DE50D70F6EE2482F50A
:1050500082EF3400F583E0604474FC250CF50C7895
:105060000E124BA3AC0CA910EEFAEFFB1263FE7408
:1050700002124936E97026AA0AAB0B126AAC793DD6
:105080008E828F83A3A3A3A3E0FA7B001260FEEEBF
:10509000FAEFFB12637A126410790080747403656E
:1050A000106056850C127513007812124BA3AC0ECB
:1050B000AD0FAA0AAB0B1263DA7402124936EE2462
:1050C00068F582EF3400F583E064807004747F80BB
:1050D00001E0F50E780E124BA7E510F50E780E12D2
:1050E0004BA7A90CAC0AAD0B9003D1E0FA7B0012E0
:1050F00060C2740212493680139003A3E064086012
:105100000BAC0EAD0FEEFAEFFB12646A126572790A
:10511000017F0A024AA874F51249FC74FC12492066
:10512000EAFEEBFF890AA2AFE433F50BC2AF806A57
:10513000EE2463F8EF3400F97A007B00A2AFE43389
:10514000F50CC2AF88828983E0FCA3E0FDEC4D60E2
:105150003A88828983E0FAA3E0FB8A828B83E0FCB1
:10516000A3E0FD88828983ECF0A3EDF08A828B8333
:10517000E4F0A3F088828983E0FCA3E0FDEC4D70AD
:105180000A88828983A3A3E4F0A3F0E50CA2E0924D
:10519000AF126AAC9004E4E004F0EE2463F582EF11
:1051A0003400F583E0F8A3E0F9E849603DEE2463BC
:1051B000F582EF3400F583E02402FAA3E03400FB2B
:1051C000EA2402F50CEB3400F50D780C124BA38A9F
:1051D000828B83E0FCA3E0F9EEFAEFFB12639E748E
:1051E00002124936E970030251309004E4E0606332
:1051F0009004E5E0F89004E4E0C398500C74026574
:105200000A70509004E6E0604A8E828F83A3A3A3C5
:10521000A3E0851A82851B83F0A3E4F09004E4E008
:10522000F8740212496CE8F0A3E4F09004E4E0F8AA
:105230009004E3E028F0740212496CAC82AD8385DF
:105240001A82851B83AA82AB8379011260CE9004F7
:10525000E4E4F0E50BA2E092AF7404124936024D8B
:105260009DFFFFFF8521878522C622C0E0C0D0E8D0
:10527000C0E0E9C0E0EAC0E0EBC0E0ECC0E0EDC0B7
:10528000E0EEC0E0C00AC00BC00CC00DC082C083FD
:10529000C0F0A2AFE433FEC2AF759B00906182E024
:1052A000A2E05012E591A2E0500C7591FE740165E8
:1052B000217003124F69E0A2E55051E591A2E5503B
:1052C0004B7591DF9003A3E064076005E06408700C
:1052D0002374016521703579019003D1E0FA75F0EE
:1052E00003A4CAA8F028FB74D32AFA74033BFB1268
:1052F00051168018E0640D70139003C5E004F0644B
:10530000287002E4F07A00E0F9126578906182E09A
:10531000A2E640030253B2E591A2E640030253B273
:105320007591BF9003A3E0640570081264A0126435
:10533000AC80031264A6752100126506E99003A4EF
:10534000F079001264FA1262D87A017B009003A20D
:10535000E0F91267CA907803E06442705590054501
:10536000E014F0704DC2AF12536A00782AD0E0F614
:1053700018D0E0F6E59F54077005750BFF800375A4
:105380000B7FC4C0E07829E6F50A08E6550BF50B5B
:10539000740B780A1248FED0E0250AF8906270E09B
:1053A000A2E740F8E8C333906272F0906270E0D2F6
:1053B000E0F0906181E0A2E35009E5E9A2E3500347
:1053C00075E9F7A3E0A2E75009E591A2E75003755C
:1053D000917FEEA2E092AFD0F0D083D082D00DD0FA
:1053E0000CD00BD00AD0E0FED0E0FDD0E0FCD0E045
:1053F000FBD0E0FAD0E0F9D0E0F8D0D0D0E032C075
:10540000E0C0D0C082C083906183E0A2E05009E593
:10541000BFA2E0500375BFFEE0A2E15009E5BFA2C4
:10542000E1500375BFFDE0A2E25009E5BFA2E250E2
:105430000375BFFBE0A2E35009E5BFA2E35003758B
:10544000BFF7E0A2E45009E5BFA2E4500375BFEF47
:10545000E0A2E55009E5BFA2E5500375BFDFE0A279
:10546000E65009E5BFA2E6500375BFBFD083D082E6
:105470008088C0E0C0D0E8C0E0E9C0E0EAC0E0EB6E
:10548000C0E0ECC0E0EDC0E0C0F0E5A7A2E6500F40
:10549000E5A1A2E6500953A7BF75A1BF1254D7E5F5
:1054A000A7A2E5500CE5A1A2E5500653A7DF75A120
:1054B000DFE5A7A2E15009E5A1A2E1500375A1FD36
:1054C000E5A7A2E2500CE5A1A2E2500653A7FB75A6
:1054D000A1FBD0F00253E874F81249FC7521019049
:1054E00003A3E06406701512642E8A828B83A3A343
:1054F000A3A3A3A3E0FAA3E0FB12648EA2AFE4335C
:10550000FED2AF9003A9E0640170187A207B00906E
:1055100003A2E0F91268547A207B009003A2E0F91C
:105520001267D0906182E0D2E6F0900542E06021FF
:1055300085C62280169003A8E064017008E5C65471
:10554000F84405F5C653BEFC12526474016521602F
:10555000E4EEA2E092AF7F01024AA8FF8E238F24DF
:10556000858228858327851A82851B83E0CEA3E068
:10557000CF852882852783EBC9EAC8EDCBECCA75B5
:10558000F010C3E833C8E933C9EA33CAEB33CBC3FD
:10559000EA9EF526EB9FF525B35004AB25AA26EC31
:1055A00033CCED33CDD5F0DAAE23AF242274E9123B
:1055B00049FC74F8124920851A82851B83ECF0A3FC
:1055C000EDF08A0A8B0B9003A3E024F7C3940550F7
:1055D00006750A0102574412642E8A0C8B0DAE0C1C
:1055E000AF0DEE4F7003025741AC0AAD0B740212BF
:1055F000496CAA82AB831264BE8E828F83A3A3758B
:105600000EFF750FFF7510FF751100780E1247B26F
:10561000740212496C7512FF7513FF7514FF75152E
:105620000078121247B2780E79121245D8502A78B3
:105630000E7912124777750A01750BC8750C007543
:105640000D00780A790E1245D85052850E0A850F42
:105650000B85100C85110D80507516017517C875D6
:10566000180075190085120A85130B85140C851511
:105670000D780A790E1247777816790A1245D840C4
:105680001C750A00750B00750C00750D01780A7900
:1056900012124777780A790E12473E800C750A017C
:1056A000750B00750C00750D007409780A12471F00
:1056B000750E19F50FF510F511780A790E12469747
:1056C0008E828F83A3A3A3A3A3A3E0F8A3E0F97A18
:1056D000D07B03124895880E890FE4F510F51178F8
:1056E0000A790E12473E740612496CE0F8A3E0F9FD
:1056F0007AD07B03124895E8FA8A0EE4F50F780A0F
:10570000790E1245D85007780A790E124777900320
:10571000A3E06408600AE064066005E06405702D9B
:10572000750E0D780E790A1245D84021750EF47564
:105730000FFF7510FF7511FF780A790E12473E8032
:105740000C750A00750B00750C00750D00851A822A
:10575000851B83E0F8A3E0F5838882780A1247E787
:1057600074081249367F10024AA874F71249FC12D5
:1057700064D0900540E064017010906245E4F0A3AD
:10578000F053F4F343FE0C5390F312647CE5C654DB
:10579000804449F5C6E59E547F644970F890618560
:1057A000740FF090053EE0F47002A3E0604E9005A7
:1057B0003FE0600814601B14602E8040750A01757C
:1057C0000B0090053EE0780A12490DE50AF452807C
:1057D000802A750A01750B0090053EE0780A12498F
:1057E0000DE50AF452908014750A01750B009005BE
:1057F0003EE0780A12490DE50AF452A079007F02D2
:10580000024AA874F71249FCE9FEEAFF74016E70BF
:105810000C7A807B009003A2E0F91267CA906BD8E3
:10582000E493F46008E493F91262CC800953C680D3
:10583000E59E547F70FA126482900540E064017026
:10584000031262E490053EE0F47002A3E0604B9026
:10585000053FE0600814601A14602C803D750A0151
:10586000750B0090053EE0780A12490DE50A42806A
:105870008028750A01750B0090053EE0780A1249F0
:105880000DE50A42908013750A01750B0090053EE4
:10589000E0780A12490DE50A42A01264D012642E83
:1058A0008A0A8B0BA80AA90BE8496015E5E170FC90
:1058B000E82414F582E93400F583E0F46003E0F5B0
:1058C000E174016F700A7A019003A2E0F912681E78
:1058D0000257FE74ED1249FC8A0A8B0B8C0C8D0D5D
:1058E000741312496C780E1247D8780A790E124553
:1058F000D87512017513C87514007515005012780B
:105900000A790E1247777812790A1245D850168014
:1059100010780E790A1247777812790E1245D8401E
:10592000047901800279007F0C024AA874ED1249C3
:10593000FC8A0A8B0B8C0C8D0D741312496C780E3B
:105940001247D8780E790A1245D84011780A790E94
:10595000124777AA0AAB0BAC0CAD0D802275120072
:105960007513007514007515017812790E124777BA
:105970007812790A12473EAA12AB13AC14AD158007
:10598000A68A828B83750AFF750BFF750CFF750D58
:1059900000780A1247C57F04024AA874F51249FC30
:1059A0008C828D83780A1247D88A828B83780A1278
:1059B000478BEA2404F8EB3400F98C828D83A3A38F
:1059C000A3A3E0FCA3E0FD88828983C3E09CF0A34D
:1059D000E09DF088828983C3E09420A3E0944E4048
:1059E000268A828B83750AFF750BFF750CFF750D78
:1059F000FF780A1247648A828B83A3A3A3A3E024BF
:105A000020F0A3E0344EF002598174F51249FCE90C
:105A1000FE9004F8E0FAA3E0FBEEC333F8E433F9B8
:105A200074F728F582748039F583E02AF50AA3E03B
:105A30003BF50B780A124BA37A407B427C0F7D002A
:105A400012555C74021249368A0A8B0B8C0C8D0D30
:105A50007410780A124706AA0AAB0B7F04024AA800
:105A600074F11249FC8A0E8B0F8C108D11740F1279
:105A7000496CE0FAA3E0FB741112496CE0F50AA34B
:105A8000E0F50B780A124BA3EA2401F50AEB340087
:105A9000F50BE4F50CF50D780E790A124617750A28
:105AA00071750B02780E790A124617AA0EAB0FAC6D
:105AB00010AD1112555C74021249368B0BEA450B7E
:105AC00060047A0180027A00EC2AFCED3400FD7457
:105AD0001312496CE0F8A3E0F9E8FEE9FFECF8EDF9
:105AE000F97A717B02124895880A890B8E828F831E
:105AF000780A1247E7ECF8EDF97A717B02124895C3
:105B00008A0A8B0B7405780A12490D8E828F83A343
:105B1000A3A3A3E50AF0A3E50BF07F08024AA8C0FF
:105B200082C083E9906000F0D083D08222C2AF02AD
:105B3000000022C0E074F2124AE8A2AFE433FED2C1
:105B4000AFC2C0E5D1A2E4500653D1EF126A64752A
:105B50001C00EEA2E092AF7F01024B47C0E0C0D034
:105B6000E8C0E0E9C0E0E5A8D2AFC2C7751C00A25A
:105B7000E7A2E792AFD0E0F9D0E0F8D0D0D0E032A1
:105B8000C0E074F2124AE8A2AFE433FED2AF7589E6
:105B900000C2C59009757401F0751C00FA9009499E
:105BA000E0F912681E900AF9E0F8A3E0687002D2EA
:105BB00085EEA2E092AF7F01024B47C0E0C0D0E883
:105BC000C0E0E9C0E0C00AC00BC082C083A2AFE45D
:105BD00033F9D2AF900AF9E0F8A3E0687008539A5D
:105BE000FBA374018025C2E9900AF9E0F50A74016B
:105BF000250AF07479250AF582E4340AF583E0F584
:105C0000C1900AF9E0C394804002E4F0E9A2E09276
:105C1000AFD083D082D00BD00AD0E0F9D0E0F8D05A
:105C2000D0D0E032124599BAFA03124599CCFA0362
:105C3000124599BBEC03124599D2EC031245990326
:105C4000ED031245993EED0312459968ED031245A7
:105C50009992ED03124599A9ED03124599C0ED0300
:105C6000124599D7ED0312459900EE031245991399
:105C7000EE0312459929EE031245993CEE031245B5
:105C80009963EE031245995BEC021245995FED02B0
:105C900012459997ED02124599BAED02124599C540
:105CA000ED02124599E8ED02124599F7EE02124510
:105CB00099CCEF0212459947F002124599CFF002B4
:105CC0001245990AF10212459941F102124599CF04
:105CD000F102124599A8F20212459908F302124501
:105CE0009913F30212459992F30212459995F30222
:105CF00012459998F30212459927F4021245992A00
:105D0000F4021245995AF40212459984F40212459C
:105D10009972F50212459924F6021245990EB603BE
:105D200012459936B60312459964B6031245999BFC
:105D3000B603124599F9B60312459944B7031245C3
:105D4000998FB703124599CFB70312459915B80338
:105D500012459943B80312459900B9031245990AAF
:105D6000B90312459917B9031245994AB903124567
:105D70009916BA0312459922BA031245993ABA0301
:105D800012459944BA0312459956F703124599648E
:105D9000F7031245997CF70312459994F7031245CE
:105DA00099008002124599AC800212459927810220
:105DB0001245994882021245998482021245992D12
:105DC000830212459914840212459978850212457E
:105DD00099CF850212459950860212459940870253
:105DE0001245998D870212459913880212459945EB
:105DF0008802124599598A021245999B8A021245D6
:105E000099B98A021245993C8B02124599108C026D
:105E1000124599D88C02124599139803124599E6B8
:105E200098031245998F9903124599E299031245F7
:105E300099929A031245991E9B031245990A9C0355
:105E4000124599399C031245994C9D03124599942A
:105E50009D03124599699E03124599A59E0312451B
:105E600099C19E0312459936FA0312459983D003CE
:105E700012459999D003124599BFD003124599DB79
:105E8000D103124599E5D1031245991AD30312455E
:105E90009912D403124599E7B00312459917B2033A
:105EA0001245994AB20312459994B2031245995B7F
:105EB000B4031245999BDB0112459905DC0112459B
:105EC0009964DD0112459974DD01124599A1DD0146
:105ED000124599F8DD01124599A1DE01124599A8F4
:105EE000DF0112459972E001124599D2E101124594
:105EF0009915E201124599BAE20112459907E301A9
:105F00001245992DE3011245993BE501124599404F
:105F1000E50112459945E70112459992E7011245BD
:105F20009905E80112459938E801124599DAE80126
:105F300012459983E901124599BBE901124599BEC1
:105F4000E90112459906EA0112459946EA0112450E
:105F5000999DEA0112459989E003124599A1E00350
:105F6000124599E9E003124599FFE003124599466D
:105F7000E1031245995AE203124599E7E2031245FB
:105F80009932E3031245990080011245990C800172
:105F90001245994780011245998C80011245994C10
:105FA0008101124599D2810112459937820112452A
:105FB000996382011245999C8201124599DA840104
:105FC000124599BE8601124599A48801124599E7A8
:105FD0008901124599358C01124599478D01124569
:105FE00099928E01124599A28F01124599BF8F0196
:105FF000124599FA8F011245991C90011245997F1B
:106000009001124599409501124599D59501124587
:10601000992696011245994D96011245999F960130
:10602000124599BD9601124599179701124599009D
:106030009801124599769901124599FA99011245EC
:1060400099CBBA03124599D5BA0312459918BB03E7
:1060500012459933BB03124599C3BB03124599EB13
:10606000BB0312459928BC031245995FBC03124536
:106070009988BC03124599FDBC0312459912BD03D2
:1060800012459927BD0312459958BD031245996CD5
:10609000BD0312459991BD03124599CBBD0312452D
:1060A00099F7BD031245992FBE03124599AEBE0361
:1060B000124599F7BE0312459921BF031245994C29
:1060C000BF031245993FF4031245995AD402124571
:1060D0009988D402124599D6D502124599B6D602AE
:1060E000124599D5D60212459952D7021245999573
:1060F000D702124599EBD802124599ACD902124544
:106100009933DC02124599D4DC02124599CADD02AA
:10611000124599C7DE0212459921E002124599AC59
:10612000E002124599A1F1031245990AF2031245C2
:10613000995EF20312459985F203124599B6F2036E
:10614000124599FBC30312459968C403124599AFE0
:10615000C403124599C7C503124599C3C603124526
:1061600099A6C703124599008003124599428003FE
:10617000124599148103124599ED8103124599E75F
:106180008203124599C9830312459932840312454B
:1061900099E884031245995C8503124599C88503E3
:1061A000124599F185031245996B860312459904AE
:1061B00087031245996987031245997E8703124523
:1061C00099C48703124599DD8703124599428803D4
:1061D00012459945880312459990DD03124599B8F7
:1061E000DD03124599F6DD03124599B4DE0312452D
:1061F000991BDF0312459937DF031245995FDF03CF
:106200001245998FDF031245999EDF031245991BB2
:10621000E00312459941E0031245998AEB011245CA
:106220009968ED011245999AEF01124599D6EF014F
:1062300012459903F001124599EDF0011245993884
:10624000F10112459983F10112459995F101124529
:1062500099D5F1011245990AF20112459958F201B6
:1062600012459987F201124599AAF201124599F750
:10627000F2011245997CF30112459996F5011245F8
:1062800099D5F70112459916F801124599B8F90107
:10629000124599F9F9011245996CFA01124599C212
:1062A000FA0112459945C70212459943C8021245A1
:1062B00099DCCE02124599FDD002124599C8D2024E
:1062C00012459930D402124599619A0112459910EC
:1062D0009B011245993D9B01124599839B011245F3
:1062E00099C39C01124599599E01124599D39E016B
:1062F000124599EE9E01124599699F01124599C375
:10630000A00112459923A20112459929A301124522
:10631000998AA401124599A3A40112459901A501E6
:10632000124599EFA50112459922A60112459992AD
:10633000A6011245990CA70112459956A7011245CD
:106340009920A801124599F5A801124599D4A901EF
:106350001245995FAA01124599CDAA0112459941AA
:10636000AB011245996CAB011245992BAC0112455A
:106370009990AD01124599ADAD01124599CCAD0191
:10638000124599BDAE01124599E2AE011245990C34
:10639000AF0112459987AF01124599E1AF0112454E
:1063A000994AB101124599F8B10112459939B201E2
:1063B00012459971B902124599BFB902124599CB9C
:1063C000B902124599A9BA02124599DABA021245E0
:1063D000990BBB021245998BBB02124599C3BB02B4
:1063E00012459915BC0212459952BC021245996F8B
:1063F000BE0212459995C00212459980C20212450B
:10640000996AC402124599EF7F00124599DC6B002E
:106410001245990C6C00124599E572001245996A73
:106420007400124599677A001245994F7B00124516
:10643000998C7B00124599AF7B00124599E07B0057
:10644000124599E97B00124599F37B00124599E1C9
:106450007C00124599D77D0012459969B201124519
:106460009968B6011245996EB601124599A9BD0108
:10647000124599C2C201124599B5CC031245994BF8
:10648000CD0312459961CD03124599D7CD0312452D
:10649000994BCE0312459989CE03124599FDCE033F
:1064A00012459976CF031245997FCF031245998BF8
:1064B000CF03124599A0CF03124599DECF031245B1
:1064C00099F4CF0312459953D00312459968C80334
:1064D00012459975C8031245998FC803124599CE84
:1064E000C8031245990CC90312459971C903124595
:1064F0009986C90312459991C9031245999EC9030A
:10650000124599B5C903124599C3C903124599CEDD
:10651000C903124599DAC903124599E9C90312451D
:1065200099F4C90312459917CA03124599BECA03C3
:10653000124599CECA03124599E8CA031245990536
:10654000CB0312459921CB0312459946CB03124543
:106550009951CB0312459966CB031245997ACB0327
:10656000124599DBCB03124599E1CB03124599E71C
:10657000CB03124599EDCB0312459905CC03124587
:106580009938CC03124599629D02124599E69D0205
:10659000124599959E02124599F49F02124599154C
:1065A000A20212459901A30212459936A30212458F
:1065B0009958A30212459907A402124599FFA50212
:1065C00012459928A602124599BAA602124599ECDD
:1065D000A602124599F9A60212459950A702124542
:1065E0009976A702124599E3A902124599E6AA02F3
:1065F0001245993EAB02124599F18E02124599FB64
:106600008F02124599E29002124599EC90021245D0
:10661000990E91021245991A9102124599B392026C
:10662000124599E29202124599FE9302124599573A
:106630009402124599BD95021245999C9602124505
:1066400099F89602124599659702124599A097020A
:10665000124599DF9702124599989A02124599B20C
:106660009A021245993E9B021245994C9B02124593
:1066700099A59B02124599B39B02124599269C024B
:106680001245998A9C02124599D49C021245992D73
:10669000E1021245994FE10212459975E302124554
:1066A000998AE602124599A2E70212459955E80235
:1066B00012459937E90212459975EE031245999AE8
:1066C000EE031245990CEF03124599999003124578
:1066D00099A29003124599AB9003124599829103B8
:1066E000124599339303124599699303124599A36F
:1066F0009303124599D993031245991394031245B4
:1067000099479403124599739403124599BC9403D5
:10671000124599F694031245993F950312459997AE
:106720009503124599CC9503124599279603124576
:1067300099619603124599B29603124599E896031A
:106740001245992297031245995097031245997360
:106750009703124599F3F8031245991FF90312455F
:10676000997AF90312459984F90312459994F9032A
:1067700012459974AB031245997EAB03124599BC3F
:10678000AB0312459905AC031245993FAC03124582
:106790009999AC03124599BAAC03124599C3AC035D
:1067A00012459914AD031245993DAD031245994721
:1067B000AD03124599B3AD0312459941AE0312459D
:1067C000998FAE03124599C5AE031245994CAF039C
:1067D0001245998CAF03124599C4AF03124599D65F
:1067E000AF03124599F5AF03124599FEAF03124569
:1067F00099BDB0031245995CF603124599BCEA03B2
:10680000124599F2EA0312459928EB031245998142
:10681000EC031245999EF903124599B4F903124508
:1068200099BEF90312459908FA031245992DFB0305
:1068300012459974BF031245998DBF0312459931D2
:10684000C00312459971C0031245998AC0031245CD
:1068500099BEC0031245990BC1031245993FC1036C
:1068600012459981C10312459981C303124599EEDE
:10687000C30312459917FF0212459940FF021245C2
:106880009969FF02124599ABFF021245991CD40386
:106890001245998CD40312459998D4031245992531
:1068A000D5031245995CE3031245998CE303124525
:1068B000999FE303124599D5E303124599F3E30346
:1068C0001245993EE403124599D4E40312459951C7
:1068D000E5031245998DDA03124599B2DA031245A0
:1068E00099DEDA03124599E4FB0312459978C70152
:1068F000124599DCC9011245998ECB011245998048
:10690000CC0112459905CD0112459983CD0112455F
:1069100099B0CD01124599D4D0011245994ED101BB
:106920001245993DD20112459977D201124599B786
:10693000D20112459971D401124599C4D40112456E
:10694000990DD5011245997BD501124599ADD50117
:10695000124599C5D501124599DAD601124599EA31
:10696000D6011245991AD8011245993CD801124511
:106970009972D80112459917DA0112459956DA0130
:1069800012459976DB0112459988FC03124599F569
:106990007F00124599E3FF01124599EEFF01124570
:1069A0009975FC031245992DF8031245993DF8039A
:1069B00012459952F803124599E6F8031245995881
:1069C000F503124599DDF50312459943F603124587
:1069D00099FCF20312459930F30312459959F303D8
:1069E000124599D0F303124599F27F00124599ECB4
:1069F000FA0112459903FB011245997CFB011245EE
:106A00009955FC0112459913FF0112459978FF0130
:106A1000124599CFFF01124599F87F001245998DD3
:106A2000E80312459912EA0312459973EA031245E5
:106A300099B9EA0312459982D7031245991DD803E3
:106A4000124599DFD80312459951D9031245997916
:106A5000D90312459982D903124599F1D9031245F8
:106A60009980DA031245998ADA03124599369F0311
:106A7000124599739F031245998F9F0312459953AD
:106A8000A0031245993CA103124599CFA2031245D8
:106A90009936A30312459919A403124599A0A4039A
:106AA000124599B0A5031245991AF0031245996F42
:106AB000F003124599DDF0031245994DF10312459B
:106AC0009922E6031245994CE60312459921E70302
:106AD00012459915E80312459969880312459926CC
:106AE00089031245996189031245998989031245E1
:106AF00099EB8903124599378A03124599908A03C5
:106B0000124599218B03124599238C03124599E074
:106B10008D03124599628E03124599C78E03124563
:106B200099DE8E03124599EE8F031245992C90033E
:106B30001245998CAB0212459916AF021245999EE7
:106B4000B002124599F5B00212459914B1021245EE
:106B50009992B10212459930B30212459914B402C8
:106B6000124599FEB702124599CEB8021245999581
:106B7000F60212459943F902124599C8FB021245E3
:106B80009900FD0212459941FD02124599ACFE02A1
:106B9000124599D9FE02124599F4A5031245993977
:106BA000A60312459956A60312459990A7031245CC
:106BB0009921A8031245991AA903124599DAAA0343
:106BC00012459913AB031245992BFC0312459957B3
:106BD000FC03FFFFFFFFFFFFFFFFFFFFC082C0833B
:106BE000900578E4F090057774FFF0900590E4F05C
:106BF00090058F74FFF0900574F0900573E4F090A9
:106C00000572F0900575F0A3F0027BA874E81249B4
:106C10009074FE124920900575E0F516A3E0F51773
:106C2000E516451770061262D80272DB851682855A
:106C30001783E014601814601524FE601124C470DA
:106C400003026EB324C07003026EB30272DBE0F97C
:106C500012641C8A0A8B0BAE0AAF0B9003D0E07053
:106C600003026DE6126374E9F875F003A4C8AAF094
:106C70002AF974D328F8740339F9851A82851B839D
:106C8000E8F0A3E9F0851A82851B83E0F8A3E0F51C
:106C9000838882E0F518A3E0F519EE4F7003026DCA
:106CA000C01264B88A0A8B0B8C0C8D0D750E0175A1
:106CB0000F00751000751100780A790E12473E75A5
:106CC0000EFF750FFF7510FF780A790E12479F753A
:106CD000121A751300751400751500780A124B9F6F
:106CE000851882851983A3A31247F612592C7404C0
:106CF0001249368A0E8B0F8C108D117812790E1274
:106D000045D85003026DC0851882851983A3A375E9
:106D10000EE7750FFF7510FF7511FF780E124751C2
:106D2000780E124B9F8E828F83A3A31247F61258C0
:106D3000D37404124936E96003026DC0750E0775FD
:106D40000F00751000751100780A790E12473E7811
:106D50000A124B9F8E828F83A3A31247F61258D339
:106D60007404124936E97053750A008E828F83E0ED
:106D7000640160030272DBEE65167003EF65176055
:106D8000031262F0E50A70301264B88A0A8B0B8C29
:106D90000C8D0D750E03780A790E12473E750EFFA5
:106DA000750FFF7510FF780A790E12479F8E828F3C
:106DB00083A3A3780A1247E70270D3750A0180AB58
:106DC000851A82851B83E02404FEA3E03400FF8E35
:106DD000828F83E0F91264528E828F83E09003D118
:106DE000F079020271DCEE65167003EF651770032F
:106DF0000272D88E828F83E0640160030272DB121C
:106E000062F01264B88A0A8B0B8C0C8D0D750E0A19
:106E1000750F00751000751100780A790E12473E43
:106E2000780A124B9F8E828F83A3A31247F61258C3
:106E3000D37404124936E970771264B88A0A8B0B4E
:106E40008C0C8D0D750E03780A790E12473E750E67
:106E5000FF750FFF7510FF780A790E12479F8E821B
:106E60008F83A3A3780A1247E79003A3E06402701C
:106E70002C8E828F83A3A3750A00750B08750C00F6
:106E8000780A124751780A790E12479FEE240EF5C0
:106E900082EF3400F583780A1247E78013EE240E60
:106EA000F582EF3400F58374FFF0A3F0A3F0A3F0B4
:106EB0000272CE9003D0E070030271F8126374E99D
:106EC000F875F003A4C8AAF02AF974D328F874035B
:106ED00039F9851A82851B83E8F0A3E9F0851A82C7
:106EE000851B83E0F8A3E0F5838882E0F518A3E032
:106EF000F5199003D1E0F875F003A4C8AAF02AF9B7
:106F000074D328F516740339F517900573E0540708
:106F100070030270F8A3E0F912641C8A0A8B0BAEAE
:106F20000AAF0BEE4F70030270F81264B88A0A8B36
:106F30000B8C0C8D0D750E01750F00751000751101
:106F400000780A790E12473E750EFF750FFF751017
:106F5000FF780A790E12479F75121A75130075147F
:106F600000751500780A124B9F851882851983A336
:106F7000A31247F612592C74041249368A0E8B0F4D
:106F80008C108D117812790E1245D850030270F8CA
:106F9000851882851983A3A3750EE7750FFF7510F9
:106FA000FF7511FF780E124751780E124B9F8E829B
:106FB0008F83A3A31247F61258D37404124936E9FB
:106FC00060030270F8750E07750F007510007511DB
:106FD00000780A790E12473E780A124B9F8E828FF4
:106FE00083A3A31247F61258D37404124936E970EA
:106FF00005750C008003750C01851682851783A327
:10700000A3A3A3E0F875F08AA4C8AAF02AF974A78C
:1070100028F50A740539F50BAA0AFB12644CAA0A72
:10702000AB0B126446750E80780E124BA37C007D6C
:1070300060E50A2406FAE50B3401FB1263DA7402F8
:10704000124936A80AA90B906195E0C0E0E82486B1
:10705000F582E93401F583D0E0F0906196E0C0E07C
:10706000E82487F582E93401F583D0E0F090619758
:10707000E0C0E0E82488F582E93401F583D0E0F04F
:10708000906198E0C0E0E82489F582E93401F58355
:10709000D0E0F08E828F83E06401705C1262F0E5D4
:1070A0000C70301264B88A0A8B0B8C0C8D0D750E27
:1070B00003780A790E12473E750EFF750FFF7510A3
:1070C000FF780A790E12479F8E828F83A3A3780AD6
:1070D0001247E7851882851983A3A3750AF1750BFA
:1070E000FF750CFF750DFF780A124751750EFF757D
:1070F0000FFF7510FF0272A3851A82851B83E0F8CB
:10710000A3E0F9E516687003E5176970030271D60C
:10711000851682851783A3A3A3E070030271B5854A
:107120001682851783A3A3A3A3E0F875F08AA4C8E9
:10713000AAF02AF974A728FE740539FFEEFAEFFBCE
:1071400012644CEEFAEFFB126446750A80750B0070
:10715000780A124BA37C007D60EE2406FAEF34011E
:10716000FB1263DA7402124936906195E0C0E0EEDA
:107170002486F582EF3401F583D0E0F0906196E04B
:10718000C0E0EE2487F582EF3401F583D0E0F09083
:107190006197E0C0E0EE2488F582EF3401F583D0FA
:1071A000E0F0906198E0C0E0EE2489F582EF3401D0
:1071B000F583D0E0F0851A82851B83E02404FEA3CA
:1071C000E03400FF8E828F83E0F91264528E828F4A
:1071D00083E09003D1F079029003D1E0FA75F003D7
:1071E000A4CAA8F028FB74D32AFA74033BFB1251FB
:1071F00016AA18AB190272D8900573E054077003F1
:107200000272DBA3E0F912641C8A0A8B0BAE0AAF90
:107210000B8E828F83E0640160030272DB1262F0E6
:107220001264B88A0A8B0B8C0C8D0D750E0A750FC3
:1072300000751000751100780A790E12473E780A21
:10724000124B9F8E828F83A3A31247F61258D374DA
:1072500004124936E970771264B88A0A8B0B8C0CD9
:107260008D0D750E03780A790E12473E750EFF7567
:107270000FFF7510FF780A790E12479F8E828F8359
:10728000A3A3780A1247E79003A3E06402702C8E50
:10729000828F83A3A3750A00750B08750C00780A0A
:1072A000124751780A790E12479FEE240EF582EFAD
:1072B0003400F583780A1247E78013EE240EF58236
:1072C000EF3400F58374FFF0A3F0A3F0A3F0900572
:1072D000747401F0EEFAEFFB126416740212493670
:1072E0007F10024A6274F0124990EAFEEBFFEE242E
:1072F00002F8EF3400F9880A890BEE2406F8EF341F
:1073000000F9880C890D8882F583124BBA850A82B0
:10731000850B831247F61264947402124936850C69
:1073200082850D83124BBA850A82850B831247F63C
:107330001264887402124936EE240EF582EF34008E
:10734000F5831247F612649A8E828F83E064407050
:107350001CEE2412F8EF3400F988828983E09060F3
:1073600064F088828983A3E0906065800690606401
:10737000E4F0A3F0900575EEF0A3EFF0EE2416F51F
:1073800082EF3400F583E0F8A3E0F58388821249A8
:107390008E906054E4F0A3F0A3F0A3F0A3F0A3F068
:1073A000A3F0A3F0A3F0A3F0A3F0A3F0906182E018
:1073B000C2E6F07591BFEE2415F582EF3400F58337
:1073C000E0640170031264D0E5E170FCEE2414F572
:1073D00082EF3400F583E0F46003E0F5E1EE24157C
:1073E000F582EF3400F5837401F09003A9E06401A5
:1073F00070731264B88A0A8B0B8C0C8D0D780A128C
:107400004B9F8E828F83A3A31247F612592C7404CC
:107410001249368A0A8B0B8C0C8D0D750E05750F73
:1074200000751000751100780A790E124617740362
:10743000780A124706E50A24F4F50AE50B3401F54B
:107440000B900542E060031267F4E4F50CF50D784B
:107450000A124B9F7A207B009003A2E0F912684841
:1074600074041249367F08024A6274F01249908906
:107470000A74FF650A60030275C2900573E0540741
:107480007003027A607800900577E06404703CE84D
:1074900075F018A4F8A9F0747828F582740539F508
:1074A00083E06401702E7A0078727905888289837E
:1074B000A3A3A3A3A3E06404707688828983A3A313
:1074C000A3A3A3A3E06401706780530890058FE035
:1074D000640460BB7800900577E064017067E8752C
:1074E000F018A4F8A9F0747828F582740539F583AA
:1074F000E0640170597A007872790588828983A3E3
:10750000A3A3A3A3E0640160030275A48882898316
:10751000A3A3A3A3A3A3E0640160030275A4EA7577
:10752000F018A4F8A9F0747728FA740539027A5D86
:107530000AE82418F8E93400F9EAC3940250030277
:1075400074AC027A600890058FE064016090780066
:10755000900577E064027061E875F018A4F8A9F06E
:10756000747828F582740539F583E0640170537AE4
:10757000007872790588828983A3A3A3A3A3E0641A
:1075800002707488828983A3A3A3A3A3A3E06401E8
:107590007065EA75F018A4F8A9F0747728FA7405F4
:1075A00039FB80690AE82418F8E93400F9EAC39441
:1075B0000250030274FB027A600890058FE06402B7
:1075C00060967A007872790588828983A3A3A3A341
:1075D000A3E0650A703A88828983A3A3A3A3A3A327
:1075E000E06401702BEA75F018A4F8A9F07477280C
:1075F000FE740539FF802C0AE82418F8E93400F9F4
:10760000EAC3940250030275757A007B00027A6423
:107610000AE82418F8E93400F9EAC3940240A97E84
:10762000007F007800900577E0650A701BE875F030
:1076300018A4F8A9F0747828F582740539F583E068
:107640006401700D7A01800B0890058FE0650A6077
:10765000DC7A00E50A1460101470030277C724FE78
:1076600070030278D1027A607800900577E06402B6
:107670007055E875F018A4F8A9F0747828F58274AC
:107680000539F583E0640170477B007872790588DD
:10769000828983A3A3A3A3A3E064026003027735D6
:1076A00088828983A3A3A3A3A3A3E0640160030248
:1076B0007735EB75F018A4F8A9F0747728F50C74F9
:1076C0000539F50D02774D0890058FE0640260A240
:1076D0007800900577E06404600302778EE875F027
:1076E00018A4F8A9F0747828F582740539F583E0B8
:1076F0006401600302779A7B007872790588828939
:1077000083A3A3A3A3A3E0640460030277A58882F4
:107710008983A3A3A3A3A3A3E0640160030277A5C5
:10772000EB75F018A4F8A9F0747728F50C740539F6
:10773000F50D0277BD0BE82418F8E93400F9EBC326
:107740009402500302768F750C00750D00EAA2E0DA
:107750005035850C82850D83A3A3750EF6750FFF3A
:107760007510FF7511FF780E124751780E124B9F5E
:107770008E828F83A3A31247F61258D37404124942
:1077800036E97003027A5AAA0CAB0D027A640890AB
:10779000058FE0640470030276DDEAA2E05021EE7A
:1077A000FAEFFB801F0BE82418F8E93400F9EBC36B
:1077B000940250030276FD750C00750D000279B33A
:1077C0007A007B00027A647800900577E0640470A8
:1077D00051E875F018A4F8A9F0747828F5827405BA
:1077E00039F583E0640170437B0078727905888203
:1077F0008983A3A3A3A3A3E064046003027883881E
:10780000828983A3A3A3A3A3A3E064017075EB758E
:10781000F018A4F8A9F0747728F50C740539F50D63
:1078200080790890058FE0640460A6780090057761
:10783000E064017069E875F018A4F8A9F07478287C
:10784000F582740539F583E06401705B7B00787222
:10785000790588828983A3A3A3A3A3E0640170525E
:1078600088828983A3A3A3A3A3A3E064017043EB4D
:1078700075F018A4F8A9F0747728F50C740539F59B
:107880000D80440BE82418F8E93400F9EBC39402A6
:1078900050030277EE750C00750D000279B3089065
:1078A000058FE06401608EEAA2E0501EEEFAEFFB65
:1078B000801C0BE82418F8E93400F9EBC39402406B
:1078C00091750C00750D000279B37A007B00027A85
:1078D000647800900577E064017055E875F018A4AD
:1078E000F8A9F0747828F582740539F583E064010D
:1078F00070477B007872790588828983A3A3A3A34C
:10790000A3E06401600302799B88828983A3A3A317
:10791000A3A3A3E06401600302799BEB75F018A4B4
:10792000F8A9F0747728F50C740539F50D0279B3D0
:107930000890058FE0640160A27800900577E0640C
:107940000260030279F2E875F018A4F8A9F07478DF
:1079500028F582740539F583E0640160030279FE3D
:107960007B007872790588828983A3A3A3A3A3E00F
:1079700064026003027A0588828983A3A3A3A3A378
:10798000A3E06401707FEB75F018A4F8A9F0747798
:1079900028F50C740539F50D027A1D0BE82418F84A
:1079A000E93400F9EBC3940250030278F8750C0037
:1079B000750D00EAA2E04003027787850C82850DF1
:1079C00083A3A3750EF6750FFF7510FF7511FF7871
:1079D0000E124751780E124B9F8E828F83A3A312F3
:1079E00047F61258D37404124936E96003027787C8
:1079F00080680890058FE064027003027946EAA26D
:107A0000E0505D80550BE82418F8E93400F9EBC329
:107A100094025003027966750C00750D00EAA2E02D
:107A20004003027787850C82850D83A3A3750EF62C
:107A3000750FFF7510FF7511FF780E124751780E04
:107A4000124B9F8E828F83A3A31247F61258D374D2
:107A500004124936E96003027787EEFAEFFB8004EF
:107A60007A007B0002746574F6124990890B750ADE
:107A700000900578E06003027B38E50A75F018A4F1
:107A8000F8A9F0747728FE740539FF8E828F83A3DE
:107A90007401F08E828F83E50BF01264B88E828FB2
:107AA00083A3A31248028E828F83A3A3A3A3A3A3BD
:107AB000E4F0A3F0EE240EF582EF3400F58374FFBA
:107AC000F0A3F0A3F0A3F0EE2414F582EF3400F558
:107AD000837401F0EE2415F582EF3400F583740110
:107AE000F0EE2416F582EF3400F583E4F0A3F09075
:107AF0000573E0450BF0900572E004F06401600C42
:107B00007480650B60067440650B7019E50A75F0AA
:107B100018A4F8A9F0747728F8740539F990057558
:107B2000E8F0A3E9F0E50A75F018A4F8A9F0747775
:107B300028FA740539FB8010750A01900590E070F1
:107B400003027A7A7A007B0080007F02024A62C0D8
:107B500082C0838A828B83E0F8A3E0F98A828B83D8
:107B6000E4F0A3F088828983A3F088828983E0F41B
:107B7000F8900573E058F0900572E014F0700B90E7
:107B80000575E4F0A3F09003A3F0801CC082C083CD
:107B9000900572E0600A900575E0FAA3E0FB8004AE
:107BA0007A007B008002E0F9D083D082024596C043
:107BB00082C083E9FB7800900577E06B7016E8756A
:107BC000F018A4F8A9F0747828F582740539F583C3
:107BD000E0F9800A0890058FE06B60E2790080C8C8
:107BE000C082C08390057380BDC082C0839005723F
:107BF000027BA674F6124990EAFEEBFF9061D0E09A
:107C0000C0E0EE2400F582EF3401F583D0E0F0907F
:107C100061D7E0F89061D5E0C398547FC0E0EE24CE
:107C200001F582EF3401F583D0E0F09061D6E0C336
:107C300098547FC0E0EE2402F582EF3401F583D042
:107C4000E0F0701A9061C5E0A2E45012E0A2E750A3
:107C50000DEE2402F582EF3401F5837480F0126595
:107C600060EE2401F582EF3401F583E07034EE24F8
:107C700002F582EF3401F583E070279061C5E0A240
:107C8000E4501FE0A2E7501AEE2402F582EF34011F
:107C9000F5837480F0EE2401F582EF3401F58374EE
:107CA00080F075E1957800EE2400F582EF3401F55F
:107CB00083E060279061D3E0C0E0880AEE250AF5F2
:107CC00082EF3400F583D0E0F008EE2400F582EF77
:107CD0003401F583E0F9E8C39940D975E191027B5D
:107CE0004A74F6124990EAFEEBFF9061C8E0C0E0EA
:107CF000EE2403F582EF3401F583D0E0F09061CFFC
:107D0000E0F89061CDE0C398547FC0E0EE2404F524
:107D100082EF3401F583D0E0F09061CEE0C3985457
:107D20007FC0E0EE2405F582EF3401F583D0E0F06A
:107D3000701A9061C5E0A2E05012E0A2E3500DEE8F
:107D40002405F582EF3401F5837480F0126566EE48
:107D50002404F582EF3401F583E07034EE2405F558
:107D600082EF3401F583E070279061C5E0A2E05016
:107D70001FE0A2E3501AEE2405F582EF3401F583EB
:107D80007480F0EE2404F582EF3401F5837480F002
:107D900012656C7A00EE2403F582EF3401F583E07E
:107DA000602F9061CBE0C0E08A0AEE250AF8EF343C
:107DB00000F9E82480F582E93400F583D0E0F00A88
:107DC000EE2403F582EF3401F583E0F8EAC398402E
:107DD000D175E181027B4A74F2124990890AA80A9E
:107DE000E875F08AA4C8AAF02AF974A728F87405DF
:107DF00039F99061C6E0FDE054F0F075E1817C0056
:107E0000E82403F582E93401F583E0602B8C0CE86B
:107E1000250CFAE93400FBEA2480F582EB3400F506
:107E200083E09061CAF00CE82403F582E93401F59F
:107E300083E0FAECC39A40D5E82405F582E93401E1
:107E4000F583E060049061CEF0E82404F582E93423
:107E500001F583E060049061CDF0ED9061C6F0A87B
:107E60000AE875F08AA4C8AAF02AF974A728F87459
:107E70000539F9E0FCE0540FF075E1917A00E8244F
:107E800000F582E93401F583E060238A0CE8250CD3
:107E9000F582E93400F583E09061D2F00AE824002D
:107EA000F582E93401F583E0FBEAC39B40DDE82479
:107EB00002F582E93401F583E060049061D6F0E8D0
:107EC0002401F582E93401F583E060049061D5F086
:107ED000EC9061C6F0850A82AE82EEF875F08AA455
:107EE000C8AAF02AF974A728F50C740539F50D75A0
:107EF0000E80750F00780E124BA3E50C2406FCE5EE
:107F00000D3401FD7A007B601263DA740212493687
:107F1000A80CA90DE82486F582E93401F583E090E8
:107F20006195F0E82487F582E93401F583E09061FA
:107F300096F0E82488F582E93401F583E0906197B2
:107F4000F0E82489F582E93401F583E0906198F046
:107F5000EE75F003A4CEA8F028FF74D32EF582743A
:107F6000033FF583E0F8A3E0F5838882E064807046
:107F7000079003A37408803F900CE27458F0A37438
:107F800064F0A37458F0A37464F0A37458F0A3745D
:107F900064F0A37458F0A37464F0A37404F0A374A1
:107FA00064F0A37458F0A37464F0A3745EF0A37437
:107FB00064F09003A37407F0900CF07404F0A374C1
:107FC00064F0A37404F0A37464F0A37404F0A374C5
:107FD00064F0A37404F0A37464F0A37404F0A374B5
:107FE00064F0A37404F0A37464F07F06024A620292
:107FF0004596024596024596851C87C2AF02459676
:10800000C082C083E9900CC0F002828F74F71249DD
:1080100090E99002E2F07C1A7D037AFF7BFF126008
:10802000149002E374FFF0A3F0A3E4F0A3F0790549
:10803000125F9C9002E2E0F9125EBE7A327B60121F
:1080400061DC7F01024A6274F41249908A0A8B0B48
:10805000EB548060309002E2E0F91267B28A0C8B38
:108060000DAE0CAF0DEE4F60138E828F83E064B0C7
:108070007003125FB4EEFAEFFB1267A0AA0AE50BD9
:108080006480FB80047A007B0002825E74F21249F5
:108090009074FC124920EAFEEBFFEE4F6038740248
:1080A00012496CEEF0A3EF1284C3ECF0A3ED12843E
:1080B000C3AA82AB83125EB8E9F50A707374121218
:1080C000496C129077E50C450D60658E828F8312A6
:1080D000813AEE4F7005750A0280557A067B0012D0
:1080E00068068A0E8B0FA80EA90FE8497005750A5D
:1080F00013803D88828983E4128144A3A3EEF0A318
:10810000EF129510E50CF0A3E50DF09002E8128156
:10811000CC9002E86017E0FCA3E08003EAFCEBFDF2
:108120008C828D831281CC70F38C828D83128F9C14
:10813000A90A7404124936029712A3A3A3A3E0FE6E
:10814000A3E0FF22F0A3F0888289832274F212490F
:1081500090890CE975F017A4FEAFF09002E7E4F007
:108160009002E51281CC600A12680C9002E5E4F0FE
:10817000A3F0EEFAEFFB1268068A0A8B0BEA450BB6
:10818000602FEEFCEFFD790012678E9002E5E50AA4
:10819000F0A3E50BF07B0080081281B6E4F0A3F0B9
:1081A0000BEBC3950C40F2E50C9002E7F0790080F0
:1081B000027913029712EB75F017A4F8A9F0900258
:1081C000E5E028FAA3E0398A82F58322128D32EAAB
:1081D0004B2274F4124990750A00750B00740C124E
:1081E000496C1294E4FEE9FF800CE50A2401F50ACB
:1081F000E50B3400F50BC3E50A9CE50B9D50328579
:108200000A0C850B0D7403780C12490DEA250CF845
:10821000EB350DF988828983A3A3A3A3A3A31290AE
:1082200077EE650C7003EF650D70BFE8FAE9FB802F
:10823000047A007B00802774F41249907900EAA246
:10824000E0501B750A8A750B81780A124BA37C04D7
:108250007D007AC27B0C125F9674021249367F044D
:10826000024A62C082C0839002E8128296601C8833
:10827000828983A3A3E06A7003A3E06B8882898369
:1082800070E8A3A3A3A3128D2E80047A007B00D0F4
:1082900083D0820245961297E5E8492274EE12498E
:1082A0009074FC124920EAFEEBFF851A82851B833D
:1082B000E4F0A3F0EE2402128F80EE24051284B1C4
:1082C000EE2404F510EF128896E024FE603924FCB9
:1082D000604624FE605224FE605E24FE700302832A
:1082E000B624FE700302842E24FE700302843D2413
:1082F000FE700302844C24FC700302845B24FE7035
:108300000302846A0284A79003017417F0A3E412A5
:1083100084CB125C360284A7851A82851B83AC82CB
:10832000AD83125FBA028477851A82851B83AC8283
:10833000AD83125FC0028477850E0A850F0B74022D
:1083400012496CAC82AD83850A82850B83128D2E17
:10835000125EDC8A0E8B0FAC0EAD0FEC4D6042E46A
:10836000F50EF50F780E124BA3750E01750F0378FD
:108370000E124BA3750E02750F03780E124BA374E9
:108380000812496C124BBA7916128D28125FFC74D0
:1083900008124936E9F50E700B128D24125C4E80DE
:1083A0000F750E01850A82850B831284B9128F9C8A
:1083B000850E0A02847A740212496CAC82AD838500
:1083C0000E82850F83128D2E125EDC8A128B13AC07
:1083D00012AD13EC4D6043850E82850F83A3A3126B
:1083E0004BBA7512017513037812124BA375120262
:1083F0007513037812124BA3740812496C124BBA0E
:108400007916128D28125FFC7408124936E9F50BB3
:10841000700B128D24125C54800F750B01850E8237
:10842000850F831284B9128F9C850B0A804C851AA4
:1084300082851B83AC82AD83125FC6803A851A8227
:10844000851B83AC82AD83125FCC802B851A82851D
:108450001B83AC82AD83125FD2801C851A82851B80
:1084600083AC82AD83125FD8800D851A82851B8311
:10847000AC82AD83125FDEE9F50AE50A60298E82DF
:108480008F83A3E06414601F851082851183E090C0
:1084900003011284C31297E1900302128F9CE50A34
:1084A000A31284CB125C30EEFAEFFB125F5A028EFD
:1084B00088F50EEF3400F50F221297E5851A8285B4
:1084C0001B8322F0851A82851B8322F07C017D03A9
:1084D000850C82850D83128D322274EE12499074C0
:1084E000FC1249208A0C8B0D8C108D11EA2405F5A5
:1084F0000AEB3400F50B7C157D0079007A017B03D3
:1085000012678EE50A2402F50EE50B1284B4851A73
:1085100082851B838582128583137812124BA38573
:108520000A82850B83A3A3A3A31289DE124BA3E5C2
:108530000A2405F512E50B3400F5137812124BA34B
:10854000850E82850F83128D38125ED6740612490D
:10855000368A128B13AE12AF13E50C2402F50CE52C
:108560000D128F83EE4F70030286A08017740212E3
:10857000496C128D2E88828983EAF0A3EBF0900378
:1085800001E004F0900301E0C3940540030286A0DB
:10859000E4F512F5137812124BA37512EA75130263
:1085A0007812124BA37512EB7513027812124BA3BB
:1085B000740612496C124BBA7910EEFCEFFD128D65
:1085C00028125FFC7408124936E9705E850A8285BC
:1085D0000B83A3A3A3A3A3A3A3E0F89002EAE068FC
:1085E00070481289DE124BA37CEB7D02E50A240859
:1085F000FAE50B3400FB1267887402124936E96011
:10860000298E828F83A3A3A3A3128D2E900301E052
:10861000F5127402781212490D74022512F5827453
:10862000033513F583EAF0A3EBF0740212496C856D
:1086300082128583137812124BA3740212496C12B2
:108640004BBA850E82850F831297F6125EE2740490
:108650001249368A128B13AE12AF13900301E0F564
:10866000127513007402781212490D74012512F864
:1086700074033513F988828983A31281CC700302B5
:108680008564E82403F8E93400F9EE4F60030285BD
:108690006D8882898374FFF0A3F0900301E004F0F9
:1086A000900301E0600A128D24125C427900800B75
:1086B000850A82850B83128F93790A028E8874EA69
:1086C00012499074FE1249208C148D15EA2405F588
:1086D0000EEB12996012813E750A00750B00EA24B8
:1086E00002F512EB3400F513851A82851B8385820F
:1086F0000C85830D780C124BA3850E82850F83A306
:10870000A3A3A31288A0124BA3E50E2405F50CE544
:108710000F128F83780C124BA3850E82850F831264
:1087200097F4125ED674061249368A0C8B0DEA4510
:108730000D7003028851EA2404F510EB128896129A
:10874000813E8A828B83A3A3A3E0F98512828513DD
:1087500083128D2E125EC4E9F50B6003028851E48A
:10876000F516F5177816124BA37516EA75170278E9
:1087700016124BA37516EB7517027816124BA374DD
:108780000612496C124BBA7913AC0CAD0D851282EE
:10879000851383128D2E125FFC7408124936E9F599
:1087A0000B60030288519002EAE0F8E50A7009E0E4
:1087B0002402900302F08017900302E0FCE82402F8
:1087C000FAE43400FBEA6C7001EB60030288558523
:1087D0000A82AA821289D594141289CD5073851009
:1087E00082851183E0C0E074032A12888DD0E0F006
:1087F000050A851082851183A3E0C0E0850A0C7408
:1088000003250C12888DD0E0F0050A9002EA128848
:10881000A0124BA37CEB7D02850A0C7403250CFA95
:1088200074033400FB12677674021249369002EA30
:10883000E0250AF50A74FF6E700374FF6F6012EE94
:1088400024010EEF3400FFE50AC39414500302869E
:10885000E8E50A6013128C19851282851383128D44
:108860002E125C4879008014E50B7003750B0A85A5
:108870001482851583EEF0A3EFF0A90B7402124960
:10888000367F0E024A62850A0E7403250EF5827445
:10889000033400F583223400F511851082F583221C
:1088A0001295232274EE12499074FE1249208C1006
:1088B0008D11EA2405F50EEB1284B4750D009003BA
:1088C00001E4F0F50CEA2402F50AEB3400F50B8024
:1088D00049900301E0FA9002EAE0F81289D5941772
:1088E0001289CD400D900301E0F87416C3989002F0
:1088F000EAF01289DE124BA37CEB7D0274022AFAA5
:1089000074033400FB12677674021249369002EA4F
:10891000E0F8900301E028F0050CE50E2416F5823E
:10892000E50F128891E0F8E50CC39840030289B680
:10893000900301E0C39416507DE50CC333F8E43393
:10894000F9E50E28FEE50F39FF851A82851B83ACF9
:1089500082AD838E828F83128D2E125EDC8A128B03
:1089600013AC12AD13EC4D7005750D018043E4F5A9
:1089700012F5137812124BA37512EA7513027812CE
:10898000124BA37512EB7513027812124BA37406E7
:1089900012496C124BBA7916850A82850B83128DA7
:1089A0002E125FFC7408124936E9F50D7003028837
:1089B000D1128F8F80107C017D03850A82850B8305
:1089C000128D2E125C5AA90D7402028E8AE994004F
:1089D000C365D03322EA28F8E43400F9E822E0F550
:1089E0001275130078122274EA12499074FC12492D
:1089F000208A0E8B0F8C148D15EA2405F50CEB12D2
:108A00008F83750A00750B00E50C2402F512E50D45
:108A10003400F513740212496C8582108583117835
:108A200010124BA3850C82850D83A3A3A3A31294DC
:108A3000CF124BA3E50C2405F510E50D3400F5111C
:108A40007810124BA3851282851383128F89128DA1
:108A500028125ED674061249368A108B11AE10AFFA
:108A600011E50E2402F510E50F3400F51180408861
:108A700082898374FFF0050A12888674FFF0050A64
:108A80009002EAE0F50E750F00780E124BA37CEB16
:108A90007D02850A0E7403250EFA74033400FB125E
:108AA000677674021249369002EAE0250AF50AEE6A
:108AB0004F60718E828F83A3A3A3E0F98510828516
:108AC0001183128D2E125EC4E9F50BEE240412847C
:108AD000B1E97044E4F516F5177816124BA3751634
:108AE000EA7517027816124BA37516EB7517027804
:108AF00016124BA3740812496C124BBA7911EEFC92
:108B0000EFFD851082851183128D2E125FFC740893
:108B1000124936E9F50B6027850E82850F83128C8A
:108B20000F128F9CE50A7003028BF5128C198510C9
:108B300082851183128D2E125C607900028C0A8569
:108B40000A82AA82EA9002EA7009E02404900302F1
:108B5000F08022E0F8900302E0F516E82404FCE43B
:108B60003400FDEC65167001ED70C01289D59412C9
:108B70001289CD50B6850E82850F83E0C0E0740364
:108B80002A12888DD0E0F0050A850E82850F83A316
:108B9000E0C0E0128886D0E0128C2B85820E85839F
:108BA0000F780E124BA3740412496C124BBA851243
:108BB000828513831297F6125EE274041249368A94
:108BC0000E8B0FAE0EAF0F850A0E7403250EF874D0
:108BD000033400F9EE4F7003028A6F851A82851BF9
:108BE00083E088828983128C2BA3E0C0E012888600
:108BF000D0E0028A7DE50B7003750B0A850C828537
:108C00000D83128C0F128F9CA90B740402887E12A4
:108C100097E585148285158322900302E0F5F0E53F
:108C20000A84900301F07C017D0322F0050A851A75
:108C300082851B832274EC12499074FE1249208AAB
:108C40000A8B0B8C108D11EA2405FEEB3400FF8596
:108C50001A82851B83AC82AD838E828F83128D2E08
:108C6000125EDC8A0C8B0DEE24181284B1EA450DDD
:108C70007003028CFF128E715032851A82851B831D
:108C8000128D2E125FF08A128B13EA4513606B79F6
:108C900012AC0CAD0D850A82850B83128D2E8512C8
:108CA0008285138312498EE9F50C7058E4F50CF5B2
:108CB0000D780C124BA38E828F83A3A3E0F50C7862
:108CC0000C124BA3EE2403128F80780C124BA38E50
:108CD000828F83128D381260027406124936E9F5CC
:108CE0000C7021850E82850F83E0701F850A8285B6
:108CF0000B83128D2E125C668011750C0E80097527
:108D00000C018004E50C6003128F8F850E82850FA5
:108D100083E0600479008002A90C74021249367F56
:108D20000C024A627C017D03850C82850D83128DC5
:108D30003222E0FAA3E0FB22E0FCA3E0FD850A82F8
:108D4000850B83128D322274EE12499074FE124903
:108D5000208A0A8B0B8C0E8D0FEA2405FEEB340063
:108D6000FF751000851A82851B83AC82AD838E82CD
:108D70008F83128D2E125EDC8A0C8B0DEA450D70EE
:108D800003028E5D128E715035851A82851B831207
:108D90008D2E125FF08A108B11EA4511605E7912F8
:108DA000AC0CAD0D850A82850B83128D2E85108249
:108DB00085118312498EE9F5106003028E60850AE1
:108DC00082850B83129077AA0CFB125FE48A128BC8
:108DD00013A812A913E849701E7AFF7BFF125FE403
:108DE0008A128B13A812A913E849606C88828983C0
:108DF000E50CF0A3E50DF0750C00800775100E80F2
:108E00005F050C9002E7E0FAE50CC39A504AE50CC6
:108E100075F017A4FAABF088828983A3A3E02AFA3D
:108E2000A3E03BFB8A828B83128F89EC4D70D27555
:108E30000C17750D00780C124BA3EEFCEFFD1267BA
:108E4000767402124936EEFCEFFD850A82850B83AB
:108E5000128D2E125C6C8014751009800375100140
:108E60001297DD850E82850F83128F9CA9100289CF
:108E7000C8E50A2402F50AE50B3400F50B8A828B5B
:108E800083A3A3A3E0A2E52274041249367F0A0259
:108E90004A6274EC1249908C128D13EA2405F50E87
:108EA000EB1284B4751100EA2402F50CEB128F83E7
:108EB000850C82F583128D2E125FE48A0A8B0BEAF1
:108EC000450B7003028F757510008071850E8285C9
:108ED0000F83E06401704F8E828F83A3A3124BBA7D
:108EE0008E828F83A3A3A3A3E0F5147515007814D5
:108EF000124BA3EE2405F514EF3400F51578141287
:108F00004BA3128D281260027406124936E9F5113E
:108F10006014850E82850F83E4F01297DD8512823E
:108F2000851383128F9C7C177D007900EEFAEFFB8E
:108F300012678E8E828F83E4F0A3F005109002E713
:108F4000E0F8E510C398501EE51075F017A4F8A9D5
:108F5000F0850A82850B83A3A312996A128F89EC8C
:108F60004D6003028ECC850A82850B8374FFF0A3CB
:108F7000F0E5117006128D28125C72A911028D1F86
:108F8000F50CEF3400F50D22A3E0FCA3E0FD228EEA
:108F9000828F831297E5851082851183E8F0A3E91B
:108FA000F022C082C0839002E3E06A7003A3E06B0A
:108FB00070067AE37B0280047A007B0002828FC015
:108FC00082C08378008C828D83E06A7003A3E06B9B
:108FD0007010E875F003A4F8A9F0EC28FAED39FB5D
:108FE0008015088C828D83A3A3A3E06A7003A3E09D
:108FF0006B60DF7A007B0002828F74F61249901258
:109000005FAE8A828B83E582458370067A007B009F
:109010008007A3A3A3A3128D2E02968E74F2124989
:1090200090E9FE740E12496C129077741012496C1C
:109030001294EF8C828D83E064027036A31297EB5A
:10904000F50EA3E0F9A80E74026870037429697024
:1090500021750E02750F00780E124BA3780A124B81
:10906000A3780C124BA3EEF912602674061249364F
:1090700080027901029712E0F50CA3E0F50D22744D
:10908000E812499074FB124920E9851A82851B83F6
:10909000F08A188B19ECFEEDFF751200741D124951
:1090A0006C1297E1741D12496C128F9C8E828F8313
:1090B000A3A3A3E0A2E4502D741D12496C128D2EBF
:1090C000125FF08A828B83E582458370030294C02D
:1090D000790AEEFCEFFDAA18AB1912498EE9F512D8
:1090E00060030294C3741F12496C1294EF7421122E
:1090F000496C129077742312496CE0F510A3E0F5E7
:10910000118E828F83E06402600302946EA3129733
:10911000E1850A82850B83A3858214858315EE245D
:10912000061284B188828983E0FAA3E0F9EA240078
:10913000F516E439F5177816124C2D0100002801B8
:109140002863910700022828920328959100295F3F
:109150009301298A9302292B9303295F93042909F8
:10916000946E94E51045116003029469850E828522
:109170000F831294E4FAE9FB8A828B83E0850C82E8
:10918000850D8312951A124BA38A828B83A3E0FC70
:10919000A3E00293F3E51045116003029469850C86
:1091A00082850D837401F01294F7850A82850B8302
:1091B000F07C007D008E828F83A3A3A3A3E0240113
:1091C000FAA3E03400FB125EDCEA4B60418A828B3A
:1091D00083E02402F8850C82850D83E028F0EA24E0
:1091E00004F8EB3400F988828983E08514828515C0
:1091F0008312952C12951A124BA38A828B83128F9D
:1092000088E50A2403FAE50B3400FB0293F8850C89
:1092100082850D83E02404F07C047D007900AA148B
:10922000AB1512678E0294C3E510451160030294DA
:10923000691294F7FEA3E0FF850C82850D83740408
:10924000F0EE850A82850B83F0EF85148285158305
:10925000F0740312496CAC82AD83EEFAEFFB125E40
:10926000DC8A0E8B0FEA450F700302930C8A828B07
:1092700083A3A312813A740112496C8582108583FD
:10928000117810124BA3740512496C124BBA7CFF73
:109290007DFF125EE274041249368B11EA451170AB
:1092A00033850E82850F831294CF124BA3850E82D5
:1092B000850F83A3124BBA7C027D007A477B821212
:1092C0005D0E7404124936E9700A740112496C7417
:1092D000FFF0A3F08E828F83E064027039750E0276
:1092E000750F00780E124BA38E828F83128F88E544
:1092F0000A2404FAE50B3400FB1267767402124963
:1093000036850C82850D83E02402800974011249A0
:109310006CEEF0A3EFF0740112496C1294E0F0745B
:109320000112496CA31294D8029463E510451160B0
:1093300003029469850E82850F83128F89AA18AB68
:109340001912601A850C82850D837402F0EA850A71
:1093500082850B83F0851482851583EB029466E584
:1093600010451160030294691294F7F8A3E0F9859F
:109370000C82850D837402F0E8850A82850B83F0E8
:10938000E9851482851583029466850E82850F8394
:10939000128D2E126770EAFC8C82A882C39510E4AD
:1093A0009511405FE865107002E51170047C008043
:1093B00022851A82851B83E0FAE5102AFAE511342A
:1093C00000FBC3EA98EB94005003E08005E510CC65
:1093D000C39CFCEC850C82850D83F08C0C750D0014
:1093E000780C124BA3850E82850F83E02510FCA319
:1093F000E03511FDAA0AAB0B1267767402124936EA
:109400000294C37512070294C3E5104511705A8582
:109410000E82850F831297E1850C82850D83740778
:109420001281461294D8128146A3E08514828515D4
:1094300083F0E82402FAE93400FB8A828B831294D9
:10944000D81295071294E0A31295101294E9F0E84F
:109450002405F8E93400F9888289831294E9A3127B
:10946000952CA3A3A3A3F0805A75120B8055741DED
:1094700012496C128D2E125FAE8A828B83E5824573
:1094800083603D1297E1880E890FE8450F603178BF
:1094900010124BA3780C124BA3780A124BA374063C
:1094A00012496CE0F9EEFCEFFDAA18AB19850E82AB
:1094B000850F8312498E7406124936E9F51280032E
:1094C00075120EA91274051249367F10024A62E025
:1094D000F510751100781022E0850A82850B832231
:1094E000129536221297E5E822129536A3A322E0C0
:1094F000F50AA3E0F50B22850E82850F83E0F8A321
:10950000E0F5838882E022A3A3F08A828B83A322E2
:10951000F088828983A3A3A3A322F08A828B83127B
:10952000952322E0F50C750D00780C22F0888289D5
:1095300083A312953622E0850A82850B83A3A3229A
:1095400074EE12499074FE1249208A0C8B0DECFACD
:10955000EDFB741412496CE0F512A3E0F5137416D8
:1095600012496CE0FE741812496CE0F510A3E0F5A6
:1095700011851A82851B83AC82AD83125EDC8A0E54
:109580008B0FEA450F6049851A82851B83128D2E49
:10959000125FAE8A828B83E5824583602FA3A3127C
:1095A00094EFE50A450B60247810124BA378121251
:1095B0004BA3EEF9AC0EAD0FAA0CAB0D850A82855C
:1095C0000B8312498E74041249368006790E80028C
:1095D00079010289C874F612499074FE1249207408
:1095E0000C12496C1294E4851A82851B83F0740175
:1095F00012496CE9F0E4F50AF50B780A124BA375F1
:109600000A02780A124BA3740412496C85820A85F7
:10961000830B780A124BA312600274061249367447
:1096200002124936806874F7124990EAFEEBFF890E
:109630000A7C1A7D0312601AEA5402600BA90AEE32
:10964000FAEFFB125ED08002790102804274F612BA
:10965000499074FF6A700374FF6B70168C828D835F
:10966000129693E4F08C828D83A3A3A3129693A306
:109670008018125FEA8A0A8B0BA80AA90BE84960D6
:109680000D8882898374FF128144A3A3E4F07F02D2
:10969000024A6274FFF0A3F08C828D83A3A322742C
:1096A000F6124990125FEA8A828B83E582458360D5
:1096B00006A3A3E0FA80027A007B0080D174F21244
:1096C00049908A0A8B0BECFEEDFF740E12496CE098
:1096D000F50C125FEA8A0E8B0FA80EA90FE84970ED
:1096E00026EEFCEFFD7AFF7BFF125FEA8A0E8B0FFE
:1096F000A80EA90FE8497004791180168882898321
:10970000E50AF0A3E50BF088828983A3A3E50CF0BA
:1097100079007F06024A6274EE124990EAFEEBFF7E
:109720008C0A8D0B890E741412496C1297E1741611
:1097300012496C128D2E750F00E84960030297D50F
:109740007402650E60030297D0741212496C12976E
:10975000EBFCA3E0F9EC2400F510E439F511EAF490
:10976000F8EBF4F9EC58F8E51159F9E849705CE5C3
:109770000A2406F8ED3400F9880C890D8882F583F7
:109780001297F612601A8A128B13E5106512700494
:10979000E511651360427810124BA3850C82850D8C
:1097A000831297F61260207402124936E9F50F70A1
:1097B000277810124BA3850A82850B83A3A31297E7
:1097C000F41260387402124936800D750F808008DB
:1097D000750F0D8003750F0BA90F028E8D8E828F72
:1097E000831297E522E0F8A3E0F9221297E5888238
:1097F0008983E022A3A3E0FCA3E0FDEEFAEFFB22C5
:1098000074E812499074E7124920851A82851B83F7
:10981000EAF0A3EBF08C188D198910750A00750B0E
:1098200000743112496CE0F514A3E0F5157433129D
:10983000496CE0F516A3E0F517743512496CE0F5B4
:1098400011E50B75F003A4F8A9F0851A82851B8336
:1098500012996AE0F47003A3E0F4700302994DEEEC
:109860002402F50EEF129960E0700302994D8518FD
:109870000C85190D780C124BA3AC16AD17AA14ABBE
:1098800015125FA274021249368A0C8B0DEA450D3F
:10989000700302994DE4F512F5137812124BA3747C
:1098A0000612496C8582128583137812124BA374B9
:1098B0000912496C8582128583137812124BA38595
:1098C0001482851583A3A3A3A3124BBA7914AC0CFD
:1098D000AD0D8E828F83128D2E125FFC740812499B
:1098E00036E97069850C82850D83A3A3A3A3129723
:1098F000E1740212496C128F9C850E82850F83E001
:10990000A2E05018A910740212496CAC82AD838E8B
:10991000828F83128D2E125EF4E9420A850E8285B3
:109920000F83E0A2E15026E511F50C780C124BA74D
:10993000A910740312496CAC82AD838E828F83129E
:109940008D2E125EEE7401124936E9420A050BE5CE
:109950000BC394025003029841A90A74190294C7D8
:109960003400F50F850E82F58322E028FEA3E0394E
:10997000FF8E828F832274F2124990EAFEEBFF89F8
:109980000D7401650D600E7402650D706A79011227
:1099900061FAE97062EEFAEFFB125FE48A0A8B0B60
:1099A000EA450B6047750C00800B7C177D00790041
:1099B00012678E050C9002E7E0F8E50CC398502181
:1099C000E50C75F017A4F8A9F0850A82850B83A32E
:1099D000A3E028FAA3E039FB8A828B831282967077
:1099E000C9850A82850B8374FFF0A3F07C1A7D037E
:1099F000EEFAEFFB12601402971274F21249908A89
:109A00000A8B0BECFEEDFF740E12496C12907790EE
:109A10000CC0E0F4603D7A097B0012679AEA4B6063
:109A2000328A828B8374B1F0A3E4129509A3129554
:109A300007A3E50AF0A3E50B129A56EEF0A3EF1286
:109A40009A56A3A3E50CF0A3E50DF0900CC0E0F945
:109A50001267A6029712F08A828B83A3A3A3A3A303
:109A600022C082C0839061907404F0A37448F0A374
:109A70007402F09061807440F09061BC7403F090C7
:109A800061877419F0906265741BF0906249E0C3BD
:109A9000941390619C400A7409F090606674018090
:109AA00007740DF0906066E4F090619A7433F0A34F
:109AB0007455F09061A0743AF0900540E064017034
:109AC00009C2919003A7746780059003A77461F0A1
:109AD000906BD6E493906186F0906BD8E493F46039
